{
  "_format": "hh-sol-artifact-1",
  "contractName": "AIStrategy",
  "sourceName": "contracts/AIStrategy.sol",
  "abi": [
    {
      "inputs": [],
      "stateMutability": "nonpayable",
      "type": "constructor"
    },
    {
      "inputs": [
        {
          "internalType": "address",
          "name": "target",
          "type": "address"
        }
      ],
      "name": "AddressEmptyCode",
      "type": "error"
    },
    {
      "inputs": [
        {
          "internalType": "address",
          "name": "implementation",
          "type": "address"
        }
      ],
      "name": "ERC1967InvalidImplementation",
      "type": "error"
    },
    {
      "inputs": [],
      "name": "ERC1967NonPayable",
      "type": "error"
    },
    {
      "inputs": [],
      "name": "FailedCall",
      "type": "error"
    },
    {
      "inputs": [],
      "name": "InvalidInitialization",
      "type": "error"
    },
    {
      "inputs": [],
      "name": "NotInitializing",
      "type": "error"
    },
    {
      "inputs": [
        {
          "internalType": "address",
          "name": "owner",
          "type": "address"
        }
      ],
      "name": "OwnableInvalidOwner",
      "type": "error"
    },
    {
      "inputs": [
        {
          "internalType": "address",
          "name": "account",
          "type": "address"
        }
      ],
      "name": "OwnableUnauthorizedAccount",
      "type": "error"
    },
    {
      "inputs": [],
      "name": "ReentrancyGuardReentrantCall",
      "type": "error"
    },
    {
      "inputs": [],
      "name": "UUPSUnauthorizedCallContext",
      "type": "error"
    },
    {
      "inputs": [
        {
          "internalType": "bytes32",
          "name": "slot",
          "type": "bytes32"
        }
      ],
      "name": "UUPSUnsupportedProxiableUUID",
      "type": "error"
    },
    {
      "anonymous": false,
      "inputs": [
        {
          "indexed": true,
          "internalType": "address",
          "name": "user",
          "type": "address"
        },
        {
          "indexed": false,
          "internalType": "uint256[]",
          "name": "recommendedStrategies",
          "type": "uint256[]"
        },
        {
          "indexed": false,
          "internalType": "uint256",
          "name": "confidence",
          "type": "uint256"
        },
        {
          "indexed": false,
          "internalType": "uint256",
          "name": "timestamp",
          "type": "uint256"
        }
      ],
      "name": "AIRecommendationGenerated",
      "type": "event"
    },
    {
      "anonymous": false,
      "inputs": [
        {
          "indexed": false,
          "internalType": "uint64",
          "name": "version",
          "type": "uint64"
        }
      ],
      "name": "Initialized",
      "type": "event"
    },
    {
      "anonymous": false,
      "inputs": [
        {
          "indexed": false,
          "internalType": "uint256",
          "name": "volatility",
          "type": "uint256"
        },
        {
          "indexed": false,
          "internalType": "uint256",
          "name": "liquidity",
          "type": "uint256"
        },
        {
          "indexed": false,
          "internalType": "uint256",
          "name": "yieldTrend",
          "type": "uint256"
        },
        {
          "indexed": false,
          "internalType": "uint256",
          "name": "riskLevel",
          "type": "uint256"
        },
        {
          "indexed": false,
          "internalType": "uint256",
          "name": "timestamp",
          "type": "uint256"
        }
      ],
      "name": "MarketConditionUpdated",
      "type": "event"
    },
    {
      "anonymous": false,
      "inputs": [
        {
          "indexed": true,
          "internalType": "address",
          "name": "previousOwner",
          "type": "address"
        },
        {
          "indexed": true,
          "internalType": "address",
          "name": "newOwner",
          "type": "address"
        }
      ],
      "name": "OwnershipTransferred",
      "type": "event"
    },
    {
      "anonymous": false,
      "inputs": [
        {
          "indexed": true,
          "internalType": "address",
          "name": "user",
          "type": "address"
        },
        {
          "indexed": true,
          "internalType": "uint256",
          "name": "strategyId",
          "type": "uint256"
        },
        {
          "indexed": false,
          "internalType": "uint256",
          "name": "depositAmount",
          "type": "uint256"
        },
        {
          "indexed": false,
          "internalType": "uint256",
          "name": "expectedReturn",
          "type": "uint256"
        },
        {
          "indexed": false,
          "internalType": "uint256",
          "name": "timestamp",
          "type": "uint256"
        }
      ],
      "name": "StrategyAdopted",
      "type": "event"
    },
    {
      "anonymous": false,
      "inputs": [
        {
          "indexed": true,
          "internalType": "address",
          "name": "user",
          "type": "address"
        },
        {
          "indexed": true,
          "internalType": "uint256",
          "name": "strategyId",
          "type": "uint256"
        },
        {
          "indexed": false,
          "internalType": "uint256",
          "name": "actualReturn",
          "type": "uint256"
        },
        {
          "indexed": false,
          "internalType": "uint256",
          "name": "performanceScore",
          "type": "uint256"
        },
        {
          "indexed": false,
          "internalType": "uint256",
          "name": "timestamp",
          "type": "uint256"
        }
      ],
      "name": "StrategyCompleted",
      "type": "event"
    },
    {
      "anonymous": false,
      "inputs": [
        {
          "indexed": true,
          "internalType": "uint256",
          "name": "strategyId",
          "type": "uint256"
        },
        {
          "indexed": false,
          "internalType": "string",
          "name": "name",
          "type": "string"
        },
        {
          "indexed": false,
          "internalType": "uint256",
          "name": "riskLevel",
          "type": "uint256"
        },
        {
          "indexed": false,
          "internalType": "uint256",
          "name": "expectedYield",
          "type": "uint256"
        },
        {
          "indexed": false,
          "internalType": "uint256",
          "name": "timestamp",
          "type": "uint256"
        }
      ],
      "name": "StrategyCreated",
      "type": "event"
    },
    {
      "anonymous": false,
      "inputs": [
        {
          "indexed": true,
          "internalType": "address",
          "name": "implementation",
          "type": "address"
        }
      ],
      "name": "Upgraded",
      "type": "event"
    },
    {
      "inputs": [],
      "name": "LIQUIDITY_WEIGHT",
      "outputs": [
        {
          "internalType": "uint256",
          "name": "",
          "type": "uint256"
        }
      ],
      "stateMutability": "view",
      "type": "function"
    },
    {
      "inputs": [],
      "name": "MAX_RISK_LEVEL",
      "outputs": [
        {
          "internalType": "uint256",
          "name": "",
          "type": "uint256"
        }
      ],
      "stateMutability": "view",
      "type": "function"
    },
    {
      "inputs": [],
      "name": "MAX_YIELD",
      "outputs": [
        {
          "internalType": "uint256",
          "name": "",
          "type": "uint256"
        }
      ],
      "stateMutability": "view",
      "type": "function"
    },
    {
      "inputs": [],
      "name": "MIN_RISK_LEVEL",
      "outputs": [
        {
          "internalType": "uint256",
          "name": "",
          "type": "uint256"
        }
      ],
      "stateMutability": "view",
      "type": "function"
    },
    {
      "inputs": [],
      "name": "MIN_YIELD",
      "outputs": [
        {
          "internalType": "uint256",
          "name": "",
          "type": "uint256"
        }
      ],
      "stateMutability": "view",
      "type": "function"
    },
    {
      "inputs": [],
      "name": "PERFORMANCE_BONUS",
      "outputs": [
        {
          "internalType": "uint256",
          "name": "",
          "type": "uint256"
        }
      ],
      "stateMutability": "view",
      "type": "function"
    },
    {
      "inputs": [],
      "name": "RISK_WEIGHT",
      "outputs": [
        {
          "internalType": "uint256",
          "name": "",
          "type": "uint256"
        }
      ],
      "stateMutability": "view",
      "type": "function"
    },
    {
      "inputs": [],
      "name": "UPGRADE_INTERFACE_VERSION",
      "outputs": [
        {
          "internalType": "string",
          "name": "",
          "type": "string"
        }
      ],
      "stateMutability": "view",
      "type": "function"
    },
    {
      "inputs": [],
      "name": "VOLATILITY_WEIGHT",
      "outputs": [
        {
          "internalType": "uint256",
          "name": "",
          "type": "uint256"
        }
      ],
      "stateMutability": "view",
      "type": "function"
    },
    {
      "inputs": [],
      "name": "YIELD_TREND_WEIGHT",
      "outputs": [
        {
          "internalType": "uint256",
          "name": "",
          "type": "uint256"
        }
      ],
      "stateMutability": "view",
      "type": "function"
    },
    {
      "inputs": [
        {
          "internalType": "uint256",
          "name": "_strategyId",
          "type": "uint256"
        },
        {
          "internalType": "uint256",
          "name": "_depositAmount",
          "type": "uint256"
        }
      ],
      "name": "adoptStrategy",
      "outputs": [],
      "stateMutability": "nonpayable",
      "type": "function"
    },
    {
      "inputs": [
        {
          "internalType": "uint256",
          "name": "_strategyIndex",
          "type": "uint256"
        }
      ],
      "name": "completeStrategy",
      "outputs": [],
      "stateMutability": "nonpayable",
      "type": "function"
    },
    {
      "inputs": [
        {
          "internalType": "string",
          "name": "_name",
          "type": "string"
        },
        {
          "internalType": "string",
          "name": "_description",
          "type": "string"
        },
        {
          "internalType": "uint256",
          "name": "_riskLevel",
          "type": "uint256"
        },
        {
          "internalType": "uint256",
          "name": "_expectedYield",
          "type": "uint256"
        },
        {
          "internalType": "uint256",
          "name": "_minDeposit",
          "type": "uint256"
        },
        {
          "internalType": "uint256",
          "name": "_maxDeposit",
          "type": "uint256"
        },
        {
          "internalType": "uint256",
          "name": "_duration",
          "type": "uint256"
        }
      ],
      "name": "createStrategy",
      "outputs": [],
      "stateMutability": "nonpayable",
      "type": "function"
    },
    {
      "inputs": [],
      "name": "currentMarketCondition",
      "outputs": [
        {
          "internalType": "uint256",
          "name": "volatility",
          "type": "uint256"
        },
        {
          "internalType": "uint256",
          "name": "liquidity",
          "type": "uint256"
        },
        {
          "internalType": "uint256",
          "name": "yieldTrend",
          "type": "uint256"
        },
        {
          "internalType": "uint256",
          "name": "riskLevel",
          "type": "uint256"
        },
        {
          "internalType": "uint256",
          "name": "timestamp",
          "type": "uint256"
        }
      ],
      "stateMutability": "view",
      "type": "function"
    },
    {
      "inputs": [
        {
          "internalType": "address",
          "name": "_user",
          "type": "address"
        }
      ],
      "name": "generateAIRecommendations",
      "outputs": [
        {
          "internalType": "uint256[]",
          "name": "recommendedStrategies",
          "type": "uint256[]"
        },
        {
          "internalType": "uint256",
          "name": "confidence",
          "type": "uint256"
        }
      ],
      "stateMutability": "view",
      "type": "function"
    },
    {
      "inputs": [],
      "name": "getAIStrategyStats",
      "outputs": [
        {
          "internalType": "uint256",
          "name": "_totalStrategies",
          "type": "uint256"
        },
        {
          "internalType": "uint256",
          "name": "_totalUsersWithStrategies",
          "type": "uint256"
        },
        {
          "internalType": "uint256",
          "name": "_nextStrategyId",
          "type": "uint256"
        }
      ],
      "stateMutability": "view",
      "type": "function"
    },
    {
      "inputs": [],
      "name": "getCurrentMarketCondition",
      "outputs": [
        {
          "internalType": "uint256",
          "name": "volatility",
          "type": "uint256"
        },
        {
          "internalType": "uint256",
          "name": "liquidity",
          "type": "uint256"
        },
        {
          "internalType": "uint256",
          "name": "yieldTrend",
          "type": "uint256"
        },
        {
          "internalType": "uint256",
          "name": "riskLevel",
          "type": "uint256"
        },
        {
          "internalType": "uint256",
          "name": "timestamp",
          "type": "uint256"
        }
      ],
      "stateMutability": "view",
      "type": "function"
    },
    {
      "inputs": [
        {
          "internalType": "uint256",
          "name": "_strategyId",
          "type": "uint256"
        }
      ],
      "name": "getStrategyDetails",
      "outputs": [
        {
          "internalType": "string",
          "name": "name",
          "type": "string"
        },
        {
          "internalType": "string",
          "name": "description",
          "type": "string"
        },
        {
          "internalType": "uint256",
          "name": "riskLevel",
          "type": "uint256"
        },
        {
          "internalType": "uint256",
          "name": "expectedYield",
          "type": "uint256"
        },
        {
          "internalType": "uint256",
          "name": "minDeposit",
          "type": "uint256"
        },
        {
          "internalType": "uint256",
          "name": "maxDeposit",
          "type": "uint256"
        },
        {
          "internalType": "uint256",
          "name": "duration",
          "type": "uint256"
        },
        {
          "internalType": "bool",
          "name": "isActive",
          "type": "bool"
        },
        {
          "internalType": "uint256",
          "name": "totalUsers",
          "type": "uint256"
        },
        {
          "internalType": "uint256",
          "name": "totalVolume",
          "type": "uint256"
        },
        {
          "internalType": "uint256",
          "name": "successRate",
          "type": "uint256"
        }
      ],
      "stateMutability": "view",
      "type": "function"
    },
    {
      "inputs": [
        {
          "internalType": "address",
          "name": "_user",
          "type": "address"
        }
      ],
      "name": "getUserActiveStrategies",
      "outputs": [
        {
          "internalType": "uint256[]",
          "name": "strategyIds",
          "type": "uint256[]"
        },
        {
          "internalType": "uint256[]",
          "name": "depositAmounts",
          "type": "uint256[]"
        },
        {
          "internalType": "uint256[]",
          "name": "endTimes",
          "type": "uint256[]"
        }
      ],
      "stateMutability": "view",
      "type": "function"
    },
    {
      "inputs": [
        {
          "internalType": "address",
          "name": "_user",
          "type": "address"
        },
        {
          "internalType": "uint256",
          "name": "_strategyIndex",
          "type": "uint256"
        }
      ],
      "name": "getUserStrategyPerformance",
      "outputs": [
        {
          "internalType": "uint256",
          "name": "strategyId",
          "type": "uint256"
        },
        {
          "internalType": "uint256",
          "name": "depositAmount",
          "type": "uint256"
        },
        {
          "internalType": "uint256",
          "name": "startTime",
          "type": "uint256"
        },
        {
          "internalType": "uint256",
          "name": "endTime",
          "type": "uint256"
        },
        {
          "internalType": "uint256",
          "name": "expectedReturn",
          "type": "uint256"
        },
        {
          "internalType": "uint256",
          "name": "actualReturn",
          "type": "uint256"
        },
        {
          "internalType": "bool",
          "name": "isActive",
          "type": "bool"
        },
        {
          "internalType": "uint256",
          "name": "performanceScore",
          "type": "uint256"
        }
      ],
      "stateMutability": "view",
      "type": "function"
    },
    {
      "inputs": [
        {
          "internalType": "address",
          "name": "_owner",
          "type": "address"
        }
      ],
      "name": "initialize",
      "outputs": [],
      "stateMutability": "nonpayable",
      "type": "function"
    },
    {
      "inputs": [],
      "name": "nextStrategyId",
      "outputs": [
        {
          "internalType": "uint256",
          "name": "",
          "type": "uint256"
        }
      ],
      "stateMutability": "view",
      "type": "function"
    },
    {
      "inputs": [],
      "name": "owner",
      "outputs": [
        {
          "internalType": "address",
          "name": "",
          "type": "address"
        }
      ],
      "stateMutability": "view",
      "type": "function"
    },
    {
      "inputs": [],
      "name": "proxiableUUID",
      "outputs": [
        {
          "internalType": "bytes32",
          "name": "",
          "type": "bytes32"
        }
      ],
      "stateMutability": "view",
      "type": "function"
    },
    {
      "inputs": [],
      "name": "renounceOwnership",
      "outputs": [],
      "stateMutability": "nonpayable",
      "type": "function"
    },
    {
      "inputs": [
        {
          "internalType": "uint256",
          "name": "",
          "type": "uint256"
        }
      ],
      "name": "strategies",
      "outputs": [
        {
          "internalType": "uint256",
          "name": "strategyId",
          "type": "uint256"
        },
        {
          "internalType": "string",
          "name": "name",
          "type": "string"
        },
        {
          "internalType": "string",
          "name": "description",
          "type": "string"
        },
        {
          "internalType": "uint256",
          "name": "riskLevel",
          "type": "uint256"
        },
        {
          "internalType": "uint256",
          "name": "expectedYield",
          "type": "uint256"
        },
        {
          "internalType": "uint256",
          "name": "minDeposit",
          "type": "uint256"
        },
        {
          "internalType": "uint256",
          "name": "maxDeposit",
          "type": "uint256"
        },
        {
          "internalType": "uint256",
          "name": "duration",
          "type": "uint256"
        },
        {
          "internalType": "bool",
          "name": "isActive",
          "type": "bool"
        },
        {
          "internalType": "uint256",
          "name": "totalUsers",
          "type": "uint256"
        },
        {
          "internalType": "uint256",
          "name": "totalVolume",
          "type": "uint256"
        },
        {
          "internalType": "uint256",
          "name": "successRate",
          "type": "uint256"
        }
      ],
      "stateMutability": "view",
      "type": "function"
    },
    {
      "inputs": [],
      "name": "totalStrategies",
      "outputs": [
        {
          "internalType": "uint256",
          "name": "",
          "type": "uint256"
        }
      ],
      "stateMutability": "view",
      "type": "function"
    },
    {
      "inputs": [],
      "name": "totalUsersWithStrategies",
      "outputs": [
        {
          "internalType": "uint256",
          "name": "",
          "type": "uint256"
        }
      ],
      "stateMutability": "view",
      "type": "function"
    },
    {
      "inputs": [
        {
          "internalType": "address",
          "name": "newOwner",
          "type": "address"
        }
      ],
      "name": "transferOwnership",
      "outputs": [],
      "stateMutability": "nonpayable",
      "type": "function"
    },
    {
      "inputs": [],
      "name": "updateMarketCondition",
      "outputs": [],
      "stateMutability": "nonpayable",
      "type": "function"
    },
    {
      "inputs": [
        {
          "internalType": "address",
          "name": "newImplementation",
          "type": "address"
        },
        {
          "internalType": "bytes",
          "name": "data",
          "type": "bytes"
        }
      ],
      "name": "upgradeToAndCall",
      "outputs": [],
      "stateMutability": "payable",
      "type": "function"
    },
    {
      "inputs": [
        {
          "internalType": "address",
          "name": "",
          "type": "address"
        },
        {
          "internalType": "uint256",
          "name": "",
          "type": "uint256"
        }
      ],
      "name": "userStrategies",
      "outputs": [
        {
          "internalType": "uint256",
          "name": "strategyId",
          "type": "uint256"
        },
        {
          "internalType": "uint256",
          "name": "depositAmount",
          "type": "uint256"
        },
        {
          "internalType": "uint256",
          "name": "startTime",
          "type": "uint256"
        },
        {
          "internalType": "uint256",
          "name": "endTime",
          "type": "uint256"
        },
        {
          "internalType": "uint256",
          "name": "expectedReturn",
          "type": "uint256"
        },
        {
          "internalType": "uint256",
          "name": "actualReturn",
          "type": "uint256"
        },
        {
          "internalType": "bool",
          "name": "isActive",
          "type": "bool"
        },
        {
          "internalType": "uint256",
          "name": "performanceScore",
          "type": "uint256"
        }
      ],
      "stateMutability": "view",
      "type": "function"
    },
    {
      "inputs": [
        {
          "internalType": "address",
          "name": "",
          "type": "address"
        }
      ],
      "name": "userStrategyCount",
      "outputs": [
        {
          "internalType": "uint256",
          "name": "",
          "type": "uint256"
        }
      ],
      "stateMutability": "view",
      "type": "function"
    },
    {
      "inputs": [
        {
          "internalType": "address",
          "name": "",
          "type": "address"
        }
      ],
      "name": "userTotalPerformance",
      "outputs": [
        {
          "internalType": "uint256",
          "name": "",
          "type": "uint256"
        }
      ],
      "stateMutability": "view",
      "type": "function"
    }
  ],
  "bytecode": "0x60a0604052306080523480156200001557600080fd5b506200002062000026565b620000da565b7ff0c57e16840df040f15088dc2f81fe391c3923bec73e23a9662efc9c229c6a00805468010000000000000000900460ff1615620000775760405163f92ee8a960e01b815260040160405180910390fd5b80546001600160401b0390811614620000d75780546001600160401b0319166001600160401b0390811782556040519081527fc7f505b2f371ae2175ee4913f4499e1f2633a7b5936321eed1cdaeb6115181d29060200160405180910390a15b50565b608051612d6c6200010460003960008181611987015281816119b00152611af60152612d6c6000f3fe6080604052600436106101f95760003560e01c80638da5cb5b1161010d578063d574ea3d116100a0578063e42836e21161006f578063e42836e214610633578063f2fde38b14610653578063f96d7b8014610673578063fd0e841a14610507578063fe25333a1461068957600080fd5b8063d574ea3d146105a2578063df25d079146105da578063e382662d146105ef578063e3c8f1271461061d57600080fd5b8063b806a23e116100dc578063b806a23e1461051c578063bfc975d11461054d578063c4d66de81461056d578063cc8317851461058d57600080fd5b80638da5cb5b146104625780639373e58a146104a9578063ad3cb1cc146104c9578063b3a591a51461050757600080fd5b8063390bc5f21161019057806352d1902d1161015f57806352d1902d146103ee5780635e5bc962146104035780636bc2327214610418578063715018a61461042d578063746065f81461044257600080fd5b8063390bc5f21461033a5780633bf8b3cc146103675780633e9f9e491461037e5780634f1ef286146103db57600080fd5b80630ef28951116101cc5780630ef28951146102b0578063175805fe146102c6578063185f8447146102ed57806332a50c7f1461030357600080fd5b806304ed2b27146101fe5780630afce902146102265780630bc65c0f1461026b5780630d21ea041461029a575b600080fd5b34801561020a57600080fd5b50610213600a81565b6040519081526020015b60405180910390f35b34801561023257600080fd5b506004546005546006546007546008545b604080519586526020860194909452928401919091526060830152608082015260a00161021d565b34801561027757600080fd5b5061028b6102863660046124dc565b6106b6565b60405161021d93929190612533565b3480156102a657600080fd5b506102136103e881565b3480156102bc57600080fd5b50610213600b5481565b3480156102d257600080fd5b50600454600554600654600754600854610243949392919085565b3480156102f957600080fd5b5061021360095481565b34801561030f57600080fd5b5061032361031e366004612576565b6109ba565b60405161021d9b9a999897969594939291906125df565b34801561034657600080fd5b506102136103553660046124dc565b60036020526000908152604090205481565b34801561037357600080fd5b5061037c610bae565b005b34801561038a57600080fd5b5061039e610399366004612651565b610bc0565b604080519889526020890197909752958701949094526060860192909252608085015260a0840152151560c083015260e08201526101000161021d565b61037c6103e9366004612707565b610c28565b3480156103fa57600080fd5b50610213610c47565b34801561040f57600080fd5b50610213606481565b34801561042457600080fd5b50610213600181565b34801561043957600080fd5b5061037c610c64565b34801561044e57600080fd5b5061037c61045d366004612576565b610c76565b34801561046e57600080fd5b507f9016d09d72d40fdae2fd8ceac6b6234c7706214fd39c1cd1e609a0528c199300546040516001600160a01b03909116815260200161021d565b3480156104b557600080fd5b5061037c6104c4366004612789565b610f1e565b3480156104d557600080fd5b506104fa604051806040016040528060058152602001640352e302e360dc1b81525081565b60405161021d9190612819565b34801561051357600080fd5b50610213601981565b34801561052857600080fd5b50600a54600b546009546040805193845260208401929092529082015260600161021d565b34801561055957600080fd5b5061039e610568366004612651565b610f3e565b34801561057957600080fd5b5061037c6105883660046124dc565b611039565b34801561059957600080fd5b50610213601e81565b3480156105ae57600080fd5b506105c26105bd366004612576565b61115a565b60405161021d9c9b9a9998979695949392919061282c565b3480156105e657600080fd5b50610213601481565b3480156105fb57600080fd5b5061060f61060a3660046124dc565b6112cc565b60405161021d9291906128a6565b34801561062957600080fd5b5061021361138881565b34801561063f57600080fd5b5061037c61064e3660046128c8565b61150f565b34801561065f57600080fd5b5061037c61066e3660046124dc565b61181a565b34801561067f57600080fd5b50610213600a5481565b34801561069557600080fd5b506102136106a43660046124dc565b60026020526000908152604090205481565b60608060606000805b6001600160a01b03861660009081526001602052604090205481101561073b576001600160a01b0386166000908152600160205260409020805482908110610709576107096128ea565b600091825260209091206006600890920201015460ff1615610733578161072f81612916565b9250505b6001016106bf565b508067ffffffffffffffff8111156107555761075561267b565b60405190808252806020026020018201604052801561077e578160200160208202803683370190505b5093508067ffffffffffffffff81111561079a5761079a61267b565b6040519080825280602002602001820160405280156107c3578160200160208202803683370190505b5092508067ffffffffffffffff8111156107df576107df61267b565b604051908082528060200260200182016040528015610808578160200160208202803683370190505b5091506000805b6001600160a01b0387166000908152600160205260409020548110156109b0576001600160a01b0387166000908152600160205260409020805482908110610859576108596128ea565b600091825260209091206006600890920201015460ff16156109a8576001600160a01b038716600090815260016020526040902080548290811061089f5761089f6128ea565b9060005260206000209060080201600001548683815181106108c3576108c36128ea565b60200260200101818152505060016000886001600160a01b03166001600160a01b031681526020019081526020016000208181548110610905576109056128ea565b906000526020600020906008020160010154858381518110610929576109296128ea565b60200260200101818152505060016000886001600160a01b03166001600160a01b03168152602001908152602001600020818154811061096b5761096b6128ea565b90600052602060002090600802016003015484838151811061098f5761098f6128ea565b6020908102919091010152816109a481612916565b9250505b60010161080f565b5050509193909250565b6060806000806000806000806000806000806000808e815260200190815260200160002090508060000154600003610a2e5760405162461bcd60e51b815260206004820152601260248201527114dd1c985d1959de481b9bdd08199bdd5b9960721b60448201526064015b60405180910390fd5b8060010181600201826003015483600401548460050154856006015486600701548760080160009054906101000a900460ff16886009015489600a01548a600b01548a8054610a7c9061292f565b80601f0160208091040260200160405190810160405280929190818152602001828054610aa89061292f565b8015610af55780601f10610aca57610100808354040283529160200191610af5565b820191906000526020600020905b815481529060010190602001808311610ad857829003601f168201915b50505050509a50898054610b089061292f565b80601f0160208091040260200160405190810160405280929190818152602001828054610b349061292f565b8015610b815780601f10610b5657610100808354040283529160200191610b81565b820191906000526020600020905b815481529060010190602001808311610b6457829003601f168201915b505050505099509b509b509b509b509b509b509b509b509b509b509b505091939597999b90929496989a50565b610bb6611855565b610bbe6118b0565b565b60016020528160005260406000208181548110610bdc57600080fd5b6000918252602090912060089091020180546001820154600283015460038401546004850154600586015460068701546007909701549598509396509194909391929160ff9091169088565b610c3061197c565b610c3982611a21565b610c438282611a29565b5050565b6000610c51611aeb565b50600080516020612c7983398151915290565b610c6c611855565b610bbe6000611b34565b610c7e611ba5565b336000908152600160205260409020548110610cd55760405162461bcd60e51b8152602060048201526016602482015275092dcecc2d8d2c840e6e8e4c2e8cacef240d2dcc8caf60531b6044820152606401610a25565b336000908152600160205260408120805483908110610cf657610cf66128ea565b60009182526020909120600890910201600681015490915060ff16610d535760405162461bcd60e51b81526020600482015260136024820152725374726174656779206e6f742061637469766560681b6044820152606401610a25565b8060030154421015610da75760405162461bcd60e51b815260206004820152601a60248201527f5374726174656779206e6f7420636f6d706c65746564207965740000000000006044820152606401610a25565b604080516101008101825282548152600183015460208201526002830154918101919091526003820154606082015260048201546080820152600582015460a0820152600682015460ff16151560c0820152600782015460e0820152600090610e0f90611bdd565b6005830181905560068301805460ff1916905560408051610100810182528454815260018501546020820152600285015491810191909152600384015460608201526004840154608082015260a08101829052600060c08201819052600785015460e0830152919250610e8190611d01565b6007840181905533600090815260036020526040812080549293508392909190610eac908490612969565b90915550508254610ebd9082611da0565b825460408051848152602081018490524281830152905133917f33b648445e4fbcc091bac2f983632cb7113a5bfa101421cc24c668d19147885d919081900360600190a3505050610f1b6001600080516020612cdc83398151915255565b50565b610f26611855565b610f3587878787878787611e04565b50505050505050565b6001600160a01b03821660009081526001602052604081205481908190819081908190819081908910610fb35760405162461bcd60e51b815260206004820152601c60248201527f537472617465677920696e646578206f7574206f6620626f756e6473000000006044820152606401610a25565b6001600160a01b038a16600090815260016020526040812080548b908110610fdd57610fdd6128ea565b600091825260209091206008909102018054600182015460028301546003840154600485015460058601546006870154600790970154959f50939d50919b5099509750955060ff90911693509150509295985092959890939650565b600061104361203f565b805490915060ff600160401b820416159067ffffffffffffffff1660008115801561106b5750825b905060008267ffffffffffffffff1660011480156110885750303b155b905081158015611096575080155b156110b45760405163f92ee8a960e01b815260040160405180910390fd5b845467ffffffffffffffff1916600117855583156110de57845460ff60401b1916600160401b1785555b6110e78661206a565b6110ef61207b565b6110f7612083565b6001600955611104612093565b61110c6118b0565b831561115257845460ff60401b19168555604051600181527fc7f505b2f371ae2175ee4913f4499e1f2633a7b5936321eed1cdaeb6115181d29060200160405180910390a15b505050505050565b6000602081905290815260409020805460018201805491929161117c9061292f565b80601f01602080910402602001604051908101604052809291908181526020018280546111a89061292f565b80156111f55780601f106111ca576101008083540402835291602001916111f5565b820191906000526020600020905b8154815290600101906020018083116111d857829003601f168201915b50505050509080600201805461120a9061292f565b80601f01602080910402602001604051908101604052809291908181526020018280546112369061292f565b80156112835780601f1061125857610100808354040283529160200191611283565b820191906000526020600020905b81548152906001019060200180831161126657829003601f168201915b50505060038401546004850154600586015460068701546007880154600889015460098a0154600a8b0154600b909b0154999a96999598509396509194909360ff90921692918c565b6001600160a01b0381166000908152600360209081526040808320546002909252822054606092919080830361130557603c9250611336565b600a6113118284612992565b61131b9190612992565b611326906046612969565b9250605f83111561133657605f92505b6040805160038082526080820190925260009160208201606080368337019050509050600060015b600a54811161146f5760008181526020819052604090206008015460ff161561145d5760008181526020819052604081206004549091906003108015906113aa57506003826003015411155b156113b75750600161141c565b6004546007118015906113cf57506007826003015410155b156113dc5750600161141c565b60048054108015906113f15750600454600610155b801561140257506004826003015410155b801561141357506006826003015411155b1561141c575060015b8080156114295750600384105b1561145a5782858581518110611441576114416128ea565b60209081029190910101528361145681612916565b9450505b50505b8061146781612916565b91505061135e565b5060008167ffffffffffffffff81111561148b5761148b61267b565b6040519080825280602002602001820160405280156114b4578160200160208202803683370190505b50905060005b82811015611501578381815181106114d4576114d46128ea565b60200260200101518282815181106114ee576114ee6128ea565b60209081029190910101526001016114ba565b508096505050505050915091565b611517611ba5565b60008281526020819052604090206008015460ff1661156e5760405162461bcd60e51b81526020600482015260136024820152725374726174656779206e6f742061637469766560681b6044820152606401610a25565b6000828152602081905260409020600501548110156115c75760405162461bcd60e51b81526020600482015260156024820152744465706f7369742062656c6f77206d696e696d756d60581b6044820152606401610a25565b6000828152602081905260409020600601548111156116205760405162461bcd60e51b81526020600482015260156024820152744465706f7369742061626f7665206d6178696d756d60581b6044820152606401610a25565b60008281526020819052604081206007810154600482015491929164496cebb800919061164d90866129a6565b61165791906129a6565b6116619190612992565b9050600060405180610100016040528086815260200185815260200142815260200184600701546201518061169691906129a6565b6116a09042612969565b81526020808201859052600060408084018290526001606080860182905260809586018490523380855282865283852080548085018255908652868620895160089092020190815588870151938101939093558784015160028085019190915591880151600384015595870151600483015560a0870151600583015560c087015160068301805460ff191691151591909117905560e08701516007909201919091559382529290915290812080549293509061175b83612916565b909155505060098301805490600061177283612916565b91905055508383600a01600082825461178b9190612969565b9091555050336000908152600260205260409020546001036117bd57600b80549060006117b783612916565b91905055505b604080518581526020810184905242818301529051869133917f762cf3bda0d16f2f91a668d962b437b451106bcdc05b08e9fe446cd3309e2e279181900360600190a3505050610c436001600080516020612cdc83398151915255565b611822611855565b6001600160a01b03811661184c57604051631e4fbdf760e01b815260006004820152602401610a25565b610f1b81611b34565b336118877f9016d09d72d40fdae2fd8ceac6b6234c7706214fd39c1cd1e609a0528c199300546001600160a01b031690565b6001600160a01b031614610bbe5760405163118cdaa760e01b8152336004820152602401610a25565b6040518060a001604052806118c76001600a612223565b81526020016118d86001600a612223565b81526020016118e96001600a612223565b81526020016118fa6001600a612223565b81524260209182018190528251600481905583830151600581905560408086015160068190556060808801516007819055608098890151600855835195865296850193909352838201529082019390935292830152517f09d32a4039b2b9507fbf67196f289ad4a43218a4fefbd3774dcbc1244740de429181900360a00190a1565b306001600160a01b037f0000000000000000000000000000000000000000000000000000000000000000161480611a0357507f00000000000000000000000000000000000000000000000000000000000000006001600160a01b03166119f7600080516020612c79833981519152546001600160a01b031690565b6001600160a01b031614155b15610bbe5760405163703e46dd60e11b815260040160405180910390fd5b610f1b611855565b816001600160a01b03166352d1902d6040518163ffffffff1660e01b8152600401602060405180830381865afa925050508015611a83575060408051601f3d908101601f19168201909252611a80918101906129bd565b60015b611aab57604051634c9c8ce360e01b81526001600160a01b0383166004820152602401610a25565b600080516020612c798339815191528114611adc57604051632a87526960e21b815260048101829052602401610a25565b611ae683836122a6565b505050565b306001600160a01b037f00000000000000000000000000000000000000000000000000000000000000001614610bbe5760405163703e46dd60e11b815260040160405180910390fd5b7f9016d09d72d40fdae2fd8ceac6b6234c7706214fd39c1cd1e609a0528c19930080546001600160a01b031981166001600160a01b03848116918217845560405192169182907f8be0079c531659141344cd1fd0a4f28419497f9722a3daafe3b4186f6b6457e090600090a3505050565b600080516020612cdc833981519152805460011901611bd757604051633ee5aeb560e01b815260040160405180910390fd5b60029055565b8051600090815260208190526040812060808301516004548390606490611c0590600a6129a6565b611c0f9190612992565b9050600060646004600101546005611c2791906129a6565b611c319190612992565b905060006064600460020154600f611c4991906129a6565b611c539190612992565b9050600081611c6284866129d6565b611c6c91906129d6565b9050600586600301541115611c9c576003860154611c8b9060026129a6565b611c9590826129d6565b9050611cc4565b6003860154611cac9060066129fe565b611cb79060026129a6565b611cc19082612a11565b90505b60006064611cd28388612a31565b611cdc9190612a61565b611ce690876129d6565b90506000811215611cf5575060005b98975050505050505050565b60008160800151600003611d1757506000919050565b600082608001518360a001516064611d2f91906129a6565b611d399190612992565b90506064808210611d71576000611d516064846129fe565b611d5c9060026129a6565b9050611d688183612969565b95945050505050565b6000611d7e8360646129fe565b611d899060016129a6565b905081811115611d965750805b611d6881836129fe565b6000828152602081905260408120600b810154909160026064851015611dc7576000611dca565b60645b611dd79060ff1684612969565b611de19190612992565b600b9093019290925550505050565b6001600080516020612cdc83398151915255565b60018510158015611e165750600a8511155b611e575760405162461bcd60e51b8152602060048201526012602482015271125b9d985b1a59081c9a5cdac81b195d995b60721b6044820152606401610a25565b60648410158015611e6a57506113888411155b611eaf5760405162461bcd60e51b8152602060048201526016602482015275125b9d985b1a5908195e1c1958dd1959081e5a595b1960521b6044820152606401610a25565b600083118015611ebe57508282115b611f035760405162461bcd60e51b8152602060048201526016602482015275496e76616c6964206465706f736974206c696d69747360501b6044820152606401610a25565b600081118015611f15575061016d8111155b611f545760405162461bcd60e51b815260206004820152601060248201526f24b73b30b634b210323ab930ba34b7b760811b6044820152606401610a25565b6009805460009182611f6583612916565b90915550600081815260208190526040902081815590915060018101611f8b8a82612ad7565b5060028101611f9a8982612ad7565b50600381018790556004810186905560058101859055600681018490556007810183905560088101805460ff19166001179055600060098201819055600a8083018290556064600b840155805491611ff183612916565b9190505550817fa40bf27e85ad8b209a1c29f5befb108d9497747a98f4868caf957eedb89ceb8b8a89894260405161202c9493929190612b97565b60405180910390a2505050505050505050565b6000807ff0c57e16840df040f15088dc2f81fe391c3923bec73e23a9662efc9c229c6a005b92915050565b6120726122fc565b610f1b81612321565b610bbe6122fc565b61208b6122fc565b610bbe612329565b6120f86040518060400160405280601281526020017110dbdb9cd95c9d985d1a5d9948165a595b1960721b815250604051806080016040528060438152602001612c9960439139600261032067016345785d8a0000678ac7230489e80000601e611e04565b61215a6040518060400160405280600f81526020016e084c2d8c2dcc6cac8408ee4deeee8d608b1b8152506040518060600160405280603b8152602001612cfc603b913960056105dc66b1a2bc2ec500006802b5e3af16b1880000603c611e04565b6121c36040518060400160405280601581526020017448696768205969656c64204167677265737369766560581b815250604051806080016040528060418152602001612bf7604191396008610bb86702c68af0bb14000068056bc75e2d63100000605a611e04565b610bbe6040518060400160405280600c81526020016b44654669204661726d696e6760a01b815250604051806080016040528060418152602001612c386041913960066107d067016345785d8a0000680ad78ebc5ac6200000602d611e04565b600061222f83836129fe565b61223a906001612969565b42443360405160200161227293929190928352602083019190915260601b6bffffffffffffffffffffffff1916604082015260540190565b6040516020818303038152906040528051906020012060001c6122959190612bc6565b61229f9084612969565b9392505050565b6122af82612331565b6040516001600160a01b038316907fbc7cd75a20ee27fd9adebab32041f755214dbc6bffa90cc0225b39da2e5c2d3b90600090a28051156122f457611ae68282612396565b610c43612403565b612304612422565b610bbe57604051631afcd79f60e31b815260040160405180910390fd5b6118226122fc565b611df06122fc565b806001600160a01b03163b60000361236757604051634c9c8ce360e01b81526001600160a01b0382166004820152602401610a25565b600080516020612c7983398151915280546001600160a01b0319166001600160a01b0392909216919091179055565b6060600080846001600160a01b0316846040516123b39190612bda565b600060405180830381855af49150503d80600081146123ee576040519150601f19603f3d011682016040523d82523d6000602084013e6123f3565b606091505b5091509150611d6885838361243c565b3415610bbe5760405163b398979f60e01b815260040160405180910390fd5b600061242c61203f565b54600160401b900460ff16919050565b6060826124515761244c82612498565b61229f565b815115801561246857506001600160a01b0384163b155b1561249157604051639996b31560e01b81526001600160a01b0385166004820152602401610a25565b5092915050565b8051156124a757805160208201fd5b60405163d6bda27560e01b815260040160405180910390fd5b80356001600160a01b03811681146124d757600080fd5b919050565b6000602082840312156124ee57600080fd5b61229f826124c0565b60008151808452602080850194506020840160005b838110156125285781518752958201959082019060010161250c565b509495945050505050565b60608152600061254660608301866124f7565b828103602084015261255881866124f7565b9050828103604084015261256c81856124f7565b9695505050505050565b60006020828403121561258857600080fd5b5035919050565b60005b838110156125aa578181015183820152602001612592565b50506000910152565b600081518084526125cb81602086016020860161258f565b601f01601f19169290920160200192915050565b60006101608083526125f38184018f6125b3565b90508281036020840152612607818e6125b3565b604084019c909c5250506060810198909852608088019690965260a087019490945260c0860192909252151560e08501526101008401526101208301526101409091015292915050565b6000806040838503121561266457600080fd5b61266d836124c0565b946020939093013593505050565b634e487b7160e01b600052604160045260246000fd5b600067ffffffffffffffff808411156126ac576126ac61267b565b604051601f8501601f19908116603f011681019082821181831017156126d4576126d461267b565b816040528093508581528686860111156126ed57600080fd5b858560208301376000602087830101525050509392505050565b6000806040838503121561271a57600080fd5b612723836124c0565b9150602083013567ffffffffffffffff81111561273f57600080fd5b8301601f8101851361275057600080fd5b61275f85823560208401612691565b9150509250929050565b600082601f83011261277a57600080fd5b61229f83833560208501612691565b600080600080600080600060e0888a0312156127a457600080fd5b873567ffffffffffffffff808211156127bc57600080fd5b6127c88b838c01612769565b985060208a01359150808211156127de57600080fd5b506127eb8a828b01612769565b979a9799505050506040860135956060810135956080820135955060a0820135945060c09091013592509050565b60208152600061229f60208301846125b3565b60006101808e83528060208401526128468184018f6125b3565b9050828103604084015261285a818e6125b3565b606084019c909c525050608081019890985260a088019690965260c087019490945260e08601929092521515610100850152610120840152610140830152610160909101529392505050565b6040815260006128b960408301856124f7565b90508260208301529392505050565b600080604083850312156128db57600080fd5b50508035926020909101359150565b634e487b7160e01b600052603260045260246000fd5b634e487b7160e01b600052601160045260246000fd5b60006001820161292857612928612900565b5060010190565b600181811c9082168061294357607f821691505b60208210810361296357634e487b7160e01b600052602260045260246000fd5b50919050565b8082018082111561206457612064612900565b634e487b7160e01b600052601260045260246000fd5b6000826129a1576129a161297c565b500490565b808202811582820484141761206457612064612900565b6000602082840312156129cf57600080fd5b5051919050565b80820182811260008312801582168215821617156129f6576129f6612900565b505092915050565b8181038181111561206457612064612900565b818103600083128015838313168383128216171561249157612491612900565b80820260008212600160ff1b84141615612a4d57612a4d612900565b818105831482151761206457612064612900565b600082612a7057612a7061297c565b600160ff1b821460001984141615612a8a57612a8a612900565b500590565b601f821115611ae6576000816000526020600020601f850160051c81016020861015612ab85750805b601f850160051c820191505b8181101561115257828155600101612ac4565b815167ffffffffffffffff811115612af157612af161267b565b612b0581612aff845461292f565b84612a8f565b602080601f831160018114612b3a5760008415612b225750858301515b600019600386901b1c1916600185901b178555611152565b600085815260208120601f198616915b82811015612b6957888601518255948401946001909101908401612b4a565b5085821015612b875787850151600019600388901b60f8161c191681555b5050505050600190811b01905550565b608081526000612baa60808301876125b3565b6020830195909552506040810192909252606090910152919050565b600082612bd557612bd561297c565b500690565b60008251612bec81846020870161258f565b919091019291505056fe486967682d7269736b20737472617465677920746172676574696e67206d6178696d756d207969656c6420776974682068696768657220766f6c6174696c697479537472617465677920666f6375736564206f6e20446546692070726f746f636f6c206661726d696e6720616e64206c69717569646974792070726f766973696f6e360894a13ba1a3210667c828492db98dca3e2076cc3735a920a3ca505d382bbc4c6f772d7269736b20737472617465677920666f637573696e67206f6e20737461626c65207969656c64732077697468206d696e696d616c20766f6c6174696c6974799b779b17422d0df92223018b32b4d1fa46e071723d6817e2486d003becc55f004d6f646572617465207269736b2073747261746567792062616c616e63696e67207969656c6420616e642067726f77746820706f74656e7469616ca2646970667358221220224f59513ec9ed5c63652870bf4e1098c1983b59efc5ff38b772c0cfe0835e1664736f6c63430008160033",
  "linkReferences": {},
  "deployedLinkReferences": {}
}