{
  "_format": "hh-sol-artifact-1",
  "contractName": "AIStrategy",
  "sourceName": "contracts/AIStrategy.sol",
  "abi": [
    {
      "inputs": [],
      "stateMutability": "nonpayable",
      "type": "constructor"
    },
    {
      "inputs": [
        {
          "internalType": "address",
          "name": "target",
          "type": "address"
        }
      ],
      "name": "AddressEmptyCode",
      "type": "error"
    },
    {
      "inputs": [
        {
          "internalType": "address",
          "name": "implementation",
          "type": "address"
        }
      ],
      "name": "ERC1967InvalidImplementation",
      "type": "error"
    },
    {
      "inputs": [],
      "name": "ERC1967NonPayable",
      "type": "error"
    },
    {
      "inputs": [],
      "name": "FailedCall",
      "type": "error"
    },
    {
      "inputs": [],
      "name": "InvalidInitialization",
      "type": "error"
    },
    {
      "inputs": [],
      "name": "NotInitializing",
      "type": "error"
    },
    {
      "inputs": [
        {
          "internalType": "address",
          "name": "owner",
          "type": "address"
        }
      ],
      "name": "OwnableInvalidOwner",
      "type": "error"
    },
    {
      "inputs": [
        {
          "internalType": "address",
          "name": "account",
          "type": "address"
        }
      ],
      "name": "OwnableUnauthorizedAccount",
      "type": "error"
    },
    {
      "inputs": [],
      "name": "ReentrancyGuardReentrantCall",
      "type": "error"
    },
    {
      "inputs": [],
      "name": "UUPSUnauthorizedCallContext",
      "type": "error"
    },
    {
      "inputs": [
        {
          "internalType": "bytes32",
          "name": "slot",
          "type": "bytes32"
        }
      ],
      "name": "UUPSUnsupportedProxiableUUID",
      "type": "error"
    },
    {
      "anonymous": false,
      "inputs": [
        {
          "indexed": true,
          "internalType": "address",
          "name": "user",
          "type": "address"
        },
        {
          "indexed": false,
          "internalType": "uint256[]",
          "name": "recommendedStrategies",
          "type": "uint256[]"
        },
        {
          "indexed": false,
          "internalType": "uint256",
          "name": "confidence",
          "type": "uint256"
        },
        {
          "indexed": false,
          "internalType": "uint256",
          "name": "timestamp",
          "type": "uint256"
        }
      ],
      "name": "AIRecommendationGenerated",
      "type": "event"
    },
    {
      "anonymous": false,
      "inputs": [
        {
          "indexed": false,
          "internalType": "uint64",
          "name": "version",
          "type": "uint64"
        }
      ],
      "name": "Initialized",
      "type": "event"
    },
    {
      "anonymous": false,
      "inputs": [
        {
          "indexed": false,
          "internalType": "uint256",
          "name": "volatility",
          "type": "uint256"
        },
        {
          "indexed": false,
          "internalType": "uint256",
          "name": "liquidity",
          "type": "uint256"
        },
        {
          "indexed": false,
          "internalType": "uint256",
          "name": "yieldTrend",
          "type": "uint256"
        },
        {
          "indexed": false,
          "internalType": "uint256",
          "name": "riskLevel",
          "type": "uint256"
        },
        {
          "indexed": false,
          "internalType": "uint256",
          "name": "timestamp",
          "type": "uint256"
        }
      ],
      "name": "MarketConditionUpdated",
      "type": "event"
    },
    {
      "anonymous": false,
      "inputs": [
        {
          "indexed": true,
          "internalType": "address",
          "name": "previousOwner",
          "type": "address"
        },
        {
          "indexed": true,
          "internalType": "address",
          "name": "newOwner",
          "type": "address"
        }
      ],
      "name": "OwnershipTransferred",
      "type": "event"
    },
    {
      "anonymous": false,
      "inputs": [
        {
          "indexed": true,
          "internalType": "address",
          "name": "user",
          "type": "address"
        },
        {
          "indexed": true,
          "internalType": "uint256",
          "name": "strategyId",
          "type": "uint256"
        },
        {
          "indexed": false,
          "internalType": "uint256",
          "name": "depositAmount",
          "type": "uint256"
        },
        {
          "indexed": false,
          "internalType": "uint256",
          "name": "expectedReturn",
          "type": "uint256"
        },
        {
          "indexed": false,
          "internalType": "uint256",
          "name": "timestamp",
          "type": "uint256"
        }
      ],
      "name": "StrategyAdopted",
      "type": "event"
    },
    {
      "anonymous": false,
      "inputs": [
        {
          "indexed": true,
          "internalType": "address",
          "name": "user",
          "type": "address"
        },
        {
          "indexed": true,
          "internalType": "uint256",
          "name": "strategyId",
          "type": "uint256"
        },
        {
          "indexed": false,
          "internalType": "uint256",
          "name": "actualReturn",
          "type": "uint256"
        },
        {
          "indexed": false,
          "internalType": "uint256",
          "name": "performanceScore",
          "type": "uint256"
        },
        {
          "indexed": false,
          "internalType": "uint256",
          "name": "timestamp",
          "type": "uint256"
        }
      ],
      "name": "StrategyCompleted",
      "type": "event"
    },
    {
      "anonymous": false,
      "inputs": [
        {
          "indexed": true,
          "internalType": "uint256",
          "name": "strategyId",
          "type": "uint256"
        },
        {
          "indexed": false,
          "internalType": "string",
          "name": "name",
          "type": "string"
        },
        {
          "indexed": false,
          "internalType": "uint256",
          "name": "riskLevel",
          "type": "uint256"
        },
        {
          "indexed": false,
          "internalType": "uint256",
          "name": "expectedYield",
          "type": "uint256"
        },
        {
          "indexed": false,
          "internalType": "uint256",
          "name": "timestamp",
          "type": "uint256"
        }
      ],
      "name": "StrategyCreated",
      "type": "event"
    },
    {
      "anonymous": false,
      "inputs": [
        {
          "indexed": true,
          "internalType": "address",
          "name": "implementation",
          "type": "address"
        }
      ],
      "name": "Upgraded",
      "type": "event"
    },
    {
      "inputs": [],
      "name": "LIQUIDITY_WEIGHT",
      "outputs": [
        {
          "internalType": "uint256",
          "name": "",
          "type": "uint256"
        }
      ],
      "stateMutability": "view",
      "type": "function"
    },
    {
      "inputs": [],
      "name": "MAX_RISK_LEVEL",
      "outputs": [
        {
          "internalType": "uint256",
          "name": "",
          "type": "uint256"
        }
      ],
      "stateMutability": "view",
      "type": "function"
    },
    {
      "inputs": [],
      "name": "MAX_YIELD",
      "outputs": [
        {
          "internalType": "uint256",
          "name": "",
          "type": "uint256"
        }
      ],
      "stateMutability": "view",
      "type": "function"
    },
    {
      "inputs": [],
      "name": "MIN_RISK_LEVEL",
      "outputs": [
        {
          "internalType": "uint256",
          "name": "",
          "type": "uint256"
        }
      ],
      "stateMutability": "view",
      "type": "function"
    },
    {
      "inputs": [],
      "name": "MIN_YIELD",
      "outputs": [
        {
          "internalType": "uint256",
          "name": "",
          "type": "uint256"
        }
      ],
      "stateMutability": "view",
      "type": "function"
    },
    {
      "inputs": [],
      "name": "PERFORMANCE_BONUS",
      "outputs": [
        {
          "internalType": "uint256",
          "name": "",
          "type": "uint256"
        }
      ],
      "stateMutability": "view",
      "type": "function"
    },
    {
      "inputs": [],
      "name": "RISK_WEIGHT",
      "outputs": [
        {
          "internalType": "uint256",
          "name": "",
          "type": "uint256"
        }
      ],
      "stateMutability": "view",
      "type": "function"
    },
    {
      "inputs": [],
      "name": "UPGRADE_INTERFACE_VERSION",
      "outputs": [
        {
          "internalType": "string",
          "name": "",
          "type": "string"
        }
      ],
      "stateMutability": "view",
      "type": "function"
    },
    {
      "inputs": [],
      "name": "VOLATILITY_WEIGHT",
      "outputs": [
        {
          "internalType": "uint256",
          "name": "",
          "type": "uint256"
        }
      ],
      "stateMutability": "view",
      "type": "function"
    },
    {
      "inputs": [],
      "name": "YIELD_TREND_WEIGHT",
      "outputs": [
        {
          "internalType": "uint256",
          "name": "",
          "type": "uint256"
        }
      ],
      "stateMutability": "view",
      "type": "function"
    },
    {
      "inputs": [
        {
          "internalType": "uint256",
          "name": "_strategyId",
          "type": "uint256"
        },
        {
          "internalType": "uint256",
          "name": "_depositAmount",
          "type": "uint256"
        }
      ],
      "name": "adoptStrategy",
      "outputs": [],
      "stateMutability": "nonpayable",
      "type": "function"
    },
    {
      "inputs": [
        {
          "internalType": "uint256",
          "name": "_strategyIndex",
          "type": "uint256"
        }
      ],
      "name": "completeStrategy",
      "outputs": [],
      "stateMutability": "nonpayable",
      "type": "function"
    },
    {
      "inputs": [
        {
          "internalType": "string",
          "name": "_name",
          "type": "string"
        },
        {
          "internalType": "string",
          "name": "_description",
          "type": "string"
        },
        {
          "internalType": "uint256",
          "name": "_riskLevel",
          "type": "uint256"
        },
        {
          "internalType": "uint256",
          "name": "_expectedYield",
          "type": "uint256"
        },
        {
          "internalType": "uint256",
          "name": "_minDeposit",
          "type": "uint256"
        },
        {
          "internalType": "uint256",
          "name": "_maxDeposit",
          "type": "uint256"
        },
        {
          "internalType": "uint256",
          "name": "_duration",
          "type": "uint256"
        }
      ],
      "name": "createStrategy",
      "outputs": [],
      "stateMutability": "nonpayable",
      "type": "function"
    },
    {
      "inputs": [],
      "name": "currentMarketCondition",
      "outputs": [
        {
          "internalType": "uint256",
          "name": "volatility",
          "type": "uint256"
        },
        {
          "internalType": "uint256",
          "name": "liquidity",
          "type": "uint256"
        },
        {
          "internalType": "uint256",
          "name": "yieldTrend",
          "type": "uint256"
        },
        {
          "internalType": "uint256",
          "name": "riskLevel",
          "type": "uint256"
        },
        {
          "internalType": "uint256",
          "name": "timestamp",
          "type": "uint256"
        }
      ],
      "stateMutability": "view",
      "type": "function"
    },
    {
      "inputs": [
        {
          "internalType": "address",
          "name": "_user",
          "type": "address"
        }
      ],
      "name": "generateAIRecommendations",
      "outputs": [
        {
          "internalType": "uint256[]",
          "name": "recommendedStrategies",
          "type": "uint256[]"
        },
        {
          "internalType": "uint256",
          "name": "confidence",
          "type": "uint256"
        }
      ],
      "stateMutability": "view",
      "type": "function"
    },
    {
      "inputs": [],
      "name": "getAIStrategyStats",
      "outputs": [
        {
          "internalType": "uint256",
          "name": "_totalStrategies",
          "type": "uint256"
        },
        {
          "internalType": "uint256",
          "name": "_totalUsersWithStrategies",
          "type": "uint256"
        },
        {
          "internalType": "uint256",
          "name": "_nextStrategyId",
          "type": "uint256"
        }
      ],
      "stateMutability": "view",
      "type": "function"
    },
    {
      "inputs": [],
      "name": "getCurrentMarketCondition",
      "outputs": [
        {
          "internalType": "uint256",
          "name": "volatility",
          "type": "uint256"
        },
        {
          "internalType": "uint256",
          "name": "liquidity",
          "type": "uint256"
        },
        {
          "internalType": "uint256",
          "name": "yieldTrend",
          "type": "uint256"
        },
        {
          "internalType": "uint256",
          "name": "riskLevel",
          "type": "uint256"
        },
        {
          "internalType": "uint256",
          "name": "timestamp",
          "type": "uint256"
        }
      ],
      "stateMutability": "view",
      "type": "function"
    },
    {
      "inputs": [
        {
          "internalType": "uint256",
          "name": "_strategyId",
          "type": "uint256"
        }
      ],
      "name": "getStrategyDetails",
      "outputs": [
        {
          "internalType": "string",
          "name": "name",
          "type": "string"
        },
        {
          "internalType": "string",
          "name": "description",
          "type": "string"
        },
        {
          "internalType": "uint256",
          "name": "riskLevel",
          "type": "uint256"
        },
        {
          "internalType": "uint256",
          "name": "expectedYield",
          "type": "uint256"
        },
        {
          "internalType": "uint256",
          "name": "minDeposit",
          "type": "uint256"
        },
        {
          "internalType": "uint256",
          "name": "maxDeposit",
          "type": "uint256"
        },
        {
          "internalType": "uint256",
          "name": "duration",
          "type": "uint256"
        },
        {
          "internalType": "bool",
          "name": "isActive",
          "type": "bool"
        },
        {
          "internalType": "uint256",
          "name": "totalUsers",
          "type": "uint256"
        },
        {
          "internalType": "uint256",
          "name": "totalVolume",
          "type": "uint256"
        },
        {
          "internalType": "uint256",
          "name": "successRate",
          "type": "uint256"
        }
      ],
      "stateMutability": "view",
      "type": "function"
    },
    {
      "inputs": [
        {
          "internalType": "address",
          "name": "_user",
          "type": "address"
        }
      ],
      "name": "getUserActiveStrategies",
      "outputs": [
        {
          "internalType": "uint256[]",
          "name": "strategyIds",
          "type": "uint256[]"
        },
        {
          "internalType": "uint256[]",
          "name": "depositAmounts",
          "type": "uint256[]"
        },
        {
          "internalType": "uint256[]",
          "name": "endTimes",
          "type": "uint256[]"
        }
      ],
      "stateMutability": "view",
      "type": "function"
    },
    {
      "inputs": [
        {
          "internalType": "address",
          "name": "_owner",
          "type": "address"
        }
      ],
      "name": "initialize",
      "outputs": [],
      "stateMutability": "nonpayable",
      "type": "function"
    },
    {
      "inputs": [],
      "name": "nextStrategyId",
      "outputs": [
        {
          "internalType": "uint256",
          "name": "",
          "type": "uint256"
        }
      ],
      "stateMutability": "view",
      "type": "function"
    },
    {
      "inputs": [],
      "name": "owner",
      "outputs": [
        {
          "internalType": "address",
          "name": "",
          "type": "address"
        }
      ],
      "stateMutability": "view",
      "type": "function"
    },
    {
      "inputs": [],
      "name": "proxiableUUID",
      "outputs": [
        {
          "internalType": "bytes32",
          "name": "",
          "type": "bytes32"
        }
      ],
      "stateMutability": "view",
      "type": "function"
    },
    {
      "inputs": [],
      "name": "renounceOwnership",
      "outputs": [],
      "stateMutability": "nonpayable",
      "type": "function"
    },
    {
      "inputs": [
        {
          "internalType": "uint256",
          "name": "",
          "type": "uint256"
        }
      ],
      "name": "strategies",
      "outputs": [
        {
          "internalType": "uint256",
          "name": "strategyId",
          "type": "uint256"
        },
        {
          "internalType": "string",
          "name": "name",
          "type": "string"
        },
        {
          "internalType": "string",
          "name": "description",
          "type": "string"
        },
        {
          "internalType": "uint256",
          "name": "riskLevel",
          "type": "uint256"
        },
        {
          "internalType": "uint256",
          "name": "expectedYield",
          "type": "uint256"
        },
        {
          "internalType": "uint256",
          "name": "minDeposit",
          "type": "uint256"
        },
        {
          "internalType": "uint256",
          "name": "maxDeposit",
          "type": "uint256"
        },
        {
          "internalType": "uint256",
          "name": "duration",
          "type": "uint256"
        },
        {
          "internalType": "bool",
          "name": "isActive",
          "type": "bool"
        },
        {
          "internalType": "uint256",
          "name": "totalUsers",
          "type": "uint256"
        },
        {
          "internalType": "uint256",
          "name": "totalVolume",
          "type": "uint256"
        },
        {
          "internalType": "uint256",
          "name": "successRate",
          "type": "uint256"
        }
      ],
      "stateMutability": "view",
      "type": "function"
    },
    {
      "inputs": [],
      "name": "totalStrategies",
      "outputs": [
        {
          "internalType": "uint256",
          "name": "",
          "type": "uint256"
        }
      ],
      "stateMutability": "view",
      "type": "function"
    },
    {
      "inputs": [],
      "name": "totalUsersWithStrategies",
      "outputs": [
        {
          "internalType": "uint256",
          "name": "",
          "type": "uint256"
        }
      ],
      "stateMutability": "view",
      "type": "function"
    },
    {
      "inputs": [
        {
          "internalType": "address",
          "name": "newOwner",
          "type": "address"
        }
      ],
      "name": "transferOwnership",
      "outputs": [],
      "stateMutability": "nonpayable",
      "type": "function"
    },
    {
      "inputs": [],
      "name": "updateMarketCondition",
      "outputs": [],
      "stateMutability": "nonpayable",
      "type": "function"
    },
    {
      "inputs": [
        {
          "internalType": "address",
          "name": "newImplementation",
          "type": "address"
        },
        {
          "internalType": "bytes",
          "name": "data",
          "type": "bytes"
        }
      ],
      "name": "upgradeToAndCall",
      "outputs": [],
      "stateMutability": "payable",
      "type": "function"
    },
    {
      "inputs": [
        {
          "internalType": "address",
          "name": "",
          "type": "address"
        },
        {
          "internalType": "uint256",
          "name": "",
          "type": "uint256"
        }
      ],
      "name": "userStrategies",
      "outputs": [
        {
          "internalType": "uint256",
          "name": "strategyId",
          "type": "uint256"
        },
        {
          "internalType": "uint256",
          "name": "depositAmount",
          "type": "uint256"
        },
        {
          "internalType": "uint256",
          "name": "startTime",
          "type": "uint256"
        },
        {
          "internalType": "uint256",
          "name": "endTime",
          "type": "uint256"
        },
        {
          "internalType": "uint256",
          "name": "expectedReturn",
          "type": "uint256"
        },
        {
          "internalType": "uint256",
          "name": "actualReturn",
          "type": "uint256"
        },
        {
          "internalType": "bool",
          "name": "isActive",
          "type": "bool"
        },
        {
          "internalType": "uint256",
          "name": "performanceScore",
          "type": "uint256"
        }
      ],
      "stateMutability": "view",
      "type": "function"
    },
    {
      "inputs": [
        {
          "internalType": "address",
          "name": "",
          "type": "address"
        }
      ],
      "name": "userStrategyCount",
      "outputs": [
        {
          "internalType": "uint256",
          "name": "",
          "type": "uint256"
        }
      ],
      "stateMutability": "view",
      "type": "function"
    },
    {
      "inputs": [
        {
          "internalType": "address",
          "name": "",
          "type": "address"
        }
      ],
      "name": "userTotalPerformance",
      "outputs": [
        {
          "internalType": "uint256",
          "name": "",
          "type": "uint256"
        }
      ],
      "stateMutability": "view",
      "type": "function"
    }
  ],
  "bytecode": "0x60a0604052306080523480156200001557600080fd5b506200002062000026565b620000da565b7ff0c57e16840df040f15088dc2f81fe391c3923bec73e23a9662efc9c229c6a00805468010000000000000000900460ff1615620000775760405163f92ee8a960e01b815260040160405180910390fd5b80546001600160401b0390811614620000d75780546001600160401b0319166001600160401b0390811782556040519081527fc7f505b2f371ae2175ee4913f4499e1f2633a7b5936321eed1cdaeb6115181d29060200160405180910390a15b50565b608051612c4662000104600039600081816118610152818161188a01526119d00152612c466000f3fe6080604052600436106101ee5760003560e01c8063746065f81161010d578063d574ea3d116100a0578063e42836e21161006f578063e42836e214610608578063f2fde38b14610628578063f96d7b8014610648578063fd0e841a146104fc578063fe25333a1461065e57600080fd5b8063d574ea3d14610577578063df25d079146105af578063e382662d146105c4578063e3c8f127146105f257600080fd5b8063b3a591a5116100dc578063b3a591a5146104fc578063b806a23e14610511578063c4d66de814610542578063cc8317851461056257600080fd5b8063746065f8146104375780638da5cb5b146104575780639373e58a1461049e578063ad3cb1cc146104be57600080fd5b8063390bc5f21161018557806352d1902d1161015457806352d1902d146103e35780635e5bc962146103f85780636bc232721461040d578063715018a61461042257600080fd5b8063390bc5f21461032f5780633bf8b3cc1461035c5780633e9f9e49146103735780634f1ef286146103d057600080fd5b80630ef28951116101c15780630ef28951146102a5578063175805fe146102bb578063185f8447146102e257806332a50c7f146102f857600080fd5b806304ed2b27146101f35780630afce9021461021b5780630bc65c0f146102605780630d21ea041461028f575b600080fd5b3480156101ff57600080fd5b50610208600a81565b6040519081526020015b60405180910390f35b34801561022757600080fd5b506004546005546006546007546008545b604080519586526020860194909452928401919091526060830152608082015260a001610212565b34801561026c57600080fd5b5061028061027b3660046123b6565b61068b565b6040516102129392919061240d565b34801561029b57600080fd5b506102086103e881565b3480156102b157600080fd5b50610208600b5481565b3480156102c757600080fd5b50600454600554600654600754600854610238949392919085565b3480156102ee57600080fd5b5061020860095481565b34801561030457600080fd5b50610318610313366004612450565b61098f565b6040516102129b9a999897969594939291906124b9565b34801561033b57600080fd5b5061020861034a3660046123b6565b60036020526000908152604090205481565b34801561036857600080fd5b50610371610b83565b005b34801561037f57600080fd5b5061039361038e36600461252b565b610b95565b604080519889526020890197909752958701949094526060860192909252608085015260a0840152151560c083015260e082015261010001610212565b6103716103de3660046125e1565b610bfd565b3480156103ef57600080fd5b50610208610c1c565b34801561040457600080fd5b50610208606481565b34801561041957600080fd5b50610208600181565b34801561042e57600080fd5b50610371610c39565b34801561044357600080fd5b50610371610452366004612450565b610c4b565b34801561046357600080fd5b507f9016d09d72d40fdae2fd8ceac6b6234c7706214fd39c1cd1e609a0528c199300546040516001600160a01b039091168152602001610212565b3480156104aa57600080fd5b506103716104b9366004612663565b610ef3565b3480156104ca57600080fd5b506104ef604051806040016040528060058152602001640352e302e360dc1b81525081565b60405161021291906126f3565b34801561050857600080fd5b50610208601981565b34801561051d57600080fd5b50600a54600b5460095460408051938452602084019290925290820152606001610212565b34801561054e57600080fd5b5061037161055d3660046123b6565b610f13565b34801561056e57600080fd5b50610208601e81565b34801561058357600080fd5b50610597610592366004612450565b611034565b6040516102129c9b9a99989796959493929190612706565b3480156105bb57600080fd5b50610208601481565b3480156105d057600080fd5b506105e46105df3660046123b6565b6111a6565b604051610212929190612780565b3480156105fe57600080fd5b5061020861138881565b34801561061457600080fd5b506103716106233660046127a2565b6113e9565b34801561063457600080fd5b506103716106433660046123b6565b6116f4565b34801561065457600080fd5b50610208600a5481565b34801561066a57600080fd5b506102086106793660046123b6565b60026020526000908152604090205481565b60608060606000805b6001600160a01b038616600090815260016020526040902054811015610710576001600160a01b03861660009081526001602052604090208054829081106106de576106de6127c4565b600091825260209091206006600890920201015460ff16156107085781610704816127f0565b9250505b600101610694565b508067ffffffffffffffff81111561072a5761072a612555565b604051908082528060200260200182016040528015610753578160200160208202803683370190505b5093508067ffffffffffffffff81111561076f5761076f612555565b604051908082528060200260200182016040528015610798578160200160208202803683370190505b5092508067ffffffffffffffff8111156107b4576107b4612555565b6040519080825280602002602001820160405280156107dd578160200160208202803683370190505b5091506000805b6001600160a01b038716600090815260016020526040902054811015610985576001600160a01b038716600090815260016020526040902080548290811061082e5761082e6127c4565b600091825260209091206006600890920201015460ff161561097d576001600160a01b0387166000908152600160205260409020805482908110610874576108746127c4565b906000526020600020906008020160000154868381518110610898576108986127c4565b60200260200101818152505060016000886001600160a01b03166001600160a01b0316815260200190815260200160002081815481106108da576108da6127c4565b9060005260206000209060080201600101548583815181106108fe576108fe6127c4565b60200260200101818152505060016000886001600160a01b03166001600160a01b031681526020019081526020016000208181548110610940576109406127c4565b906000526020600020906008020160030154848381518110610964576109646127c4565b602090810291909101015281610979816127f0565b9250505b6001016107e4565b5050509193909250565b6060806000806000806000806000806000806000808e815260200190815260200160002090508060000154600003610a035760405162461bcd60e51b815260206004820152601260248201527114dd1c985d1959de481b9bdd08199bdd5b9960721b60448201526064015b60405180910390fd5b8060010181600201826003015483600401548460050154856006015486600701548760080160009054906101000a900460ff16886009015489600a01548a600b01548a8054610a5190612809565b80601f0160208091040260200160405190810160405280929190818152602001828054610a7d90612809565b8015610aca5780601f10610a9f57610100808354040283529160200191610aca565b820191906000526020600020905b815481529060010190602001808311610aad57829003601f168201915b50505050509a50898054610add90612809565b80601f0160208091040260200160405190810160405280929190818152602001828054610b0990612809565b8015610b565780601f10610b2b57610100808354040283529160200191610b56565b820191906000526020600020905b815481529060010190602001808311610b3957829003601f168201915b505050505099509b509b509b509b509b509b509b509b509b509b509b505091939597999b90929496989a50565b610b8b61172f565b610b9361178a565b565b60016020528160005260406000208181548110610bb157600080fd5b6000918252602090912060089091020180546001820154600283015460038401546004850154600586015460068701546007909701549598509396509194909391929160ff9091169088565b610c05611856565b610c0e826118fb565b610c188282611903565b5050565b6000610c266119c5565b50600080516020612b5383398151915290565b610c4161172f565b610b936000611a0e565b610c53611a7f565b336000908152600160205260409020548110610caa5760405162461bcd60e51b8152602060048201526016602482015275092dcecc2d8d2c840e6e8e4c2e8cacef240d2dcc8caf60531b60448201526064016109fa565b336000908152600160205260408120805483908110610ccb57610ccb6127c4565b60009182526020909120600890910201600681015490915060ff16610d285760405162461bcd60e51b81526020600482015260136024820152725374726174656779206e6f742061637469766560681b60448201526064016109fa565b8060030154421015610d7c5760405162461bcd60e51b815260206004820152601a60248201527f5374726174656779206e6f7420636f6d706c657465642079657400000000000060448201526064016109fa565b604080516101008101825282548152600183015460208201526002830154918101919091526003820154606082015260048201546080820152600582015460a0820152600682015460ff16151560c0820152600782015460e0820152600090610de490611ab7565b6005830181905560068301805460ff1916905560408051610100810182528454815260018501546020820152600285015491810191909152600384015460608201526004840154608082015260a08101829052600060c08201819052600785015460e0830152919250610e5690611bdb565b6007840181905533600090815260036020526040812080549293508392909190610e81908490612843565b90915550508254610e929082611c7a565b825460408051848152602081018490524281830152905133917f33b648445e4fbcc091bac2f983632cb7113a5bfa101421cc24c668d19147885d919081900360600190a3505050610ef06001600080516020612bb683398151915255565b50565b610efb61172f565b610f0a87878787878787611cde565b50505050505050565b6000610f1d611f19565b805490915060ff600160401b820416159067ffffffffffffffff16600081158015610f455750825b905060008267ffffffffffffffff166001148015610f625750303b155b905081158015610f70575080155b15610f8e5760405163f92ee8a960e01b815260040160405180910390fd5b845467ffffffffffffffff191660011785558315610fb857845460ff60401b1916600160401b1785555b610fc186611f44565b610fc9611f55565b610fd1611f5d565b6001600955610fde611f6d565b610fe661178a565b831561102c57845460ff60401b19168555604051600181527fc7f505b2f371ae2175ee4913f4499e1f2633a7b5936321eed1cdaeb6115181d29060200160405180910390a15b505050505050565b6000602081905290815260409020805460018201805491929161105690612809565b80601f016020809104026020016040519081016040528092919081815260200182805461108290612809565b80156110cf5780601f106110a4576101008083540402835291602001916110cf565b820191906000526020600020905b8154815290600101906020018083116110b257829003601f168201915b5050505050908060020180546110e490612809565b80601f016020809104026020016040519081016040528092919081815260200182805461111090612809565b801561115d5780601f106111325761010080835404028352916020019161115d565b820191906000526020600020905b81548152906001019060200180831161114057829003601f168201915b50505060038401546004850154600586015460068701546007880154600889015460098a0154600a8b0154600b909b0154999a96999598509396509194909360ff90921692918c565b6001600160a01b038116600090815260036020908152604080832054600290925282205460609291908083036111df57603c9250611210565b600a6111eb828461286c565b6111f5919061286c565b611200906046612843565b9250605f83111561121057605f92505b6040805160038082526080820190925260009160208201606080368337019050509050600060015b600a5481116113495760008181526020819052604090206008015460ff161561133757600081815260208190526040812060045490919060031080159061128457506003826003015411155b15611291575060016112f6565b6004546007118015906112a957506007826003015410155b156112b6575060016112f6565b60048054108015906112cb5750600454600610155b80156112dc57506004826003015410155b80156112ed57506006826003015411155b156112f6575060015b8080156113035750600384105b15611334578285858151811061131b5761131b6127c4565b602090810291909101015283611330816127f0565b9450505b50505b80611341816127f0565b915050611238565b5060008167ffffffffffffffff81111561136557611365612555565b60405190808252806020026020018201604052801561138e578160200160208202803683370190505b50905060005b828110156113db578381815181106113ae576113ae6127c4565b60200260200101518282815181106113c8576113c86127c4565b6020908102919091010152600101611394565b508096505050505050915091565b6113f1611a7f565b60008281526020819052604090206008015460ff166114485760405162461bcd60e51b81526020600482015260136024820152725374726174656779206e6f742061637469766560681b60448201526064016109fa565b6000828152602081905260409020600501548110156114a15760405162461bcd60e51b81526020600482015260156024820152744465706f7369742062656c6f77206d696e696d756d60581b60448201526064016109fa565b6000828152602081905260409020600601548111156114fa5760405162461bcd60e51b81526020600482015260156024820152744465706f7369742061626f7665206d6178696d756d60581b60448201526064016109fa565b60008281526020819052604081206007810154600482015491929164496cebb80091906115279086612880565b6115319190612880565b61153b919061286c565b905060006040518061010001604052808681526020018581526020014281526020018460070154620151806115709190612880565b61157a9042612843565b81526020808201859052600060408084018290526001606080860182905260809586018490523380855282865283852080548085018255908652868620895160089092020190815588870151938101939093558784015160028085019190915591880151600384015595870151600483015560a0870151600583015560c087015160068301805460ff191691151591909117905560e087015160079092019190915593825292909152908120805492935090611635836127f0565b909155505060098301805490600061164c836127f0565b91905055508383600a0160008282546116659190612843565b90915550503360009081526002602052604090205460010361169757600b8054906000611691836127f0565b91905055505b604080518581526020810184905242818301529051869133917f762cf3bda0d16f2f91a668d962b437b451106bcdc05b08e9fe446cd3309e2e279181900360600190a3505050610c186001600080516020612bb683398151915255565b6116fc61172f565b6001600160a01b03811661172657604051631e4fbdf760e01b8152600060048201526024016109fa565b610ef081611a0e565b336117617f9016d09d72d40fdae2fd8ceac6b6234c7706214fd39c1cd1e609a0528c199300546001600160a01b031690565b6001600160a01b031614610b935760405163118cdaa760e01b81523360048201526024016109fa565b6040518060a001604052806117a16001600a6120fd565b81526020016117b26001600a6120fd565b81526020016117c36001600a6120fd565b81526020016117d46001600a6120fd565b81524260209182018190528251600481905583830151600581905560408086015160068190556060808801516007819055608098890151600855835195865296850193909352838201529082019390935292830152517f09d32a4039b2b9507fbf67196f289ad4a43218a4fefbd3774dcbc1244740de429181900360a00190a1565b306001600160a01b037f00000000000000000000000000000000000000000000000000000000000000001614806118dd57507f00000000000000000000000000000000000000000000000000000000000000006001600160a01b03166118d1600080516020612b53833981519152546001600160a01b031690565b6001600160a01b031614155b15610b935760405163703e46dd60e11b815260040160405180910390fd5b610ef061172f565b816001600160a01b03166352d1902d6040518163ffffffff1660e01b8152600401602060405180830381865afa92505050801561195d575060408051601f3d908101601f1916820190925261195a91810190612897565b60015b61198557604051634c9c8ce360e01b81526001600160a01b03831660048201526024016109fa565b600080516020612b5383398151915281146119b657604051632a87526960e21b8152600481018290526024016109fa565b6119c08383612180565b505050565b306001600160a01b037f00000000000000000000000000000000000000000000000000000000000000001614610b935760405163703e46dd60e11b815260040160405180910390fd5b7f9016d09d72d40fdae2fd8ceac6b6234c7706214fd39c1cd1e609a0528c19930080546001600160a01b031981166001600160a01b03848116918217845560405192169182907f8be0079c531659141344cd1fd0a4f28419497f9722a3daafe3b4186f6b6457e090600090a3505050565b600080516020612bb6833981519152805460011901611ab157604051633ee5aeb560e01b815260040160405180910390fd5b60029055565b8051600090815260208190526040812060808301516004548390606490611adf90600a612880565b611ae9919061286c565b9050600060646004600101546005611b019190612880565b611b0b919061286c565b905060006064600460020154600f611b239190612880565b611b2d919061286c565b9050600081611b3c84866128b0565b611b4691906128b0565b9050600586600301541115611b76576003860154611b65906002612880565b611b6f90826128b0565b9050611b9e565b6003860154611b869060066128d8565b611b91906002612880565b611b9b90826128eb565b90505b60006064611bac838861290b565b611bb6919061293b565b611bc090876128b0565b90506000811215611bcf575060005b98975050505050505050565b60008160800151600003611bf157506000919050565b600082608001518360a001516064611c099190612880565b611c13919061286c565b90506064808210611c4b576000611c2b6064846128d8565b611c36906002612880565b9050611c428183612843565b95945050505050565b6000611c588360646128d8565b611c63906001612880565b905081811115611c705750805b611c4281836128d8565b6000828152602081905260408120600b810154909160026064851015611ca1576000611ca4565b60645b611cb19060ff1684612843565b611cbb919061286c565b600b9093019290925550505050565b6001600080516020612bb683398151915255565b60018510158015611cf05750600a8511155b611d315760405162461bcd60e51b8152602060048201526012602482015271125b9d985b1a59081c9a5cdac81b195d995b60721b60448201526064016109fa565b60648410158015611d4457506113888411155b611d895760405162461bcd60e51b8152602060048201526016602482015275125b9d985b1a5908195e1c1958dd1959081e5a595b1960521b60448201526064016109fa565b600083118015611d9857508282115b611ddd5760405162461bcd60e51b8152602060048201526016602482015275496e76616c6964206465706f736974206c696d69747360501b60448201526064016109fa565b600081118015611def575061016d8111155b611e2e5760405162461bcd60e51b815260206004820152601060248201526f24b73b30b634b210323ab930ba34b7b760811b60448201526064016109fa565b6009805460009182611e3f836127f0565b90915550600081815260208190526040902081815590915060018101611e658a826129b1565b5060028101611e7489826129b1565b50600381018790556004810186905560058101859055600681018490556007810183905560088101805460ff19166001179055600060098201819055600a8083018290556064600b840155805491611ecb836127f0565b9190505550817fa40bf27e85ad8b209a1c29f5befb108d9497747a98f4868caf957eedb89ceb8b8a898942604051611f069493929190612a71565b60405180910390a2505050505050505050565b6000807ff0c57e16840df040f15088dc2f81fe391c3923bec73e23a9662efc9c229c6a005b92915050565b611f4c6121d6565b610ef0816121fb565b610b936121d6565b611f656121d6565b610b93612203565b611fd26040518060400160405280601281526020017110dbdb9cd95c9d985d1a5d9948165a595b1960721b815250604051806080016040528060438152602001612b7360439139600261032067016345785d8a0000678ac7230489e80000601e611cde565b6120346040518060400160405280600f81526020016e084c2d8c2dcc6cac8408ee4deeee8d608b1b8152506040518060600160405280603b8152602001612bd6603b913960056105dc66b1a2bc2ec500006802b5e3af16b1880000603c611cde565b61209d6040518060400160405280601581526020017448696768205969656c64204167677265737369766560581b815250604051806080016040528060418152602001612ad1604191396008610bb86702c68af0bb14000068056bc75e2d63100000605a611cde565b610b936040518060400160405280600c81526020016b44654669204661726d696e6760a01b815250604051806080016040528060418152602001612b126041913960066107d067016345785d8a0000680ad78ebc5ac6200000602d611cde565b600061210983836128d8565b612114906001612843565b42443360405160200161214c93929190928352602083019190915260601b6bffffffffffffffffffffffff1916604082015260540190565b6040516020818303038152906040528051906020012060001c61216f9190612aa0565b6121799084612843565b9392505050565b6121898261220b565b6040516001600160a01b038316907fbc7cd75a20ee27fd9adebab32041f755214dbc6bffa90cc0225b39da2e5c2d3b90600090a28051156121ce576119c08282612270565b610c186122dd565b6121de6122fc565b610b9357604051631afcd79f60e31b815260040160405180910390fd5b6116fc6121d6565b611cca6121d6565b806001600160a01b03163b60000361224157604051634c9c8ce360e01b81526001600160a01b03821660048201526024016109fa565b600080516020612b5383398151915280546001600160a01b0319166001600160a01b0392909216919091179055565b6060600080846001600160a01b03168460405161228d9190612ab4565b600060405180830381855af49150503d80600081146122c8576040519150601f19603f3d011682016040523d82523d6000602084013e6122cd565b606091505b5091509150611c42858383612316565b3415610b935760405163b398979f60e01b815260040160405180910390fd5b6000612306611f19565b54600160401b900460ff16919050565b60608261232b5761232682612372565b612179565b815115801561234257506001600160a01b0384163b155b1561236b57604051639996b31560e01b81526001600160a01b03851660048201526024016109fa565b5092915050565b80511561238157805160208201fd5b60405163d6bda27560e01b815260040160405180910390fd5b80356001600160a01b03811681146123b157600080fd5b919050565b6000602082840312156123c857600080fd5b6121798261239a565b60008151808452602080850194506020840160005b83811015612402578151875295820195908201906001016123e6565b509495945050505050565b60608152600061242060608301866123d1565b828103602084015261243281866123d1565b9050828103604084015261244681856123d1565b9695505050505050565b60006020828403121561246257600080fd5b5035919050565b60005b8381101561248457818101518382015260200161246c565b50506000910152565b600081518084526124a5816020860160208601612469565b601f01601f19169290920160200192915050565b60006101608083526124cd8184018f61248d565b905082810360208401526124e1818e61248d565b604084019c909c5250506060810198909852608088019690965260a087019490945260c0860192909252151560e08501526101008401526101208301526101409091015292915050565b6000806040838503121561253e57600080fd5b6125478361239a565b946020939093013593505050565b634e487b7160e01b600052604160045260246000fd5b600067ffffffffffffffff8084111561258657612586612555565b604051601f8501601f19908116603f011681019082821181831017156125ae576125ae612555565b816040528093508581528686860111156125c757600080fd5b858560208301376000602087830101525050509392505050565b600080604083850312156125f457600080fd5b6125fd8361239a565b9150602083013567ffffffffffffffff81111561261957600080fd5b8301601f8101851361262a57600080fd5b6126398582356020840161256b565b9150509250929050565b600082601f83011261265457600080fd5b6121798383356020850161256b565b600080600080600080600060e0888a03121561267e57600080fd5b873567ffffffffffffffff8082111561269657600080fd5b6126a28b838c01612643565b985060208a01359150808211156126b857600080fd5b506126c58a828b01612643565b979a9799505050506040860135956060810135956080820135955060a0820135945060c09091013592509050565b602081526000612179602083018461248d565b60006101808e83528060208401526127208184018f61248d565b90508281036040840152612734818e61248d565b606084019c909c525050608081019890985260a088019690965260c087019490945260e08601929092521515610100850152610120840152610140830152610160909101529392505050565b60408152600061279360408301856123d1565b90508260208301529392505050565b600080604083850312156127b557600080fd5b50508035926020909101359150565b634e487b7160e01b600052603260045260246000fd5b634e487b7160e01b600052601160045260246000fd5b600060018201612802576128026127da565b5060010190565b600181811c9082168061281d57607f821691505b60208210810361283d57634e487b7160e01b600052602260045260246000fd5b50919050565b80820180821115611f3e57611f3e6127da565b634e487b7160e01b600052601260045260246000fd5b60008261287b5761287b612856565b500490565b8082028115828204841417611f3e57611f3e6127da565b6000602082840312156128a957600080fd5b5051919050565b80820182811260008312801582168215821617156128d0576128d06127da565b505092915050565b81810381811115611f3e57611f3e6127da565b818103600083128015838313168383128216171561236b5761236b6127da565b80820260008212600160ff1b84141615612927576129276127da565b8181058314821517611f3e57611f3e6127da565b60008261294a5761294a612856565b600160ff1b821460001984141615612964576129646127da565b500590565b601f8211156119c0576000816000526020600020601f850160051c810160208610156129925750805b601f850160051c820191505b8181101561102c5782815560010161299e565b815167ffffffffffffffff8111156129cb576129cb612555565b6129df816129d98454612809565b84612969565b602080601f831160018114612a1457600084156129fc5750858301515b600019600386901b1c1916600185901b17855561102c565b600085815260208120601f198616915b82811015612a4357888601518255948401946001909101908401612a24565b5085821015612a615787850151600019600388901b60f8161c191681555b5050505050600190811b01905550565b608081526000612a84608083018761248d565b6020830195909552506040810192909252606090910152919050565b600082612aaf57612aaf612856565b500690565b60008251612ac6818460208701612469565b919091019291505056fe486967682d7269736b20737472617465677920746172676574696e67206d6178696d756d207969656c6420776974682068696768657220766f6c6174696c697479537472617465677920666f6375736564206f6e20446546692070726f746f636f6c206661726d696e6720616e64206c69717569646974792070726f766973696f6e360894a13ba1a3210667c828492db98dca3e2076cc3735a920a3ca505d382bbc4c6f772d7269736b20737472617465677920666f637573696e67206f6e20737461626c65207969656c64732077697468206d696e696d616c20766f6c6174696c6974799b779b17422d0df92223018b32b4d1fa46e071723d6817e2486d003becc55f004d6f646572617465207269736b2073747261746567792062616c616e63696e67207969656c6420616e642067726f77746820706f74656e7469616ca2646970667358221220c4742f565449bdd0ad0d309f8eddbe61b6ae46c21f7869e43e003362204a188c64736f6c63430008160033",
  "linkReferences": {},
  "deployedLinkReferences": {}
}