{
  "_format": "hh-sol-artifact-1",
  "contractName": "RealFiToken",
  "sourceName": "contracts/RealFiToken.sol",
  "abi": [
    {
      "inputs": [],
      "stateMutability": "nonpayable",
      "type": "constructor"
    },
    {
      "inputs": [
        {
          "internalType": "address",
          "name": "spender",
          "type": "address"
        },
        {
          "internalType": "uint256",
          "name": "allowance",
          "type": "uint256"
        },
        {
          "internalType": "uint256",
          "name": "needed",
          "type": "uint256"
        }
      ],
      "name": "ERC20InsufficientAllowance",
      "type": "error"
    },
    {
      "inputs": [
        {
          "internalType": "address",
          "name": "sender",
          "type": "address"
        },
        {
          "internalType": "uint256",
          "name": "balance",
          "type": "uint256"
        },
        {
          "internalType": "uint256",
          "name": "needed",
          "type": "uint256"
        }
      ],
      "name": "ERC20InsufficientBalance",
      "type": "error"
    },
    {
      "inputs": [
        {
          "internalType": "address",
          "name": "approver",
          "type": "address"
        }
      ],
      "name": "ERC20InvalidApprover",
      "type": "error"
    },
    {
      "inputs": [
        {
          "internalType": "address",
          "name": "receiver",
          "type": "address"
        }
      ],
      "name": "ERC20InvalidReceiver",
      "type": "error"
    },
    {
      "inputs": [
        {
          "internalType": "address",
          "name": "sender",
          "type": "address"
        }
      ],
      "name": "ERC20InvalidSender",
      "type": "error"
    },
    {
      "inputs": [
        {
          "internalType": "address",
          "name": "spender",
          "type": "address"
        }
      ],
      "name": "ERC20InvalidSpender",
      "type": "error"
    },
    {
      "inputs": [
        {
          "internalType": "address",
          "name": "owner",
          "type": "address"
        }
      ],
      "name": "OwnableInvalidOwner",
      "type": "error"
    },
    {
      "inputs": [
        {
          "internalType": "address",
          "name": "account",
          "type": "address"
        }
      ],
      "name": "OwnableUnauthorizedAccount",
      "type": "error"
    },
    {
      "anonymous": false,
      "inputs": [
        {
          "indexed": true,
          "internalType": "address",
          "name": "owner",
          "type": "address"
        },
        {
          "indexed": true,
          "internalType": "address",
          "name": "spender",
          "type": "address"
        },
        {
          "indexed": false,
          "internalType": "uint256",
          "name": "value",
          "type": "uint256"
        }
      ],
      "name": "Approval",
      "type": "event"
    },
    {
      "anonymous": false,
      "inputs": [
        {
          "indexed": true,
          "internalType": "address",
          "name": "previousOwner",
          "type": "address"
        },
        {
          "indexed": true,
          "internalType": "address",
          "name": "newOwner",
          "type": "address"
        }
      ],
      "name": "OwnershipTransferred",
      "type": "event"
    },
    {
      "anonymous": false,
      "inputs": [
        {
          "indexed": true,
          "internalType": "address",
          "name": "from",
          "type": "address"
        },
        {
          "indexed": true,
          "internalType": "address",
          "name": "to",
          "type": "address"
        },
        {
          "indexed": false,
          "internalType": "uint256",
          "name": "value",
          "type": "uint256"
        }
      ],
      "name": "Transfer",
      "type": "event"
    },
    {
      "inputs": [],
      "name": "INITIAL_SUPPLY",
      "outputs": [
        {
          "internalType": "uint256",
          "name": "",
          "type": "uint256"
        }
      ],
      "stateMutability": "view",
      "type": "function"
    },
    {
      "inputs": [],
      "name": "MAX_SUPPLY",
      "outputs": [
        {
          "internalType": "uint256",
          "name": "",
          "type": "uint256"
        }
      ],
      "stateMutability": "view",
      "type": "function"
    },
    {
      "inputs": [
        {
          "internalType": "address",
          "name": "owner",
          "type": "address"
        },
        {
          "internalType": "address",
          "name": "spender",
          "type": "address"
        }
      ],
      "name": "allowance",
      "outputs": [
        {
          "internalType": "uint256",
          "name": "",
          "type": "uint256"
        }
      ],
      "stateMutability": "view",
      "type": "function"
    },
    {
      "inputs": [
        {
          "internalType": "address",
          "name": "spender",
          "type": "address"
        },
        {
          "internalType": "uint256",
          "name": "value",
          "type": "uint256"
        }
      ],
      "name": "approve",
      "outputs": [
        {
          "internalType": "bool",
          "name": "",
          "type": "bool"
        }
      ],
      "stateMutability": "nonpayable",
      "type": "function"
    },
    {
      "inputs": [
        {
          "internalType": "address",
          "name": "account",
          "type": "address"
        }
      ],
      "name": "balanceOf",
      "outputs": [
        {
          "internalType": "uint256",
          "name": "",
          "type": "uint256"
        }
      ],
      "stateMutability": "view",
      "type": "function"
    },
    {
      "inputs": [
        {
          "internalType": "uint256",
          "name": "amount",
          "type": "uint256"
        }
      ],
      "name": "burn",
      "outputs": [],
      "stateMutability": "nonpayable",
      "type": "function"
    },
    {
      "inputs": [],
      "name": "decimals",
      "outputs": [
        {
          "internalType": "uint8",
          "name": "",
          "type": "uint8"
        }
      ],
      "stateMutability": "view",
      "type": "function"
    },
    {
      "inputs": [
        {
          "internalType": "address",
          "name": "to",
          "type": "address"
        },
        {
          "internalType": "uint256",
          "name": "amount",
          "type": "uint256"
        }
      ],
      "name": "mint",
      "outputs": [],
      "stateMutability": "nonpayable",
      "type": "function"
    },
    {
      "inputs": [],
      "name": "name",
      "outputs": [
        {
          "internalType": "string",
          "name": "",
          "type": "string"
        }
      ],
      "stateMutability": "view",
      "type": "function"
    },
    {
      "inputs": [],
      "name": "owner",
      "outputs": [
        {
          "internalType": "address",
          "name": "",
          "type": "address"
        }
      ],
      "stateMutability": "view",
      "type": "function"
    },
    {
      "inputs": [
        {
          "internalType": "uint256",
          "name": "amount",
          "type": "uint256"
        }
      ],
      "name": "publicMint",
      "outputs": [],
      "stateMutability": "nonpayable",
      "type": "function"
    },
    {
      "inputs": [],
      "name": "renounceOwnership",
      "outputs": [],
      "stateMutability": "nonpayable",
      "type": "function"
    },
    {
      "inputs": [],
      "name": "symbol",
      "outputs": [
        {
          "internalType": "string",
          "name": "",
          "type": "string"
        }
      ],
      "stateMutability": "view",
      "type": "function"
    },
    {
      "inputs": [],
      "name": "totalSupply",
      "outputs": [
        {
          "internalType": "uint256",
          "name": "",
          "type": "uint256"
        }
      ],
      "stateMutability": "view",
      "type": "function"
    },
    {
      "inputs": [
        {
          "internalType": "address",
          "name": "to",
          "type": "address"
        },
        {
          "internalType": "uint256",
          "name": "value",
          "type": "uint256"
        }
      ],
      "name": "transfer",
      "outputs": [
        {
          "internalType": "bool",
          "name": "",
          "type": "bool"
        }
      ],
      "stateMutability": "nonpayable",
      "type": "function"
    },
    {
      "inputs": [
        {
          "internalType": "address",
          "name": "from",
          "type": "address"
        },
        {
          "internalType": "address",
          "name": "to",
          "type": "address"
        },
        {
          "internalType": "uint256",
          "name": "value",
          "type": "uint256"
        }
      ],
      "name": "transferFrom",
      "outputs": [
        {
          "internalType": "bool",
          "name": "",
          "type": "bool"
        }
      ],
      "stateMutability": "nonpayable",
      "type": "function"
    },
    {
      "inputs": [
        {
          "internalType": "address",
          "name": "newOwner",
          "type": "address"
        }
      ],
      "name": "transferOwnership",
      "outputs": [],
      "stateMutability": "nonpayable",
      "type": "function"
    }
  ],
  "bytecode": "0x60806040523480156200001157600080fd5b50336040518060400160405280600c81526020016b2932b0b62334902a37b5b2b760a11b8152506040518060400160405280600381526020016214919560ea1b815250816003908162000065919062000339565b50600462000074828262000339565b5050506001600160a01b038116620000a757604051631e4fbdf760e01b8152600060048201526024015b60405180910390fd5b620000b281620000cf565b50620000c93369d3c21bcecceda100000062000121565b6200042d565b600580546001600160a01b038381166001600160a01b0319831681179093556040519116919082907f8be0079c531659141344cd1fd0a4f28419497f9722a3daafe3b4186f6b6457e090600090a35050565b6001600160a01b0382166200014d5760405163ec442f0560e01b8152600060048201526024016200009e565b6200015b600083836200015f565b5050565b6001600160a01b0383166200018e57806002600082825462000182919062000405565b90915550620002029050565b6001600160a01b03831660009081526020819052604090205481811015620001e35760405163391434e360e21b81526001600160a01b038516600482015260248101829052604481018390526064016200009e565b6001600160a01b03841660009081526020819052604090209082900390555b6001600160a01b03821662000220576002805482900390556200023f565b6001600160a01b03821660009081526020819052604090208054820190555b816001600160a01b0316836001600160a01b03167fddf252ad1be2c89b69c2b068fc378daa952ba7f163c4a11628f55a4df523b3ef836040516200028591815260200190565b60405180910390a3505050565b634e487b7160e01b600052604160045260246000fd5b600181811c90821680620002bd57607f821691505b602082108103620002de57634e487b7160e01b600052602260045260246000fd5b50919050565b601f82111562000334576000816000526020600020601f850160051c810160208610156200030f5750805b601f850160051c820191505b8181101562000330578281556001016200031b565b5050505b505050565b81516001600160401b0381111562000355576200035562000292565b6200036d81620003668454620002a8565b84620002e4565b602080601f831160018114620003a557600084156200038c5750858301515b600019600386901b1c1916600185901b17855562000330565b600085815260208120601f198616915b82811015620003d657888601518255948401946001909101908401620003b5565b5085821015620003f55787850151600019600388901b60f8161c191681555b5050505050600190811b01905550565b808201808211156200042757634e487b7160e01b600052601160045260246000fd5b92915050565b610ace806200043d6000396000f3fe608060405234801561001057600080fd5b506004361061010b5760003560e01c806340c10f19116100a25780638da5cb5b116100715780638da5cb5b1461021457806395d89b411461022f578063a9059cbb14610237578063dd62ed3e1461024a578063f2fde38b1461028357600080fd5b806340c10f19146101bd57806342966c68146101d057806370a08231146101e3578063715018a61461020c57600080fd5b80632db11544116100de5780632db11544146101765780632ff2e9dc1461018b578063313ce5671461019c57806332cb6b0c146101ab57600080fd5b806306fdde0314610110578063095ea7b31461012e57806318160ddd1461015157806323b872dd14610163575b600080fd5b610118610296565b60405161012591906108fe565b60405180910390f35b61014161013c366004610969565b610328565b6040519015158152602001610125565b6002545b604051908152602001610125565b610141610171366004610993565b610342565b6101896101843660046109cf565b610366565b005b61015569d3c21bcecceda100000081565b60405160128152602001610125565b6101556a084595161401484a00000081565b6101896101cb366004610969565b610435565b6101896101de3660046109cf565b6104ae565b6101556101f13660046109e8565b6001600160a01b031660009081526020819052604090205490565b6101896104b8565b6005546040516001600160a01b039091168152602001610125565b6101186104cc565b610141610245366004610969565b6104db565b610155610258366004610a0a565b6001600160a01b03918216600090815260016020908152604080832093909416825291909152205490565b6101896102913660046109e8565b6104e9565b6060600380546102a590610a3d565b80601f01602080910402602001604051908101604052809291908181526020018280546102d190610a3d565b801561031e5780601f106102f35761010080835404028352916020019161031e565b820191906000526020600020905b81548152906001019060200180831161030157829003601f168201915b5050505050905090565b600033610336818585610524565b60019150505b92915050565b600033610350858285610536565b61035b8585856105b5565b506001949350505050565b69021e19e0c9bab24000008111156103c55760405162461bcd60e51b815260206004820152601960248201527f4d617820313030303020746f6b656e7320706572206d696e740000000000000060448201526064015b60405180910390fd5b6a084595161401484a000000816103db60025490565b6103e59190610a77565b11156104285760405162461bcd60e51b815260206004820152601260248201527145786365656473206d617820737570706c7960701b60448201526064016103bc565b6104323382610614565b50565b61043d61064a565b6a084595161401484a0000008161045360025490565b61045d9190610a77565b11156104a05760405162461bcd60e51b815260206004820152601260248201527145786365656473206d617820737570706c7960701b60448201526064016103bc565b6104aa8282610614565b5050565b6104323382610677565b6104c061064a565b6104ca60006106ad565b565b6060600480546102a590610a3d565b6000336103368185856105b5565b6104f161064a565b6001600160a01b03811661051b57604051631e4fbdf760e01b8152600060048201526024016103bc565b610432816106ad565b61053183838360016106ff565b505050565b6001600160a01b038381166000908152600160209081526040808320938616835292905220546000198110156105af57818110156105a057604051637dc7a0d960e11b81526001600160a01b038416600482015260248101829052604481018390526064016103bc565b6105af848484840360006106ff565b50505050565b6001600160a01b0383166105df57604051634b637e8f60e11b8152600060048201526024016103bc565b6001600160a01b0382166106095760405163ec442f0560e01b8152600060048201526024016103bc565b6105318383836107d4565b6001600160a01b03821661063e5760405163ec442f0560e01b8152600060048201526024016103bc565b6104aa600083836107d4565b6005546001600160a01b031633146104ca5760405163118cdaa760e01b81523360048201526024016103bc565b6001600160a01b0382166106a157604051634b637e8f60e11b8152600060048201526024016103bc565b6104aa826000836107d4565b600580546001600160a01b038381166001600160a01b0319831681179093556040519116919082907f8be0079c531659141344cd1fd0a4f28419497f9722a3daafe3b4186f6b6457e090600090a35050565b6001600160a01b0384166107295760405163e602df0560e01b8152600060048201526024016103bc565b6001600160a01b03831661075357604051634a1406b160e11b8152600060048201526024016103bc565b6001600160a01b03808516600090815260016020908152604080832093871683529290522082905580156105af57826001600160a01b0316846001600160a01b03167f8c5be1e5ebec7d5bd14f71427d1e84f3dd0314c0f7b2291e5b200ac8c7c3b925846040516107c691815260200190565b60405180910390a350505050565b6001600160a01b0383166107ff5780600260008282546107f49190610a77565b909155506108719050565b6001600160a01b038316600090815260208190526040902054818110156108525760405163391434e360e21b81526001600160a01b038516600482015260248101829052604481018390526064016103bc565b6001600160a01b03841660009081526020819052604090209082900390555b6001600160a01b03821661088d576002805482900390556108ac565b6001600160a01b03821660009081526020819052604090208054820190555b816001600160a01b0316836001600160a01b03167fddf252ad1be2c89b69c2b068fc378daa952ba7f163c4a11628f55a4df523b3ef836040516108f191815260200190565b60405180910390a3505050565b60006020808352835180602085015260005b8181101561092c57858101830151858201604001528201610910565b506000604082860101526040601f19601f8301168501019250505092915050565b80356001600160a01b038116811461096457600080fd5b919050565b6000806040838503121561097c57600080fd5b6109858361094d565b946020939093013593505050565b6000806000606084860312156109a857600080fd5b6109b18461094d565b92506109bf6020850161094d565b9150604084013590509250925092565b6000602082840312156109e157600080fd5b5035919050565b6000602082840312156109fa57600080fd5b610a038261094d565b9392505050565b60008060408385031215610a1d57600080fd5b610a268361094d565b9150610a346020840161094d565b90509250929050565b600181811c90821680610a5157607f821691505b602082108103610a7157634e487b7160e01b600052602260045260246000fd5b50919050565b8082018082111561033c57634e487b7160e01b600052601160045260246000fdfea26469706673582212208d6096cf956b606244455996bcc9f8fe596cdfd731f677101a1b3abbe47bfad364736f6c63430008160033",
  "linkReferences": {},
  "deployedLinkReferences": {}
}