{
  "_format": "hh-sol-artifact-1",
  "contractName": "RealFiToken",
  "sourceName": "contracts/RealFiToken.sol",
  "abi": [
    {
      "inputs": [],
      "stateMutability": "nonpayable",
      "type": "constructor"
    },
    {
      "inputs": [
        {
          "internalType": "address",
          "name": "spender",
          "type": "address"
        },
        {
          "internalType": "uint256",
          "name": "allowance",
          "type": "uint256"
        },
        {
          "internalType": "uint256",
          "name": "needed",
          "type": "uint256"
        }
      ],
      "name": "ERC20InsufficientAllowance",
      "type": "error"
    },
    {
      "inputs": [
        {
          "internalType": "address",
          "name": "sender",
          "type": "address"
        },
        {
          "internalType": "uint256",
          "name": "balance",
          "type": "uint256"
        },
        {
          "internalType": "uint256",
          "name": "needed",
          "type": "uint256"
        }
      ],
      "name": "ERC20InsufficientBalance",
      "type": "error"
    },
    {
      "inputs": [
        {
          "internalType": "address",
          "name": "approver",
          "type": "address"
        }
      ],
      "name": "ERC20InvalidApprover",
      "type": "error"
    },
    {
      "inputs": [
        {
          "internalType": "address",
          "name": "receiver",
          "type": "address"
        }
      ],
      "name": "ERC20InvalidReceiver",
      "type": "error"
    },
    {
      "inputs": [
        {
          "internalType": "address",
          "name": "sender",
          "type": "address"
        }
      ],
      "name": "ERC20InvalidSender",
      "type": "error"
    },
    {
      "inputs": [
        {
          "internalType": "address",
          "name": "spender",
          "type": "address"
        }
      ],
      "name": "ERC20InvalidSpender",
      "type": "error"
    },
    {
      "inputs": [
        {
          "internalType": "address",
          "name": "owner",
          "type": "address"
        }
      ],
      "name": "OwnableInvalidOwner",
      "type": "error"
    },
    {
      "inputs": [
        {
          "internalType": "address",
          "name": "account",
          "type": "address"
        }
      ],
      "name": "OwnableUnauthorizedAccount",
      "type": "error"
    },
    {
      "anonymous": false,
      "inputs": [
        {
          "indexed": true,
          "internalType": "address",
          "name": "owner",
          "type": "address"
        },
        {
          "indexed": true,
          "internalType": "address",
          "name": "spender",
          "type": "address"
        },
        {
          "indexed": false,
          "internalType": "uint256",
          "name": "value",
          "type": "uint256"
        }
      ],
      "name": "Approval",
      "type": "event"
    },
    {
      "anonymous": false,
      "inputs": [
        {
          "indexed": true,
          "internalType": "address",
          "name": "previousOwner",
          "type": "address"
        },
        {
          "indexed": true,
          "internalType": "address",
          "name": "newOwner",
          "type": "address"
        }
      ],
      "name": "OwnershipTransferred",
      "type": "event"
    },
    {
      "anonymous": false,
      "inputs": [
        {
          "indexed": true,
          "internalType": "address",
          "name": "from",
          "type": "address"
        },
        {
          "indexed": true,
          "internalType": "address",
          "name": "to",
          "type": "address"
        },
        {
          "indexed": false,
          "internalType": "uint256",
          "name": "value",
          "type": "uint256"
        }
      ],
      "name": "Transfer",
      "type": "event"
    },
    {
      "inputs": [],
      "name": "INITIAL_SUPPLY",
      "outputs": [
        {
          "internalType": "uint256",
          "name": "",
          "type": "uint256"
        }
      ],
      "stateMutability": "view",
      "type": "function"
    },
    {
      "inputs": [],
      "name": "MAX_SUPPLY",
      "outputs": [
        {
          "internalType": "uint256",
          "name": "",
          "type": "uint256"
        }
      ],
      "stateMutability": "view",
      "type": "function"
    },
    {
      "inputs": [
        {
          "internalType": "address",
          "name": "owner",
          "type": "address"
        },
        {
          "internalType": "address",
          "name": "spender",
          "type": "address"
        }
      ],
      "name": "allowance",
      "outputs": [
        {
          "internalType": "uint256",
          "name": "",
          "type": "uint256"
        }
      ],
      "stateMutability": "view",
      "type": "function"
    },
    {
      "inputs": [
        {
          "internalType": "address",
          "name": "spender",
          "type": "address"
        },
        {
          "internalType": "uint256",
          "name": "value",
          "type": "uint256"
        }
      ],
      "name": "approve",
      "outputs": [
        {
          "internalType": "bool",
          "name": "",
          "type": "bool"
        }
      ],
      "stateMutability": "nonpayable",
      "type": "function"
    },
    {
      "inputs": [
        {
          "internalType": "address",
          "name": "account",
          "type": "address"
        }
      ],
      "name": "balanceOf",
      "outputs": [
        {
          "internalType": "uint256",
          "name": "",
          "type": "uint256"
        }
      ],
      "stateMutability": "view",
      "type": "function"
    },
    {
      "inputs": [
        {
          "internalType": "uint256",
          "name": "amount",
          "type": "uint256"
        }
      ],
      "name": "burn",
      "outputs": [],
      "stateMutability": "nonpayable",
      "type": "function"
    },
    {
      "inputs": [],
      "name": "decimals",
      "outputs": [
        {
          "internalType": "uint8",
          "name": "",
          "type": "uint8"
        }
      ],
      "stateMutability": "view",
      "type": "function"
    },
    {
      "inputs": [
        {
          "internalType": "address",
          "name": "to",
          "type": "address"
        },
        {
          "internalType": "uint256",
          "name": "amount",
          "type": "uint256"
        }
      ],
      "name": "mint",
      "outputs": [],
      "stateMutability": "nonpayable",
      "type": "function"
    },
    {
      "inputs": [],
      "name": "name",
      "outputs": [
        {
          "internalType": "string",
          "name": "",
          "type": "string"
        }
      ],
      "stateMutability": "view",
      "type": "function"
    },
    {
      "inputs": [],
      "name": "owner",
      "outputs": [
        {
          "internalType": "address",
          "name": "",
          "type": "address"
        }
      ],
      "stateMutability": "view",
      "type": "function"
    },
    {
      "inputs": [],
      "name": "renounceOwnership",
      "outputs": [],
      "stateMutability": "nonpayable",
      "type": "function"
    },
    {
      "inputs": [],
      "name": "symbol",
      "outputs": [
        {
          "internalType": "string",
          "name": "",
          "type": "string"
        }
      ],
      "stateMutability": "view",
      "type": "function"
    },
    {
      "inputs": [],
      "name": "totalSupply",
      "outputs": [
        {
          "internalType": "uint256",
          "name": "",
          "type": "uint256"
        }
      ],
      "stateMutability": "view",
      "type": "function"
    },
    {
      "inputs": [
        {
          "internalType": "address",
          "name": "to",
          "type": "address"
        },
        {
          "internalType": "uint256",
          "name": "value",
          "type": "uint256"
        }
      ],
      "name": "transfer",
      "outputs": [
        {
          "internalType": "bool",
          "name": "",
          "type": "bool"
        }
      ],
      "stateMutability": "nonpayable",
      "type": "function"
    },
    {
      "inputs": [
        {
          "internalType": "address",
          "name": "from",
          "type": "address"
        },
        {
          "internalType": "address",
          "name": "to",
          "type": "address"
        },
        {
          "internalType": "uint256",
          "name": "value",
          "type": "uint256"
        }
      ],
      "name": "transferFrom",
      "outputs": [
        {
          "internalType": "bool",
          "name": "",
          "type": "bool"
        }
      ],
      "stateMutability": "nonpayable",
      "type": "function"
    },
    {
      "inputs": [
        {
          "internalType": "address",
          "name": "newOwner",
          "type": "address"
        }
      ],
      "name": "transferOwnership",
      "outputs": [],
      "stateMutability": "nonpayable",
      "type": "function"
    }
  ],
  "bytecode": "0x60806040523480156200001157600080fd5b50336040518060400160405280600c81526020016b2932b0b62334902a37b5b2b760a11b8152506040518060400160405280600381526020016214919560ea1b815250816003908162000065919062000339565b50600462000074828262000339565b5050506001600160a01b038116620000a757604051631e4fbdf760e01b8152600060048201526024015b60405180910390fd5b620000b281620000cf565b50620000c93369d3c21bcecceda100000062000121565b6200042d565b600580546001600160a01b038381166001600160a01b0319831681179093556040519116919082907f8be0079c531659141344cd1fd0a4f28419497f9722a3daafe3b4186f6b6457e090600090a35050565b6001600160a01b0382166200014d5760405163ec442f0560e01b8152600060048201526024016200009e565b6200015b600083836200015f565b5050565b6001600160a01b0383166200018e57806002600082825462000182919062000405565b90915550620002029050565b6001600160a01b03831660009081526020819052604090205481811015620001e35760405163391434e360e21b81526001600160a01b038516600482015260248101829052604481018390526064016200009e565b6001600160a01b03841660009081526020819052604090209082900390555b6001600160a01b03821662000220576002805482900390556200023f565b6001600160a01b03821660009081526020819052604090208054820190555b816001600160a01b0316836001600160a01b03167fddf252ad1be2c89b69c2b068fc378daa952ba7f163c4a11628f55a4df523b3ef836040516200028591815260200190565b60405180910390a3505050565b634e487b7160e01b600052604160045260246000fd5b600181811c90821680620002bd57607f821691505b602082108103620002de57634e487b7160e01b600052602260045260246000fd5b50919050565b601f82111562000334576000816000526020600020601f850160051c810160208610156200030f5750805b601f850160051c820191505b8181101562000330578281556001016200031b565b5050505b505050565b81516001600160401b0381111562000355576200035562000292565b6200036d81620003668454620002a8565b84620002e4565b602080601f831160018114620003a557600084156200038c5750858301515b600019600386901b1c1916600185901b17855562000330565b600085815260208120601f198616915b82811015620003d657888601518255948401946001909101908401620003b5565b5085821015620003f55787850151600019600388901b60f8161c191681555b5050505050600190811b01905550565b808201808211156200042757634e487b7160e01b600052601160045260246000fd5b92915050565b6109e9806200043d6000396000f3fe608060405234801561001057600080fd5b50600436106101005760003560e01c806342966c681161009757806395d89b411161006657806395d89b4114610211578063a9059cbb14610219578063dd62ed3e1461022c578063f2fde38b1461026557600080fd5b806342966c68146101b257806370a08231146101c5578063715018a6146101ee5780638da5cb5b146101f657600080fd5b80632ff2e9dc116100d35780632ff2e9dc1461016b578063313ce5671461017c57806332cb6b0c1461018b57806340c10f191461019d57600080fd5b806306fdde0314610105578063095ea7b31461012357806318160ddd1461014657806323b872dd14610158575b600080fd5b61010d610278565b60405161011a9190610819565b60405180910390f35b610136610131366004610884565b61030a565b604051901515815260200161011a565b6002545b60405190815260200161011a565b6101366101663660046108ae565b610324565b61014a69d3c21bcecceda100000081565b6040516012815260200161011a565b61014a6a084595161401484a00000081565b6101b06101ab366004610884565b610348565b005b6101b06101c03660046108ea565b6103c6565b61014a6101d3366004610903565b6001600160a01b031660009081526020819052604090205490565b6101b06103d3565b6005546040516001600160a01b03909116815260200161011a565b61010d6103e7565b610136610227366004610884565b6103f6565b61014a61023a366004610925565b6001600160a01b03918216600090815260016020908152604080832093909416825291909152205490565b6101b0610273366004610903565b610404565b60606003805461028790610958565b80601f01602080910402602001604051908101604052809291908181526020018280546102b390610958565b80156103005780601f106102d557610100808354040283529160200191610300565b820191906000526020600020905b8154815290600101906020018083116102e357829003601f168201915b5050505050905090565b60003361031881858561043f565b60019150505b92915050565b600033610332858285610451565b61033d8585856104d0565b506001949350505050565b61035061052f565b6a084595161401484a0000008161036660025490565b6103709190610992565b11156103b85760405162461bcd60e51b815260206004820152601260248201527145786365656473206d617820737570706c7960701b60448201526064015b60405180910390fd5b6103c2828261055c565b5050565b6103d03382610592565b50565b6103db61052f565b6103e560006105c8565b565b60606004805461028790610958565b6000336103188185856104d0565b61040c61052f565b6001600160a01b03811661043657604051631e4fbdf760e01b8152600060048201526024016103af565b6103d0816105c8565b61044c838383600161061a565b505050565b6001600160a01b038381166000908152600160209081526040808320938616835292905220546000198110156104ca57818110156104bb57604051637dc7a0d960e11b81526001600160a01b038416600482015260248101829052604481018390526064016103af565b6104ca8484848403600061061a565b50505050565b6001600160a01b0383166104fa57604051634b637e8f60e11b8152600060048201526024016103af565b6001600160a01b0382166105245760405163ec442f0560e01b8152600060048201526024016103af565b61044c8383836106ef565b6005546001600160a01b031633146103e55760405163118cdaa760e01b81523360048201526024016103af565b6001600160a01b0382166105865760405163ec442f0560e01b8152600060048201526024016103af565b6103c2600083836106ef565b6001600160a01b0382166105bc57604051634b637e8f60e11b8152600060048201526024016103af565b6103c2826000836106ef565b600580546001600160a01b038381166001600160a01b0319831681179093556040519116919082907f8be0079c531659141344cd1fd0a4f28419497f9722a3daafe3b4186f6b6457e090600090a35050565b6001600160a01b0384166106445760405163e602df0560e01b8152600060048201526024016103af565b6001600160a01b03831661066e57604051634a1406b160e11b8152600060048201526024016103af565b6001600160a01b03808516600090815260016020908152604080832093871683529290522082905580156104ca57826001600160a01b0316846001600160a01b03167f8c5be1e5ebec7d5bd14f71427d1e84f3dd0314c0f7b2291e5b200ac8c7c3b925846040516106e191815260200190565b60405180910390a350505050565b6001600160a01b03831661071a57806002600082825461070f9190610992565b9091555061078c9050565b6001600160a01b0383166000908152602081905260409020548181101561076d5760405163391434e360e21b81526001600160a01b038516600482015260248101829052604481018390526064016103af565b6001600160a01b03841660009081526020819052604090209082900390555b6001600160a01b0382166107a8576002805482900390556107c7565b6001600160a01b03821660009081526020819052604090208054820190555b816001600160a01b0316836001600160a01b03167fddf252ad1be2c89b69c2b068fc378daa952ba7f163c4a11628f55a4df523b3ef8360405161080c91815260200190565b60405180910390a3505050565b60006020808352835180602085015260005b818110156108475785810183015185820160400152820161082b565b506000604082860101526040601f19601f8301168501019250505092915050565b80356001600160a01b038116811461087f57600080fd5b919050565b6000806040838503121561089757600080fd5b6108a083610868565b946020939093013593505050565b6000806000606084860312156108c357600080fd5b6108cc84610868565b92506108da60208501610868565b9150604084013590509250925092565b6000602082840312156108fc57600080fd5b5035919050565b60006020828403121561091557600080fd5b61091e82610868565b9392505050565b6000806040838503121561093857600080fd5b61094183610868565b915061094f60208401610868565b90509250929050565b600181811c9082168061096c57607f821691505b60208210810361098c57634e487b7160e01b600052602260045260246000fd5b50919050565b8082018082111561031e57634e487b7160e01b600052601160045260246000fdfea264697066735822122022a2dbbcf62613ea6dc0bf6ee0a07861b10920050df81d2f57d04fe40de8b7fe64736f6c63430008160033",
  "linkReferences": {},
  "deployedLinkReferences": {}
}