{
  "_format": "hh-sol-artifact-1",
  "contractName": "UserProfile",
  "sourceName": "contracts/UserProfile.sol",
  "abi": [
    {
      "inputs": [],
      "stateMutability": "nonpayable",
      "type": "constructor"
    },
    {
      "inputs": [
        {
          "internalType": "address",
          "name": "target",
          "type": "address"
        }
      ],
      "name": "AddressEmptyCode",
      "type": "error"
    },
    {
      "inputs": [
        {
          "internalType": "address",
          "name": "implementation",
          "type": "address"
        }
      ],
      "name": "ERC1967InvalidImplementation",
      "type": "error"
    },
    {
      "inputs": [],
      "name": "ERC1967NonPayable",
      "type": "error"
    },
    {
      "inputs": [],
      "name": "FailedCall",
      "type": "error"
    },
    {
      "inputs": [],
      "name": "InvalidInitialization",
      "type": "error"
    },
    {
      "inputs": [],
      "name": "NotInitializing",
      "type": "error"
    },
    {
      "inputs": [
        {
          "internalType": "address",
          "name": "owner",
          "type": "address"
        }
      ],
      "name": "OwnableInvalidOwner",
      "type": "error"
    },
    {
      "inputs": [
        {
          "internalType": "address",
          "name": "account",
          "type": "address"
        }
      ],
      "name": "OwnableUnauthorizedAccount",
      "type": "error"
    },
    {
      "inputs": [],
      "name": "ReentrancyGuardReentrantCall",
      "type": "error"
    },
    {
      "inputs": [],
      "name": "UUPSUnauthorizedCallContext",
      "type": "error"
    },
    {
      "inputs": [
        {
          "internalType": "bytes32",
          "name": "slot",
          "type": "bytes32"
        }
      ],
      "name": "UUPSUnsupportedProxiableUUID",
      "type": "error"
    },
    {
      "anonymous": false,
      "inputs": [
        {
          "indexed": false,
          "internalType": "uint64",
          "name": "version",
          "type": "uint64"
        }
      ],
      "name": "Initialized",
      "type": "event"
    },
    {
      "anonymous": false,
      "inputs": [
        {
          "indexed": true,
          "internalType": "address",
          "name": "previousOwner",
          "type": "address"
        },
        {
          "indexed": true,
          "internalType": "address",
          "name": "newOwner",
          "type": "address"
        }
      ],
      "name": "OwnershipTransferred",
      "type": "event"
    },
    {
      "anonymous": false,
      "inputs": [
        {
          "indexed": true,
          "internalType": "address",
          "name": "user",
          "type": "address"
        },
        {
          "indexed": false,
          "internalType": "uint256",
          "name": "oldScore",
          "type": "uint256"
        },
        {
          "indexed": false,
          "internalType": "uint256",
          "name": "newScore",
          "type": "uint256"
        }
      ],
      "name": "ReputationUpdated",
      "type": "event"
    },
    {
      "anonymous": false,
      "inputs": [
        {
          "indexed": true,
          "internalType": "address",
          "name": "implementation",
          "type": "address"
        }
      ],
      "name": "Upgraded",
      "type": "event"
    },
    {
      "anonymous": false,
      "inputs": [
        {
          "indexed": true,
          "internalType": "address",
          "name": "user",
          "type": "address"
        },
        {
          "indexed": false,
          "internalType": "uint256",
          "name": "timestamp",
          "type": "uint256"
        }
      ],
      "name": "UserDeactivated",
      "type": "event"
    },
    {
      "anonymous": false,
      "inputs": [
        {
          "indexed": true,
          "internalType": "address",
          "name": "user",
          "type": "address"
        },
        {
          "indexed": false,
          "internalType": "string",
          "name": "username",
          "type": "string"
        },
        {
          "indexed": false,
          "internalType": "uint256",
          "name": "timestamp",
          "type": "uint256"
        }
      ],
      "name": "UserRegistered",
      "type": "event"
    },
    {
      "anonymous": false,
      "inputs": [
        {
          "indexed": true,
          "internalType": "address",
          "name": "user",
          "type": "address"
        },
        {
          "indexed": false,
          "internalType": "string",
          "name": "username",
          "type": "string"
        },
        {
          "indexed": false,
          "internalType": "uint256",
          "name": "timestamp",
          "type": "uint256"
        }
      ],
      "name": "UserUpdated",
      "type": "event"
    },
    {
      "inputs": [],
      "name": "INITIAL_REPUTATION_SCORE",
      "outputs": [
        {
          "internalType": "uint256",
          "name": "",
          "type": "uint256"
        }
      ],
      "stateMutability": "view",
      "type": "function"
    },
    {
      "inputs": [],
      "name": "MAX_USERNAME_LENGTH",
      "outputs": [
        {
          "internalType": "uint256",
          "name": "",
          "type": "uint256"
        }
      ],
      "stateMutability": "view",
      "type": "function"
    },
    {
      "inputs": [],
      "name": "MIN_USERNAME_LENGTH",
      "outputs": [
        {
          "internalType": "uint256",
          "name": "",
          "type": "uint256"
        }
      ],
      "stateMutability": "view",
      "type": "function"
    },
    {
      "inputs": [],
      "name": "UPGRADE_INTERFACE_VERSION",
      "outputs": [
        {
          "internalType": "string",
          "name": "",
          "type": "string"
        }
      ],
      "stateMutability": "view",
      "type": "function"
    },
    {
      "inputs": [],
      "name": "activeUsers",
      "outputs": [
        {
          "internalType": "uint256",
          "name": "",
          "type": "uint256"
        }
      ],
      "stateMutability": "view",
      "type": "function"
    },
    {
      "inputs": [
        {
          "internalType": "address",
          "name": "_user",
          "type": "address"
        }
      ],
      "name": "deactivateUser",
      "outputs": [],
      "stateMutability": "nonpayable",
      "type": "function"
    },
    {
      "inputs": [],
      "name": "getTotalStats",
      "outputs": [
        {
          "internalType": "uint256",
          "name": "_totalUsers",
          "type": "uint256"
        },
        {
          "internalType": "uint256",
          "name": "_activeUsers",
          "type": "uint256"
        }
      ],
      "stateMutability": "view",
      "type": "function"
    },
    {
      "inputs": [
        {
          "internalType": "address",
          "name": "_user",
          "type": "address"
        }
      ],
      "name": "getUserData",
      "outputs": [
        {
          "internalType": "string",
          "name": "username",
          "type": "string"
        },
        {
          "internalType": "uint256",
          "name": "registrationTime",
          "type": "uint256"
        },
        {
          "internalType": "uint256",
          "name": "totalDeposits",
          "type": "uint256"
        },
        {
          "internalType": "uint256",
          "name": "totalWithdrawals",
          "type": "uint256"
        },
        {
          "internalType": "uint256",
          "name": "battlesJoined",
          "type": "uint256"
        },
        {
          "internalType": "uint256",
          "name": "battlesWon",
          "type": "uint256"
        },
        {
          "internalType": "uint256",
          "name": "reputationScore",
          "type": "uint256"
        },
        {
          "internalType": "bool",
          "name": "isActive",
          "type": "bool"
        }
      ],
      "stateMutability": "view",
      "type": "function"
    },
    {
      "inputs": [
        {
          "internalType": "address",
          "name": "_user",
          "type": "address"
        },
        {
          "internalType": "string",
          "name": "_key",
          "type": "string"
        }
      ],
      "name": "getUserMetadata",
      "outputs": [
        {
          "internalType": "string",
          "name": "",
          "type": "string"
        }
      ],
      "stateMutability": "view",
      "type": "function"
    },
    {
      "inputs": [
        {
          "internalType": "address",
          "name": "_owner",
          "type": "address"
        }
      ],
      "name": "initialize",
      "outputs": [],
      "stateMutability": "nonpayable",
      "type": "function"
    },
    {
      "inputs": [
        {
          "internalType": "address",
          "name": "",
          "type": "address"
        }
      ],
      "name": "isRegistered",
      "outputs": [
        {
          "internalType": "bool",
          "name": "",
          "type": "bool"
        }
      ],
      "stateMutability": "view",
      "type": "function"
    },
    {
      "inputs": [
        {
          "internalType": "string",
          "name": "_username",
          "type": "string"
        }
      ],
      "name": "isUsernameAvailable",
      "outputs": [
        {
          "internalType": "bool",
          "name": "",
          "type": "bool"
        }
      ],
      "stateMutability": "view",
      "type": "function"
    },
    {
      "inputs": [],
      "name": "owner",
      "outputs": [
        {
          "internalType": "address",
          "name": "",
          "type": "address"
        }
      ],
      "stateMutability": "view",
      "type": "function"
    },
    {
      "inputs": [],
      "name": "proxiableUUID",
      "outputs": [
        {
          "internalType": "bytes32",
          "name": "",
          "type": "bytes32"
        }
      ],
      "stateMutability": "view",
      "type": "function"
    },
    {
      "inputs": [
        {
          "internalType": "string",
          "name": "_username",
          "type": "string"
        }
      ],
      "name": "registerUser",
      "outputs": [],
      "stateMutability": "nonpayable",
      "type": "function"
    },
    {
      "inputs": [],
      "name": "renounceOwnership",
      "outputs": [],
      "stateMutability": "nonpayable",
      "type": "function"
    },
    {
      "inputs": [],
      "name": "totalUsers",
      "outputs": [
        {
          "internalType": "uint256",
          "name": "",
          "type": "uint256"
        }
      ],
      "stateMutability": "view",
      "type": "function"
    },
    {
      "inputs": [
        {
          "internalType": "address",
          "name": "newOwner",
          "type": "address"
        }
      ],
      "name": "transferOwnership",
      "outputs": [],
      "stateMutability": "nonpayable",
      "type": "function"
    },
    {
      "inputs": [
        {
          "internalType": "string",
          "name": "_key",
          "type": "string"
        },
        {
          "internalType": "string",
          "name": "_value",
          "type": "string"
        }
      ],
      "name": "updateMetadata",
      "outputs": [],
      "stateMutability": "nonpayable",
      "type": "function"
    },
    {
      "inputs": [
        {
          "internalType": "string",
          "name": "_username",
          "type": "string"
        }
      ],
      "name": "updateProfile",
      "outputs": [],
      "stateMutability": "nonpayable",
      "type": "function"
    },
    {
      "inputs": [
        {
          "internalType": "address",
          "name": "_user",
          "type": "address"
        },
        {
          "internalType": "uint256",
          "name": "_depositAmount",
          "type": "uint256"
        },
        {
          "internalType": "uint256",
          "name": "_withdrawalAmount",
          "type": "uint256"
        },
        {
          "internalType": "bool",
          "name": "_battleJoined",
          "type": "bool"
        },
        {
          "internalType": "bool",
          "name": "_battleWon",
          "type": "bool"
        }
      ],
      "name": "updateUserStats",
      "outputs": [],
      "stateMutability": "nonpayable",
      "type": "function"
    },
    {
      "inputs": [
        {
          "internalType": "address",
          "name": "newImplementation",
          "type": "address"
        },
        {
          "internalType": "bytes",
          "name": "data",
          "type": "bytes"
        }
      ],
      "name": "upgradeToAndCall",
      "outputs": [],
      "stateMutability": "payable",
      "type": "function"
    },
    {
      "inputs": [
        {
          "internalType": "string",
          "name": "",
          "type": "string"
        }
      ],
      "name": "usernameToAddress",
      "outputs": [
        {
          "internalType": "address",
          "name": "",
          "type": "address"
        }
      ],
      "stateMutability": "view",
      "type": "function"
    },
    {
      "inputs": [
        {
          "internalType": "address",
          "name": "",
          "type": "address"
        }
      ],
      "name": "users",
      "outputs": [
        {
          "internalType": "string",
          "name": "username",
          "type": "string"
        },
        {
          "internalType": "uint256",
          "name": "registrationTime",
          "type": "uint256"
        },
        {
          "internalType": "uint256",
          "name": "totalDeposits",
          "type": "uint256"
        },
        {
          "internalType": "uint256",
          "name": "totalWithdrawals",
          "type": "uint256"
        },
        {
          "internalType": "uint256",
          "name": "battlesJoined",
          "type": "uint256"
        },
        {
          "internalType": "uint256",
          "name": "battlesWon",
          "type": "uint256"
        },
        {
          "internalType": "uint256",
          "name": "reputationScore",
          "type": "uint256"
        },
        {
          "internalType": "bool",
          "name": "isActive",
          "type": "bool"
        }
      ],
      "stateMutability": "view",
      "type": "function"
    }
  ],
  "bytecode": "0x60a06040523060805234801561001457600080fd5b5061001d610022565b6100d4565b7ff0c57e16840df040f15088dc2f81fe391c3923bec73e23a9662efc9c229c6a00805468010000000000000000900460ff16156100725760405163f92ee8a960e01b815260040160405180910390fd5b80546001600160401b03908116146100d15780546001600160401b0319166001600160401b0390811782556040519081527fc7f505b2f371ae2175ee4913f4499e1f2633a7b5936321eed1cdaeb6115181d29060200160405180910390a15b50565b6080516120a9620000fe600039600081816114cb015281816114f4015261163501526120a96000f3fe60806040526004361061014a5760003560e01c80638da5cb5b116100b6578063f2fde38b1161006f578063f2fde38b146103cf578063f69c6dec146103ef578063f825f1431461040f578063fc5cbf1d14610450578063ff8dba1014610478578063ffc9896b1461049857600080fd5b80638da5cb5b146102a3578063a87430ba146102f4578063ad3cb1cc14610328578063bff1f9e114610359578063c3c5a5471461036f578063c4d66de8146103af57600080fd5b806352d1902d1161010857806352d1902d1461020e57806356ce0e6c146102235780635898262614610243578063704f1b9414610258578063715018a61461027857806374aa34de1461028d57600080fd5b80629299e31461014f578063155b1d98146101715780631a47767b146101995780631cd896c1146101b957806341af7b53146101ce5780634f1ef286146101fb575b600080fd5b34801561015b57600080fd5b5061016f61016a366004611b03565b6104b8565b005b34801561017d57600080fd5b50610186600381565b6040519081526020015b60405180910390f35b3480156101a557600080fd5b5061016f6101b4366004611b5c565b610901565b3480156101c557600080fd5b50610186601481565b3480156101da57600080fd5b506101ee6101e9366004611b77565b610a28565b6040516101909190611c15565b61016f610209366004611c28565b610b38565b34801561021a57600080fd5b50610186610b57565b34801561022f57600080fd5b5061016f61023e366004611c80565b610b74565b34801561024f57600080fd5b50610186606481565b34801561026457600080fd5b5061016f610273366004611b03565b610c43565b34801561028457600080fd5b5061016f610f87565b34801561029957600080fd5b5061018660045481565b3480156102af57600080fd5b507f9016d09d72d40fdae2fd8ceac6b6234c7706214fd39c1cd1e609a0528c199300546001600160a01b03165b6040516001600160a01b039091168152602001610190565b34801561030057600080fd5b5061031461030f366004611b5c565b610f9b565b604051610190989796959493929190611cda565b34801561033457600080fd5b506101ee604051806040016040528060058152602001640352e302e360dc1b81525081565b34801561036557600080fd5b5061018660035481565b34801561037b57600080fd5b5061039f61038a366004611b5c565b60026020526000908152604090205460ff1681565b6040519015158152602001610190565b3480156103bb57600080fd5b5061016f6103ca366004611b5c565b611068565b3480156103db57600080fd5b5061016f6103ea366004611b5c565b611174565b3480156103fb57600080fd5b5061039f61040a366004611b03565b6111af565b34801561041b57600080fd5b506102dc61042a366004611b03565b80516020818301810180516001825292820191909301209152546001600160a01b031681565b34801561045c57600080fd5b5060035460045460408051928352602083019190915201610190565b34801561048457600080fd5b5061016f610493366004611d37565b6111eb565b3480156104a457600080fd5b506103146104b3366004611b5c565b6112bd565b6104c06113f5565b3360009081526002602052604090205460ff166104f85760405162461bcd60e51b81526004016104ef90611d8e565b60405180910390fd5b3360009081526020819052604090206007015460ff166105555760405162461bcd60e51b8152602060048201526018602482015277155cd95c881858d8dbdd5b9d0819195858dd1a5d985d195960421b60448201526064016104ef565b60038151101561059c5760405162461bcd60e51b8152602060048201526012602482015271155cd95c9b985b59481d1bdbc81cda1bdc9d60721b60448201526064016104ef565b6014815111156105e25760405162461bcd60e51b8152602060048201526011602482015270557365726e616d6520746f6f206c6f6e6760781b60448201526064016104ef565b60006001600160a01b03166001826040516105fd9190611dbb565b908152604051908190036020019020546001600160a01b031614806106525750336001600160a01b03166001826040516106379190611dbb565b908152604051908190036020019020546001600160a01b0316145b6106975760405162461bcd60e51b81526020600482015260166024820152752ab9b2b93730b6b29030b63932b0b23c903a30b5b2b760511b60448201526064016104ef565b8060005b81518110156107745760008282815181106106b8576106b8611dd7565b01602001516001600160f81b0319169050600360fc1b81108015906106eb5750603960f81b6001600160f81b0319821611155b8061071d5750604160f81b6001600160f81b031982161080159061071d5750602d60f91b6001600160f81b0319821611155b8061074f5750606160f81b6001600160f81b031982161080159061074f5750603d60f91b6001600160f81b0319821611155b61076b5760405162461bcd60e51b81526004016104ef90611ded565b5060010161069b565b50336000908152602081905260408120805461078f90611e31565b80601f01602080910402602001604051908101604052809291908181526020018280546107bb90611e31565b80156108085780601f106107dd57610100808354040283529160200191610808565b820191906000526020600020905b8154815290600101906020018083116107eb57829003601f168201915b505033600090815260208190526040902093945061082c9250869150839050611eb3565b5060018160405161083d9190611dbb565b90815260405190819003602001812080546001600160a01b0319169055339060019061086a908690611dbb565b90815260405190819003602001812080546001600160a01b03939093166001600160a01b03199093169290921790915533907f429ad3a7ede99d93a72d6f0ba190681a2763d681f984e2f299af21ca35caebdb906108cb9086904290611f73565b60405180910390a250506108fe60017f9b779b17422d0df92223018b32b4d1fa46e071723d6817e2486d003becc55f0055565b50565b610909611465565b6001600160a01b03811660009081526002602052604090205460ff166109415760405162461bcd60e51b81526004016104ef90611d8e565b6001600160a01b03811660009081526020819052604090206007015460ff166109ac5760405162461bcd60e51b815260206004820152601860248201527f5573657220616c7265616479206465616374697661746564000000000000000060448201526064016104ef565b6001600160a01b0381166000908152602081905260408120600701805460ff1916905560048054916109dd83611fab565b9190505550806001600160a01b03167f0a3c4dd3ee5277d6eada470cf9b47a480953120ecafcbbdc14bde6f8a624893042604051610a1d91815260200190565b60405180910390a250565b6001600160a01b03821660009081526002602052604090205460609060ff16610a635760405162461bcd60e51b81526004016104ef90611d8e565b600080846001600160a01b03166001600160a01b0316815260200190815260200160002060080182604051610a989190611dbb565b90815260200160405180910390208054610ab190611e31565b80601f0160208091040260200160405190810160405280929190818152602001828054610add90611e31565b8015610b2a5780601f10610aff57610100808354040283529160200191610b2a565b820191906000526020600020905b815481529060010190602001808311610b0d57829003601f168201915b505050505090505b92915050565b610b406114c0565b610b4982611565565b610b53828261156d565b5050565b6000610b6161162a565b5060008051602061205483398151915290565b3360009081526002602052604090205460ff16610ba35760405162461bcd60e51b81526004016104ef90611d8e565b3360009081526020819052604090206007015460ff16610c005760405162461bcd60e51b8152602060048201526018602482015277155cd95c881858d8dbdd5b9d0819195858dd1a5d985d195960421b60448201526064016104ef565b33600090815260208190526040908190209051829160080190610c24908590611dbb565b90815260200160405180910390209081610c3e9190611eb3565b505050565b610c4b6113f5565b3360009081526002602052604090205460ff1615610cab5760405162461bcd60e51b815260206004820152601760248201527f5573657220616c7265616479207265676973746572656400000000000000000060448201526064016104ef565b600381511015610cf25760405162461bcd60e51b8152602060048201526012602482015271155cd95c9b985b59481d1bdbc81cda1bdc9d60721b60448201526064016104ef565b601481511115610d385760405162461bcd60e51b8152602060048201526011602482015270557365726e616d6520746f6f206c6f6e6760781b60448201526064016104ef565b60006001600160a01b0316600182604051610d539190611dbb565b908152604051908190036020019020546001600160a01b031614610db25760405162461bcd60e51b81526020600482015260166024820152752ab9b2b93730b6b29030b63932b0b23c903a30b5b2b760511b60448201526064016104ef565b8060005b8151811015610e8f576000828281518110610dd357610dd3611dd7565b01602001516001600160f81b0319169050600360fc1b8110801590610e065750603960f81b6001600160f81b0319821611155b80610e385750604160f81b6001600160f81b0319821610801590610e385750602d60f91b6001600160f81b0319821611155b80610e6a5750606160f81b6001600160f81b0319821610801590610e6a5750603d60f91b6001600160f81b0319821611155b610e865760405162461bcd60e51b81526004016104ef90611ded565b50600101610db6565b5033600090815260208190526040902080610eaa8482611eb3565b50426001808301919091556064600683015560078201805460ff191682179055604051339190610edb908690611dbb565b908152604080516020928190038301902080546001600160a01b0319166001600160a01b0394909416939093179092553360009081526002909152908120805460ff191660011790556003805491610f3283611fc2565b909155505060048054906000610f4783611fc2565b9190505550336001600160a01b03167f89105a1c6a3c2fbd471255c66a31ccab604af5697f67d7e2e9a0028c5e4dbd9184426040516108cb929190611f73565b610f8f611465565b610f996000611673565b565b600060208190529081526040902080548190610fb690611e31565b80601f0160208091040260200160405190810160405280929190818152602001828054610fe290611e31565b801561102f5780601f106110045761010080835404028352916020019161102f565b820191906000526020600020905b81548152906001019060200180831161101257829003601f168201915b50505050600183015460028401546003850154600486015460058701546006880154600790980154969794969395509193909260ff1688565b60006110726116e4565b805490915060ff600160401b820416159067ffffffffffffffff1660008115801561109a5750825b905060008267ffffffffffffffff1660011480156110b75750303b155b9050811580156110c5575080155b156110e35760405163f92ee8a960e01b815260040160405180910390fd5b845467ffffffffffffffff19166001178555831561110d57845460ff60401b1916600160401b1785555b6111168661170d565b61111e61171e565b611126611726565b831561116c57845460ff60401b19168555604051600181527fc7f505b2f371ae2175ee4913f4499e1f2633a7b5936321eed1cdaeb6115181d29060200160405180910390a15b505050505050565b61117c611465565b6001600160a01b0381166111a657604051631e4fbdf760e01b8152600060048201526024016104ef565b6108fe81611673565b6000806001600160a01b03166001836040516111cb9190611dbb565b908152604051908190036020019020546001600160a01b03161492915050565b6111f3611465565b6001600160a01b03851660009081526002602052604090205460ff1661122b5760405162461bcd60e51b81526004016104ef90611d8e565b6001600160a01b038516600090815260208190526040812060028101805491928792611258908490611fdb565b92505081905550838160030160008282546112739190611fdb565b909155505082156112965760048101805490600061129083611fc2565b91905055505b81156112b4576005810180549060006112ae83611fc2565b91905055505b61116c86611736565b6001600160a01b0381166000908152600260205260408120546060919081908190819081908190819060ff166113055760405162461bcd60e51b81526004016104ef90611d8e565b6001600160a01b038916600090815260208190526040902060018101546002820154600383015460048401546005850154600686015460078701548754889796959493929160ff1690889061135990611e31565b80601f016020809104026020016040519081016040528092919081815260200182805461138590611e31565b80156113d25780601f106113a7576101008083540402835291602001916113d2565b820191906000526020600020905b8154815290600101906020018083116113b557829003601f168201915b505050505097509850985098509850985098509850985050919395975091939597565b7f9b779b17422d0df92223018b32b4d1fa46e071723d6817e2486d003becc55f0080546001190161143957604051633ee5aeb560e01b815260040160405180910390fd5b60029055565b60017f9b779b17422d0df92223018b32b4d1fa46e071723d6817e2486d003becc55f0055565b336114977f9016d09d72d40fdae2fd8ceac6b6234c7706214fd39c1cd1e609a0528c199300546001600160a01b031690565b6001600160a01b031614610f995760405163118cdaa760e01b81523360048201526024016104ef565b306001600160a01b037f000000000000000000000000000000000000000000000000000000000000000016148061154757507f00000000000000000000000000000000000000000000000000000000000000006001600160a01b031661153b600080516020612054833981519152546001600160a01b031690565b6001600160a01b031614155b15610f995760405163703e46dd60e11b815260040160405180910390fd5b6108fe611465565b816001600160a01b03166352d1902d6040518163ffffffff1660e01b8152600401602060405180830381865afa9250505080156115c7575060408051601f3d908101601f191682019092526115c491810190611fee565b60015b6115ef57604051634c9c8ce360e01b81526001600160a01b03831660048201526024016104ef565b600080516020612054833981519152811461162057604051632a87526960e21b8152600481018290526024016104ef565b610c3e8383611831565b306001600160a01b037f00000000000000000000000000000000000000000000000000000000000000001614610f995760405163703e46dd60e11b815260040160405180910390fd5b7f9016d09d72d40fdae2fd8ceac6b6234c7706214fd39c1cd1e609a0528c19930080546001600160a01b031981166001600160a01b03848116918217845560405192169182907f8be0079c531659141344cd1fd0a4f28419497f9722a3daafe3b4186f6b6457e090600090a3505050565b6000807ff0c57e16840df040f15088dc2f81fe391c3923bec73e23a9662efc9c229c6a00610b32565b611715611887565b6108fe816118ac565b610f99611887565b61172e611887565b610f996118b4565b6001600160a01b03811660009081526020819052604090206006810154600282015460649061176e9067016345785d8a000090612007565b6117789082611fdb565b90508260040154600a61178b9190612029565b6117959082611fdb565b9050826005015460326117a89190612029565b6117b29082611fdb565b9050670de0b6b3a764000083600301546117cc9190612007565b6117d69082612040565b90506006830181905581811461182b5760408051838152602081018390526001600160a01b038616917f5b88a2e3fc1a53234357ab78c104df11c33ccfa79886793654565ad70b8afb6e910160405180910390a25b50505050565b61183a826118bc565b6040516001600160a01b038316907fbc7cd75a20ee27fd9adebab32041f755214dbc6bffa90cc0225b39da2e5c2d3b90600090a280511561187f57610c3e8282611921565b610b53611997565b61188f6119b6565b610f9957604051631afcd79f60e31b815260040160405180910390fd5b61117c611887565b61143f611887565b806001600160a01b03163b6000036118f257604051634c9c8ce360e01b81526001600160a01b03821660048201526024016104ef565b60008051602061205483398151915280546001600160a01b0319166001600160a01b0392909216919091179055565b6060600080846001600160a01b03168460405161193e9190611dbb565b600060405180830381855af49150503d8060008114611979576040519150601f19603f3d011682016040523d82523d6000602084013e61197e565b606091505b509150915061198e8583836119d0565b95945050505050565b3415610f995760405163b398979f60e01b815260040160405180910390fd5b60006119c06116e4565b54600160401b900460ff16919050565b6060826119e5576119e082611a2f565b611a28565b81511580156119fc57506001600160a01b0384163b155b15611a2557604051639996b31560e01b81526001600160a01b03851660048201526024016104ef565b50805b9392505050565b805115611a3e57805160208201fd5b60405163d6bda27560e01b815260040160405180910390fd5b634e487b7160e01b600052604160045260246000fd5b600067ffffffffffffffff80841115611a8857611a88611a57565b604051601f8501601f19908116603f01168101908282118183101715611ab057611ab0611a57565b81604052809350858152868686011115611ac957600080fd5b858560208301376000602087830101525050509392505050565b600082601f830112611af457600080fd5b611a2883833560208501611a6d565b600060208284031215611b1557600080fd5b813567ffffffffffffffff811115611b2c57600080fd5b611b3884828501611ae3565b949350505050565b80356001600160a01b0381168114611b5757600080fd5b919050565b600060208284031215611b6e57600080fd5b611a2882611b40565b60008060408385031215611b8a57600080fd5b611b9383611b40565b9150602083013567ffffffffffffffff811115611baf57600080fd5b611bbb85828601611ae3565b9150509250929050565b60005b83811015611be0578181015183820152602001611bc8565b50506000910152565b60008151808452611c01816020860160208601611bc5565b601f01601f19169290920160200192915050565b602081526000611a286020830184611be9565b60008060408385031215611c3b57600080fd5b611c4483611b40565b9150602083013567ffffffffffffffff811115611c6057600080fd5b8301601f81018513611c7157600080fd5b611bbb85823560208401611a6d565b60008060408385031215611c9357600080fd5b823567ffffffffffffffff80821115611cab57600080fd5b611cb786838701611ae3565b93506020850135915080821115611ccd57600080fd5b50611bbb85828601611ae3565b6000610100808352611cee8184018c611be9565b602084019a909a52505060408101969096526060860194909452608085019290925260a084015260c0830152151560e090910152919050565b80358015158114611b5757600080fd5b600080600080600060a08688031215611d4f57600080fd5b611d5886611b40565b94506020860135935060408601359250611d7460608701611d27565b9150611d8260808701611d27565b90509295509295909350565b602080825260139082015272155cd95c881b9bdd081c9959da5cdd195c9959606a1b604082015260600190565b60008251611dcd818460208701611bc5565b9190910192915050565b634e487b7160e01b600052603260045260246000fd5b60208082526024908201527f557365726e616d6520636f6e7461696e7320696e76616c6964206368617261636040820152637465727360e01b606082015260800190565b600181811c90821680611e4557607f821691505b602082108103611e6557634e487b7160e01b600052602260045260246000fd5b50919050565b601f821115610c3e576000816000526020600020601f850160051c81016020861015611e945750805b601f850160051c820191505b8181101561116c57828155600101611ea0565b815167ffffffffffffffff811115611ecd57611ecd611a57565b611ee181611edb8454611e31565b84611e6b565b602080601f831160018114611f165760008415611efe5750858301515b600019600386901b1c1916600185901b17855561116c565b600085815260208120601f198616915b82811015611f4557888601518255948401946001909101908401611f26565b5085821015611f635787850151600019600388901b60f8161c191681555b5050505050600190811b01905550565b604081526000611f866040830185611be9565b90508260208301529392505050565b634e487b7160e01b600052601160045260246000fd5b600081611fba57611fba611f95565b506000190190565b600060018201611fd457611fd4611f95565b5060010190565b80820180821115610b3257610b32611f95565b60006020828403121561200057600080fd5b5051919050565b60008261202457634e487b7160e01b600052601260045260246000fd5b500490565b8082028115828204841417610b3257610b32611f95565b81810381811115610b3257610b32611f9556fe360894a13ba1a3210667c828492db98dca3e2076cc3735a920a3ca505d382bbca26469706673582212208d0725cfcdf502ad68f64f42500f79764314d160cce4b76e7dd27fc10ce9eae164736f6c63430008160033",
  "linkReferences": {},
  "deployedLinkReferences": {}
}