{
  "_format": "hh-sol-artifact-1",
  "contractName": "UserProfile",
  "sourceName": "contracts/UserProfile.sol",
  "abi": [
    {
      "inputs": [],
      "stateMutability": "nonpayable",
      "type": "constructor"
    },
    {
      "inputs": [
        {
          "internalType": "address",
          "name": "target",
          "type": "address"
        }
      ],
      "name": "AddressEmptyCode",
      "type": "error"
    },
    {
      "inputs": [
        {
          "internalType": "address",
          "name": "implementation",
          "type": "address"
        }
      ],
      "name": "ERC1967InvalidImplementation",
      "type": "error"
    },
    {
      "inputs": [],
      "name": "ERC1967NonPayable",
      "type": "error"
    },
    {
      "inputs": [],
      "name": "FailedCall",
      "type": "error"
    },
    {
      "inputs": [],
      "name": "InvalidInitialization",
      "type": "error"
    },
    {
      "inputs": [],
      "name": "NotInitializing",
      "type": "error"
    },
    {
      "inputs": [
        {
          "internalType": "address",
          "name": "owner",
          "type": "address"
        }
      ],
      "name": "OwnableInvalidOwner",
      "type": "error"
    },
    {
      "inputs": [
        {
          "internalType": "address",
          "name": "account",
          "type": "address"
        }
      ],
      "name": "OwnableUnauthorizedAccount",
      "type": "error"
    },
    {
      "inputs": [],
      "name": "ReentrancyGuardReentrantCall",
      "type": "error"
    },
    {
      "inputs": [],
      "name": "UUPSUnauthorizedCallContext",
      "type": "error"
    },
    {
      "inputs": [
        {
          "internalType": "bytes32",
          "name": "slot",
          "type": "bytes32"
        }
      ],
      "name": "UUPSUnsupportedProxiableUUID",
      "type": "error"
    },
    {
      "anonymous": false,
      "inputs": [
        {
          "indexed": false,
          "internalType": "uint64",
          "name": "version",
          "type": "uint64"
        }
      ],
      "name": "Initialized",
      "type": "event"
    },
    {
      "anonymous": false,
      "inputs": [
        {
          "indexed": true,
          "internalType": "address",
          "name": "previousOwner",
          "type": "address"
        },
        {
          "indexed": true,
          "internalType": "address",
          "name": "newOwner",
          "type": "address"
        }
      ],
      "name": "OwnershipTransferred",
      "type": "event"
    },
    {
      "anonymous": false,
      "inputs": [
        {
          "indexed": true,
          "internalType": "address",
          "name": "user",
          "type": "address"
        },
        {
          "indexed": false,
          "internalType": "uint256",
          "name": "oldScore",
          "type": "uint256"
        },
        {
          "indexed": false,
          "internalType": "uint256",
          "name": "newScore",
          "type": "uint256"
        }
      ],
      "name": "ReputationUpdated",
      "type": "event"
    },
    {
      "anonymous": false,
      "inputs": [
        {
          "indexed": true,
          "internalType": "address",
          "name": "implementation",
          "type": "address"
        }
      ],
      "name": "Upgraded",
      "type": "event"
    },
    {
      "anonymous": false,
      "inputs": [
        {
          "indexed": true,
          "internalType": "address",
          "name": "user",
          "type": "address"
        },
        {
          "indexed": false,
          "internalType": "uint256",
          "name": "timestamp",
          "type": "uint256"
        }
      ],
      "name": "UserDeactivated",
      "type": "event"
    },
    {
      "anonymous": false,
      "inputs": [
        {
          "indexed": true,
          "internalType": "address",
          "name": "user",
          "type": "address"
        },
        {
          "indexed": false,
          "internalType": "string",
          "name": "username",
          "type": "string"
        },
        {
          "indexed": false,
          "internalType": "uint256",
          "name": "timestamp",
          "type": "uint256"
        }
      ],
      "name": "UserRegistered",
      "type": "event"
    },
    {
      "anonymous": false,
      "inputs": [
        {
          "indexed": true,
          "internalType": "address",
          "name": "user",
          "type": "address"
        },
        {
          "indexed": false,
          "internalType": "uint256",
          "name": "depositAmount",
          "type": "uint256"
        },
        {
          "indexed": false,
          "internalType": "uint256",
          "name": "withdrawalAmount",
          "type": "uint256"
        },
        {
          "indexed": false,
          "internalType": "bool",
          "name": "battleJoined",
          "type": "bool"
        },
        {
          "indexed": false,
          "internalType": "bool",
          "name": "battleWon",
          "type": "bool"
        },
        {
          "indexed": false,
          "internalType": "uint256",
          "name": "timestamp",
          "type": "uint256"
        }
      ],
      "name": "UserStatsUpdated",
      "type": "event"
    },
    {
      "anonymous": false,
      "inputs": [
        {
          "indexed": true,
          "internalType": "address",
          "name": "user",
          "type": "address"
        },
        {
          "indexed": false,
          "internalType": "string",
          "name": "username",
          "type": "string"
        },
        {
          "indexed": false,
          "internalType": "uint256",
          "name": "timestamp",
          "type": "uint256"
        }
      ],
      "name": "UserUpdated",
      "type": "event"
    },
    {
      "inputs": [],
      "name": "INITIAL_REPUTATION_SCORE",
      "outputs": [
        {
          "internalType": "uint256",
          "name": "",
          "type": "uint256"
        }
      ],
      "stateMutability": "view",
      "type": "function"
    },
    {
      "inputs": [],
      "name": "MAX_USERNAME_LENGTH",
      "outputs": [
        {
          "internalType": "uint256",
          "name": "",
          "type": "uint256"
        }
      ],
      "stateMutability": "view",
      "type": "function"
    },
    {
      "inputs": [],
      "name": "MIN_USERNAME_LENGTH",
      "outputs": [
        {
          "internalType": "uint256",
          "name": "",
          "type": "uint256"
        }
      ],
      "stateMutability": "view",
      "type": "function"
    },
    {
      "inputs": [],
      "name": "UPGRADE_INTERFACE_VERSION",
      "outputs": [
        {
          "internalType": "string",
          "name": "",
          "type": "string"
        }
      ],
      "stateMutability": "view",
      "type": "function"
    },
    {
      "inputs": [],
      "name": "activeUsers",
      "outputs": [
        {
          "internalType": "uint256",
          "name": "",
          "type": "uint256"
        }
      ],
      "stateMutability": "view",
      "type": "function"
    },
    {
      "inputs": [
        {
          "internalType": "address",
          "name": "_user",
          "type": "address"
        }
      ],
      "name": "deactivateUser",
      "outputs": [],
      "stateMutability": "nonpayable",
      "type": "function"
    },
    {
      "inputs": [],
      "name": "getTotalStats",
      "outputs": [
        {
          "internalType": "uint256",
          "name": "_totalUsers",
          "type": "uint256"
        },
        {
          "internalType": "uint256",
          "name": "_activeUsers",
          "type": "uint256"
        }
      ],
      "stateMutability": "view",
      "type": "function"
    },
    {
      "inputs": [
        {
          "internalType": "address",
          "name": "_user",
          "type": "address"
        }
      ],
      "name": "getUserData",
      "outputs": [
        {
          "internalType": "string",
          "name": "username",
          "type": "string"
        },
        {
          "internalType": "uint256",
          "name": "registrationTime",
          "type": "uint256"
        },
        {
          "internalType": "uint256",
          "name": "totalDeposits",
          "type": "uint256"
        },
        {
          "internalType": "uint256",
          "name": "totalWithdrawals",
          "type": "uint256"
        },
        {
          "internalType": "uint256",
          "name": "battlesJoined",
          "type": "uint256"
        },
        {
          "internalType": "uint256",
          "name": "battlesWon",
          "type": "uint256"
        },
        {
          "internalType": "uint256",
          "name": "reputationScore",
          "type": "uint256"
        },
        {
          "internalType": "bool",
          "name": "isActive",
          "type": "bool"
        }
      ],
      "stateMutability": "view",
      "type": "function"
    },
    {
      "inputs": [
        {
          "internalType": "address",
          "name": "_user",
          "type": "address"
        },
        {
          "internalType": "string",
          "name": "_key",
          "type": "string"
        }
      ],
      "name": "getUserMetadata",
      "outputs": [
        {
          "internalType": "string",
          "name": "",
          "type": "string"
        }
      ],
      "stateMutability": "view",
      "type": "function"
    },
    {
      "inputs": [
        {
          "internalType": "address",
          "name": "_owner",
          "type": "address"
        }
      ],
      "name": "initialize",
      "outputs": [],
      "stateMutability": "nonpayable",
      "type": "function"
    },
    {
      "inputs": [
        {
          "internalType": "address",
          "name": "",
          "type": "address"
        }
      ],
      "name": "isRegistered",
      "outputs": [
        {
          "internalType": "bool",
          "name": "",
          "type": "bool"
        }
      ],
      "stateMutability": "view",
      "type": "function"
    },
    {
      "inputs": [
        {
          "internalType": "string",
          "name": "_username",
          "type": "string"
        }
      ],
      "name": "isUsernameAvailable",
      "outputs": [
        {
          "internalType": "bool",
          "name": "",
          "type": "bool"
        }
      ],
      "stateMutability": "view",
      "type": "function"
    },
    {
      "inputs": [],
      "name": "leaderboardContract",
      "outputs": [
        {
          "internalType": "address",
          "name": "",
          "type": "address"
        }
      ],
      "stateMutability": "view",
      "type": "function"
    },
    {
      "inputs": [],
      "name": "owner",
      "outputs": [
        {
          "internalType": "address",
          "name": "",
          "type": "address"
        }
      ],
      "stateMutability": "view",
      "type": "function"
    },
    {
      "inputs": [],
      "name": "proxiableUUID",
      "outputs": [
        {
          "internalType": "bytes32",
          "name": "",
          "type": "bytes32"
        }
      ],
      "stateMutability": "view",
      "type": "function"
    },
    {
      "inputs": [
        {
          "internalType": "string",
          "name": "_username",
          "type": "string"
        }
      ],
      "name": "registerUser",
      "outputs": [],
      "stateMutability": "nonpayable",
      "type": "function"
    },
    {
      "inputs": [],
      "name": "renounceOwnership",
      "outputs": [],
      "stateMutability": "nonpayable",
      "type": "function"
    },
    {
      "inputs": [
        {
          "internalType": "address",
          "name": "_leaderboardContract",
          "type": "address"
        }
      ],
      "name": "setLeaderboardContract",
      "outputs": [],
      "stateMutability": "nonpayable",
      "type": "function"
    },
    {
      "inputs": [
        {
          "internalType": "address",
          "name": "_yieldVaultContract",
          "type": "address"
        }
      ],
      "name": "setYieldVaultContract",
      "outputs": [],
      "stateMutability": "nonpayable",
      "type": "function"
    },
    {
      "inputs": [],
      "name": "totalUsers",
      "outputs": [
        {
          "internalType": "uint256",
          "name": "",
          "type": "uint256"
        }
      ],
      "stateMutability": "view",
      "type": "function"
    },
    {
      "inputs": [
        {
          "internalType": "address",
          "name": "newOwner",
          "type": "address"
        }
      ],
      "name": "transferOwnership",
      "outputs": [],
      "stateMutability": "nonpayable",
      "type": "function"
    },
    {
      "inputs": [
        {
          "internalType": "string",
          "name": "_key",
          "type": "string"
        },
        {
          "internalType": "string",
          "name": "_value",
          "type": "string"
        }
      ],
      "name": "updateMetadata",
      "outputs": [],
      "stateMutability": "nonpayable",
      "type": "function"
    },
    {
      "inputs": [
        {
          "internalType": "string",
          "name": "_username",
          "type": "string"
        }
      ],
      "name": "updateProfile",
      "outputs": [],
      "stateMutability": "nonpayable",
      "type": "function"
    },
    {
      "inputs": [
        {
          "internalType": "address",
          "name": "_user",
          "type": "address"
        },
        {
          "internalType": "uint256",
          "name": "_depositAmount",
          "type": "uint256"
        },
        {
          "internalType": "uint256",
          "name": "_withdrawalAmount",
          "type": "uint256"
        },
        {
          "internalType": "bool",
          "name": "_battleJoined",
          "type": "bool"
        },
        {
          "internalType": "bool",
          "name": "_battleWon",
          "type": "bool"
        }
      ],
      "name": "updateUserStats",
      "outputs": [],
      "stateMutability": "nonpayable",
      "type": "function"
    },
    {
      "inputs": [
        {
          "internalType": "address",
          "name": "newImplementation",
          "type": "address"
        },
        {
          "internalType": "bytes",
          "name": "data",
          "type": "bytes"
        }
      ],
      "name": "upgradeToAndCall",
      "outputs": [],
      "stateMutability": "payable",
      "type": "function"
    },
    {
      "inputs": [
        {
          "internalType": "string",
          "name": "",
          "type": "string"
        }
      ],
      "name": "usernameToAddress",
      "outputs": [
        {
          "internalType": "address",
          "name": "",
          "type": "address"
        }
      ],
      "stateMutability": "view",
      "type": "function"
    },
    {
      "inputs": [
        {
          "internalType": "address",
          "name": "",
          "type": "address"
        }
      ],
      "name": "users",
      "outputs": [
        {
          "internalType": "string",
          "name": "username",
          "type": "string"
        },
        {
          "internalType": "uint256",
          "name": "registrationTime",
          "type": "uint256"
        },
        {
          "internalType": "uint256",
          "name": "totalDeposits",
          "type": "uint256"
        },
        {
          "internalType": "uint256",
          "name": "totalWithdrawals",
          "type": "uint256"
        },
        {
          "internalType": "uint256",
          "name": "battlesJoined",
          "type": "uint256"
        },
        {
          "internalType": "uint256",
          "name": "battlesWon",
          "type": "uint256"
        },
        {
          "internalType": "uint256",
          "name": "reputationScore",
          "type": "uint256"
        },
        {
          "internalType": "bool",
          "name": "isActive",
          "type": "bool"
        }
      ],
      "stateMutability": "view",
      "type": "function"
    },
    {
      "inputs": [],
      "name": "yieldVaultContract",
      "outputs": [
        {
          "internalType": "address",
          "name": "",
          "type": "address"
        }
      ],
      "stateMutability": "view",
      "type": "function"
    }
  ],
  "bytecode": "0x60a06040523060805234801561001457600080fd5b5061001d610022565b6100d4565b7ff0c57e16840df040f15088dc2f81fe391c3923bec73e23a9662efc9c229c6a00805468010000000000000000900460ff16156100725760405163f92ee8a960e01b815260040160405180910390fd5b80546001600160401b03908116146100d15780546001600160401b0319166001600160401b0390811782556040519081527fc7f505b2f371ae2175ee4913f4499e1f2633a7b5936321eed1cdaeb6115181d29060200160405180910390a15b50565b6080516122dd620000fe600039600081816118220152818161184b015261198c01526122dd6000f3fe6080604052600436106101b65760003560e01c8063a87430ba116100ec578063f2fde38b1161008a578063fc5cbf1d11610064578063fc5cbf1d1461051c578063ff0224d314610544578063ff8dba1014610564578063ffc9896b1461058457600080fd5b8063f2fde38b1461049b578063f69c6dec146104bb578063f825f143146104db57600080fd5b8063bff1f9e1116100c6578063bff1f9e114610405578063c3c5a5471461041b578063c4d66de81461045b578063f203f89b1461047b57600080fd5b8063a87430ba14610380578063ad3cb1cc146103b4578063b38d33f8146103e557600080fd5b806352d1902d11610159578063704f1b9411610133578063704f1b94146102e4578063715018a61461030457806374aa34de146103195780638da5cb5b1461032f57600080fd5b806352d1902d1461029a57806356ce0e6c146102af57806358982626146102cf57600080fd5b80631a47767b116101955780631a47767b146102255780631cd896c11461024557806341af7b531461025a5780634f1ef2861461028757600080fd5b80629299e3146101bb5780630320922b146101dd578063155b1d98146101fd575b600080fd5b3480156101c757600080fd5b506101db6101d6366004611d5f565b6105a4565b005b3480156101e957600080fd5b506101db6101f8366004611db8565b6109ed565b34801561020957600080fd5b50610212600381565b6040519081526020015b60405180910390f35b34801561023157600080fd5b506101db610240366004611db8565b610a79565b34801561025157600080fd5b50610212601481565b34801561026657600080fd5b5061027a610275366004611dd3565b610ba0565b60405161021c9190611e71565b6101db610295366004611e84565b610cb0565b3480156102a657600080fd5b50610212610ccf565b3480156102bb57600080fd5b506101db6102ca366004611edc565b610cec565b3480156102db57600080fd5b50610212606481565b3480156102f057600080fd5b506101db6102ff366004611d5f565b610dbb565b34801561031057600080fd5b506101db61116f565b34801561032557600080fd5b5061021260045481565b34801561033b57600080fd5b507f9016d09d72d40fdae2fd8ceac6b6234c7706214fd39c1cd1e609a0528c199300546001600160a01b03165b6040516001600160a01b03909116815260200161021c565b34801561038c57600080fd5b506103a061039b366004611db8565b611183565b60405161021c989796959493929190611f36565b3480156103c057600080fd5b5061027a604051806040016040528060058152602001640352e302e360dc1b81525081565b3480156103f157600080fd5b506101db610400366004611db8565b611250565b34801561041157600080fd5b5061021260035481565b34801561042757600080fd5b5061044b610436366004611db8565b60026020526000908152604090205460ff1681565b604051901515815260200161021c565b34801561046757600080fd5b506101db610476366004611db8565b6112dc565b34801561048757600080fd5b50600654610368906001600160a01b031681565b3480156104a757600080fd5b506101db6104b6366004611db8565b6113e8565b3480156104c757600080fd5b5061044b6104d6366004611d5f565b611423565b3480156104e757600080fd5b506103686104f6366004611d5f565b80516020818301810180516001825292820191909301209152546001600160a01b031681565b34801561052857600080fd5b506003546004546040805192835260208301919091520161021c565b34801561055057600080fd5b50600554610368906001600160a01b031681565b34801561057057600080fd5b506101db61057f366004611f93565b61145f565b34801561059057600080fd5b506103a061059f366004611db8565b611614565b6105ac61174c565b3360009081526002602052604090205460ff166105e45760405162461bcd60e51b81526004016105db90611fea565b60405180910390fd5b3360009081526020819052604090206007015460ff166106415760405162461bcd60e51b8152602060048201526018602482015277155cd95c881858d8dbdd5b9d0819195858dd1a5d985d195960421b60448201526064016105db565b6003815110156106885760405162461bcd60e51b8152602060048201526012602482015271155cd95c9b985b59481d1bdbc81cda1bdc9d60721b60448201526064016105db565b6014815111156106ce5760405162461bcd60e51b8152602060048201526011602482015270557365726e616d6520746f6f206c6f6e6760781b60448201526064016105db565b60006001600160a01b03166001826040516106e99190612017565b908152604051908190036020019020546001600160a01b0316148061073e5750336001600160a01b03166001826040516107239190612017565b908152604051908190036020019020546001600160a01b0316145b6107835760405162461bcd60e51b81526020600482015260166024820152752ab9b2b93730b6b29030b63932b0b23c903a30b5b2b760511b60448201526064016105db565b8060005b81518110156108605760008282815181106107a4576107a4612033565b01602001516001600160f81b0319169050600360fc1b81108015906107d75750603960f81b6001600160f81b0319821611155b806108095750604160f81b6001600160f81b03198216108015906108095750602d60f91b6001600160f81b0319821611155b8061083b5750606160f81b6001600160f81b031982161080159061083b5750603d60f91b6001600160f81b0319821611155b6108575760405162461bcd60e51b81526004016105db90612049565b50600101610787565b50336000908152602081905260408120805461087b9061208d565b80601f01602080910402602001604051908101604052809291908181526020018280546108a79061208d565b80156108f45780601f106108c9576101008083540402835291602001916108f4565b820191906000526020600020905b8154815290600101906020018083116108d757829003601f168201915b5050336000908152602081905260409020939450610918925086915083905061210f565b506001816040516109299190612017565b90815260405190819003602001812080546001600160a01b03191690553390600190610956908690612017565b90815260405190819003602001812080546001600160a01b03939093166001600160a01b03199093169290921790915533907f429ad3a7ede99d93a72d6f0ba190681a2763d681f984e2f299af21ca35caebdb906109b790869042906121cf565b60405180910390a250506109ea60017f9b779b17422d0df92223018b32b4d1fa46e071723d6817e2486d003becc55f0055565b50565b6109f56117bc565b6001600160a01b038116610a575760405162461bcd60e51b8152602060048201526024808201527f496e76616c6964207969656c64207661756c7420636f6e7472616374206164646044820152637265737360e01b60648201526084016105db565b600680546001600160a01b0319166001600160a01b0392909216919091179055565b610a816117bc565b6001600160a01b03811660009081526002602052604090205460ff16610ab95760405162461bcd60e51b81526004016105db90611fea565b6001600160a01b03811660009081526020819052604090206007015460ff16610b245760405162461bcd60e51b815260206004820152601860248201527f5573657220616c7265616479206465616374697661746564000000000000000060448201526064016105db565b6001600160a01b0381166000908152602081905260408120600701805460ff191690556004805491610b5583612207565b9190505550806001600160a01b03167f0a3c4dd3ee5277d6eada470cf9b47a480953120ecafcbbdc14bde6f8a624893042604051610b9591815260200190565b60405180910390a250565b6001600160a01b03821660009081526002602052604090205460609060ff16610bdb5760405162461bcd60e51b81526004016105db90611fea565b600080846001600160a01b03166001600160a01b0316815260200190815260200160002060080182604051610c109190612017565b90815260200160405180910390208054610c299061208d565b80601f0160208091040260200160405190810160405280929190818152602001828054610c559061208d565b8015610ca25780601f10610c7757610100808354040283529160200191610ca2565b820191906000526020600020905b815481529060010190602001808311610c8557829003601f168201915b505050505090505b92915050565b610cb8611817565b610cc1826118bc565b610ccb82826118c4565b5050565b6000610cd9611981565b5060008051602061228883398151915290565b3360009081526002602052604090205460ff16610d1b5760405162461bcd60e51b81526004016105db90611fea565b3360009081526020819052604090206007015460ff16610d785760405162461bcd60e51b8152602060048201526018602482015277155cd95c881858d8dbdd5b9d0819195858dd1a5d985d195960421b60448201526064016105db565b33600090815260208190526040908190209051829160080190610d9c908590612017565b90815260200160405180910390209081610db6919061210f565b505050565b610dc361174c565b3360009081526002602052604090205460ff1615610e235760405162461bcd60e51b815260206004820152601760248201527f5573657220616c7265616479207265676973746572656400000000000000000060448201526064016105db565b600381511015610e6a5760405162461bcd60e51b8152602060048201526012602482015271155cd95c9b985b59481d1bdbc81cda1bdc9d60721b60448201526064016105db565b601481511115610eb05760405162461bcd60e51b8152602060048201526011602482015270557365726e616d6520746f6f206c6f6e6760781b60448201526064016105db565b60006001600160a01b0316600182604051610ecb9190612017565b908152604051908190036020019020546001600160a01b031614610f2a5760405162461bcd60e51b81526020600482015260166024820152752ab9b2b93730b6b29030b63932b0b23c903a30b5b2b760511b60448201526064016105db565b8060005b8151811015611007576000828281518110610f4b57610f4b612033565b01602001516001600160f81b0319169050600360fc1b8110801590610f7e5750603960f81b6001600160f81b0319821611155b80610fb05750604160f81b6001600160f81b0319821610801590610fb05750602d60f91b6001600160f81b0319821611155b80610fe25750606160f81b6001600160f81b0319821610801590610fe25750603d60f91b6001600160f81b0319821611155b610ffe5760405162461bcd60e51b81526004016105db90612049565b50600101610f2e565b5033600090815260208190526040902080611022848261210f565b50426001808301919091556064600683015560078201805460ff191682179055604051339190611053908690612017565b908152604080516020928190038301902080546001600160a01b0319166001600160a01b0394909416939093179092553360009081526002909152908120805460ff1916600117905560038054916110aa8361221e565b9091555050600480549060006110bf8361221e565b90915550506005546001600160a01b03161561113457600554604051630ea126f960e01b81526001600160a01b0390911690630ea126f9906111079033908790600401612237565b600060405180830381600087803b15801561112157600080fd5b505af1925050508015611132575060015b505b336001600160a01b03167f89105a1c6a3c2fbd471255c66a31ccab604af5697f67d7e2e9a0028c5e4dbd9184426040516109b79291906121cf565b6111776117bc565b61118160006119ca565b565b60006020819052908152604090208054819061119e9061208d565b80601f01602080910402602001604051908101604052809291908181526020018280546111ca9061208d565b80156112175780601f106111ec57610100808354040283529160200191611217565b820191906000526020600020905b8154815290600101906020018083116111fa57829003601f168201915b50505050600183015460028401546003850154600486015460058701546006880154600790980154969794969395509193909260ff1688565b6112586117bc565b6001600160a01b0381166112ba5760405162461bcd60e51b8152602060048201526024808201527f496e76616c6964206c6561646572626f61726420636f6e7472616374206164646044820152637265737360e01b60648201526084016105db565b600580546001600160a01b0319166001600160a01b0392909216919091179055565b60006112e6611a3b565b805490915060ff600160401b820416159067ffffffffffffffff1660008115801561130e5750825b905060008267ffffffffffffffff16600114801561132b5750303b155b905081158015611339575080155b156113575760405163f92ee8a960e01b815260040160405180910390fd5b845467ffffffffffffffff19166001178555831561138157845460ff60401b1916600160401b1785555b61138a86611a64565b611392611a75565b61139a611a7d565b83156113e057845460ff60401b19168555604051600181527fc7f505b2f371ae2175ee4913f4499e1f2633a7b5936321eed1cdaeb6115181d29060200160405180910390a15b505050505050565b6113f06117bc565b6001600160a01b03811661141a57604051631e4fbdf760e01b8152600060048201526024016105db565b6109ea816119ca565b6000806001600160a01b031660018360405161143f9190612017565b908152604051908190036020019020546001600160a01b03161492915050565b6006546001600160a01b031633146114b95760405162461bcd60e51b815260206004820181905260248201527f4f6e6c79205969656c645661756c742063616e2075706461746520737461747360448201526064016105db565b6001600160a01b03851660009081526002602052604090205460ff166114f15760405162461bcd60e51b81526004016105db90611fea565b6001600160a01b038516600090815260208190526040902084156115295784816002016000828254611523919061225b565b90915550505b83156115495783816003016000828254611543919061225b565b90915550505b8215611567576004810180549060006115618361221e565b91905055505b81156115855760058101805490600061157f8361221e565b91905055505b60008511806115915750825b156115b157600a8160060160008282546115ab919061225b565b90915550505b604080518681526020810186905284151581830152831515606082015242608082015290516001600160a01b038816917ffe6fef018c97a5965d21032e14d7b25619038d3fd53bd100efee56e59abc2c99919081900360a00190a2505050505050565b6001600160a01b0381166000908152600260205260408120546060919081908190819081908190819060ff1661165c5760405162461bcd60e51b81526004016105db90611fea565b6001600160a01b038916600090815260208190526040902060018101546002820154600383015460048401546005850154600686015460078701548754889796959493929160ff169088906116b09061208d565b80601f01602080910402602001604051908101604052809291908181526020018280546116dc9061208d565b80156117295780601f106116fe57610100808354040283529160200191611729565b820191906000526020600020905b81548152906001019060200180831161170c57829003601f168201915b505050505097509850985098509850985098509850985050919395975091939597565b7f9b779b17422d0df92223018b32b4d1fa46e071723d6817e2486d003becc55f0080546001190161179057604051633ee5aeb560e01b815260040160405180910390fd5b60029055565b60017f9b779b17422d0df92223018b32b4d1fa46e071723d6817e2486d003becc55f0055565b336117ee7f9016d09d72d40fdae2fd8ceac6b6234c7706214fd39c1cd1e609a0528c199300546001600160a01b031690565b6001600160a01b0316146111815760405163118cdaa760e01b81523360048201526024016105db565b306001600160a01b037f000000000000000000000000000000000000000000000000000000000000000016148061189e57507f00000000000000000000000000000000000000000000000000000000000000006001600160a01b0316611892600080516020612288833981519152546001600160a01b031690565b6001600160a01b031614155b156111815760405163703e46dd60e11b815260040160405180910390fd5b6109ea6117bc565b816001600160a01b03166352d1902d6040518163ffffffff1660e01b8152600401602060405180830381865afa92505050801561191e575060408051601f3d908101601f1916820190925261191b9181019061226e565b60015b61194657604051634c9c8ce360e01b81526001600160a01b03831660048201526024016105db565b600080516020612288833981519152811461197757604051632a87526960e21b8152600481018290526024016105db565b610db68383611a8d565b306001600160a01b037f000000000000000000000000000000000000000000000000000000000000000016146111815760405163703e46dd60e11b815260040160405180910390fd5b7f9016d09d72d40fdae2fd8ceac6b6234c7706214fd39c1cd1e609a0528c19930080546001600160a01b031981166001600160a01b03848116918217845560405192169182907f8be0079c531659141344cd1fd0a4f28419497f9722a3daafe3b4186f6b6457e090600090a3505050565b6000807ff0c57e16840df040f15088dc2f81fe391c3923bec73e23a9662efc9c229c6a00610caa565b611a6c611ae3565b6109ea81611b08565b611181611ae3565b611a85611ae3565b611181611b10565b611a9682611b18565b6040516001600160a01b038316907fbc7cd75a20ee27fd9adebab32041f755214dbc6bffa90cc0225b39da2e5c2d3b90600090a2805115611adb57610db68282611b7d565b610ccb611bf3565b611aeb611c12565b61118157604051631afcd79f60e31b815260040160405180910390fd5b6113f0611ae3565b611796611ae3565b806001600160a01b03163b600003611b4e57604051634c9c8ce360e01b81526001600160a01b03821660048201526024016105db565b60008051602061228883398151915280546001600160a01b0319166001600160a01b0392909216919091179055565b6060600080846001600160a01b031684604051611b9a9190612017565b600060405180830381855af49150503d8060008114611bd5576040519150601f19603f3d011682016040523d82523d6000602084013e611bda565b606091505b5091509150611bea858383611c2c565b95945050505050565b34156111815760405163b398979f60e01b815260040160405180910390fd5b6000611c1c611a3b565b54600160401b900460ff16919050565b606082611c4157611c3c82611c8b565b611c84565b8151158015611c5857506001600160a01b0384163b155b15611c8157604051639996b31560e01b81526001600160a01b03851660048201526024016105db565b50805b9392505050565b805115611c9a57805160208201fd5b60405163d6bda27560e01b815260040160405180910390fd5b634e487b7160e01b600052604160045260246000fd5b600067ffffffffffffffff80841115611ce457611ce4611cb3565b604051601f8501601f19908116603f01168101908282118183101715611d0c57611d0c611cb3565b81604052809350858152868686011115611d2557600080fd5b858560208301376000602087830101525050509392505050565b600082601f830112611d5057600080fd5b611c8483833560208501611cc9565b600060208284031215611d7157600080fd5b813567ffffffffffffffff811115611d8857600080fd5b611d9484828501611d3f565b949350505050565b80356001600160a01b0381168114611db357600080fd5b919050565b600060208284031215611dca57600080fd5b611c8482611d9c565b60008060408385031215611de657600080fd5b611def83611d9c565b9150602083013567ffffffffffffffff811115611e0b57600080fd5b611e1785828601611d3f565b9150509250929050565b60005b83811015611e3c578181015183820152602001611e24565b50506000910152565b60008151808452611e5d816020860160208601611e21565b601f01601f19169290920160200192915050565b602081526000611c846020830184611e45565b60008060408385031215611e9757600080fd5b611ea083611d9c565b9150602083013567ffffffffffffffff811115611ebc57600080fd5b8301601f81018513611ecd57600080fd5b611e1785823560208401611cc9565b60008060408385031215611eef57600080fd5b823567ffffffffffffffff80821115611f0757600080fd5b611f1386838701611d3f565b93506020850135915080821115611f2957600080fd5b50611e1785828601611d3f565b6000610100808352611f4a8184018c611e45565b602084019a909a52505060408101969096526060860194909452608085019290925260a084015260c0830152151560e090910152919050565b80358015158114611db357600080fd5b600080600080600060a08688031215611fab57600080fd5b611fb486611d9c565b94506020860135935060408601359250611fd060608701611f83565b9150611fde60808701611f83565b90509295509295909350565b602080825260139082015272155cd95c881b9bdd081c9959da5cdd195c9959606a1b604082015260600190565b60008251612029818460208701611e21565b9190910192915050565b634e487b7160e01b600052603260045260246000fd5b60208082526024908201527f557365726e616d6520636f6e7461696e7320696e76616c6964206368617261636040820152637465727360e01b606082015260800190565b600181811c908216806120a157607f821691505b6020821081036120c157634e487b7160e01b600052602260045260246000fd5b50919050565b601f821115610db6576000816000526020600020601f850160051c810160208610156120f05750805b601f850160051c820191505b818110156113e0578281556001016120fc565b815167ffffffffffffffff81111561212957612129611cb3565b61213d81612137845461208d565b846120c7565b602080601f831160018114612172576000841561215a5750858301515b600019600386901b1c1916600185901b1785556113e0565b600085815260208120601f198616915b828110156121a157888601518255948401946001909101908401612182565b50858210156121bf5787850151600019600388901b60f8161c191681555b5050505050600190811b01905550565b6040815260006121e26040830185611e45565b90508260208301529392505050565b634e487b7160e01b600052601160045260246000fd5b600081612216576122166121f1565b506000190190565b600060018201612230576122306121f1565b5060010190565b6001600160a01b0383168152604060208201819052600090611d9490830184611e45565b80820180821115610caa57610caa6121f1565b60006020828403121561228057600080fd5b505191905056fe360894a13ba1a3210667c828492db98dca3e2076cc3735a920a3ca505d382bbca26469706673582212206731a5041c5a71ad6c852c4507081fc3bc0371e570804f4fb9fc74ff022a94e664736f6c63430008160033",
  "linkReferences": {},
  "deployedLinkReferences": {}
}