{
  "_format": "hh-sol-artifact-1",
  "contractName": "UserProfile",
  "sourceName": "contracts/UserProfile.sol",
  "abi": [
    {
      "inputs": [],
      "stateMutability": "nonpayable",
      "type": "constructor"
    },
    {
      "inputs": [
        {
          "internalType": "address",
          "name": "target",
          "type": "address"
        }
      ],
      "name": "AddressEmptyCode",
      "type": "error"
    },
    {
      "inputs": [
        {
          "internalType": "address",
          "name": "implementation",
          "type": "address"
        }
      ],
      "name": "ERC1967InvalidImplementation",
      "type": "error"
    },
    {
      "inputs": [],
      "name": "ERC1967NonPayable",
      "type": "error"
    },
    {
      "inputs": [],
      "name": "FailedCall",
      "type": "error"
    },
    {
      "inputs": [],
      "name": "InvalidInitialization",
      "type": "error"
    },
    {
      "inputs": [],
      "name": "NotInitializing",
      "type": "error"
    },
    {
      "inputs": [
        {
          "internalType": "address",
          "name": "owner",
          "type": "address"
        }
      ],
      "name": "OwnableInvalidOwner",
      "type": "error"
    },
    {
      "inputs": [
        {
          "internalType": "address",
          "name": "account",
          "type": "address"
        }
      ],
      "name": "OwnableUnauthorizedAccount",
      "type": "error"
    },
    {
      "inputs": [],
      "name": "ReentrancyGuardReentrantCall",
      "type": "error"
    },
    {
      "inputs": [],
      "name": "UUPSUnauthorizedCallContext",
      "type": "error"
    },
    {
      "inputs": [
        {
          "internalType": "bytes32",
          "name": "slot",
          "type": "bytes32"
        }
      ],
      "name": "UUPSUnsupportedProxiableUUID",
      "type": "error"
    },
    {
      "anonymous": false,
      "inputs": [
        {
          "indexed": false,
          "internalType": "uint64",
          "name": "version",
          "type": "uint64"
        }
      ],
      "name": "Initialized",
      "type": "event"
    },
    {
      "anonymous": false,
      "inputs": [
        {
          "indexed": true,
          "internalType": "address",
          "name": "previousOwner",
          "type": "address"
        },
        {
          "indexed": true,
          "internalType": "address",
          "name": "newOwner",
          "type": "address"
        }
      ],
      "name": "OwnershipTransferred",
      "type": "event"
    },
    {
      "anonymous": false,
      "inputs": [
        {
          "indexed": true,
          "internalType": "address",
          "name": "user",
          "type": "address"
        },
        {
          "indexed": false,
          "internalType": "uint256",
          "name": "oldScore",
          "type": "uint256"
        },
        {
          "indexed": false,
          "internalType": "uint256",
          "name": "newScore",
          "type": "uint256"
        }
      ],
      "name": "ReputationUpdated",
      "type": "event"
    },
    {
      "anonymous": false,
      "inputs": [
        {
          "indexed": true,
          "internalType": "address",
          "name": "implementation",
          "type": "address"
        }
      ],
      "name": "Upgraded",
      "type": "event"
    },
    {
      "anonymous": false,
      "inputs": [
        {
          "indexed": true,
          "internalType": "address",
          "name": "user",
          "type": "address"
        },
        {
          "indexed": false,
          "internalType": "uint256",
          "name": "timestamp",
          "type": "uint256"
        }
      ],
      "name": "UserDeactivated",
      "type": "event"
    },
    {
      "anonymous": false,
      "inputs": [
        {
          "indexed": true,
          "internalType": "address",
          "name": "user",
          "type": "address"
        },
        {
          "indexed": false,
          "internalType": "string",
          "name": "username",
          "type": "string"
        },
        {
          "indexed": false,
          "internalType": "uint256",
          "name": "timestamp",
          "type": "uint256"
        }
      ],
      "name": "UserRegistered",
      "type": "event"
    },
    {
      "anonymous": false,
      "inputs": [
        {
          "indexed": true,
          "internalType": "address",
          "name": "user",
          "type": "address"
        },
        {
          "indexed": false,
          "internalType": "uint256",
          "name": "depositAmount",
          "type": "uint256"
        },
        {
          "indexed": false,
          "internalType": "uint256",
          "name": "withdrawalAmount",
          "type": "uint256"
        },
        {
          "indexed": false,
          "internalType": "bool",
          "name": "battleJoined",
          "type": "bool"
        },
        {
          "indexed": false,
          "internalType": "bool",
          "name": "battleWon",
          "type": "bool"
        },
        {
          "indexed": false,
          "internalType": "uint256",
          "name": "timestamp",
          "type": "uint256"
        }
      ],
      "name": "UserStatsUpdated",
      "type": "event"
    },
    {
      "anonymous": false,
      "inputs": [
        {
          "indexed": true,
          "internalType": "address",
          "name": "user",
          "type": "address"
        },
        {
          "indexed": false,
          "internalType": "string",
          "name": "username",
          "type": "string"
        },
        {
          "indexed": false,
          "internalType": "uint256",
          "name": "timestamp",
          "type": "uint256"
        }
      ],
      "name": "UserUpdated",
      "type": "event"
    },
    {
      "inputs": [],
      "name": "INITIAL_REPUTATION_SCORE",
      "outputs": [
        {
          "internalType": "uint256",
          "name": "",
          "type": "uint256"
        }
      ],
      "stateMutability": "view",
      "type": "function"
    },
    {
      "inputs": [],
      "name": "MAX_USERNAME_LENGTH",
      "outputs": [
        {
          "internalType": "uint256",
          "name": "",
          "type": "uint256"
        }
      ],
      "stateMutability": "view",
      "type": "function"
    },
    {
      "inputs": [],
      "name": "MIN_USERNAME_LENGTH",
      "outputs": [
        {
          "internalType": "uint256",
          "name": "",
          "type": "uint256"
        }
      ],
      "stateMutability": "view",
      "type": "function"
    },
    {
      "inputs": [],
      "name": "UPGRADE_INTERFACE_VERSION",
      "outputs": [
        {
          "internalType": "string",
          "name": "",
          "type": "string"
        }
      ],
      "stateMutability": "view",
      "type": "function"
    },
    {
      "inputs": [],
      "name": "activeUsers",
      "outputs": [
        {
          "internalType": "uint256",
          "name": "",
          "type": "uint256"
        }
      ],
      "stateMutability": "view",
      "type": "function"
    },
    {
      "inputs": [
        {
          "internalType": "address",
          "name": "_user",
          "type": "address"
        }
      ],
      "name": "deactivateUser",
      "outputs": [],
      "stateMutability": "nonpayable",
      "type": "function"
    },
    {
      "inputs": [],
      "name": "getTotalStats",
      "outputs": [
        {
          "internalType": "uint256",
          "name": "_totalUsers",
          "type": "uint256"
        },
        {
          "internalType": "uint256",
          "name": "_activeUsers",
          "type": "uint256"
        }
      ],
      "stateMutability": "view",
      "type": "function"
    },
    {
      "inputs": [
        {
          "internalType": "address",
          "name": "_user",
          "type": "address"
        }
      ],
      "name": "getUserData",
      "outputs": [
        {
          "internalType": "string",
          "name": "username",
          "type": "string"
        },
        {
          "internalType": "uint256",
          "name": "registrationTime",
          "type": "uint256"
        },
        {
          "internalType": "uint256",
          "name": "totalDeposits",
          "type": "uint256"
        },
        {
          "internalType": "uint256",
          "name": "totalWithdrawals",
          "type": "uint256"
        },
        {
          "internalType": "uint256",
          "name": "battlesJoined",
          "type": "uint256"
        },
        {
          "internalType": "uint256",
          "name": "battlesWon",
          "type": "uint256"
        },
        {
          "internalType": "uint256",
          "name": "reputationScore",
          "type": "uint256"
        },
        {
          "internalType": "bool",
          "name": "isActive",
          "type": "bool"
        }
      ],
      "stateMutability": "view",
      "type": "function"
    },
    {
      "inputs": [
        {
          "internalType": "address",
          "name": "_user",
          "type": "address"
        },
        {
          "internalType": "string",
          "name": "_key",
          "type": "string"
        }
      ],
      "name": "getUserMetadata",
      "outputs": [
        {
          "internalType": "string",
          "name": "",
          "type": "string"
        }
      ],
      "stateMutability": "view",
      "type": "function"
    },
    {
      "inputs": [
        {
          "internalType": "address",
          "name": "_owner",
          "type": "address"
        }
      ],
      "name": "initialize",
      "outputs": [],
      "stateMutability": "nonpayable",
      "type": "function"
    },
    {
      "inputs": [
        {
          "internalType": "address",
          "name": "",
          "type": "address"
        }
      ],
      "name": "isRegistered",
      "outputs": [
        {
          "internalType": "bool",
          "name": "",
          "type": "bool"
        }
      ],
      "stateMutability": "view",
      "type": "function"
    },
    {
      "inputs": [
        {
          "internalType": "address",
          "name": "_user",
          "type": "address"
        }
      ],
      "name": "isUserRegistered",
      "outputs": [
        {
          "internalType": "bool",
          "name": "",
          "type": "bool"
        }
      ],
      "stateMutability": "view",
      "type": "function"
    },
    {
      "inputs": [
        {
          "internalType": "string",
          "name": "_username",
          "type": "string"
        }
      ],
      "name": "isUsernameAvailable",
      "outputs": [
        {
          "internalType": "bool",
          "name": "",
          "type": "bool"
        }
      ],
      "stateMutability": "view",
      "type": "function"
    },
    {
      "inputs": [],
      "name": "leaderboardContract",
      "outputs": [
        {
          "internalType": "address",
          "name": "",
          "type": "address"
        }
      ],
      "stateMutability": "view",
      "type": "function"
    },
    {
      "inputs": [],
      "name": "owner",
      "outputs": [
        {
          "internalType": "address",
          "name": "",
          "type": "address"
        }
      ],
      "stateMutability": "view",
      "type": "function"
    },
    {
      "inputs": [],
      "name": "proxiableUUID",
      "outputs": [
        {
          "internalType": "bytes32",
          "name": "",
          "type": "bytes32"
        }
      ],
      "stateMutability": "view",
      "type": "function"
    },
    {
      "inputs": [
        {
          "internalType": "string",
          "name": "_username",
          "type": "string"
        }
      ],
      "name": "registerUser",
      "outputs": [],
      "stateMutability": "nonpayable",
      "type": "function"
    },
    {
      "inputs": [],
      "name": "renounceOwnership",
      "outputs": [],
      "stateMutability": "nonpayable",
      "type": "function"
    },
    {
      "inputs": [
        {
          "internalType": "address",
          "name": "_leaderboardContract",
          "type": "address"
        }
      ],
      "name": "setLeaderboardContract",
      "outputs": [],
      "stateMutability": "nonpayable",
      "type": "function"
    },
    {
      "inputs": [
        {
          "internalType": "address",
          "name": "_yieldVaultContract",
          "type": "address"
        }
      ],
      "name": "setYieldVaultContract",
      "outputs": [],
      "stateMutability": "nonpayable",
      "type": "function"
    },
    {
      "inputs": [],
      "name": "totalUsers",
      "outputs": [
        {
          "internalType": "uint256",
          "name": "",
          "type": "uint256"
        }
      ],
      "stateMutability": "view",
      "type": "function"
    },
    {
      "inputs": [
        {
          "internalType": "address",
          "name": "newOwner",
          "type": "address"
        }
      ],
      "name": "transferOwnership",
      "outputs": [],
      "stateMutability": "nonpayable",
      "type": "function"
    },
    {
      "inputs": [
        {
          "internalType": "string",
          "name": "_key",
          "type": "string"
        },
        {
          "internalType": "string",
          "name": "_value",
          "type": "string"
        }
      ],
      "name": "updateMetadata",
      "outputs": [],
      "stateMutability": "nonpayable",
      "type": "function"
    },
    {
      "inputs": [
        {
          "internalType": "string",
          "name": "_username",
          "type": "string"
        }
      ],
      "name": "updateProfile",
      "outputs": [],
      "stateMutability": "nonpayable",
      "type": "function"
    },
    {
      "inputs": [
        {
          "internalType": "address",
          "name": "_user",
          "type": "address"
        },
        {
          "internalType": "uint256",
          "name": "_depositAmount",
          "type": "uint256"
        },
        {
          "internalType": "uint256",
          "name": "_withdrawalAmount",
          "type": "uint256"
        },
        {
          "internalType": "bool",
          "name": "_battleJoined",
          "type": "bool"
        },
        {
          "internalType": "bool",
          "name": "_battleWon",
          "type": "bool"
        }
      ],
      "name": "updateUserStats",
      "outputs": [],
      "stateMutability": "nonpayable",
      "type": "function"
    },
    {
      "inputs": [
        {
          "internalType": "address",
          "name": "newImplementation",
          "type": "address"
        },
        {
          "internalType": "bytes",
          "name": "data",
          "type": "bytes"
        }
      ],
      "name": "upgradeToAndCall",
      "outputs": [],
      "stateMutability": "payable",
      "type": "function"
    },
    {
      "inputs": [
        {
          "internalType": "string",
          "name": "",
          "type": "string"
        }
      ],
      "name": "usernameToAddress",
      "outputs": [
        {
          "internalType": "address",
          "name": "",
          "type": "address"
        }
      ],
      "stateMutability": "view",
      "type": "function"
    },
    {
      "inputs": [
        {
          "internalType": "address",
          "name": "",
          "type": "address"
        }
      ],
      "name": "users",
      "outputs": [
        {
          "internalType": "string",
          "name": "username",
          "type": "string"
        },
        {
          "internalType": "uint256",
          "name": "registrationTime",
          "type": "uint256"
        },
        {
          "internalType": "uint256",
          "name": "totalDeposits",
          "type": "uint256"
        },
        {
          "internalType": "uint256",
          "name": "totalWithdrawals",
          "type": "uint256"
        },
        {
          "internalType": "uint256",
          "name": "battlesJoined",
          "type": "uint256"
        },
        {
          "internalType": "uint256",
          "name": "battlesWon",
          "type": "uint256"
        },
        {
          "internalType": "uint256",
          "name": "reputationScore",
          "type": "uint256"
        },
        {
          "internalType": "bool",
          "name": "isActive",
          "type": "bool"
        }
      ],
      "stateMutability": "view",
      "type": "function"
    },
    {
      "inputs": [],
      "name": "yieldVaultContract",
      "outputs": [
        {
          "internalType": "address",
          "name": "",
          "type": "address"
        }
      ],
      "stateMutability": "view",
      "type": "function"
    }
  ],
  "bytecode": "0x60a06040523060805234801561001457600080fd5b5061001d610022565b6100d4565b7ff0c57e16840df040f15088dc2f81fe391c3923bec73e23a9662efc9c229c6a00805468010000000000000000900460ff16156100725760405163f92ee8a960e01b815260040160405180910390fd5b80546001600160401b03908116146100d15780546001600160401b0319166001600160401b0390811782556040519081527fc7f505b2f371ae2175ee4913f4499e1f2633a7b5936321eed1cdaeb6115181d29060200160405180910390a15b50565b608051612321620000fe600039600081816118660152818161188f01526119d001526123216000f3fe6080604052600436106101c15760003560e01c80638da5cb5b116100f7578063f203f89b11610095578063fc5cbf1d11610064578063fc5cbf1d14610560578063ff0224d314610588578063ff8dba10146105a8578063ffc9896b146105c857600080fd5b8063f203f89b146104bf578063f2fde38b146104df578063f69c6dec146104ff578063f825f1431461051f57600080fd5b8063b38d33f8116100d1578063b38d33f814610439578063bff1f9e114610459578063c3c5a5471461046f578063c4d66de81461049f57600080fd5b80638da5cb5b14610383578063a87430ba146103d4578063ad3cb1cc1461040857600080fd5b80634f1ef28611610164578063589826261161013e5780635898262614610323578063704f1b9414610338578063715018a61461035857806374aa34de1461036d57600080fd5b80634f1ef286146102db57806352d1902d146102ee57806356ce0e6c1461030357600080fd5b8063163f7522116101a0578063163f7522146102305780631a47767b146102795780631cd896c11461029957806341af7b53146102ae57600080fd5b80629299e3146101c65780630320922b146101e8578063155b1d9814610208575b600080fd5b3480156101d257600080fd5b506101e66101e1366004611da3565b6105e8565b005b3480156101f457600080fd5b506101e6610203366004611dfc565b610a31565b34801561021457600080fd5b5061021d600381565b6040519081526020015b60405180910390f35b34801561023c57600080fd5b5061026961024b366004611dfc565b6001600160a01b031660009081526002602052604090205460ff1690565b6040519015158152602001610227565b34801561028557600080fd5b506101e6610294366004611dfc565b610abd565b3480156102a557600080fd5b5061021d601481565b3480156102ba57600080fd5b506102ce6102c9366004611e17565b610be4565b6040516102279190611eb5565b6101e66102e9366004611ec8565b610cf4565b3480156102fa57600080fd5b5061021d610d13565b34801561030f57600080fd5b506101e661031e366004611f20565b610d30565b34801561032f57600080fd5b5061021d606481565b34801561034457600080fd5b506101e6610353366004611da3565b610dff565b34801561036457600080fd5b506101e66111b3565b34801561037957600080fd5b5061021d60045481565b34801561038f57600080fd5b507f9016d09d72d40fdae2fd8ceac6b6234c7706214fd39c1cd1e609a0528c199300546001600160a01b03165b6040516001600160a01b039091168152602001610227565b3480156103e057600080fd5b506103f46103ef366004611dfc565b6111c7565b604051610227989796959493929190611f7a565b34801561041457600080fd5b506102ce604051806040016040528060058152602001640352e302e360dc1b81525081565b34801561044557600080fd5b506101e6610454366004611dfc565b611294565b34801561046557600080fd5b5061021d60035481565b34801561047b57600080fd5b5061026961048a366004611dfc565b60026020526000908152604090205460ff1681565b3480156104ab57600080fd5b506101e66104ba366004611dfc565b611320565b3480156104cb57600080fd5b506006546103bc906001600160a01b031681565b3480156104eb57600080fd5b506101e66104fa366004611dfc565b61142c565b34801561050b57600080fd5b5061026961051a366004611da3565b611467565b34801561052b57600080fd5b506103bc61053a366004611da3565b80516020818301810180516001825292820191909301209152546001600160a01b031681565b34801561056c57600080fd5b5060035460045460408051928352602083019190915201610227565b34801561059457600080fd5b506005546103bc906001600160a01b031681565b3480156105b457600080fd5b506101e66105c3366004611fd7565b6114a3565b3480156105d457600080fd5b506103f46105e3366004611dfc565b611658565b6105f0611790565b3360009081526002602052604090205460ff166106285760405162461bcd60e51b815260040161061f9061202e565b60405180910390fd5b3360009081526020819052604090206007015460ff166106855760405162461bcd60e51b8152602060048201526018602482015277155cd95c881858d8dbdd5b9d0819195858dd1a5d985d195960421b604482015260640161061f565b6003815110156106cc5760405162461bcd60e51b8152602060048201526012602482015271155cd95c9b985b59481d1bdbc81cda1bdc9d60721b604482015260640161061f565b6014815111156107125760405162461bcd60e51b8152602060048201526011602482015270557365726e616d6520746f6f206c6f6e6760781b604482015260640161061f565b60006001600160a01b031660018260405161072d919061205b565b908152604051908190036020019020546001600160a01b031614806107825750336001600160a01b0316600182604051610767919061205b565b908152604051908190036020019020546001600160a01b0316145b6107c75760405162461bcd60e51b81526020600482015260166024820152752ab9b2b93730b6b29030b63932b0b23c903a30b5b2b760511b604482015260640161061f565b8060005b81518110156108a45760008282815181106107e8576107e8612077565b01602001516001600160f81b0319169050600360fc1b811080159061081b5750603960f81b6001600160f81b0319821611155b8061084d5750604160f81b6001600160f81b031982161080159061084d5750602d60f91b6001600160f81b0319821611155b8061087f5750606160f81b6001600160f81b031982161080159061087f5750603d60f91b6001600160f81b0319821611155b61089b5760405162461bcd60e51b815260040161061f9061208d565b506001016107cb565b5033600090815260208190526040812080546108bf906120d1565b80601f01602080910402602001604051908101604052809291908181526020018280546108eb906120d1565b80156109385780601f1061090d57610100808354040283529160200191610938565b820191906000526020600020905b81548152906001019060200180831161091b57829003601f168201915b505033600090815260208190526040902093945061095c9250869150839050612153565b5060018160405161096d919061205b565b90815260405190819003602001812080546001600160a01b0319169055339060019061099a90869061205b565b90815260405190819003602001812080546001600160a01b03939093166001600160a01b03199093169290921790915533907f429ad3a7ede99d93a72d6f0ba190681a2763d681f984e2f299af21ca35caebdb906109fb9086904290612213565b60405180910390a25050610a2e60017f9b779b17422d0df92223018b32b4d1fa46e071723d6817e2486d003becc55f0055565b50565b610a39611800565b6001600160a01b038116610a9b5760405162461bcd60e51b8152602060048201526024808201527f496e76616c6964207969656c64207661756c7420636f6e7472616374206164646044820152637265737360e01b606482015260840161061f565b600680546001600160a01b0319166001600160a01b0392909216919091179055565b610ac5611800565b6001600160a01b03811660009081526002602052604090205460ff16610afd5760405162461bcd60e51b815260040161061f9061202e565b6001600160a01b03811660009081526020819052604090206007015460ff16610b685760405162461bcd60e51b815260206004820152601860248201527f5573657220616c72656164792064656163746976617465640000000000000000604482015260640161061f565b6001600160a01b0381166000908152602081905260408120600701805460ff191690556004805491610b998361224b565b9190505550806001600160a01b03167f0a3c4dd3ee5277d6eada470cf9b47a480953120ecafcbbdc14bde6f8a624893042604051610bd991815260200190565b60405180910390a250565b6001600160a01b03821660009081526002602052604090205460609060ff16610c1f5760405162461bcd60e51b815260040161061f9061202e565b600080846001600160a01b03166001600160a01b0316815260200190815260200160002060080182604051610c54919061205b565b90815260200160405180910390208054610c6d906120d1565b80601f0160208091040260200160405190810160405280929190818152602001828054610c99906120d1565b8015610ce65780601f10610cbb57610100808354040283529160200191610ce6565b820191906000526020600020905b815481529060010190602001808311610cc957829003601f168201915b505050505090505b92915050565b610cfc61185b565b610d0582611900565b610d0f8282611908565b5050565b6000610d1d6119c5565b506000805160206122cc83398151915290565b3360009081526002602052604090205460ff16610d5f5760405162461bcd60e51b815260040161061f9061202e565b3360009081526020819052604090206007015460ff16610dbc5760405162461bcd60e51b8152602060048201526018602482015277155cd95c881858d8dbdd5b9d0819195858dd1a5d985d195960421b604482015260640161061f565b33600090815260208190526040908190209051829160080190610de090859061205b565b90815260200160405180910390209081610dfa9190612153565b505050565b610e07611790565b3360009081526002602052604090205460ff1615610e675760405162461bcd60e51b815260206004820152601760248201527f5573657220616c72656164792072656769737465726564000000000000000000604482015260640161061f565b600381511015610eae5760405162461bcd60e51b8152602060048201526012602482015271155cd95c9b985b59481d1bdbc81cda1bdc9d60721b604482015260640161061f565b601481511115610ef45760405162461bcd60e51b8152602060048201526011602482015270557365726e616d6520746f6f206c6f6e6760781b604482015260640161061f565b60006001600160a01b0316600182604051610f0f919061205b565b908152604051908190036020019020546001600160a01b031614610f6e5760405162461bcd60e51b81526020600482015260166024820152752ab9b2b93730b6b29030b63932b0b23c903a30b5b2b760511b604482015260640161061f565b8060005b815181101561104b576000828281518110610f8f57610f8f612077565b01602001516001600160f81b0319169050600360fc1b8110801590610fc25750603960f81b6001600160f81b0319821611155b80610ff45750604160f81b6001600160f81b0319821610801590610ff45750602d60f91b6001600160f81b0319821611155b806110265750606160f81b6001600160f81b03198216108015906110265750603d60f91b6001600160f81b0319821611155b6110425760405162461bcd60e51b815260040161061f9061208d565b50600101610f72565b50336000908152602081905260409020806110668482612153565b50426001808301919091556064600683015560078201805460ff19168217905560405133919061109790869061205b565b908152604080516020928190038301902080546001600160a01b0319166001600160a01b0394909416939093179092553360009081526002909152908120805460ff1916600117905560038054916110ee83612262565b90915550506004805490600061110383612262565b90915550506005546001600160a01b03161561117857600554604051630ea126f960e01b81526001600160a01b0390911690630ea126f99061114b903390879060040161227b565b600060405180830381600087803b15801561116557600080fd5b505af1925050508015611176575060015b505b336001600160a01b03167f89105a1c6a3c2fbd471255c66a31ccab604af5697f67d7e2e9a0028c5e4dbd9184426040516109fb929190612213565b6111bb611800565b6111c56000611a0e565b565b6000602081905290815260409020805481906111e2906120d1565b80601f016020809104026020016040519081016040528092919081815260200182805461120e906120d1565b801561125b5780601f106112305761010080835404028352916020019161125b565b820191906000526020600020905b81548152906001019060200180831161123e57829003601f168201915b50505050600183015460028401546003850154600486015460058701546006880154600790980154969794969395509193909260ff1688565b61129c611800565b6001600160a01b0381166112fe5760405162461bcd60e51b8152602060048201526024808201527f496e76616c6964206c6561646572626f61726420636f6e7472616374206164646044820152637265737360e01b606482015260840161061f565b600580546001600160a01b0319166001600160a01b0392909216919091179055565b600061132a611a7f565b805490915060ff600160401b820416159067ffffffffffffffff166000811580156113525750825b905060008267ffffffffffffffff16600114801561136f5750303b155b90508115801561137d575080155b1561139b5760405163f92ee8a960e01b815260040160405180910390fd5b845467ffffffffffffffff1916600117855583156113c557845460ff60401b1916600160401b1785555b6113ce86611aa8565b6113d6611ab9565b6113de611ac1565b831561142457845460ff60401b19168555604051600181527fc7f505b2f371ae2175ee4913f4499e1f2633a7b5936321eed1cdaeb6115181d29060200160405180910390a15b505050505050565b611434611800565b6001600160a01b03811661145e57604051631e4fbdf760e01b81526000600482015260240161061f565b610a2e81611a0e565b6000806001600160a01b0316600183604051611483919061205b565b908152604051908190036020019020546001600160a01b03161492915050565b6006546001600160a01b031633146114fd5760405162461bcd60e51b815260206004820181905260248201527f4f6e6c79205969656c645661756c742063616e20757064617465207374617473604482015260640161061f565b6001600160a01b03851660009081526002602052604090205460ff166115355760405162461bcd60e51b815260040161061f9061202e565b6001600160a01b0385166000908152602081905260409020841561156d5784816002016000828254611567919061229f565b90915550505b831561158d5783816003016000828254611587919061229f565b90915550505b82156115ab576004810180549060006115a583612262565b91905055505b81156115c9576005810180549060006115c383612262565b91905055505b60008511806115d55750825b156115f557600a8160060160008282546115ef919061229f565b90915550505b604080518681526020810186905284151581830152831515606082015242608082015290516001600160a01b038816917ffe6fef018c97a5965d21032e14d7b25619038d3fd53bd100efee56e59abc2c99919081900360a00190a2505050505050565b6001600160a01b0381166000908152600260205260408120546060919081908190819081908190819060ff166116a05760405162461bcd60e51b815260040161061f9061202e565b6001600160a01b038916600090815260208190526040902060018101546002820154600383015460048401546005850154600686015460078701548754889796959493929160ff169088906116f4906120d1565b80601f0160208091040260200160405190810160405280929190818152602001828054611720906120d1565b801561176d5780601f106117425761010080835404028352916020019161176d565b820191906000526020600020905b81548152906001019060200180831161175057829003601f168201915b505050505097509850985098509850985098509850985050919395975091939597565b7f9b779b17422d0df92223018b32b4d1fa46e071723d6817e2486d003becc55f008054600119016117d457604051633ee5aeb560e01b815260040160405180910390fd5b60029055565b60017f9b779b17422d0df92223018b32b4d1fa46e071723d6817e2486d003becc55f0055565b336118327f9016d09d72d40fdae2fd8ceac6b6234c7706214fd39c1cd1e609a0528c199300546001600160a01b031690565b6001600160a01b0316146111c55760405163118cdaa760e01b815233600482015260240161061f565b306001600160a01b037f00000000000000000000000000000000000000000000000000000000000000001614806118e257507f00000000000000000000000000000000000000000000000000000000000000006001600160a01b03166118d66000805160206122cc833981519152546001600160a01b031690565b6001600160a01b031614155b156111c55760405163703e46dd60e11b815260040160405180910390fd5b610a2e611800565b816001600160a01b03166352d1902d6040518163ffffffff1660e01b8152600401602060405180830381865afa925050508015611962575060408051601f3d908101601f1916820190925261195f918101906122b2565b60015b61198a57604051634c9c8ce360e01b81526001600160a01b038316600482015260240161061f565b6000805160206122cc83398151915281146119bb57604051632a87526960e21b81526004810182905260240161061f565b610dfa8383611ad1565b306001600160a01b037f000000000000000000000000000000000000000000000000000000000000000016146111c55760405163703e46dd60e11b815260040160405180910390fd5b7f9016d09d72d40fdae2fd8ceac6b6234c7706214fd39c1cd1e609a0528c19930080546001600160a01b031981166001600160a01b03848116918217845560405192169182907f8be0079c531659141344cd1fd0a4f28419497f9722a3daafe3b4186f6b6457e090600090a3505050565b6000807ff0c57e16840df040f15088dc2f81fe391c3923bec73e23a9662efc9c229c6a00610cee565b611ab0611b27565b610a2e81611b4c565b6111c5611b27565b611ac9611b27565b6111c5611b54565b611ada82611b5c565b6040516001600160a01b038316907fbc7cd75a20ee27fd9adebab32041f755214dbc6bffa90cc0225b39da2e5c2d3b90600090a2805115611b1f57610dfa8282611bc1565b610d0f611c37565b611b2f611c56565b6111c557604051631afcd79f60e31b815260040160405180910390fd5b611434611b27565b6117da611b27565b806001600160a01b03163b600003611b9257604051634c9c8ce360e01b81526001600160a01b038216600482015260240161061f565b6000805160206122cc83398151915280546001600160a01b0319166001600160a01b0392909216919091179055565b6060600080846001600160a01b031684604051611bde919061205b565b600060405180830381855af49150503d8060008114611c19576040519150601f19603f3d011682016040523d82523d6000602084013e611c1e565b606091505b5091509150611c2e858383611c70565b95945050505050565b34156111c55760405163b398979f60e01b815260040160405180910390fd5b6000611c60611a7f565b54600160401b900460ff16919050565b606082611c8557611c8082611ccf565b611cc8565b8151158015611c9c57506001600160a01b0384163b155b15611cc557604051639996b31560e01b81526001600160a01b038516600482015260240161061f565b50805b9392505050565b805115611cde57805160208201fd5b60405163d6bda27560e01b815260040160405180910390fd5b634e487b7160e01b600052604160045260246000fd5b600067ffffffffffffffff80841115611d2857611d28611cf7565b604051601f8501601f19908116603f01168101908282118183101715611d5057611d50611cf7565b81604052809350858152868686011115611d6957600080fd5b858560208301376000602087830101525050509392505050565b600082601f830112611d9457600080fd5b611cc883833560208501611d0d565b600060208284031215611db557600080fd5b813567ffffffffffffffff811115611dcc57600080fd5b611dd884828501611d83565b949350505050565b80356001600160a01b0381168114611df757600080fd5b919050565b600060208284031215611e0e57600080fd5b611cc882611de0565b60008060408385031215611e2a57600080fd5b611e3383611de0565b9150602083013567ffffffffffffffff811115611e4f57600080fd5b611e5b85828601611d83565b9150509250929050565b60005b83811015611e80578181015183820152602001611e68565b50506000910152565b60008151808452611ea1816020860160208601611e65565b601f01601f19169290920160200192915050565b602081526000611cc86020830184611e89565b60008060408385031215611edb57600080fd5b611ee483611de0565b9150602083013567ffffffffffffffff811115611f0057600080fd5b8301601f81018513611f1157600080fd5b611e5b85823560208401611d0d565b60008060408385031215611f3357600080fd5b823567ffffffffffffffff80821115611f4b57600080fd5b611f5786838701611d83565b93506020850135915080821115611f6d57600080fd5b50611e5b85828601611d83565b6000610100808352611f8e8184018c611e89565b602084019a909a52505060408101969096526060860194909452608085019290925260a084015260c0830152151560e090910152919050565b80358015158114611df757600080fd5b600080600080600060a08688031215611fef57600080fd5b611ff886611de0565b9450602086013593506040860135925061201460608701611fc7565b915061202260808701611fc7565b90509295509295909350565b602080825260139082015272155cd95c881b9bdd081c9959da5cdd195c9959606a1b604082015260600190565b6000825161206d818460208701611e65565b9190910192915050565b634e487b7160e01b600052603260045260246000fd5b60208082526024908201527f557365726e616d6520636f6e7461696e7320696e76616c6964206368617261636040820152637465727360e01b606082015260800190565b600181811c908216806120e557607f821691505b60208210810361210557634e487b7160e01b600052602260045260246000fd5b50919050565b601f821115610dfa576000816000526020600020601f850160051c810160208610156121345750805b601f850160051c820191505b8181101561142457828155600101612140565b815167ffffffffffffffff81111561216d5761216d611cf7565b6121818161217b84546120d1565b8461210b565b602080601f8311600181146121b6576000841561219e5750858301515b600019600386901b1c1916600185901b178555611424565b600085815260208120601f198616915b828110156121e5578886015182559484019460019091019084016121c6565b50858210156122035787850151600019600388901b60f8161c191681555b5050505050600190811b01905550565b6040815260006122266040830185611e89565b90508260208301529392505050565b634e487b7160e01b600052601160045260246000fd5b60008161225a5761225a612235565b506000190190565b60006001820161227457612274612235565b5060010190565b6001600160a01b0383168152604060208201819052600090611dd890830184611e89565b80820180821115610cee57610cee612235565b6000602082840312156122c457600080fd5b505191905056fe360894a13ba1a3210667c828492db98dca3e2076cc3735a920a3ca505d382bbca2646970667358221220c13aee2b3f2760ddf1b2bc564bd6dfffb2a0bd328a1588cbf8d59411bb7fe51864736f6c63430008160033",
  "linkReferences": {},
  "deployedLinkReferences": {}
}