{
  "_format": "hh-sol-artifact-1",
  "contractName": "UserProfile",
  "sourceName": "contracts/UserProfile.sol",
  "abi": [
    {
      "inputs": [],
      "stateMutability": "nonpayable",
      "type": "constructor"
    },
    {
      "inputs": [
        {
          "internalType": "address",
          "name": "target",
          "type": "address"
        }
      ],
      "name": "AddressEmptyCode",
      "type": "error"
    },
    {
      "inputs": [
        {
          "internalType": "address",
          "name": "implementation",
          "type": "address"
        }
      ],
      "name": "ERC1967InvalidImplementation",
      "type": "error"
    },
    {
      "inputs": [],
      "name": "ERC1967NonPayable",
      "type": "error"
    },
    {
      "inputs": [],
      "name": "FailedCall",
      "type": "error"
    },
    {
      "inputs": [],
      "name": "InvalidInitialization",
      "type": "error"
    },
    {
      "inputs": [],
      "name": "NotInitializing",
      "type": "error"
    },
    {
      "inputs": [
        {
          "internalType": "address",
          "name": "owner",
          "type": "address"
        }
      ],
      "name": "OwnableInvalidOwner",
      "type": "error"
    },
    {
      "inputs": [
        {
          "internalType": "address",
          "name": "account",
          "type": "address"
        }
      ],
      "name": "OwnableUnauthorizedAccount",
      "type": "error"
    },
    {
      "inputs": [],
      "name": "ReentrancyGuardReentrantCall",
      "type": "error"
    },
    {
      "inputs": [],
      "name": "UUPSUnauthorizedCallContext",
      "type": "error"
    },
    {
      "inputs": [
        {
          "internalType": "bytes32",
          "name": "slot",
          "type": "bytes32"
        }
      ],
      "name": "UUPSUnsupportedProxiableUUID",
      "type": "error"
    },
    {
      "anonymous": false,
      "inputs": [
        {
          "indexed": false,
          "internalType": "uint64",
          "name": "version",
          "type": "uint64"
        }
      ],
      "name": "Initialized",
      "type": "event"
    },
    {
      "anonymous": false,
      "inputs": [
        {
          "indexed": true,
          "internalType": "address",
          "name": "previousOwner",
          "type": "address"
        },
        {
          "indexed": true,
          "internalType": "address",
          "name": "newOwner",
          "type": "address"
        }
      ],
      "name": "OwnershipTransferred",
      "type": "event"
    },
    {
      "anonymous": false,
      "inputs": [
        {
          "indexed": true,
          "internalType": "address",
          "name": "user",
          "type": "address"
        },
        {
          "indexed": false,
          "internalType": "uint256",
          "name": "oldScore",
          "type": "uint256"
        },
        {
          "indexed": false,
          "internalType": "uint256",
          "name": "newScore",
          "type": "uint256"
        }
      ],
      "name": "ReputationUpdated",
      "type": "event"
    },
    {
      "anonymous": false,
      "inputs": [
        {
          "indexed": true,
          "internalType": "address",
          "name": "implementation",
          "type": "address"
        }
      ],
      "name": "Upgraded",
      "type": "event"
    },
    {
      "anonymous": false,
      "inputs": [
        {
          "indexed": true,
          "internalType": "address",
          "name": "user",
          "type": "address"
        },
        {
          "indexed": false,
          "internalType": "uint256",
          "name": "timestamp",
          "type": "uint256"
        }
      ],
      "name": "UserDeactivated",
      "type": "event"
    },
    {
      "anonymous": false,
      "inputs": [
        {
          "indexed": true,
          "internalType": "address",
          "name": "user",
          "type": "address"
        },
        {
          "indexed": false,
          "internalType": "string",
          "name": "username",
          "type": "string"
        },
        {
          "indexed": false,
          "internalType": "uint256",
          "name": "timestamp",
          "type": "uint256"
        }
      ],
      "name": "UserRegistered",
      "type": "event"
    },
    {
      "anonymous": false,
      "inputs": [
        {
          "indexed": true,
          "internalType": "address",
          "name": "user",
          "type": "address"
        },
        {
          "indexed": false,
          "internalType": "string",
          "name": "username",
          "type": "string"
        },
        {
          "indexed": false,
          "internalType": "uint256",
          "name": "timestamp",
          "type": "uint256"
        }
      ],
      "name": "UserUpdated",
      "type": "event"
    },
    {
      "inputs": [],
      "name": "INITIAL_REPUTATION_SCORE",
      "outputs": [
        {
          "internalType": "uint256",
          "name": "",
          "type": "uint256"
        }
      ],
      "stateMutability": "view",
      "type": "function"
    },
    {
      "inputs": [],
      "name": "MAX_USERNAME_LENGTH",
      "outputs": [
        {
          "internalType": "uint256",
          "name": "",
          "type": "uint256"
        }
      ],
      "stateMutability": "view",
      "type": "function"
    },
    {
      "inputs": [],
      "name": "MIN_USERNAME_LENGTH",
      "outputs": [
        {
          "internalType": "uint256",
          "name": "",
          "type": "uint256"
        }
      ],
      "stateMutability": "view",
      "type": "function"
    },
    {
      "inputs": [],
      "name": "UPGRADE_INTERFACE_VERSION",
      "outputs": [
        {
          "internalType": "string",
          "name": "",
          "type": "string"
        }
      ],
      "stateMutability": "view",
      "type": "function"
    },
    {
      "inputs": [],
      "name": "activeUsers",
      "outputs": [
        {
          "internalType": "uint256",
          "name": "",
          "type": "uint256"
        }
      ],
      "stateMutability": "view",
      "type": "function"
    },
    {
      "inputs": [
        {
          "internalType": "address",
          "name": "_user",
          "type": "address"
        }
      ],
      "name": "deactivateUser",
      "outputs": [],
      "stateMutability": "nonpayable",
      "type": "function"
    },
    {
      "inputs": [],
      "name": "getTotalStats",
      "outputs": [
        {
          "internalType": "uint256",
          "name": "_totalUsers",
          "type": "uint256"
        },
        {
          "internalType": "uint256",
          "name": "_activeUsers",
          "type": "uint256"
        }
      ],
      "stateMutability": "view",
      "type": "function"
    },
    {
      "inputs": [
        {
          "internalType": "address",
          "name": "_user",
          "type": "address"
        }
      ],
      "name": "getUserData",
      "outputs": [
        {
          "internalType": "string",
          "name": "username",
          "type": "string"
        },
        {
          "internalType": "uint256",
          "name": "registrationTime",
          "type": "uint256"
        },
        {
          "internalType": "uint256",
          "name": "totalDeposits",
          "type": "uint256"
        },
        {
          "internalType": "uint256",
          "name": "totalWithdrawals",
          "type": "uint256"
        },
        {
          "internalType": "uint256",
          "name": "battlesJoined",
          "type": "uint256"
        },
        {
          "internalType": "uint256",
          "name": "battlesWon",
          "type": "uint256"
        },
        {
          "internalType": "uint256",
          "name": "reputationScore",
          "type": "uint256"
        },
        {
          "internalType": "bool",
          "name": "isActive",
          "type": "bool"
        }
      ],
      "stateMutability": "view",
      "type": "function"
    },
    {
      "inputs": [
        {
          "internalType": "address",
          "name": "_user",
          "type": "address"
        },
        {
          "internalType": "string",
          "name": "_key",
          "type": "string"
        }
      ],
      "name": "getUserMetadata",
      "outputs": [
        {
          "internalType": "string",
          "name": "",
          "type": "string"
        }
      ],
      "stateMutability": "view",
      "type": "function"
    },
    {
      "inputs": [
        {
          "internalType": "address",
          "name": "_owner",
          "type": "address"
        }
      ],
      "name": "initialize",
      "outputs": [],
      "stateMutability": "nonpayable",
      "type": "function"
    },
    {
      "inputs": [
        {
          "internalType": "address",
          "name": "",
          "type": "address"
        }
      ],
      "name": "isRegistered",
      "outputs": [
        {
          "internalType": "bool",
          "name": "",
          "type": "bool"
        }
      ],
      "stateMutability": "view",
      "type": "function"
    },
    {
      "inputs": [
        {
          "internalType": "string",
          "name": "_username",
          "type": "string"
        }
      ],
      "name": "isUsernameAvailable",
      "outputs": [
        {
          "internalType": "bool",
          "name": "",
          "type": "bool"
        }
      ],
      "stateMutability": "view",
      "type": "function"
    },
    {
      "inputs": [],
      "name": "leaderboardContract",
      "outputs": [
        {
          "internalType": "address",
          "name": "",
          "type": "address"
        }
      ],
      "stateMutability": "view",
      "type": "function"
    },
    {
      "inputs": [],
      "name": "owner",
      "outputs": [
        {
          "internalType": "address",
          "name": "",
          "type": "address"
        }
      ],
      "stateMutability": "view",
      "type": "function"
    },
    {
      "inputs": [],
      "name": "proxiableUUID",
      "outputs": [
        {
          "internalType": "bytes32",
          "name": "",
          "type": "bytes32"
        }
      ],
      "stateMutability": "view",
      "type": "function"
    },
    {
      "inputs": [
        {
          "internalType": "string",
          "name": "_username",
          "type": "string"
        }
      ],
      "name": "registerUser",
      "outputs": [],
      "stateMutability": "nonpayable",
      "type": "function"
    },
    {
      "inputs": [],
      "name": "renounceOwnership",
      "outputs": [],
      "stateMutability": "nonpayable",
      "type": "function"
    },
    {
      "inputs": [
        {
          "internalType": "address",
          "name": "_leaderboardContract",
          "type": "address"
        }
      ],
      "name": "setLeaderboardContract",
      "outputs": [],
      "stateMutability": "nonpayable",
      "type": "function"
    },
    {
      "inputs": [],
      "name": "totalUsers",
      "outputs": [
        {
          "internalType": "uint256",
          "name": "",
          "type": "uint256"
        }
      ],
      "stateMutability": "view",
      "type": "function"
    },
    {
      "inputs": [
        {
          "internalType": "address",
          "name": "newOwner",
          "type": "address"
        }
      ],
      "name": "transferOwnership",
      "outputs": [],
      "stateMutability": "nonpayable",
      "type": "function"
    },
    {
      "inputs": [
        {
          "internalType": "string",
          "name": "_key",
          "type": "string"
        },
        {
          "internalType": "string",
          "name": "_value",
          "type": "string"
        }
      ],
      "name": "updateMetadata",
      "outputs": [],
      "stateMutability": "nonpayable",
      "type": "function"
    },
    {
      "inputs": [
        {
          "internalType": "string",
          "name": "_username",
          "type": "string"
        }
      ],
      "name": "updateProfile",
      "outputs": [],
      "stateMutability": "nonpayable",
      "type": "function"
    },
    {
      "inputs": [
        {
          "internalType": "address",
          "name": "_user",
          "type": "address"
        },
        {
          "internalType": "uint256",
          "name": "_depositAmount",
          "type": "uint256"
        },
        {
          "internalType": "uint256",
          "name": "_withdrawalAmount",
          "type": "uint256"
        },
        {
          "internalType": "bool",
          "name": "_battleJoined",
          "type": "bool"
        },
        {
          "internalType": "bool",
          "name": "_battleWon",
          "type": "bool"
        }
      ],
      "name": "updateUserStats",
      "outputs": [],
      "stateMutability": "nonpayable",
      "type": "function"
    },
    {
      "inputs": [
        {
          "internalType": "address",
          "name": "newImplementation",
          "type": "address"
        },
        {
          "internalType": "bytes",
          "name": "data",
          "type": "bytes"
        }
      ],
      "name": "upgradeToAndCall",
      "outputs": [],
      "stateMutability": "payable",
      "type": "function"
    },
    {
      "inputs": [
        {
          "internalType": "string",
          "name": "",
          "type": "string"
        }
      ],
      "name": "usernameToAddress",
      "outputs": [
        {
          "internalType": "address",
          "name": "",
          "type": "address"
        }
      ],
      "stateMutability": "view",
      "type": "function"
    },
    {
      "inputs": [
        {
          "internalType": "address",
          "name": "",
          "type": "address"
        }
      ],
      "name": "users",
      "outputs": [
        {
          "internalType": "string",
          "name": "username",
          "type": "string"
        },
        {
          "internalType": "uint256",
          "name": "registrationTime",
          "type": "uint256"
        },
        {
          "internalType": "uint256",
          "name": "totalDeposits",
          "type": "uint256"
        },
        {
          "internalType": "uint256",
          "name": "totalWithdrawals",
          "type": "uint256"
        },
        {
          "internalType": "uint256",
          "name": "battlesJoined",
          "type": "uint256"
        },
        {
          "internalType": "uint256",
          "name": "battlesWon",
          "type": "uint256"
        },
        {
          "internalType": "uint256",
          "name": "reputationScore",
          "type": "uint256"
        },
        {
          "internalType": "bool",
          "name": "isActive",
          "type": "bool"
        }
      ],
      "stateMutability": "view",
      "type": "function"
    }
  ],
  "bytecode": "0x60a06040523060805234801561001457600080fd5b5061001d610022565b6100d4565b7ff0c57e16840df040f15088dc2f81fe391c3923bec73e23a9662efc9c229c6a00805468010000000000000000900460ff16156100725760405163f92ee8a960e01b815260040160405180910390fd5b80546001600160401b03908116146100d15780546001600160401b0319166001600160401b0390811782556040519081527fc7f505b2f371ae2175ee4913f4499e1f2633a7b5936321eed1cdaeb6115181d29060200160405180910390a15b50565b60805161223f620000fe6000396000818161163d0152818161166601526117a7015261223f6000f3fe6080604052600436106101805760003560e01c8063a87430ba116100d1578063f2fde38b1161008a578063fc5cbf1d11610064578063fc5cbf1d146104a6578063ff0224d3146104ce578063ff8dba10146104ee578063ffc9896b1461050e57600080fd5b8063f2fde38b14610425578063f69c6dec14610445578063f825f1431461046557600080fd5b8063a87430ba1461032a578063ad3cb1cc1461035e578063b38d33f81461038f578063bff1f9e1146103af578063c3c5a547146103c5578063c4d66de81461040557600080fd5b806352d1902d1161013e578063704f1b9411610118578063704f1b941461028e578063715018a6146102ae57806374aa34de146102c35780638da5cb5b146102d957600080fd5b806352d1902d1461024457806356ce0e6c14610259578063589826261461027957600080fd5b80629299e314610185578063155b1d98146101a75780631a47767b146101cf5780631cd896c1146101ef57806341af7b53146102045780634f1ef28614610231575b600080fd5b34801561019157600080fd5b506101a56101a0366004611c75565b61052e565b005b3480156101b357600080fd5b506101bc600381565b6040519081526020015b60405180910390f35b3480156101db57600080fd5b506101a56101ea366004611cce565b610977565b3480156101fb57600080fd5b506101bc601481565b34801561021057600080fd5b5061022461021f366004611ce9565b610a9e565b6040516101c69190611d87565b6101a561023f366004611d9a565b610bae565b34801561025057600080fd5b506101bc610bcd565b34801561026557600080fd5b506101a5610274366004611df2565b610bea565b34801561028557600080fd5b506101bc606481565b34801561029a57600080fd5b506101a56102a9366004611c75565b610cb9565b3480156102ba57600080fd5b506101a561106d565b3480156102cf57600080fd5b506101bc60045481565b3480156102e557600080fd5b507f9016d09d72d40fdae2fd8ceac6b6234c7706214fd39c1cd1e609a0528c199300546001600160a01b03165b6040516001600160a01b0390911681526020016101c6565b34801561033657600080fd5b5061034a610345366004611cce565b611081565b6040516101c6989796959493929190611e4c565b34801561036a57600080fd5b50610224604051806040016040528060058152602001640352e302e360dc1b81525081565b34801561039b57600080fd5b506101a56103aa366004611cce565b61114e565b3480156103bb57600080fd5b506101bc60035481565b3480156103d157600080fd5b506103f56103e0366004611cce565b60026020526000908152604090205460ff1681565b60405190151581526020016101c6565b34801561041157600080fd5b506101a5610420366004611cce565b6111da565b34801561043157600080fd5b506101a5610440366004611cce565b6112e6565b34801561045157600080fd5b506103f5610460366004611c75565b611321565b34801561047157600080fd5b50610312610480366004611c75565b80516020818301810180516001825292820191909301209152546001600160a01b031681565b3480156104b257600080fd5b50600354600454604080519283526020830191909152016101c6565b3480156104da57600080fd5b50600554610312906001600160a01b031681565b3480156104fa57600080fd5b506101a5610509366004611ea9565b61135d565b34801561051a57600080fd5b5061034a610529366004611cce565b61142f565b610536611567565b3360009081526002602052604090205460ff1661056e5760405162461bcd60e51b815260040161056590611f00565b60405180910390fd5b3360009081526020819052604090206007015460ff166105cb5760405162461bcd60e51b8152602060048201526018602482015277155cd95c881858d8dbdd5b9d0819195858dd1a5d985d195960421b6044820152606401610565565b6003815110156106125760405162461bcd60e51b8152602060048201526012602482015271155cd95c9b985b59481d1bdbc81cda1bdc9d60721b6044820152606401610565565b6014815111156106585760405162461bcd60e51b8152602060048201526011602482015270557365726e616d6520746f6f206c6f6e6760781b6044820152606401610565565b60006001600160a01b03166001826040516106739190611f2d565b908152604051908190036020019020546001600160a01b031614806106c85750336001600160a01b03166001826040516106ad9190611f2d565b908152604051908190036020019020546001600160a01b0316145b61070d5760405162461bcd60e51b81526020600482015260166024820152752ab9b2b93730b6b29030b63932b0b23c903a30b5b2b760511b6044820152606401610565565b8060005b81518110156107ea57600082828151811061072e5761072e611f49565b01602001516001600160f81b0319169050600360fc1b81108015906107615750603960f81b6001600160f81b0319821611155b806107935750604160f81b6001600160f81b03198216108015906107935750602d60f91b6001600160f81b0319821611155b806107c55750606160f81b6001600160f81b03198216108015906107c55750603d60f91b6001600160f81b0319821611155b6107e15760405162461bcd60e51b815260040161056590611f5f565b50600101610711565b50336000908152602081905260408120805461080590611fa3565b80601f016020809104026020016040519081016040528092919081815260200182805461083190611fa3565b801561087e5780601f106108535761010080835404028352916020019161087e565b820191906000526020600020905b81548152906001019060200180831161086157829003601f168201915b50503360009081526020819052604090209394506108a29250869150839050612025565b506001816040516108b39190611f2d565b90815260405190819003602001812080546001600160a01b031916905533906001906108e0908690611f2d565b90815260405190819003602001812080546001600160a01b03939093166001600160a01b03199093169290921790915533907f429ad3a7ede99d93a72d6f0ba190681a2763d681f984e2f299af21ca35caebdb9061094190869042906120e5565b60405180910390a2505061097460017f9b779b17422d0df92223018b32b4d1fa46e071723d6817e2486d003becc55f0055565b50565b61097f6115d7565b6001600160a01b03811660009081526002602052604090205460ff166109b75760405162461bcd60e51b815260040161056590611f00565b6001600160a01b03811660009081526020819052604090206007015460ff16610a225760405162461bcd60e51b815260206004820152601860248201527f5573657220616c726561647920646561637469766174656400000000000000006044820152606401610565565b6001600160a01b0381166000908152602081905260408120600701805460ff191690556004805491610a538361211d565b9190505550806001600160a01b03167f0a3c4dd3ee5277d6eada470cf9b47a480953120ecafcbbdc14bde6f8a624893042604051610a9391815260200190565b60405180910390a250565b6001600160a01b03821660009081526002602052604090205460609060ff16610ad95760405162461bcd60e51b815260040161056590611f00565b600080846001600160a01b03166001600160a01b0316815260200190815260200160002060080182604051610b0e9190611f2d565b90815260200160405180910390208054610b2790611fa3565b80601f0160208091040260200160405190810160405280929190818152602001828054610b5390611fa3565b8015610ba05780601f10610b7557610100808354040283529160200191610ba0565b820191906000526020600020905b815481529060010190602001808311610b8357829003601f168201915b505050505090505b92915050565b610bb6611632565b610bbf826116d7565b610bc982826116df565b5050565b6000610bd761179c565b506000805160206121ea83398151915290565b3360009081526002602052604090205460ff16610c195760405162461bcd60e51b815260040161056590611f00565b3360009081526020819052604090206007015460ff16610c765760405162461bcd60e51b8152602060048201526018602482015277155cd95c881858d8dbdd5b9d0819195858dd1a5d985d195960421b6044820152606401610565565b33600090815260208190526040908190209051829160080190610c9a908590611f2d565b90815260200160405180910390209081610cb49190612025565b505050565b610cc1611567565b3360009081526002602052604090205460ff1615610d215760405162461bcd60e51b815260206004820152601760248201527f5573657220616c726561647920726567697374657265640000000000000000006044820152606401610565565b600381511015610d685760405162461bcd60e51b8152602060048201526012602482015271155cd95c9b985b59481d1bdbc81cda1bdc9d60721b6044820152606401610565565b601481511115610dae5760405162461bcd60e51b8152602060048201526011602482015270557365726e616d6520746f6f206c6f6e6760781b6044820152606401610565565b60006001600160a01b0316600182604051610dc99190611f2d565b908152604051908190036020019020546001600160a01b031614610e285760405162461bcd60e51b81526020600482015260166024820152752ab9b2b93730b6b29030b63932b0b23c903a30b5b2b760511b6044820152606401610565565b8060005b8151811015610f05576000828281518110610e4957610e49611f49565b01602001516001600160f81b0319169050600360fc1b8110801590610e7c5750603960f81b6001600160f81b0319821611155b80610eae5750604160f81b6001600160f81b0319821610801590610eae5750602d60f91b6001600160f81b0319821611155b80610ee05750606160f81b6001600160f81b0319821610801590610ee05750603d60f91b6001600160f81b0319821611155b610efc5760405162461bcd60e51b815260040161056590611f5f565b50600101610e2c565b5033600090815260208190526040902080610f208482612025565b50426001808301919091556064600683015560078201805460ff191682179055604051339190610f51908690611f2d565b908152604080516020928190038301902080546001600160a01b0319166001600160a01b0394909416939093179092553360009081526002909152908120805460ff191660011790556003805491610fa883612134565b909155505060048054906000610fbd83612134565b90915550506005546001600160a01b03161561103257600554604051630ea126f960e01b81526001600160a01b0390911690630ea126f990611005903390879060040161214d565b600060405180830381600087803b15801561101f57600080fd5b505af1925050508015611030575060015b505b336001600160a01b03167f89105a1c6a3c2fbd471255c66a31ccab604af5697f67d7e2e9a0028c5e4dbd9184426040516109419291906120e5565b6110756115d7565b61107f60006117e5565b565b60006020819052908152604090208054819061109c90611fa3565b80601f01602080910402602001604051908101604052809291908181526020018280546110c890611fa3565b80156111155780601f106110ea57610100808354040283529160200191611115565b820191906000526020600020905b8154815290600101906020018083116110f857829003601f168201915b50505050600183015460028401546003850154600486015460058701546006880154600790980154969794969395509193909260ff1688565b6111566115d7565b6001600160a01b0381166111b85760405162461bcd60e51b8152602060048201526024808201527f496e76616c6964206c6561646572626f61726420636f6e7472616374206164646044820152637265737360e01b6064820152608401610565565b600580546001600160a01b0319166001600160a01b0392909216919091179055565b60006111e4611856565b805490915060ff600160401b820416159067ffffffffffffffff1660008115801561120c5750825b905060008267ffffffffffffffff1660011480156112295750303b155b905081158015611237575080155b156112555760405163f92ee8a960e01b815260040160405180910390fd5b845467ffffffffffffffff19166001178555831561127f57845460ff60401b1916600160401b1785555b6112888661187f565b611290611890565b611298611898565b83156112de57845460ff60401b19168555604051600181527fc7f505b2f371ae2175ee4913f4499e1f2633a7b5936321eed1cdaeb6115181d29060200160405180910390a15b505050505050565b6112ee6115d7565b6001600160a01b03811661131857604051631e4fbdf760e01b815260006004820152602401610565565b610974816117e5565b6000806001600160a01b031660018360405161133d9190611f2d565b908152604051908190036020019020546001600160a01b03161492915050565b6113656115d7565b6001600160a01b03851660009081526002602052604090205460ff1661139d5760405162461bcd60e51b815260040161056590611f00565b6001600160a01b0385166000908152602081905260408120600281018054919287926113ca908490612171565b92505081905550838160030160008282546113e59190612171565b909155505082156114085760048101805490600061140283612134565b91905055505b81156114265760058101805490600061142083612134565b91905055505b6112de866118a8565b6001600160a01b0381166000908152600260205260408120546060919081908190819081908190819060ff166114775760405162461bcd60e51b815260040161056590611f00565b6001600160a01b038916600090815260208190526040902060018101546002820154600383015460048401546005850154600686015460078701548754889796959493929160ff169088906114cb90611fa3565b80601f01602080910402602001604051908101604052809291908181526020018280546114f790611fa3565b80156115445780601f1061151957610100808354040283529160200191611544565b820191906000526020600020905b81548152906001019060200180831161152757829003601f168201915b505050505097509850985098509850985098509850985050919395975091939597565b7f9b779b17422d0df92223018b32b4d1fa46e071723d6817e2486d003becc55f008054600119016115ab57604051633ee5aeb560e01b815260040160405180910390fd5b60029055565b60017f9b779b17422d0df92223018b32b4d1fa46e071723d6817e2486d003becc55f0055565b336116097f9016d09d72d40fdae2fd8ceac6b6234c7706214fd39c1cd1e609a0528c199300546001600160a01b031690565b6001600160a01b03161461107f5760405163118cdaa760e01b8152336004820152602401610565565b306001600160a01b037f00000000000000000000000000000000000000000000000000000000000000001614806116b957507f00000000000000000000000000000000000000000000000000000000000000006001600160a01b03166116ad6000805160206121ea833981519152546001600160a01b031690565b6001600160a01b031614155b1561107f5760405163703e46dd60e11b815260040160405180910390fd5b6109746115d7565b816001600160a01b03166352d1902d6040518163ffffffff1660e01b8152600401602060405180830381865afa925050508015611739575060408051601f3d908101601f1916820190925261173691810190612184565b60015b61176157604051634c9c8ce360e01b81526001600160a01b0383166004820152602401610565565b6000805160206121ea833981519152811461179257604051632a87526960e21b815260048101829052602401610565565b610cb483836119a3565b306001600160a01b037f0000000000000000000000000000000000000000000000000000000000000000161461107f5760405163703e46dd60e11b815260040160405180910390fd5b7f9016d09d72d40fdae2fd8ceac6b6234c7706214fd39c1cd1e609a0528c19930080546001600160a01b031981166001600160a01b03848116918217845560405192169182907f8be0079c531659141344cd1fd0a4f28419497f9722a3daafe3b4186f6b6457e090600090a3505050565b6000807ff0c57e16840df040f15088dc2f81fe391c3923bec73e23a9662efc9c229c6a00610ba8565b6118876119f9565b61097481611a1e565b61107f6119f9565b6118a06119f9565b61107f611a26565b6001600160a01b0381166000908152602081905260409020600681015460028201546064906118e09067016345785d8a00009061219d565b6118ea9082612171565b90508260040154600a6118fd91906121bf565b6119079082612171565b90508260050154603261191a91906121bf565b6119249082612171565b9050670de0b6b3a7640000836003015461193e919061219d565b61194890826121d6565b90506006830181905581811461199d5760408051838152602081018390526001600160a01b038616917f5b88a2e3fc1a53234357ab78c104df11c33ccfa79886793654565ad70b8afb6e910160405180910390a25b50505050565b6119ac82611a2e565b6040516001600160a01b038316907fbc7cd75a20ee27fd9adebab32041f755214dbc6bffa90cc0225b39da2e5c2d3b90600090a28051156119f157610cb48282611a93565b610bc9611b09565b611a01611b28565b61107f57604051631afcd79f60e31b815260040160405180910390fd5b6112ee6119f9565b6115b16119f9565b806001600160a01b03163b600003611a6457604051634c9c8ce360e01b81526001600160a01b0382166004820152602401610565565b6000805160206121ea83398151915280546001600160a01b0319166001600160a01b0392909216919091179055565b6060600080846001600160a01b031684604051611ab09190611f2d565b600060405180830381855af49150503d8060008114611aeb576040519150601f19603f3d011682016040523d82523d6000602084013e611af0565b606091505b5091509150611b00858383611b42565b95945050505050565b341561107f5760405163b398979f60e01b815260040160405180910390fd5b6000611b32611856565b54600160401b900460ff16919050565b606082611b5757611b5282611ba1565b611b9a565b8151158015611b6e57506001600160a01b0384163b155b15611b9757604051639996b31560e01b81526001600160a01b0385166004820152602401610565565b50805b9392505050565b805115611bb057805160208201fd5b60405163d6bda27560e01b815260040160405180910390fd5b634e487b7160e01b600052604160045260246000fd5b600067ffffffffffffffff80841115611bfa57611bfa611bc9565b604051601f8501601f19908116603f01168101908282118183101715611c2257611c22611bc9565b81604052809350858152868686011115611c3b57600080fd5b858560208301376000602087830101525050509392505050565b600082601f830112611c6657600080fd5b611b9a83833560208501611bdf565b600060208284031215611c8757600080fd5b813567ffffffffffffffff811115611c9e57600080fd5b611caa84828501611c55565b949350505050565b80356001600160a01b0381168114611cc957600080fd5b919050565b600060208284031215611ce057600080fd5b611b9a82611cb2565b60008060408385031215611cfc57600080fd5b611d0583611cb2565b9150602083013567ffffffffffffffff811115611d2157600080fd5b611d2d85828601611c55565b9150509250929050565b60005b83811015611d52578181015183820152602001611d3a565b50506000910152565b60008151808452611d73816020860160208601611d37565b601f01601f19169290920160200192915050565b602081526000611b9a6020830184611d5b565b60008060408385031215611dad57600080fd5b611db683611cb2565b9150602083013567ffffffffffffffff811115611dd257600080fd5b8301601f81018513611de357600080fd5b611d2d85823560208401611bdf565b60008060408385031215611e0557600080fd5b823567ffffffffffffffff80821115611e1d57600080fd5b611e2986838701611c55565b93506020850135915080821115611e3f57600080fd5b50611d2d85828601611c55565b6000610100808352611e608184018c611d5b565b602084019a909a52505060408101969096526060860194909452608085019290925260a084015260c0830152151560e090910152919050565b80358015158114611cc957600080fd5b600080600080600060a08688031215611ec157600080fd5b611eca86611cb2565b94506020860135935060408601359250611ee660608701611e99565b9150611ef460808701611e99565b90509295509295909350565b602080825260139082015272155cd95c881b9bdd081c9959da5cdd195c9959606a1b604082015260600190565b60008251611f3f818460208701611d37565b9190910192915050565b634e487b7160e01b600052603260045260246000fd5b60208082526024908201527f557365726e616d6520636f6e7461696e7320696e76616c6964206368617261636040820152637465727360e01b606082015260800190565b600181811c90821680611fb757607f821691505b602082108103611fd757634e487b7160e01b600052602260045260246000fd5b50919050565b601f821115610cb4576000816000526020600020601f850160051c810160208610156120065750805b601f850160051c820191505b818110156112de57828155600101612012565b815167ffffffffffffffff81111561203f5761203f611bc9565b6120538161204d8454611fa3565b84611fdd565b602080601f83116001811461208857600084156120705750858301515b600019600386901b1c1916600185901b1785556112de565b600085815260208120601f198616915b828110156120b757888601518255948401946001909101908401612098565b50858210156120d55787850151600019600388901b60f8161c191681555b5050505050600190811b01905550565b6040815260006120f86040830185611d5b565b90508260208301529392505050565b634e487b7160e01b600052601160045260246000fd5b60008161212c5761212c612107565b506000190190565b60006001820161214657612146612107565b5060010190565b6001600160a01b0383168152604060208201819052600090611caa90830184611d5b565b80820180821115610ba857610ba8612107565b60006020828403121561219657600080fd5b5051919050565b6000826121ba57634e487b7160e01b600052601260045260246000fd5b500490565b8082028115828204841417610ba857610ba8612107565b81810381811115610ba857610ba861210756fe360894a13ba1a3210667c828492db98dca3e2076cc3735a920a3ca505d382bbca264697066735822122014abdd6034bef4280094a05164f41a67ad3f4055dc677b7c6599c9454fdb7a6864736f6c63430008160033",
  "linkReferences": {},
  "deployedLinkReferences": {}
}