{
  "_format": "hh-sol-artifact-1",
  "contractName": "YieldVault",
  "sourceName": "contracts/YieldVault.sol",
  "abi": [
    {
      "inputs": [],
      "stateMutability": "nonpayable",
      "type": "constructor"
    },
    {
      "inputs": [
        {
          "internalType": "address",
          "name": "target",
          "type": "address"
        }
      ],
      "name": "AddressEmptyCode",
      "type": "error"
    },
    {
      "inputs": [
        {
          "internalType": "address",
          "name": "implementation",
          "type": "address"
        }
      ],
      "name": "ERC1967InvalidImplementation",
      "type": "error"
    },
    {
      "inputs": [],
      "name": "ERC1967NonPayable",
      "type": "error"
    },
    {
      "inputs": [],
      "name": "FailedCall",
      "type": "error"
    },
    {
      "inputs": [],
      "name": "InvalidInitialization",
      "type": "error"
    },
    {
      "inputs": [],
      "name": "NotInitializing",
      "type": "error"
    },
    {
      "inputs": [
        {
          "internalType": "address",
          "name": "owner",
          "type": "address"
        }
      ],
      "name": "OwnableInvalidOwner",
      "type": "error"
    },
    {
      "inputs": [
        {
          "internalType": "address",
          "name": "account",
          "type": "address"
        }
      ],
      "name": "OwnableUnauthorizedAccount",
      "type": "error"
    },
    {
      "inputs": [],
      "name": "ReentrancyGuardReentrantCall",
      "type": "error"
    },
    {
      "inputs": [
        {
          "internalType": "address",
          "name": "token",
          "type": "address"
        }
      ],
      "name": "SafeERC20FailedOperation",
      "type": "error"
    },
    {
      "inputs": [],
      "name": "UUPSUnauthorizedCallContext",
      "type": "error"
    },
    {
      "inputs": [
        {
          "internalType": "bytes32",
          "name": "slot",
          "type": "bytes32"
        }
      ],
      "name": "UUPSUnsupportedProxiableUUID",
      "type": "error"
    },
    {
      "anonymous": false,
      "inputs": [
        {
          "indexed": true,
          "internalType": "uint256",
          "name": "battleId",
          "type": "uint256"
        },
        {
          "indexed": false,
          "internalType": "string",
          "name": "name",
          "type": "string"
        },
        {
          "indexed": false,
          "internalType": "uint256",
          "name": "startTime",
          "type": "uint256"
        },
        {
          "indexed": false,
          "internalType": "uint256",
          "name": "endTime",
          "type": "uint256"
        },
        {
          "indexed": false,
          "internalType": "uint256",
          "name": "entryFee",
          "type": "uint256"
        }
      ],
      "name": "BattleCreated",
      "type": "event"
    },
    {
      "anonymous": false,
      "inputs": [
        {
          "indexed": true,
          "internalType": "uint256",
          "name": "battleId",
          "type": "uint256"
        },
        {
          "indexed": false,
          "internalType": "address",
          "name": "winner",
          "type": "address"
        },
        {
          "indexed": false,
          "internalType": "uint256",
          "name": "prizeAmount",
          "type": "uint256"
        },
        {
          "indexed": false,
          "internalType": "uint256",
          "name": "timestamp",
          "type": "uint256"
        }
      ],
      "name": "BattleEnded",
      "type": "event"
    },
    {
      "anonymous": false,
      "inputs": [
        {
          "indexed": true,
          "internalType": "address",
          "name": "user",
          "type": "address"
        },
        {
          "indexed": true,
          "internalType": "uint256",
          "name": "battleId",
          "type": "uint256"
        },
        {
          "indexed": false,
          "internalType": "uint256",
          "name": "amount",
          "type": "uint256"
        },
        {
          "indexed": false,
          "internalType": "uint256",
          "name": "timestamp",
          "type": "uint256"
        }
      ],
      "name": "BattleJoined",
      "type": "event"
    },
    {
      "anonymous": false,
      "inputs": [
        {
          "indexed": true,
          "internalType": "address",
          "name": "user",
          "type": "address"
        },
        {
          "indexed": false,
          "internalType": "uint256",
          "name": "amount",
          "type": "uint256"
        },
        {
          "indexed": false,
          "internalType": "uint256",
          "name": "battleId",
          "type": "uint256"
        },
        {
          "indexed": false,
          "internalType": "uint256",
          "name": "timestamp",
          "type": "uint256"
        }
      ],
      "name": "DepositMade",
      "type": "event"
    },
    {
      "anonymous": false,
      "inputs": [
        {
          "indexed": false,
          "internalType": "uint64",
          "name": "version",
          "type": "uint64"
        }
      ],
      "name": "Initialized",
      "type": "event"
    },
    {
      "anonymous": false,
      "inputs": [
        {
          "indexed": true,
          "internalType": "address",
          "name": "previousOwner",
          "type": "address"
        },
        {
          "indexed": true,
          "internalType": "address",
          "name": "newOwner",
          "type": "address"
        }
      ],
      "name": "OwnershipTransferred",
      "type": "event"
    },
    {
      "anonymous": false,
      "inputs": [
        {
          "indexed": true,
          "internalType": "uint256",
          "name": "battleId",
          "type": "uint256"
        },
        {
          "indexed": true,
          "internalType": "address",
          "name": "winner",
          "type": "address"
        },
        {
          "indexed": false,
          "internalType": "uint256",
          "name": "amount",
          "type": "uint256"
        },
        {
          "indexed": false,
          "internalType": "uint256",
          "name": "timestamp",
          "type": "uint256"
        }
      ],
      "name": "PrizeDistributed",
      "type": "event"
    },
    {
      "anonymous": false,
      "inputs": [
        {
          "indexed": true,
          "internalType": "address",
          "name": "implementation",
          "type": "address"
        }
      ],
      "name": "Upgraded",
      "type": "event"
    },
    {
      "anonymous": false,
      "inputs": [
        {
          "indexed": true,
          "internalType": "address",
          "name": "user",
          "type": "address"
        },
        {
          "indexed": false,
          "internalType": "uint256",
          "name": "amount",
          "type": "uint256"
        },
        {
          "indexed": false,
          "internalType": "uint256",
          "name": "timestamp",
          "type": "uint256"
        }
      ],
      "name": "WithdrawalMade",
      "type": "event"
    },
    {
      "anonymous": false,
      "inputs": [
        {
          "indexed": true,
          "internalType": "address",
          "name": "user",
          "type": "address"
        },
        {
          "indexed": false,
          "internalType": "uint256",
          "name": "amount",
          "type": "uint256"
        },
        {
          "indexed": false,
          "internalType": "uint256",
          "name": "timestamp",
          "type": "uint256"
        }
      ],
      "name": "YieldClaimed",
      "type": "event"
    },
    {
      "inputs": [],
      "name": "BATTLE_DURATION",
      "outputs": [
        {
          "internalType": "uint256",
          "name": "",
          "type": "uint256"
        }
      ],
      "stateMutability": "view",
      "type": "function"
    },
    {
      "inputs": [],
      "name": "DEFAULT_MAX_PARTICIPANTS",
      "outputs": [
        {
          "internalType": "uint256",
          "name": "",
          "type": "uint256"
        }
      ],
      "stateMutability": "view",
      "type": "function"
    },
    {
      "inputs": [],
      "name": "MAX_DEPOSIT",
      "outputs": [
        {
          "internalType": "uint256",
          "name": "",
          "type": "uint256"
        }
      ],
      "stateMutability": "view",
      "type": "function"
    },
    {
      "inputs": [],
      "name": "MAX_ENTRY_FEE",
      "outputs": [
        {
          "internalType": "uint256",
          "name": "",
          "type": "uint256"
        }
      ],
      "stateMutability": "view",
      "type": "function"
    },
    {
      "inputs": [],
      "name": "MIN_DEPOSIT",
      "outputs": [
        {
          "internalType": "uint256",
          "name": "",
          "type": "uint256"
        }
      ],
      "stateMutability": "view",
      "type": "function"
    },
    {
      "inputs": [],
      "name": "MIN_ENTRY_FEE",
      "outputs": [
        {
          "internalType": "uint256",
          "name": "",
          "type": "uint256"
        }
      ],
      "stateMutability": "view",
      "type": "function"
    },
    {
      "inputs": [],
      "name": "UPGRADE_INTERFACE_VERSION",
      "outputs": [
        {
          "internalType": "string",
          "name": "",
          "type": "string"
        }
      ],
      "stateMutability": "view",
      "type": "function"
    },
    {
      "inputs": [],
      "name": "YIELD_RATE",
      "outputs": [
        {
          "internalType": "uint256",
          "name": "",
          "type": "uint256"
        }
      ],
      "stateMutability": "view",
      "type": "function"
    },
    {
      "inputs": [
        {
          "internalType": "uint256",
          "name": "",
          "type": "uint256"
        }
      ],
      "name": "battles",
      "outputs": [
        {
          "internalType": "uint256",
          "name": "battleId",
          "type": "uint256"
        },
        {
          "internalType": "string",
          "name": "name",
          "type": "string"
        },
        {
          "internalType": "uint256",
          "name": "startTime",
          "type": "uint256"
        },
        {
          "internalType": "uint256",
          "name": "endTime",
          "type": "uint256"
        },
        {
          "internalType": "uint256",
          "name": "totalPrizePool",
          "type": "uint256"
        },
        {
          "internalType": "uint256",
          "name": "entryFee",
          "type": "uint256"
        },
        {
          "internalType": "uint256",
          "name": "maxParticipants",
          "type": "uint256"
        },
        {
          "internalType": "uint256",
          "name": "currentParticipants",
          "type": "uint256"
        },
        {
          "internalType": "bool",
          "name": "isActive",
          "type": "bool"
        }
      ],
      "stateMutability": "view",
      "type": "function"
    },
    {
      "inputs": [
        {
          "internalType": "address",
          "name": "_user",
          "type": "address"
        }
      ],
      "name": "calculateYield",
      "outputs": [
        {
          "internalType": "uint256",
          "name": "",
          "type": "uint256"
        }
      ],
      "stateMutability": "view",
      "type": "function"
    },
    {
      "inputs": [],
      "name": "claimYield",
      "outputs": [],
      "stateMutability": "nonpayable",
      "type": "function"
    },
    {
      "inputs": [
        {
          "internalType": "string",
          "name": "_name",
          "type": "string"
        },
        {
          "internalType": "uint256",
          "name": "_entryFee",
          "type": "uint256"
        },
        {
          "internalType": "uint256",
          "name": "_maxParticipants",
          "type": "uint256"
        },
        {
          "internalType": "uint256",
          "name": "_duration",
          "type": "uint256"
        }
      ],
      "name": "createBattle",
      "outputs": [],
      "stateMutability": "nonpayable",
      "type": "function"
    },
    {
      "inputs": [
        {
          "internalType": "uint256",
          "name": "_amount",
          "type": "uint256"
        }
      ],
      "name": "deposit",
      "outputs": [],
      "stateMutability": "nonpayable",
      "type": "function"
    },
    {
      "inputs": [
        {
          "internalType": "uint256",
          "name": "_amount",
          "type": "uint256"
        }
      ],
      "name": "emergencyWithdraw",
      "outputs": [],
      "stateMutability": "nonpayable",
      "type": "function"
    },
    {
      "inputs": [
        {
          "internalType": "uint256",
          "name": "_battleId",
          "type": "uint256"
        }
      ],
      "name": "endBattle",
      "outputs": [],
      "stateMutability": "nonpayable",
      "type": "function"
    },
    {
      "inputs": [
        {
          "internalType": "uint256",
          "name": "_battleId",
          "type": "uint256"
        }
      ],
      "name": "getBattleDetails",
      "outputs": [
        {
          "internalType": "string",
          "name": "name",
          "type": "string"
        },
        {
          "internalType": "uint256",
          "name": "startTime",
          "type": "uint256"
        },
        {
          "internalType": "uint256",
          "name": "endTime",
          "type": "uint256"
        },
        {
          "internalType": "uint256",
          "name": "totalPrizePool",
          "type": "uint256"
        },
        {
          "internalType": "uint256",
          "name": "entryFee",
          "type": "uint256"
        },
        {
          "internalType": "uint256",
          "name": "maxParticipants",
          "type": "uint256"
        },
        {
          "internalType": "uint256",
          "name": "currentParticipants",
          "type": "uint256"
        },
        {
          "internalType": "bool",
          "name": "isActive",
          "type": "bool"
        }
      ],
      "stateMutability": "view",
      "type": "function"
    },
    {
      "inputs": [
        {
          "internalType": "uint256",
          "name": "_battleId",
          "type": "uint256"
        }
      ],
      "name": "getBattleWinners",
      "outputs": [
        {
          "internalType": "address[]",
          "name": "winners",
          "type": "address[]"
        },
        {
          "internalType": "uint256[]",
          "name": "yields",
          "type": "uint256[]"
        },
        {
          "internalType": "uint256[]",
          "name": "ranks",
          "type": "uint256[]"
        }
      ],
      "stateMutability": "view",
      "type": "function"
    },
    {
      "inputs": [
        {
          "internalType": "address",
          "name": "_user",
          "type": "address"
        },
        {
          "internalType": "uint256",
          "name": "_battleId",
          "type": "uint256"
        }
      ],
      "name": "getUserBattleDeposit",
      "outputs": [
        {
          "internalType": "uint256",
          "name": "",
          "type": "uint256"
        }
      ],
      "stateMutability": "view",
      "type": "function"
    },
    {
      "inputs": [
        {
          "internalType": "address",
          "name": "_user",
          "type": "address"
        }
      ],
      "name": "getUserPosition",
      "outputs": [
        {
          "internalType": "uint256",
          "name": "amount",
          "type": "uint256"
        },
        {
          "internalType": "uint256",
          "name": "depositTime",
          "type": "uint256"
        },
        {
          "internalType": "uint256",
          "name": "lastClaimTime",
          "type": "uint256"
        },
        {
          "internalType": "uint256",
          "name": "battleId",
          "type": "uint256"
        },
        {
          "internalType": "bool",
          "name": "isActive",
          "type": "bool"
        }
      ],
      "stateMutability": "view",
      "type": "function"
    },
    {
      "inputs": [],
      "name": "getVaultStats",
      "outputs": [
        {
          "internalType": "uint256",
          "name": "_totalVaultValue",
          "type": "uint256"
        },
        {
          "internalType": "uint256",
          "name": "_totalYieldDistributed",
          "type": "uint256"
        },
        {
          "internalType": "uint256",
          "name": "_nextBattleId",
          "type": "uint256"
        }
      ],
      "stateMutability": "view",
      "type": "function"
    },
    {
      "inputs": [
        {
          "internalType": "address",
          "name": "_owner",
          "type": "address"
        },
        {
          "internalType": "address",
          "name": "_token",
          "type": "address"
        },
        {
          "internalType": "address",
          "name": "_userProfileContract",
          "type": "address"
        }
      ],
      "name": "initialize",
      "outputs": [],
      "stateMutability": "nonpayable",
      "type": "function"
    },
    {
      "inputs": [
        {
          "internalType": "address",
          "name": "_user",
          "type": "address"
        },
        {
          "internalType": "uint256",
          "name": "_battleId",
          "type": "uint256"
        }
      ],
      "name": "isUserInBattle",
      "outputs": [
        {
          "internalType": "bool",
          "name": "",
          "type": "bool"
        }
      ],
      "stateMutability": "view",
      "type": "function"
    },
    {
      "inputs": [
        {
          "internalType": "uint256",
          "name": "_battleId",
          "type": "uint256"
        },
        {
          "internalType": "uint256",
          "name": "_amount",
          "type": "uint256"
        }
      ],
      "name": "joinBattle",
      "outputs": [],
      "stateMutability": "nonpayable",
      "type": "function"
    },
    {
      "inputs": [],
      "name": "nextBattleId",
      "outputs": [
        {
          "internalType": "uint256",
          "name": "",
          "type": "uint256"
        }
      ],
      "stateMutability": "view",
      "type": "function"
    },
    {
      "inputs": [],
      "name": "owner",
      "outputs": [
        {
          "internalType": "address",
          "name": "",
          "type": "address"
        }
      ],
      "stateMutability": "view",
      "type": "function"
    },
    {
      "inputs": [],
      "name": "proxiableUUID",
      "outputs": [
        {
          "internalType": "bytes32",
          "name": "",
          "type": "bytes32"
        }
      ],
      "stateMutability": "view",
      "type": "function"
    },
    {
      "inputs": [],
      "name": "renounceOwnership",
      "outputs": [],
      "stateMutability": "nonpayable",
      "type": "function"
    },
    {
      "inputs": [],
      "name": "token",
      "outputs": [
        {
          "internalType": "contract IERC20",
          "name": "",
          "type": "address"
        }
      ],
      "stateMutability": "view",
      "type": "function"
    },
    {
      "inputs": [],
      "name": "totalVaultValue",
      "outputs": [
        {
          "internalType": "uint256",
          "name": "",
          "type": "uint256"
        }
      ],
      "stateMutability": "view",
      "type": "function"
    },
    {
      "inputs": [],
      "name": "totalYieldDistributed",
      "outputs": [
        {
          "internalType": "uint256",
          "name": "",
          "type": "uint256"
        }
      ],
      "stateMutability": "view",
      "type": "function"
    },
    {
      "inputs": [
        {
          "internalType": "address",
          "name": "newOwner",
          "type": "address"
        }
      ],
      "name": "transferOwnership",
      "outputs": [],
      "stateMutability": "nonpayable",
      "type": "function"
    },
    {
      "inputs": [
        {
          "internalType": "address",
          "name": "newImplementation",
          "type": "address"
        },
        {
          "internalType": "bytes",
          "name": "data",
          "type": "bytes"
        }
      ],
      "name": "upgradeToAndCall",
      "outputs": [],
      "stateMutability": "payable",
      "type": "function"
    },
    {
      "inputs": [
        {
          "internalType": "address",
          "name": "",
          "type": "address"
        }
      ],
      "name": "userPositions",
      "outputs": [
        {
          "internalType": "uint256",
          "name": "amount",
          "type": "uint256"
        },
        {
          "internalType": "uint256",
          "name": "depositTime",
          "type": "uint256"
        },
        {
          "internalType": "uint256",
          "name": "lastClaimTime",
          "type": "uint256"
        },
        {
          "internalType": "uint256",
          "name": "battleId",
          "type": "uint256"
        },
        {
          "internalType": "bool",
          "name": "isActive",
          "type": "bool"
        }
      ],
      "stateMutability": "view",
      "type": "function"
    },
    {
      "inputs": [],
      "name": "userProfileContract",
      "outputs": [
        {
          "internalType": "address",
          "name": "",
          "type": "address"
        }
      ],
      "stateMutability": "view",
      "type": "function"
    },
    {
      "inputs": [
        {
          "internalType": "address",
          "name": "",
          "type": "address"
        }
      ],
      "name": "userTotalDeposits",
      "outputs": [
        {
          "internalType": "uint256",
          "name": "",
          "type": "uint256"
        }
      ],
      "stateMutability": "view",
      "type": "function"
    },
    {
      "inputs": [
        {
          "internalType": "address",
          "name": "",
          "type": "address"
        }
      ],
      "name": "userTotalWithdrawals",
      "outputs": [
        {
          "internalType": "uint256",
          "name": "",
          "type": "uint256"
        }
      ],
      "stateMutability": "view",
      "type": "function"
    },
    {
      "inputs": [
        {
          "internalType": "address",
          "name": "",
          "type": "address"
        }
      ],
      "name": "userTotalYield",
      "outputs": [
        {
          "internalType": "uint256",
          "name": "",
          "type": "uint256"
        }
      ],
      "stateMutability": "view",
      "type": "function"
    },
    {
      "inputs": [
        {
          "internalType": "uint256",
          "name": "_amount",
          "type": "uint256"
        }
      ],
      "name": "withdraw",
      "outputs": [],
      "stateMutability": "nonpayable",
      "type": "function"
    },
    {
      "inputs": [],
      "name": "withdrawAll",
      "outputs": [],
      "stateMutability": "nonpayable",
      "type": "function"
    }
  ],
  "bytecode": "0x60a0604052306080523480156200001557600080fd5b506200002062000026565b620000da565b7ff0c57e16840df040f15088dc2f81fe391c3923bec73e23a9662efc9c229c6a00805468010000000000000000900460ff1615620000775760405163f92ee8a960e01b815260040160405180910390fd5b80546001600160401b0390811614620000d75780546001600160401b0319166001600160401b0390811782556040519081527fc7f505b2f371ae2175ee4913f4499e1f2633a7b5936321eed1cdaeb6115181d29060200160405180910390a15b50565b60805161293e6200010460003960008181611d0801528181611d310152611e72015261293e6000f3fe6080604052600436106102305760003560e01c80639295953f1161012e578063ce4a989e116100ab578063f0e26f801161006f578063f0e26f8014610762578063f2fde38b14610796578063f3a97469146107b6578063f50ab0de146107cb578063fc0c546a146107e757600080fd5b8063ce4a989e146106c8578063dd5967c3146106f5578063e1e158a514610712578063e44dba4f1461072d578063e852090a1461074d57600080fd5b8063afbc74b9116100f2578063afbc74b914610602578063b236eb8d14610618578063b6b55f251461062f578063b6df5ba71461064f578063c0c53b8b146106a857600080fd5b80639295953f1461053057806397206bd51461055d578063a120995f14610573578063a59aa5a614610593578063ad3cb1cc146105c457600080fd5b8063567add64116101bc578063715018a611610180578063715018a6146104b657806381883759146104cb578063853828b6146104e65780638da5cb5b146104fb57806391edcc2f1461051057600080fd5b8063567add641461036257806358affa4b146103825780635b7c2dad146103b1578063606d2e9614610434578063613cf4201461046957600080fd5b8063406cf22911610203578063406cf229146102e55780634157e6ef146102fa5780634f1ef2861461031a57806352d1902d1461032d5780635312ea8e1461034257600080fd5b806311cdf856146102355780631c5f3099146102755780632e1a7d4d146102ad57806331a6ff66146102cf575b600080fd5b34801561024157600080fd5b5061026261025036600461225c565b60046020526000908152604090205481565b6040519081526020015b60405180910390f35b34801561028157600080fd5b50600654610295906001600160a01b031681565b6040516001600160a01b03909116815260200161026c565b3480156102b957600080fd5b506102cd6102c8366004612277565b610807565b005b3480156102db57600080fd5b5061026260075481565b3480156102f157600080fd5b506102cd610a5c565b34801561030657600080fd5b506102cd610315366004612277565b610ad8565b6102cd61032836600461231c565b610c64565b34801561033957600080fd5b50610262610c83565b34801561034e57600080fd5b506102cd61035d366004612277565b610ca0565b34801561036e57600080fd5b5061026261037d36600461225c565b610d81565b34801561038e57600080fd5b506103a261039d366004612277565b610e04565b60405161026c939291906123ba565b3480156103bd57600080fd5b5061040a6103cc36600461225c565b6001600160a01b031660009081526020819052604090208054600182015460028301546003840154600490940154929491939092909160ff90911690565b6040805195865260208601949094529284019190915260608301521515608082015260a00161026c565b34801561044057600080fd5b5061045461044f366004612277565b610e8f565b60405161026c99989796959493929190612480565b34801561047557600080fd5b5061040a61048436600461225c565b600060208190529081526040902080546001820154600283015460038401546004909401549293919290919060ff1685565b3480156104c257600080fd5b506102cd610f62565b3480156104d757600080fd5b5061026266038d7ea4c6800081565b3480156104f257600080fd5b506102cd610f74565b34801561050757600080fd5b50610295611150565b34801561051c57600080fd5b5061026261052b3660046124d5565b61117e565b34801561053c57600080fd5b5061026261054b36600461225c565b60026020526000908152604090205481565b34801561056957600080fd5b5061026260095481565b34801561057f57600080fd5b506102cd61058e3660046124ff565b6111ab565b34801561059f57600080fd5b506008546009546007546040805193845260208401929092529082015260600161026c565b3480156105d057600080fd5b506105f5604051806040016040528060058152602001640352e302e360dc1b81525081565b60405161026c9190612567565b34801561060e57600080fd5b5061026260085481565b34801561062457600080fd5b506102626201518081565b34801561063b57600080fd5b506102cd61064a366004612277565b611382565b34801561065b57600080fd5b5061069861066a3660046124d5565b60009081526001602090815260408083206001600160a01b0394909416835260099093019052205460ff1690565b604051901515815260200161026c565b3480156106b457600080fd5b506102cd6106c336600461257a565b6114ee565b3480156106d457600080fd5b506102626106e336600461225c565b60036020526000908152604090205481565b34801561070157600080fd5b5061026268056bc75e2d6310000081565b34801561071e57600080fd5b50610262662386f26fc1000081565b34801561073957600080fd5b506102cd6107483660046125bd565b611631565b34801561075957600080fd5b50610262600581565b34801561076e57600080fd5b5061078261077d366004612277565b6119e1565b60405161026c9897969594939291906125df565b3480156107a257600080fd5b506102cd6107b136600461225c565b611ae0565b3480156107c257600080fd5b50610262606481565b3480156107d757600080fd5b50610262670de0b6b3a764000081565b3480156107f357600080fd5b50600554610295906001600160a01b031681565b61080f611b1b565b336000908152602081905260409020600481015460ff1661086c5760405162461bcd60e51b815260206004820152601260248201527127379030b1ba34bb32903837b9b4ba34b7b760711b60448201526064015b60405180910390fd5b80548211156108b45760405162461bcd60e51b8152602060048201526014602482015273496e73756666696369656e742062616c616e636560601b6044820152606401610863565b600082116109045760405162461bcd60e51b815260206004820152601d60248201527f416d6f756e74206d7573742062652067726561746572207468616e20300000006044820152606401610863565b6000816003015411801561092e5750600381015460009081526001602052604090206008015460ff165b15610967576003808201546000908152600160205260409020015442116109675760405162461bcd60e51b81526004016108639061262c565b600061097233610d81565b905080156109835761098333611b53565b828260000160008282546109979190612686565b909155505081546000036109b25760048201805460ff191690555b33600090815260036020526040812080548592906109d1908490612699565b9250508190555082600860008282546109ea9190612686565b9091555050600554610a06906001600160a01b03163385611c58565b6040805184815242602082015233917f2d4d49c3e017b8235c908cbaa83a2431a08f3b950712696ece2088964fd399f0910160405180910390a25050610a5960016000805160206128e983398151915255565b50565b610a64611b1b565b6000610a6f33610d81565b905060008111610ab55760405162461bcd60e51b81526020600482015260116024820152704e6f207969656c6420746f20636c61696d60781b6044820152606401610863565b610abe33611b53565b50610ad660016000805160206128e983398151915255565b565b610ae0611ccb565b6000818152600160205260409020600881015460ff16610b365760405162461bcd60e51b8152602060048201526011602482015270426174746c65206e6f742061637469766560781b6044820152606401610863565b8060030154421015610b815760405162461bcd60e51b815260206004820152601460248201527310985d1d1b19481b9bdd08195b991959081e595d60621b6044820152606401610863565b60088101805460ff1916905560078101546005820154600091610ba3916126ac565b9050600081118015610bb9575060008260070154115b15610c5f57600782015460009015610c12576040805160208082018790524282840152446060808401919091528351808403909101815260809092019092528051910120610c0e6001600160a01b03826126d9565b9150505b604080516001600160a01b0383168152602081018490524281830152905185917f1da0b29fc20261565bcf107c004d4c7d78e307478c4570fccede3bac53a23829919081900360600190a2505b505050565b610c6c611cfd565b610c7582611da2565b610c7f8282611daa565b5050565b6000610c8d611e67565b506000805160206128c983398151915290565b610ca8611ccb565b6005546040516370a0823160e01b81523060048201526001600160a01b03909116906370a0823190602401602060405180830381865afa158015610cf0573d6000803e3d6000fd5b505050506040513d601f19601f82011682018060405250810190610d1491906126ed565b811115610d635760405162461bcd60e51b815260206004820152601d60248201527f496e73756666696369656e7420636f6e74726163742062616c616e63650000006044820152606401610863565b610a59610d6e611150565b6005546001600160a01b03169083611c58565b6001600160a01b0381166000908152602081905260408120600481015460ff161580610dac57508054155b15610dba5750600092915050565b6000816002015442610dcc9190612686565b9050600063bbf81e008260058560000154610de791906126ac565b610df191906126ac565b610dfb9190612706565b95945050505050565b60008181526001602052604090206008810154606091829182919060ff1615610e655760405162461bcd60e51b8152602060048201526013602482015272426174746c65207374696c6c2061637469766560681b6044820152606401610863565b50506040805160008082526020820181815282840191825260608301909352909591945092509050565b600160208190526000918252604090912080549181018054610eb09061271a565b80601f0160208091040260200160405190810160405280929190818152602001828054610edc9061271a565b8015610f295780601f10610efe57610100808354040283529160200191610f29565b820191906000526020600020905b815481529060010190602001808311610f0c57829003601f168201915b50505050600283015460038401546004850154600586015460068701546007880154600890980154969794969395509193909260ff1689565b610f6a611ccb565b610ad66000611eb0565b610f7c611b1b565b336000908152602081905260409020600481015460ff16610fd45760405162461bcd60e51b815260206004820152601260248201527127379030b1ba34bb32903837b9b4ba34b7b760711b6044820152606401610863565b80546110195760405162461bcd60e51b81526020600482015260146024820152734e6f2066756e647320746f20776974686472617760601b6044820152606401610863565b600081600301541180156110435750600381015460009081526001602052604090206008015460ff165b1561107c5760038082015460009081526001602052604090200154421161107c5760405162461bcd60e51b81526004016108639061262c565b8054600061108933610d81565b9050801561109a5761109a33611b53565b600080845560048401805460ff1916905533815260036020526040812080548492906110c7908490612699565b9250508190555081600860008282546110e09190612686565b90915550506005546110fc906001600160a01b03163384611c58565b6040805183815242602082015233917f2d4d49c3e017b8235c908cbaa83a2431a08f3b950712696ece2088964fd399f0910160405180910390a2505050610ad660016000805160206128e983398151915255565b7f9016d09d72d40fdae2fd8ceac6b6234c7706214fd39c1cd1e609a0528c199300546001600160a01b031690565b60008181526001602090815260408083206001600160a01b0386168452600a019091529020545b92915050565b6111b3611ccb565b66038d7ea4c6800083101580156111d25750670de0b6b3a76400008311155b6112125760405162461bcd60e51b8152602060048201526011602482015270496e76616c696420656e7472792066656560781b6044820152606401610863565b600082118015611223575060648211155b61126f5760405162461bcd60e51b815260206004820152601860248201527f496e76616c6964206d6178207061727469636970616e747300000000000000006044820152606401610863565b600081118015611282575062278d008111155b6112c15760405162461bcd60e51b815260206004820152601060248201526f24b73b30b634b210323ab930ba34b7b760811b6044820152606401610863565b60078054600091826112d283612754565b90915550600081815260016020819052604090912082815591925081016112f987826127bd565b50426002820181905561130d908490612699565b6003820181905560058201869055600682018590556000600783015560088201805460ff19166001179055600282015460405184927ffbfcd47c70d767bcbd7dc3f1a5ec3ec2719bfde46662781bfb903d02279e4ee792611372928b92908b9061287d565b60405180910390a2505050505050565b61138a611b1b565b662386f26fc1000081101580156113aa575068056bc75e2d631000008111155b6113ef5760405162461bcd60e51b8152602060048201526016602482015275125b9d985b1a590819195c1bdcda5d08185b5bdd5b9d60521b6044820152606401610863565b600554611407906001600160a01b0316333084611f21565b33600090815260208190526040812080549091839183919061142a908490612699565b909155505042600180830182905560028084019290925560048301805460ff19169091179055336000908152602091909152604081208054849290611470908490612699565b9250508190555081600860008282546114899190612699565b909155506114949050565b60408051838152600060208201524281830152905133917fcb3ef4109dcd006671348924f00aac8398190a5ff283d6e470d74581513e1036919081900360600190a250610a5960016000805160206128e983398151915255565b60006114f8611f60565b805490915060ff600160401b820416159067ffffffffffffffff166000811580156115205750825b905060008267ffffffffffffffff16600114801561153d5750303b155b90508115801561154b575080155b156115695760405163f92ee8a960e01b815260040160405180910390fd5b845467ffffffffffffffff19166001178555831561159357845460ff60401b1916600160401b1785555b61159c88611f89565b6115a4611f9a565b6115ac611fa2565b600580546001600160a01b03808a166001600160a01b03199283161790925560068054928916929091169190911790556001600755831561162757845460ff60401b19168555604051600181527fc7f505b2f371ae2175ee4913f4499e1f2633a7b5936321eed1cdaeb6115181d29060200160405180910390a15b5050505050505050565b611639611b1b565b662386f26fc100008110158015611659575068056bc75e2d631000008111155b61169e5760405162461bcd60e51b8152602060048201526016602482015275125b9d985b1a590819195c1bdcda5d08185b5bdd5b9d60521b6044820152606401610863565b60008281526001602052604090206008015460ff166116f35760405162461bcd60e51b8152602060048201526011602482015270426174746c65206e6f742061637469766560781b6044820152606401610863565b6000828152600160205260409020600201544210156117495760405162461bcd60e51b815260206004820152601260248201527110985d1d1b19481b9bdd081cdd185c9d195960721b6044820152606401610863565b6000828152600160205260409020600301544211156117995760405162461bcd60e51b815260206004820152600c60248201526b10985d1d1b1948195b99195960a21b6044820152606401610863565b600082815260016020908152604080832033845260090190915290205460ff16156117fe5760405162461bcd60e51b8152602060048201526015602482015274416c7265616479206a6f696e656420626174746c6560581b6044820152606401610863565b60008281526001602052604090206006810154600790910154106118525760405162461bcd60e51b815260206004820152600b60248201526a10985d1d1b1948199d5b1b60aa1b6044820152606401610863565b60055461186a906001600160a01b0316333084611f21565b6000828152600160208181526040808420338552600981018352818520805460ff191685179055600a810183529084208590558584529190526007018054916118b283612754565b90915550503360009081526020819052604081208054909183918391906118da908490612699565b90915550504260018083018290556002808401929092556003830185905560048301805460ff19169091179055336000908152602091909152604081208054849290611927908490612699565b9250508190555081600860008282546119409190612699565b9091555061194b9050565b60408051838152426020820152849133917f9e2bfc3694a1b3e37bca59243cf8738331d6c35f332aa360b2890d43998470d4910160405180910390a360408051838152602081018590524281830152905133917fcb3ef4109dcd006671348924f00aac8398190a5ff283d6e470d74581513e1036919081900360600190a250610c7f60016000805160206128e983398151915255565b6060600080600080600080600080600160008b81526020019081526020016000209050806001018160020154826003015483600401548460050154856006015486600701548760080160009054906101000a900460ff16878054611a449061271a565b80601f0160208091040260200160405190810160405280929190818152602001828054611a709061271a565b8015611abd5780601f10611a9257610100808354040283529160200191611abd565b820191906000526020600020905b815481529060010190602001808311611aa057829003601f168201915b505050505097509850985098509850985098509850985050919395975091939597565b611ae8611ccb565b6001600160a01b038116611b1257604051631e4fbdf760e01b815260006004820152602401610863565b610a5981611eb0565b6000805160206128e9833981519152805460011901611b4d57604051633ee5aeb560e01b815260040160405180910390fd5b60029055565b6000611b5e82610d81565b905060008111611ba45760405162461bcd60e51b81526020600482015260116024820152704e6f207969656c6420746f20636c61696d60781b6044820152606401610863565b6001600160a01b03821660009081526020818152604080832042600282015560049092528220805491928492611bdb908490612699565b925050819055508160096000828254611bf49190612699565b9091555050600554611c10906001600160a01b03168484611c58565b604080518381524260208201526001600160a01b038516917f10d8dedfc0745b8c25ba10b06e304138b251c18dcaadf2d71c7f3214719dc4d1910160405180910390a2505050565b6040516001600160a01b03838116602483015260448201839052610c5f91859182169063a9059cbb906064015b604051602081830303815290604052915060e01b6020820180516001600160e01b038381831617835250505050611fb2565b60016000805160206128e983398151915255565b33611cd4611150565b6001600160a01b031614610ad65760405163118cdaa760e01b8152336004820152602401610863565b306001600160a01b037f0000000000000000000000000000000000000000000000000000000000000000161480611d8457507f00000000000000000000000000000000000000000000000000000000000000006001600160a01b0316611d786000805160206128c9833981519152546001600160a01b031690565b6001600160a01b031614155b15610ad65760405163703e46dd60e11b815260040160405180910390fd5b610a59611ccb565b816001600160a01b03166352d1902d6040518163ffffffff1660e01b8152600401602060405180830381865afa925050508015611e04575060408051601f3d908101601f19168201909252611e01918101906126ed565b60015b611e2c57604051634c9c8ce360e01b81526001600160a01b0383166004820152602401610863565b6000805160206128c98339815191528114611e5d57604051632a87526960e21b815260048101829052602401610863565b610c5f8383612023565b306001600160a01b037f00000000000000000000000000000000000000000000000000000000000000001614610ad65760405163703e46dd60e11b815260040160405180910390fd5b7f9016d09d72d40fdae2fd8ceac6b6234c7706214fd39c1cd1e609a0528c19930080546001600160a01b031981166001600160a01b03848116918217845560405192169182907f8be0079c531659141344cd1fd0a4f28419497f9722a3daafe3b4186f6b6457e090600090a3505050565b6040516001600160a01b038481166024830152838116604483015260648201839052611f5a9186918216906323b872dd90608401611c85565b50505050565b6000807ff0c57e16840df040f15088dc2f81fe391c3923bec73e23a9662efc9c229c6a006111a5565b611f91612079565b610a598161209e565b610ad6612079565b611faa612079565b610ad66120a6565b600080602060008451602086016000885af180611fd5576040513d6000823e3d81fd5b50506000513d91508115611fed578060011415611ffa565b6001600160a01b0384163b155b15611f5a57604051635274afe760e01b81526001600160a01b0385166004820152602401610863565b61202c826120ae565b6040516001600160a01b038316907fbc7cd75a20ee27fd9adebab32041f755214dbc6bffa90cc0225b39da2e5c2d3b90600090a280511561207157610c5f8282612113565b610c7f612180565b61208161219f565b610ad657604051631afcd79f60e31b815260040160405180910390fd5b611ae8612079565b611cb7612079565b806001600160a01b03163b6000036120e457604051634c9c8ce360e01b81526001600160a01b0382166004820152602401610863565b6000805160206128c983398151915280546001600160a01b0319166001600160a01b0392909216919091179055565b6060600080846001600160a01b03168460405161213091906128ac565b600060405180830381855af49150503d806000811461216b576040519150601f19603f3d011682016040523d82523d6000602084013e612170565b606091505b5091509150610dfb8583836121b9565b3415610ad65760405163b398979f60e01b815260040160405180910390fd5b60006121a9611f60565b54600160401b900460ff16919050565b6060826121ce576121c982612218565b612211565b81511580156121e557506001600160a01b0384163b155b1561220e57604051639996b31560e01b81526001600160a01b0385166004820152602401610863565b50805b9392505050565b80511561222757805160208201fd5b60405163d6bda27560e01b815260040160405180910390fd5b80356001600160a01b038116811461225757600080fd5b919050565b60006020828403121561226e57600080fd5b61221182612240565b60006020828403121561228957600080fd5b5035919050565b634e487b7160e01b600052604160045260246000fd5b600067ffffffffffffffff808411156122c1576122c1612290565b604051601f8501601f19908116603f011681019082821181831017156122e9576122e9612290565b8160405280935085815286868601111561230257600080fd5b858560208301376000602087830101525050509392505050565b6000806040838503121561232f57600080fd5b61233883612240565b9150602083013567ffffffffffffffff81111561235457600080fd5b8301601f8101851361236557600080fd5b612374858235602084016122a6565b9150509250929050565b60008151808452602080850194506020840160005b838110156123af57815187529582019590820190600101612393565b509495945050505050565b606080825284519082018190526000906020906080840190828801845b828110156123fc5781516001600160a01b0316845292840192908401906001016123d7565b5050508381036020850152612411818761237e565b9150508281036040840152612426818561237e565b9695505050505050565b60005b8381101561244b578181015183820152602001612433565b50506000910152565b6000815180845261246c816020860160208601612430565b601f01601f19169290920160200192915050565b60006101208b835280602084015261249a8184018c612454565b604084019a909a5250506060810196909652608086019490945260a085019290925260c084015260e083015215156101009091015292915050565b600080604083850312156124e857600080fd5b6124f183612240565b946020939093013593505050565b6000806000806080858703121561251557600080fd5b843567ffffffffffffffff81111561252c57600080fd5b8501601f8101871361253d57600080fd5b61254c878235602084016122a6565b97602087013597506040870135966060013595509350505050565b6020815260006122116020830184612454565b60008060006060848603121561258f57600080fd5b61259884612240565b92506125a660208501612240565b91506125b460408501612240565b90509250925092565b600080604083850312156125d057600080fd5b50508035926020909101359150565b60006101008083526125f38184018c612454565b602084019a909a52505060408101969096526060860194909452608085019290925260a084015260c0830152151560e090910152919050565b60208082526024908201527f43616e6e6f7420776974686472617720647572696e672061637469766520626160408201526374746c6560e01b606082015260800190565b634e487b7160e01b600052601160045260246000fd5b818103818111156111a5576111a5612670565b808201808211156111a5576111a5612670565b80820281158282048414176111a5576111a5612670565b634e487b7160e01b600052601260045260246000fd5b6000826126e8576126e86126c3565b500690565b6000602082840312156126ff57600080fd5b5051919050565b600082612715576127156126c3565b500490565b600181811c9082168061272e57607f821691505b60208210810361274e57634e487b7160e01b600052602260045260246000fd5b50919050565b60006001820161276657612766612670565b5060010190565b601f821115610c5f576000816000526020600020601f850160051c810160208610156127965750805b601f850160051c820191505b818110156127b5578281556001016127a2565b505050505050565b815167ffffffffffffffff8111156127d7576127d7612290565b6127eb816127e5845461271a565b8461276d565b602080601f83116001811461282057600084156128085750858301515b600019600386901b1c1916600185901b1785556127b5565b600085815260208120601f198616915b8281101561284f57888601518255948401946001909101908401612830565b508582101561286d5787850151600019600388901b60f8161c191681555b5050505050600190811b01905550565b6080815260006128906080830187612454565b6020830195909552506040810192909252606090910152919050565b600082516128be818460208701612430565b919091019291505056fe360894a13ba1a3210667c828492db98dca3e2076cc3735a920a3ca505d382bbc9b779b17422d0df92223018b32b4d1fa46e071723d6817e2486d003becc55f00a264697066735822122058fffaa88768d064ff6c6271f14be2aaa7994ed2ded0b8dd37a4edac6bb6913064736f6c63430008160033",
  "linkReferences": {},
  "deployedLinkReferences": {}
}