{
  "_format": "hh-sol-artifact-1",
  "contractName": "YieldVault",
  "sourceName": "contracts/YieldVault.sol",
  "abi": [
    {
      "inputs": [],
      "stateMutability": "nonpayable",
      "type": "constructor"
    },
    {
      "inputs": [
        {
          "internalType": "address",
          "name": "target",
          "type": "address"
        }
      ],
      "name": "AddressEmptyCode",
      "type": "error"
    },
    {
      "inputs": [
        {
          "internalType": "address",
          "name": "implementation",
          "type": "address"
        }
      ],
      "name": "ERC1967InvalidImplementation",
      "type": "error"
    },
    {
      "inputs": [],
      "name": "ERC1967NonPayable",
      "type": "error"
    },
    {
      "inputs": [],
      "name": "FailedCall",
      "type": "error"
    },
    {
      "inputs": [],
      "name": "InvalidInitialization",
      "type": "error"
    },
    {
      "inputs": [],
      "name": "NotInitializing",
      "type": "error"
    },
    {
      "inputs": [
        {
          "internalType": "address",
          "name": "owner",
          "type": "address"
        }
      ],
      "name": "OwnableInvalidOwner",
      "type": "error"
    },
    {
      "inputs": [
        {
          "internalType": "address",
          "name": "account",
          "type": "address"
        }
      ],
      "name": "OwnableUnauthorizedAccount",
      "type": "error"
    },
    {
      "inputs": [],
      "name": "ReentrancyGuardReentrantCall",
      "type": "error"
    },
    {
      "inputs": [
        {
          "internalType": "address",
          "name": "token",
          "type": "address"
        }
      ],
      "name": "SafeERC20FailedOperation",
      "type": "error"
    },
    {
      "inputs": [],
      "name": "UUPSUnauthorizedCallContext",
      "type": "error"
    },
    {
      "inputs": [
        {
          "internalType": "bytes32",
          "name": "slot",
          "type": "bytes32"
        }
      ],
      "name": "UUPSUnsupportedProxiableUUID",
      "type": "error"
    },
    {
      "anonymous": false,
      "inputs": [
        {
          "indexed": true,
          "internalType": "uint256",
          "name": "battleId",
          "type": "uint256"
        },
        {
          "indexed": false,
          "internalType": "string",
          "name": "name",
          "type": "string"
        },
        {
          "indexed": false,
          "internalType": "uint256",
          "name": "startTime",
          "type": "uint256"
        },
        {
          "indexed": false,
          "internalType": "uint256",
          "name": "endTime",
          "type": "uint256"
        },
        {
          "indexed": false,
          "internalType": "uint256",
          "name": "entryFee",
          "type": "uint256"
        }
      ],
      "name": "BattleCreated",
      "type": "event"
    },
    {
      "anonymous": false,
      "inputs": [
        {
          "indexed": true,
          "internalType": "uint256",
          "name": "battleId",
          "type": "uint256"
        },
        {
          "indexed": false,
          "internalType": "address",
          "name": "winner",
          "type": "address"
        },
        {
          "indexed": false,
          "internalType": "uint256",
          "name": "prizeAmount",
          "type": "uint256"
        },
        {
          "indexed": false,
          "internalType": "uint256",
          "name": "timestamp",
          "type": "uint256"
        }
      ],
      "name": "BattleEnded",
      "type": "event"
    },
    {
      "anonymous": false,
      "inputs": [
        {
          "indexed": true,
          "internalType": "address",
          "name": "user",
          "type": "address"
        },
        {
          "indexed": true,
          "internalType": "uint256",
          "name": "battleId",
          "type": "uint256"
        },
        {
          "indexed": false,
          "internalType": "uint256",
          "name": "amount",
          "type": "uint256"
        },
        {
          "indexed": false,
          "internalType": "uint256",
          "name": "timestamp",
          "type": "uint256"
        }
      ],
      "name": "BattleJoined",
      "type": "event"
    },
    {
      "anonymous": false,
      "inputs": [
        {
          "indexed": true,
          "internalType": "address",
          "name": "user",
          "type": "address"
        },
        {
          "indexed": false,
          "internalType": "uint256",
          "name": "amount",
          "type": "uint256"
        },
        {
          "indexed": false,
          "internalType": "uint256",
          "name": "battleId",
          "type": "uint256"
        },
        {
          "indexed": false,
          "internalType": "uint256",
          "name": "timestamp",
          "type": "uint256"
        }
      ],
      "name": "DepositMade",
      "type": "event"
    },
    {
      "anonymous": false,
      "inputs": [
        {
          "indexed": false,
          "internalType": "uint64",
          "name": "version",
          "type": "uint64"
        }
      ],
      "name": "Initialized",
      "type": "event"
    },
    {
      "anonymous": false,
      "inputs": [
        {
          "indexed": true,
          "internalType": "address",
          "name": "previousOwner",
          "type": "address"
        },
        {
          "indexed": true,
          "internalType": "address",
          "name": "newOwner",
          "type": "address"
        }
      ],
      "name": "OwnershipTransferred",
      "type": "event"
    },
    {
      "anonymous": false,
      "inputs": [
        {
          "indexed": true,
          "internalType": "uint256",
          "name": "battleId",
          "type": "uint256"
        },
        {
          "indexed": true,
          "internalType": "address",
          "name": "winner",
          "type": "address"
        },
        {
          "indexed": false,
          "internalType": "uint256",
          "name": "amount",
          "type": "uint256"
        },
        {
          "indexed": false,
          "internalType": "uint256",
          "name": "timestamp",
          "type": "uint256"
        }
      ],
      "name": "PrizeDistributed",
      "type": "event"
    },
    {
      "anonymous": false,
      "inputs": [
        {
          "indexed": true,
          "internalType": "address",
          "name": "implementation",
          "type": "address"
        }
      ],
      "name": "Upgraded",
      "type": "event"
    },
    {
      "anonymous": false,
      "inputs": [
        {
          "indexed": true,
          "internalType": "address",
          "name": "user",
          "type": "address"
        },
        {
          "indexed": false,
          "internalType": "uint256",
          "name": "amount",
          "type": "uint256"
        },
        {
          "indexed": false,
          "internalType": "uint256",
          "name": "timestamp",
          "type": "uint256"
        }
      ],
      "name": "WithdrawalMade",
      "type": "event"
    },
    {
      "anonymous": false,
      "inputs": [
        {
          "indexed": true,
          "internalType": "address",
          "name": "user",
          "type": "address"
        },
        {
          "indexed": false,
          "internalType": "uint256",
          "name": "amount",
          "type": "uint256"
        },
        {
          "indexed": false,
          "internalType": "uint256",
          "name": "timestamp",
          "type": "uint256"
        }
      ],
      "name": "YieldClaimed",
      "type": "event"
    },
    {
      "inputs": [],
      "name": "BATTLE_DURATION",
      "outputs": [
        {
          "internalType": "uint256",
          "name": "",
          "type": "uint256"
        }
      ],
      "stateMutability": "view",
      "type": "function"
    },
    {
      "inputs": [],
      "name": "DEFAULT_MAX_PARTICIPANTS",
      "outputs": [
        {
          "internalType": "uint256",
          "name": "",
          "type": "uint256"
        }
      ],
      "stateMutability": "view",
      "type": "function"
    },
    {
      "inputs": [],
      "name": "MAX_DEPOSIT",
      "outputs": [
        {
          "internalType": "uint256",
          "name": "",
          "type": "uint256"
        }
      ],
      "stateMutability": "view",
      "type": "function"
    },
    {
      "inputs": [],
      "name": "MAX_ENTRY_FEE",
      "outputs": [
        {
          "internalType": "uint256",
          "name": "",
          "type": "uint256"
        }
      ],
      "stateMutability": "view",
      "type": "function"
    },
    {
      "inputs": [],
      "name": "MIN_DEPOSIT",
      "outputs": [
        {
          "internalType": "uint256",
          "name": "",
          "type": "uint256"
        }
      ],
      "stateMutability": "view",
      "type": "function"
    },
    {
      "inputs": [],
      "name": "MIN_ENTRY_FEE",
      "outputs": [
        {
          "internalType": "uint256",
          "name": "",
          "type": "uint256"
        }
      ],
      "stateMutability": "view",
      "type": "function"
    },
    {
      "inputs": [],
      "name": "UPGRADE_INTERFACE_VERSION",
      "outputs": [
        {
          "internalType": "string",
          "name": "",
          "type": "string"
        }
      ],
      "stateMutability": "view",
      "type": "function"
    },
    {
      "inputs": [],
      "name": "YIELD_RATE",
      "outputs": [
        {
          "internalType": "uint256",
          "name": "",
          "type": "uint256"
        }
      ],
      "stateMutability": "view",
      "type": "function"
    },
    {
      "inputs": [
        {
          "internalType": "uint256",
          "name": "",
          "type": "uint256"
        }
      ],
      "name": "battles",
      "outputs": [
        {
          "internalType": "uint256",
          "name": "battleId",
          "type": "uint256"
        },
        {
          "internalType": "string",
          "name": "name",
          "type": "string"
        },
        {
          "internalType": "uint256",
          "name": "startTime",
          "type": "uint256"
        },
        {
          "internalType": "uint256",
          "name": "endTime",
          "type": "uint256"
        },
        {
          "internalType": "uint256",
          "name": "totalPrizePool",
          "type": "uint256"
        },
        {
          "internalType": "uint256",
          "name": "entryFee",
          "type": "uint256"
        },
        {
          "internalType": "uint256",
          "name": "maxParticipants",
          "type": "uint256"
        },
        {
          "internalType": "uint256",
          "name": "currentParticipants",
          "type": "uint256"
        },
        {
          "internalType": "bool",
          "name": "isActive",
          "type": "bool"
        }
      ],
      "stateMutability": "view",
      "type": "function"
    },
    {
      "inputs": [
        {
          "internalType": "address",
          "name": "_user",
          "type": "address"
        }
      ],
      "name": "calculateYield",
      "outputs": [
        {
          "internalType": "uint256",
          "name": "",
          "type": "uint256"
        }
      ],
      "stateMutability": "view",
      "type": "function"
    },
    {
      "inputs": [],
      "name": "claimYield",
      "outputs": [],
      "stateMutability": "nonpayable",
      "type": "function"
    },
    {
      "inputs": [
        {
          "internalType": "string",
          "name": "_name",
          "type": "string"
        },
        {
          "internalType": "uint256",
          "name": "_entryFee",
          "type": "uint256"
        },
        {
          "internalType": "uint256",
          "name": "_maxParticipants",
          "type": "uint256"
        },
        {
          "internalType": "uint256",
          "name": "_duration",
          "type": "uint256"
        }
      ],
      "name": "createBattle",
      "outputs": [],
      "stateMutability": "nonpayable",
      "type": "function"
    },
    {
      "inputs": [
        {
          "internalType": "uint256",
          "name": "_amount",
          "type": "uint256"
        }
      ],
      "name": "deposit",
      "outputs": [],
      "stateMutability": "nonpayable",
      "type": "function"
    },
    {
      "inputs": [
        {
          "internalType": "uint256",
          "name": "_amount",
          "type": "uint256"
        }
      ],
      "name": "emergencyWithdraw",
      "outputs": [],
      "stateMutability": "nonpayable",
      "type": "function"
    },
    {
      "inputs": [
        {
          "internalType": "uint256",
          "name": "_battleId",
          "type": "uint256"
        }
      ],
      "name": "endBattle",
      "outputs": [],
      "stateMutability": "nonpayable",
      "type": "function"
    },
    {
      "inputs": [
        {
          "internalType": "uint256",
          "name": "_battleId",
          "type": "uint256"
        }
      ],
      "name": "getBattleDetails",
      "outputs": [
        {
          "internalType": "string",
          "name": "name",
          "type": "string"
        },
        {
          "internalType": "uint256",
          "name": "startTime",
          "type": "uint256"
        },
        {
          "internalType": "uint256",
          "name": "endTime",
          "type": "uint256"
        },
        {
          "internalType": "uint256",
          "name": "totalPrizePool",
          "type": "uint256"
        },
        {
          "internalType": "uint256",
          "name": "entryFee",
          "type": "uint256"
        },
        {
          "internalType": "uint256",
          "name": "maxParticipants",
          "type": "uint256"
        },
        {
          "internalType": "uint256",
          "name": "currentParticipants",
          "type": "uint256"
        },
        {
          "internalType": "bool",
          "name": "isActive",
          "type": "bool"
        }
      ],
      "stateMutability": "view",
      "type": "function"
    },
    {
      "inputs": [
        {
          "internalType": "address",
          "name": "_user",
          "type": "address"
        },
        {
          "internalType": "uint256",
          "name": "_battleId",
          "type": "uint256"
        }
      ],
      "name": "getUserBattleDeposit",
      "outputs": [
        {
          "internalType": "uint256",
          "name": "",
          "type": "uint256"
        }
      ],
      "stateMutability": "view",
      "type": "function"
    },
    {
      "inputs": [
        {
          "internalType": "address",
          "name": "_user",
          "type": "address"
        }
      ],
      "name": "getUserPosition",
      "outputs": [
        {
          "internalType": "uint256",
          "name": "amount",
          "type": "uint256"
        },
        {
          "internalType": "uint256",
          "name": "depositTime",
          "type": "uint256"
        },
        {
          "internalType": "uint256",
          "name": "lastClaimTime",
          "type": "uint256"
        },
        {
          "internalType": "uint256",
          "name": "battleId",
          "type": "uint256"
        },
        {
          "internalType": "bool",
          "name": "isActive",
          "type": "bool"
        }
      ],
      "stateMutability": "view",
      "type": "function"
    },
    {
      "inputs": [],
      "name": "getVaultStats",
      "outputs": [
        {
          "internalType": "uint256",
          "name": "_totalVaultValue",
          "type": "uint256"
        },
        {
          "internalType": "uint256",
          "name": "_totalYieldDistributed",
          "type": "uint256"
        },
        {
          "internalType": "uint256",
          "name": "_nextBattleId",
          "type": "uint256"
        }
      ],
      "stateMutability": "view",
      "type": "function"
    },
    {
      "inputs": [
        {
          "internalType": "address",
          "name": "_owner",
          "type": "address"
        },
        {
          "internalType": "address",
          "name": "_token",
          "type": "address"
        },
        {
          "internalType": "address",
          "name": "_userProfileContract",
          "type": "address"
        }
      ],
      "name": "initialize",
      "outputs": [],
      "stateMutability": "nonpayable",
      "type": "function"
    },
    {
      "inputs": [
        {
          "internalType": "address",
          "name": "_user",
          "type": "address"
        },
        {
          "internalType": "uint256",
          "name": "_battleId",
          "type": "uint256"
        }
      ],
      "name": "isUserInBattle",
      "outputs": [
        {
          "internalType": "bool",
          "name": "",
          "type": "bool"
        }
      ],
      "stateMutability": "view",
      "type": "function"
    },
    {
      "inputs": [
        {
          "internalType": "uint256",
          "name": "_battleId",
          "type": "uint256"
        },
        {
          "internalType": "uint256",
          "name": "_amount",
          "type": "uint256"
        }
      ],
      "name": "joinBattle",
      "outputs": [],
      "stateMutability": "nonpayable",
      "type": "function"
    },
    {
      "inputs": [],
      "name": "nextBattleId",
      "outputs": [
        {
          "internalType": "uint256",
          "name": "",
          "type": "uint256"
        }
      ],
      "stateMutability": "view",
      "type": "function"
    },
    {
      "inputs": [],
      "name": "owner",
      "outputs": [
        {
          "internalType": "address",
          "name": "",
          "type": "address"
        }
      ],
      "stateMutability": "view",
      "type": "function"
    },
    {
      "inputs": [],
      "name": "proxiableUUID",
      "outputs": [
        {
          "internalType": "bytes32",
          "name": "",
          "type": "bytes32"
        }
      ],
      "stateMutability": "view",
      "type": "function"
    },
    {
      "inputs": [],
      "name": "renounceOwnership",
      "outputs": [],
      "stateMutability": "nonpayable",
      "type": "function"
    },
    {
      "inputs": [],
      "name": "token",
      "outputs": [
        {
          "internalType": "contract IERC20",
          "name": "",
          "type": "address"
        }
      ],
      "stateMutability": "view",
      "type": "function"
    },
    {
      "inputs": [],
      "name": "totalVaultValue",
      "outputs": [
        {
          "internalType": "uint256",
          "name": "",
          "type": "uint256"
        }
      ],
      "stateMutability": "view",
      "type": "function"
    },
    {
      "inputs": [],
      "name": "totalYieldDistributed",
      "outputs": [
        {
          "internalType": "uint256",
          "name": "",
          "type": "uint256"
        }
      ],
      "stateMutability": "view",
      "type": "function"
    },
    {
      "inputs": [
        {
          "internalType": "address",
          "name": "newOwner",
          "type": "address"
        }
      ],
      "name": "transferOwnership",
      "outputs": [],
      "stateMutability": "nonpayable",
      "type": "function"
    },
    {
      "inputs": [
        {
          "internalType": "address",
          "name": "newImplementation",
          "type": "address"
        },
        {
          "internalType": "bytes",
          "name": "data",
          "type": "bytes"
        }
      ],
      "name": "upgradeToAndCall",
      "outputs": [],
      "stateMutability": "payable",
      "type": "function"
    },
    {
      "inputs": [
        {
          "internalType": "address",
          "name": "",
          "type": "address"
        }
      ],
      "name": "userPositions",
      "outputs": [
        {
          "internalType": "uint256",
          "name": "amount",
          "type": "uint256"
        },
        {
          "internalType": "uint256",
          "name": "depositTime",
          "type": "uint256"
        },
        {
          "internalType": "uint256",
          "name": "lastClaimTime",
          "type": "uint256"
        },
        {
          "internalType": "uint256",
          "name": "battleId",
          "type": "uint256"
        },
        {
          "internalType": "bool",
          "name": "isActive",
          "type": "bool"
        }
      ],
      "stateMutability": "view",
      "type": "function"
    },
    {
      "inputs": [],
      "name": "userProfileContract",
      "outputs": [
        {
          "internalType": "address",
          "name": "",
          "type": "address"
        }
      ],
      "stateMutability": "view",
      "type": "function"
    },
    {
      "inputs": [
        {
          "internalType": "address",
          "name": "",
          "type": "address"
        }
      ],
      "name": "userTotalDeposits",
      "outputs": [
        {
          "internalType": "uint256",
          "name": "",
          "type": "uint256"
        }
      ],
      "stateMutability": "view",
      "type": "function"
    },
    {
      "inputs": [
        {
          "internalType": "address",
          "name": "",
          "type": "address"
        }
      ],
      "name": "userTotalWithdrawals",
      "outputs": [
        {
          "internalType": "uint256",
          "name": "",
          "type": "uint256"
        }
      ],
      "stateMutability": "view",
      "type": "function"
    },
    {
      "inputs": [
        {
          "internalType": "address",
          "name": "",
          "type": "address"
        }
      ],
      "name": "userTotalYield",
      "outputs": [
        {
          "internalType": "uint256",
          "name": "",
          "type": "uint256"
        }
      ],
      "stateMutability": "view",
      "type": "function"
    },
    {
      "inputs": [
        {
          "internalType": "uint256",
          "name": "_amount",
          "type": "uint256"
        }
      ],
      "name": "withdraw",
      "outputs": [],
      "stateMutability": "nonpayable",
      "type": "function"
    }
  ],
  "bytecode": "0x60a0604052306080523480156200001557600080fd5b506200002062000026565b620000da565b7ff0c57e16840df040f15088dc2f81fe391c3923bec73e23a9662efc9c229c6a00805468010000000000000000900460ff1615620000775760405163f92ee8a960e01b815260040160405180910390fd5b80546001600160401b0390811614620000d75780546001600160401b0319166001600160401b0390811782556040519081527fc7f505b2f371ae2175ee4913f4499e1f2633a7b5936321eed1cdaeb6115181d29060200160405180910390a15b50565b6080516125616200010460003960008181611a4501528181611a6e0152611baf01526125616000f3fe60806040526004361061021a5760003560e01c806397206bd511610123578063ce4a989e116100ab578063f0e26f801161006f578063f0e26f8014610708578063f2fde38b1461073c578063f3a974691461075c578063f50ab0de14610771578063fc0c546a1461078d57600080fd5b8063ce4a989e1461066e578063dd5967c31461069b578063e1e158a5146106b8578063e44dba4f146106d3578063e852090a146106f357600080fd5b8063afbc74b9116100f2578063afbc74b9146105a8578063b236eb8d146105be578063b6b55f25146105d5578063b6df5ba7146105f5578063c0c53b8b1461064e57600080fd5b806397206bd514610503578063a120995f14610519578063a59aa5a614610539578063ad3cb1cc1461056a57600080fd5b8063567add64116101a6578063715018a611610175578063715018a61461047157806381883759146104865780638da5cb5b146104a157806391edcc2f146104b65780639295953f146104d657600080fd5b8063567add641461034c5780635b7c2dad1461036c578063606d2e96146103ef578063613cf4201461042457600080fd5b8063406cf229116101ed578063406cf229146102cf5780634157e6ef146102e45780634f1ef2861461030457806352d1902d146103175780635312ea8e1461032c57600080fd5b806311cdf8561461021f5780631c5f30991461025f5780632e1a7d4d1461029757806331a6ff66146102b9575b600080fd5b34801561022b57600080fd5b5061024c61023a366004611f99565b60046020526000908152604090205481565b6040519081526020015b60405180910390f35b34801561026b57600080fd5b5060065461027f906001600160a01b031681565b6040516001600160a01b039091168152602001610256565b3480156102a357600080fd5b506102b76102b2366004611fb4565b6107ad565b005b3480156102c557600080fd5b5061024c60075481565b3480156102db57600080fd5b506102b7610a3e565b3480156102f057600080fd5b506102b76102ff366004611fb4565b610aba565b6102b7610312366004612059565b610c13565b34801561032357600080fd5b5061024c610c32565b34801561033857600080fd5b506102b7610347366004611fb4565b610c4f565b34801561035857600080fd5b5061024c610367366004611f99565b610d30565b34801561037857600080fd5b506103c5610387366004611f99565b6001600160a01b031660009081526020819052604090208054600182015460028301546003840154600490940154929491939092909160ff90911690565b6040805195865260208601949094529284019190915260608301521515608082015260a001610256565b3480156103fb57600080fd5b5061040f61040a366004611fb4565b610db3565b6040516102569998979695949392919061210b565b34801561043057600080fd5b506103c561043f366004611f99565b600060208190529081526040902080546001820154600283015460038401546004909401549293919290919060ff1685565b34801561047d57600080fd5b506102b7610e86565b34801561049257600080fd5b5061024c66038d7ea4c6800081565b3480156104ad57600080fd5b5061027f610e98565b3480156104c257600080fd5b5061024c6104d1366004612160565b610ec6565b3480156104e257600080fd5b5061024c6104f1366004611f99565b60026020526000908152604090205481565b34801561050f57600080fd5b5061024c60095481565b34801561052557600080fd5b506102b761053436600461218a565b610ef3565b34801561054557600080fd5b5060085460095460075460408051938452602084019290925290820152606001610256565b34801561057657600080fd5b5061059b604051806040016040528060058152602001640352e302e360dc1b81525081565b60405161025691906121f2565b3480156105b457600080fd5b5061024c60085481565b3480156105ca57600080fd5b5061024c62093a8081565b3480156105e157600080fd5b506102b76105f0366004611fb4565b6110ba565b34801561060157600080fd5b5061063e610610366004612160565b60009081526001602090815260408083206001600160a01b0394909416835260099093019052205460ff1690565b6040519015158152602001610256565b34801561065a57600080fd5b506102b7610669366004612205565b611226565b34801561067a57600080fd5b5061024c610689366004611f99565b60036020526000908152604090205481565b3480156106a757600080fd5b5061024c68056bc75e2d6310000081565b3480156106c457600080fd5b5061024c662386f26fc1000081565b3480156106df57600080fd5b506102b76106ee366004612248565b611369565b3480156106ff57600080fd5b5061024c600581565b34801561071457600080fd5b50610728610723366004611fb4565b611719565b60405161025698979695949392919061226a565b34801561074857600080fd5b506102b7610757366004611f99565b611818565b34801561076857600080fd5b5061024c606481565b34801561077d57600080fd5b5061024c670de0b6b3a764000081565b34801561079957600080fd5b5060055461027f906001600160a01b031681565b6107b5611853565b336000908152602081905260409020600481015460ff166108125760405162461bcd60e51b815260206004820152601260248201527127379030b1ba34bb32903837b9b4ba34b7b760711b60448201526064015b60405180910390fd5b805482111561085a5760405162461bcd60e51b8152602060048201526014602482015273496e73756666696369656e742062616c616e636560601b6044820152606401610809565b600082116108aa5760405162461bcd60e51b815260206004820152601d60248201527f416d6f756e74206d7573742062652067726561746572207468616e20300000006044820152606401610809565b600081600301541180156108d45750600381015460009081526001602052604090206008015460ff165b15610949576003808201546000908152600160205260409020015442116109495760405162461bcd60e51b8152602060048201526024808201527f43616e6e6f7420776974686472617720647572696e672061637469766520626160448201526374746c6560e01b6064820152608401610809565b600061095433610d30565b90508015610965576109653361188b565b8282600001600082825461097991906122cd565b909155505081546000036109945760048201805460ff191690555b33600090815260036020526040812080548592906109b39084906122e0565b9250508190555082600860008282546109cc91906122cd565b90915550506005546109e8906001600160a01b03163385611990565b6040805184815242602082015233917f2d4d49c3e017b8235c908cbaa83a2431a08f3b950712696ece2088964fd399f0910160405180910390a25050610a3b600160008051602061250c83398151915255565b50565b610a46611853565b6000610a5133610d30565b905060008111610a975760405162461bcd60e51b81526020600482015260116024820152704e6f207969656c6420746f20636c61696d60781b6044820152606401610809565b610aa03361188b565b50610ab8600160008051602061250c83398151915255565b565b610ac2611a08565b6000818152600160205260409020600881015460ff16610b185760405162461bcd60e51b8152602060048201526011602482015270426174746c65206e6f742061637469766560781b6044820152606401610809565b8060030154421015610b635760405162461bcd60e51b815260206004820152601460248201527310985d1d1b19481b9bdd08195b991959081e595d60621b6044820152606401610809565b60088101805460ff1916905560008080805b8460070154811015610b8957600101610b75565b50600084600701548560050154610ba091906122f3565b9050600081118015610bb6575060008560070154115b15610c0b57604080516001600160a01b038516815260208101839052429181019190915286907f1da0b29fc20261565bcf107c004d4c7d78e307478c4570fccede3bac53a23829906060015b60405180910390a25b505050505050565b610c1b611a3a565b610c2482611adf565b610c2e8282611ae7565b5050565b6000610c3c611ba4565b506000805160206124ec83398151915290565b610c57611a08565b6005546040516370a0823160e01b81523060048201526001600160a01b03909116906370a0823190602401602060405180830381865afa158015610c9f573d6000803e3d6000fd5b505050506040513d601f19601f82011682018060405250810190610cc3919061230a565b811115610d125760405162461bcd60e51b815260206004820152601d60248201527f496e73756666696369656e7420636f6e74726163742062616c616e63650000006044820152606401610809565b610a3b610d1d610e98565b6005546001600160a01b03169083611990565b6001600160a01b0381166000908152602081905260408120600481015460ff161580610d5b57508054155b15610d695750600092915050565b6000816002015442610d7b91906122cd565b9050600063bbf81e008260058560000154610d9691906122f3565b610da091906122f3565b610daa9190612323565b95945050505050565b600160208190526000918252604090912080549181018054610dd490612345565b80601f0160208091040260200160405190810160405280929190818152602001828054610e0090612345565b8015610e4d5780601f10610e2257610100808354040283529160200191610e4d565b820191906000526020600020905b815481529060010190602001808311610e3057829003601f168201915b50505050600283015460038401546004850154600586015460068701546007880154600890980154969794969395509193909260ff1689565b610e8e611a08565b610ab86000611bed565b7f9016d09d72d40fdae2fd8ceac6b6234c7706214fd39c1cd1e609a0528c199300546001600160a01b031690565b60008181526001602090815260408083206001600160a01b0386168452600a019091529020545b92915050565b610efb611a08565b66038d7ea4c680008310158015610f1a5750670de0b6b3a76400008311155b610f5a5760405162461bcd60e51b8152602060048201526011602482015270496e76616c696420656e7472792066656560781b6044820152606401610809565b600082118015610f6b575060648211155b610fb75760405162461bcd60e51b815260206004820152601860248201527f496e76616c6964206d6178207061727469636970616e747300000000000000006044820152606401610809565b600081118015610fca575062278d008111155b6110095760405162461bcd60e51b815260206004820152601060248201526f24b73b30b634b210323ab930ba34b7b760811b6044820152606401610809565b600780546000918261101a8361237f565b909155506000818152600160208190526040909120828155919250810161104187826123e0565b5042600282018190556110559084906122e0565b6003820181905560058201869055600682018590556000600783015560088201805460ff19166001179055600282015460405184927ffbfcd47c70d767bcbd7dc3f1a5ec3ec2719bfde46662781bfb903d02279e4ee792610c02928b92908b906124a0565b6110c2611853565b662386f26fc1000081101580156110e2575068056bc75e2d631000008111155b6111275760405162461bcd60e51b8152602060048201526016602482015275125b9d985b1a590819195c1bdcda5d08185b5bdd5b9d60521b6044820152606401610809565b60055461113f906001600160a01b0316333084611c5e565b3360009081526020819052604081208054909183918391906111629084906122e0565b909155505042600180830182905560028084019290925560048301805460ff191690911790553360009081526020919091526040812080548492906111a89084906122e0565b9250508190555081600860008282546111c191906122e0565b909155506111cc9050565b60408051838152600060208201524281830152905133917fcb3ef4109dcd006671348924f00aac8398190a5ff283d6e470d74581513e1036919081900360600190a250610a3b600160008051602061250c83398151915255565b6000611230611c9d565b805490915060ff600160401b820416159067ffffffffffffffff166000811580156112585750825b905060008267ffffffffffffffff1660011480156112755750303b155b905081158015611283575080155b156112a15760405163f92ee8a960e01b815260040160405180910390fd5b845467ffffffffffffffff1916600117855583156112cb57845460ff60401b1916600160401b1785555b6112d488611cc6565b6112dc611cd7565b6112e4611cdf565b600580546001600160a01b03808a166001600160a01b03199283161790925560068054928916929091169190911790556001600755831561135f57845460ff60401b19168555604051600181527fc7f505b2f371ae2175ee4913f4499e1f2633a7b5936321eed1cdaeb6115181d29060200160405180910390a15b5050505050505050565b611371611853565b662386f26fc100008110158015611391575068056bc75e2d631000008111155b6113d65760405162461bcd60e51b8152602060048201526016602482015275125b9d985b1a590819195c1bdcda5d08185b5bdd5b9d60521b6044820152606401610809565b60008281526001602052604090206008015460ff1661142b5760405162461bcd60e51b8152602060048201526011602482015270426174746c65206e6f742061637469766560781b6044820152606401610809565b6000828152600160205260409020600201544210156114815760405162461bcd60e51b815260206004820152601260248201527110985d1d1b19481b9bdd081cdd185c9d195960721b6044820152606401610809565b6000828152600160205260409020600301544211156114d15760405162461bcd60e51b815260206004820152600c60248201526b10985d1d1b1948195b99195960a21b6044820152606401610809565b600082815260016020908152604080832033845260090190915290205460ff16156115365760405162461bcd60e51b8152602060048201526015602482015274416c7265616479206a6f696e656420626174746c6560581b6044820152606401610809565b600082815260016020526040902060068101546007909101541061158a5760405162461bcd60e51b815260206004820152600b60248201526a10985d1d1b1948199d5b1b60aa1b6044820152606401610809565b6005546115a2906001600160a01b0316333084611c5e565b6000828152600160208181526040808420338552600981018352818520805460ff191685179055600a810183529084208590558584529190526007018054916115ea8361237f565b90915550503360009081526020819052604081208054909183918391906116129084906122e0565b90915550504260018083018290556002808401929092556003830185905560048301805460ff1916909117905533600090815260209190915260408120805484929061165f9084906122e0565b92505081905550816008600082825461167891906122e0565b909155506116839050565b60408051838152426020820152849133917f9e2bfc3694a1b3e37bca59243cf8738331d6c35f332aa360b2890d43998470d4910160405180910390a360408051838152602081018590524281830152905133917fcb3ef4109dcd006671348924f00aac8398190a5ff283d6e470d74581513e1036919081900360600190a250610c2e600160008051602061250c83398151915255565b6060600080600080600080600080600160008b81526020019081526020016000209050806001018160020154826003015483600401548460050154856006015486600701548760080160009054906101000a900460ff1687805461177c90612345565b80601f01602080910402602001604051908101604052809291908181526020018280546117a890612345565b80156117f55780601f106117ca576101008083540402835291602001916117f5565b820191906000526020600020905b8154815290600101906020018083116117d857829003601f168201915b505050505097509850985098509850985098509850985050919395975091939597565b611820611a08565b6001600160a01b03811661184a57604051631e4fbdf760e01b815260006004820152602401610809565b610a3b81611bed565b60008051602061250c83398151915280546001190161188557604051633ee5aeb560e01b815260040160405180910390fd5b60029055565b600061189682610d30565b9050600081116118dc5760405162461bcd60e51b81526020600482015260116024820152704e6f207969656c6420746f20636c61696d60781b6044820152606401610809565b6001600160a01b038216600090815260208181526040808320426002820155600490925282208054919284926119139084906122e0565b92505081905550816009600082825461192c91906122e0565b9091555050600554611948906001600160a01b03168484611990565b604080518381524260208201526001600160a01b038516917f10d8dedfc0745b8c25ba10b06e304138b251c18dcaadf2d71c7f3214719dc4d1910160405180910390a2505050565b6040516001600160a01b038381166024830152604482018390526119ef91859182169063a9059cbb906064015b604051602081830303815290604052915060e01b6020820180516001600160e01b038381831617835250505050611cef565b505050565b600160008051602061250c83398151915255565b33611a11610e98565b6001600160a01b031614610ab85760405163118cdaa760e01b8152336004820152602401610809565b306001600160a01b037f0000000000000000000000000000000000000000000000000000000000000000161480611ac157507f00000000000000000000000000000000000000000000000000000000000000006001600160a01b0316611ab56000805160206124ec833981519152546001600160a01b031690565b6001600160a01b031614155b15610ab85760405163703e46dd60e11b815260040160405180910390fd5b610a3b611a08565b816001600160a01b03166352d1902d6040518163ffffffff1660e01b8152600401602060405180830381865afa925050508015611b41575060408051601f3d908101601f19168201909252611b3e9181019061230a565b60015b611b6957604051634c9c8ce360e01b81526001600160a01b0383166004820152602401610809565b6000805160206124ec8339815191528114611b9a57604051632a87526960e21b815260048101829052602401610809565b6119ef8383611d60565b306001600160a01b037f00000000000000000000000000000000000000000000000000000000000000001614610ab85760405163703e46dd60e11b815260040160405180910390fd5b7f9016d09d72d40fdae2fd8ceac6b6234c7706214fd39c1cd1e609a0528c19930080546001600160a01b031981166001600160a01b03848116918217845560405192169182907f8be0079c531659141344cd1fd0a4f28419497f9722a3daafe3b4186f6b6457e090600090a3505050565b6040516001600160a01b038481166024830152838116604483015260648201839052611c979186918216906323b872dd906084016119bd565b50505050565b6000807ff0c57e16840df040f15088dc2f81fe391c3923bec73e23a9662efc9c229c6a00610eed565b611cce611db6565b610a3b81611ddb565b610ab8611db6565b611ce7611db6565b610ab8611de3565b600080602060008451602086016000885af180611d12576040513d6000823e3d81fd5b50506000513d91508115611d2a578060011415611d37565b6001600160a01b0384163b155b15611c9757604051635274afe760e01b81526001600160a01b0385166004820152602401610809565b611d6982611deb565b6040516001600160a01b038316907fbc7cd75a20ee27fd9adebab32041f755214dbc6bffa90cc0225b39da2e5c2d3b90600090a2805115611dae576119ef8282611e50565b610c2e611ebd565b611dbe611edc565b610ab857604051631afcd79f60e31b815260040160405180910390fd5b611820611db6565b6119f4611db6565b806001600160a01b03163b600003611e2157604051634c9c8ce360e01b81526001600160a01b0382166004820152602401610809565b6000805160206124ec83398151915280546001600160a01b0319166001600160a01b0392909216919091179055565b6060600080846001600160a01b031684604051611e6d91906124cf565b600060405180830381855af49150503d8060008114611ea8576040519150601f19603f3d011682016040523d82523d6000602084013e611ead565b606091505b5091509150610daa858383611ef6565b3415610ab85760405163b398979f60e01b815260040160405180910390fd5b6000611ee6611c9d565b54600160401b900460ff16919050565b606082611f0b57611f0682611f55565b611f4e565b8151158015611f2257506001600160a01b0384163b155b15611f4b57604051639996b31560e01b81526001600160a01b0385166004820152602401610809565b50805b9392505050565b805115611f6457805160208201fd5b60405163d6bda27560e01b815260040160405180910390fd5b80356001600160a01b0381168114611f9457600080fd5b919050565b600060208284031215611fab57600080fd5b611f4e82611f7d565b600060208284031215611fc657600080fd5b5035919050565b634e487b7160e01b600052604160045260246000fd5b600067ffffffffffffffff80841115611ffe57611ffe611fcd565b604051601f8501601f19908116603f0116810190828211818310171561202657612026611fcd565b8160405280935085815286868601111561203f57600080fd5b858560208301376000602087830101525050509392505050565b6000806040838503121561206c57600080fd5b61207583611f7d565b9150602083013567ffffffffffffffff81111561209157600080fd5b8301601f810185136120a257600080fd5b6120b185823560208401611fe3565b9150509250929050565b60005b838110156120d65781810151838201526020016120be565b50506000910152565b600081518084526120f78160208601602086016120bb565b601f01601f19169290920160200192915050565b60006101208b83528060208401526121258184018c6120df565b604084019a909a5250506060810196909652608086019490945260a085019290925260c084015260e083015215156101009091015292915050565b6000806040838503121561217357600080fd5b61217c83611f7d565b946020939093013593505050565b600080600080608085870312156121a057600080fd5b843567ffffffffffffffff8111156121b757600080fd5b8501601f810187136121c857600080fd5b6121d787823560208401611fe3565b97602087013597506040870135966060013595509350505050565b602081526000611f4e60208301846120df565b60008060006060848603121561221a57600080fd5b61222384611f7d565b925061223160208501611f7d565b915061223f60408501611f7d565b90509250925092565b6000806040838503121561225b57600080fd5b50508035926020909101359150565b600061010080835261227e8184018c6120df565b602084019a909a52505060408101969096526060860194909452608085019290925260a084015260c0830152151560e090910152919050565b634e487b7160e01b600052601160045260246000fd5b81810381811115610eed57610eed6122b7565b80820180821115610eed57610eed6122b7565b8082028115828204841417610eed57610eed6122b7565b60006020828403121561231c57600080fd5b5051919050565b60008261234057634e487b7160e01b600052601260045260246000fd5b500490565b600181811c9082168061235957607f821691505b60208210810361237957634e487b7160e01b600052602260045260246000fd5b50919050565b600060018201612391576123916122b7565b5060010190565b601f8211156119ef576000816000526020600020601f850160051c810160208610156123c15750805b601f850160051c820191505b81811015610c0b578281556001016123cd565b815167ffffffffffffffff8111156123fa576123fa611fcd565b61240e816124088454612345565b84612398565b602080601f831160018114612443576000841561242b5750858301515b600019600386901b1c1916600185901b178555610c0b565b600085815260208120601f198616915b8281101561247257888601518255948401946001909101908401612453565b50858210156124905787850151600019600388901b60f8161c191681555b5050505050600190811b01905550565b6080815260006124b360808301876120df565b6020830195909552506040810192909252606090910152919050565b600082516124e18184602087016120bb565b919091019291505056fe360894a13ba1a3210667c828492db98dca3e2076cc3735a920a3ca505d382bbc9b779b17422d0df92223018b32b4d1fa46e071723d6817e2486d003becc55f00a264697066735822122035a04fb1c6b0dc0caefff7f17c74284feae7a91b555a4969f47d54c20e1da24764736f6c63430008160033",
  "linkReferences": {},
  "deployedLinkReferences": {}
}