{"contracts/Leaderboard.sol":{"Leaderboard":{"abi":[{"inputs":[],"stateMutability":"nonpayable","type":"constructor"},{"inputs":[{"internalType":"address","name":"target","type":"address"}],"name":"AddressEmptyCode","type":"error"},{"inputs":[{"internalType":"address","name":"implementation","type":"address"}],"name":"ERC1967InvalidImplementation","type":"error"},{"inputs":[],"name":"ERC1967NonPayable","type":"error"},{"inputs":[],"name":"FailedCall","type":"error"},{"inputs":[],"name":"InvalidInitialization","type":"error"},{"inputs":[],"name":"NotInitializing","type":"error"},{"inputs":[{"internalType":"address","name":"owner","type":"address"}],"name":"OwnableInvalidOwner","type":"error"},{"inputs":[{"internalType":"address","name":"account","type":"address"}],"name":"OwnableUnauthorizedAccount","type":"error"},{"inputs":[],"name":"ReentrancyGuardReentrantCall","type":"error"},{"inputs":[],"name":"UUPSUnauthorizedCallContext","type":"error"},{"inputs":[{"internalType":"bytes32","name":"slot","type":"bytes32"}],"name":"UUPSUnsupportedProxiableUUID","type":"error"},{"anonymous":false,"inputs":[{"indexed":true,"internalType":"uint256","name":"battleId","type":"uint256"},{"indexed":true,"internalType":"address","name":"user","type":"address"},{"indexed":false,"internalType":"uint256","name":"score","type":"uint256"},{"indexed":false,"internalType":"uint256","name":"timestamp","type":"uint256"}],"name":"BattleScoreUpdated","type":"event"},{"anonymous":false,"inputs":[{"indexed":false,"internalType":"uint64","name":"version","type":"uint64"}],"name":"Initialized","type":"event"},{"anonymous":false,"inputs":[{"indexed":false,"internalType":"uint256","name":"timestamp","type":"uint256"}],"name":"LeaderboardUpdated","type":"event"},{"anonymous":false,"inputs":[{"indexed":true,"internalType":"address","name":"previousOwner","type":"address"},{"indexed":true,"internalType":"address","name":"newOwner","type":"address"}],"name":"OwnershipTransferred","type":"event"},{"anonymous":false,"inputs":[{"indexed":true,"internalType":"address","name":"user","type":"address"},{"indexed":false,"internalType":"uint256","name":"oldScore","type":"uint256"},{"indexed":false,"internalType":"uint256","name":"newScore","type":"uint256"},{"indexed":false,"internalType":"uint256","name":"timestamp","type":"uint256"}],"name":"ScoreUpdated","type":"event"},{"anonymous":false,"inputs":[{"indexed":true,"internalType":"address","name":"implementation","type":"address"}],"name":"Upgraded","type":"event"},{"anonymous":false,"inputs":[{"indexed":true,"internalType":"address","name":"user","type":"address"},{"indexed":false,"internalType":"uint256","name":"rank","type":"uint256"},{"indexed":false,"internalType":"uint256","name":"timestamp","type":"uint256"}],"name":"UserRanked","type":"event"},{"inputs":[],"name":"BATTLE_WEIGHT","outputs":[{"internalType":"uint256","name":"","type":"uint256"}],"stateMutability":"view","type":"function"},{"inputs":[],"name":"MAX_LEADERBOARD_SIZE","outputs":[{"internalType":"uint256","name":"","type":"uint256"}],"stateMutability":"view","type":"function"},{"inputs":[],"name":"REPUTATION_WEIGHT","outputs":[{"internalType":"uint256","name":"","type":"uint256"}],"stateMutability":"view","type":"function"},{"inputs":[],"name":"UPDATE_INTERVAL","outputs":[{"internalType":"uint256","name":"","type":"uint256"}],"stateMutability":"view","type":"function"},{"inputs":[],"name":"UPGRADE_INTERFACE_VERSION","outputs":[{"internalType":"string","name":"","type":"string"}],"stateMutability":"view","type":"function"},{"inputs":[],"name":"YIELD_WEIGHT","outputs":[{"internalType":"uint256","name":"","type":"uint256"}],"stateMutability":"view","type":"function"},{"inputs":[{"internalType":"uint256","name":"","type":"uint256"}],"name":"battleLeaderboards","outputs":[{"internalType":"uint256","name":"battleId","type":"uint256"},{"internalType":"bool","name":"isActive","type":"bool"}],"stateMutability":"view","type":"function"},{"inputs":[{"internalType":"address","name":"_user","type":"address"}],"name":"deactivateUser","outputs":[],"stateMutability":"nonpayable","type":"function"},{"inputs":[],"name":"forceUpdateAllScores","outputs":[],"stateMutability":"nonpayable","type":"function"},{"inputs":[{"internalType":"uint256","name":"_battleId","type":"uint256"}],"name":"getBattleLeaderboard","outputs":[{"internalType":"address[]","name":"users","type":"address[]"},{"internalType":"uint256[]","name":"scores","type":"uint256[]"}],"stateMutability":"view","type":"function"},{"inputs":[],"name":"getLeaderboardStats","outputs":[{"internalType":"uint256","name":"_totalUsers","type":"uint256"},{"internalType":"uint256","name":"_lastUpdateTime","type":"uint256"},{"internalType":"address","name":"_topUserAddress","type":"address"},{"internalType":"uint256","name":"_topUserScore","type":"uint256"}],"stateMutability":"view","type":"function"},{"inputs":[{"internalType":"uint256","name":"_count","type":"uint256"}],"name":"getTopUsers","outputs":[{"internalType":"address[]","name":"users","type":"address[]"},{"internalType":"uint256[]","name":"scores","type":"uint256[]"},{"internalType":"string[]","name":"usernames","type":"string[]"}],"stateMutability":"view","type":"function"},{"inputs":[{"internalType":"address","name":"_user","type":"address"},{"internalType":"uint256","name":"_battleId","type":"uint256"}],"name":"getUserBattleRank","outputs":[{"internalType":"uint256","name":"","type":"uint256"}],"stateMutability":"view","type":"function"},{"inputs":[{"internalType":"address","name":"_user","type":"address"}],"name":"getUserRank","outputs":[{"internalType":"uint256","name":"","type":"uint256"}],"stateMutability":"view","type":"function"},{"inputs":[{"internalType":"address","name":"_user","type":"address"}],"name":"getUserScoreDetails","outputs":[{"internalType":"uint256","name":"totalScore","type":"uint256"},{"internalType":"uint256","name":"yieldScore","type":"uint256"},{"internalType":"uint256","name":"battleScore","type":"uint256"},{"internalType":"uint256","name":"reputationScore","type":"uint256"},{"internalType":"uint256","name":"lastUpdated","type":"uint256"}],"stateMutability":"view","type":"function"},{"inputs":[{"internalType":"uint256","name":"_rank","type":"uint256"},{"internalType":"uint256","name":"_range","type":"uint256"}],"name":"getUsersAroundRank","outputs":[{"internalType":"address[]","name":"users","type":"address[]"},{"internalType":"uint256[]","name":"scores","type":"uint256[]"},{"internalType":"string[]","name":"usernames","type":"string[]"},{"internalType":"uint256[]","name":"ranks","type":"uint256[]"}],"stateMutability":"view","type":"function"},{"inputs":[{"internalType":"address","name":"_owner","type":"address"},{"internalType":"address","name":"_yieldVaultContract","type":"address"},{"internalType":"address","name":"_userProfileContract","type":"address"}],"name":"initialize","outputs":[],"stateMutability":"nonpayable","type":"function"},{"inputs":[{"internalType":"address","name":"","type":"address"}],"name":"isRegistered","outputs":[{"internalType":"bool","name":"","type":"bool"}],"stateMutability":"view","type":"function"},{"inputs":[],"name":"lastUpdateTime","outputs":[{"internalType":"uint256","name":"","type":"uint256"}],"stateMutability":"view","type":"function"},{"inputs":[],"name":"owner","outputs":[{"internalType":"address","name":"","type":"address"}],"stateMutability":"view","type":"function"},{"inputs":[],"name":"proxiableUUID","outputs":[{"internalType":"bytes32","name":"","type":"bytes32"}],"stateMutability":"view","type":"function"},{"inputs":[{"internalType":"uint256","name":"","type":"uint256"}],"name":"rankedUsers","outputs":[{"internalType":"address","name":"","type":"address"}],"stateMutability":"view","type":"function"},{"inputs":[{"internalType":"address","name":"_user","type":"address"},{"internalType":"string","name":"_username","type":"string"}],"name":"registerUser","outputs":[],"stateMutability":"nonpayable","type":"function"},{"inputs":[],"name":"renounceOwnership","outputs":[],"stateMutability":"nonpayable","type":"function"},{"inputs":[],"name":"totalUsers","outputs":[{"internalType":"uint256","name":"","type":"uint256"}],"stateMutability":"view","type":"function"},{"inputs":[{"internalType":"address","name":"newOwner","type":"address"}],"name":"transferOwnership","outputs":[],"stateMutability":"nonpayable","type":"function"},{"inputs":[{"internalType":"address","name":"_user","type":"address"},{"internalType":"uint256","name":"_battleId","type":"uint256"},{"internalType":"uint256","name":"_battleScore","type":"uint256"}],"name":"updateBattleScore","outputs":[],"stateMutability":"nonpayable","type":"function"},{"inputs":[{"internalType":"address","name":"_user","type":"address"},{"internalType":"uint256","name":"_reputationScore","type":"uint256"}],"name":"updateReputationScore","outputs":[],"stateMutability":"nonpayable","type":"function"},{"inputs":[{"internalType":"address","name":"_user","type":"address"},{"internalType":"uint256","name":"_yieldAmount","type":"uint256"},{"internalType":"uint256","name":"_depositAmount","type":"uint256"}],"name":"updateYieldScore","outputs":[],"stateMutability":"nonpayable","type":"function"},{"inputs":[{"internalType":"address","name":"newImplementation","type":"address"},{"internalType":"bytes","name":"data","type":"bytes"}],"name":"upgradeToAndCall","outputs":[],"stateMutability":"payable","type":"function"},{"inputs":[],"name":"userProfileContract","outputs":[{"internalType":"address","name":"","type":"address"}],"stateMutability":"view","type":"function"},{"inputs":[{"internalType":"address","name":"","type":"address"}],"name":"userScores","outputs":[{"internalType":"address","name":"user","type":"address"},{"internalType":"string","name":"username","type":"string"},{"internalType":"uint256","name":"totalScore","type":"uint256"},{"internalType":"uint256","name":"yieldScore","type":"uint256"},{"internalType":"uint256","name":"battleScore","type":"uint256"},{"internalType":"uint256","name":"reputationScore","type":"uint256"},{"internalType":"uint256","name":"lastUpdated","type":"uint256"},{"internalType":"bool","name":"isActive","type":"bool"}],"stateMutability":"view","type":"function"},{"inputs":[],"name":"yieldVaultContract","outputs":[{"internalType":"address","name":"","type":"address"}],"stateMutability":"view","type":"function"}],"evm":{"bytecode":{"linkReferences":{},"object":"60a0604052306080523480156200001557600080fd5b506200002062000026565b620000da565b7ff0c57e16840df040f15088dc2f81fe391c3923bec73e23a9662efc9c229c6a00805468010000000000000000900460ff1615620000775760405163f92ee8a960e01b815260040160405180910390fd5b80546001600160401b0390811614620000d75780546001600160401b0319166001600160401b0390811782556040519081527fc7f505b2f371ae2175ee4913f4499e1f2633a7b5936321eed1cdaeb6115181d29060200160405180910390a15b50565b608051612b9b6200010460003960008181611f1f01528181611f48015261208e0152612b9b6000f3fe6080604052600436106101ee5760003560e01c8063a078f8b71161010d578063cf4ce72b116100a0578063de75aa6c1161006f578063de75aa6c14610607578063f025b0f714610636578063f203f89b1461064b578063f2fde38b1461066b578063fa6335df1461068b57600080fd5b8063cf4ce72b146105a7578063d87014d1146105bc578063db877142146105dc578063dd8cd06c146105f257600080fd5b8063bff1f9e1116100dc578063bff1f9e11461051b578063c0c53b8b14610531578063c3c5a54714610551578063c8f33c911461059157600080fd5b8063a078f8b714610449578063a2da5e131461048d578063ad3cb1cc146104bd578063b2d1573f146104fb57600080fd5b806357578ce91161018557806389ac41471161015457806389ac4147146103b25780638da5cb5b146103c85780638e26a174146103dd5780638e4f96061461042957600080fd5b806357578ce914610315578063715018a6146103355780637d338fc41461034a578063808664321461039257600080fd5b8063273e30e5116101c1578063273e30e5146102aa57806340f21be1146102cd5780634f1ef286146102ed57806352d1902d1461030057600080fd5b80630ea126f9146101f35780631413d4c0146102155780631a47767b146102525780631c5f309914610272575b600080fd5b3480156101ff57600080fd5b5061021361020e366004612505565b6106b9565b005b34801561022157600080fd5b50610235610230366004612566565b6108fb565b6040516102499897969594939291906125d1565b60405180910390f35b34801561025e57600080fd5b5061021361026d366004612566565b6109d4565b34801561027e57600080fd5b50600554610292906001600160a01b031681565b6040516001600160a01b039091168152602001610249565b3480156102b657600080fd5b506102bf601981565b604051908152602001610249565b3480156102d957600080fd5b506102926102e836600461262b565b610b54565b6102136102fb366004612505565b610b7e565b34801561030c57600080fd5b506102bf610b9d565b34801561032157600080fd5b50610213610330366004612644565b610bba565b34801561034157600080fd5b50610213610c96565b34801561035657600080fd5b5061036a610365366004612566565b610caa565b604080519586526020860194909452928401919091526060830152608082015260a001610249565b34801561039e57600080fd5b506102136103ad366004612644565b610d2c565b3480156103be57600080fd5b506102bf610e1081565b3480156103d457600080fd5b50610292610edc565b3480156103e957600080fd5b506104146103f836600461262b565b6001602052600090815260409020805460049091015460ff1682565b60408051928352901515602083015201610249565b34801561043557600080fd5b50610213610444366004612677565b610f0a565b34801561045557600080fd5b5061045e610fbc565b604051610249949392919093845260208401929092526001600160a01b03166040830152606082015260800190565b34801561049957600080fd5b506104ad6104a83660046126a1565b61104d565b6040516102499493929190612793565b3480156104c957600080fd5b506104ee604051806040016040528060058152602001640352e302e360dc1b81525081565b60405161024991906127eb565b34801561050757600080fd5b506102bf610516366004612566565b61145b565b34801561052757600080fd5b506102bf60065481565b34801561053d57600080fd5b5061021361054c3660046127fe565b6114fa565b34801561055d57600080fd5b5061058161056c366004612566565b60026020526000908152604090205460ff1681565b6040519015158152602001610249565b34801561059d57600080fd5b506102bf60075481565b3480156105b357600080fd5b506102bf602381565b3480156105c857600080fd5b506102bf6105d7366004612677565b61163a565b3480156105e857600080fd5b506102bf6103e881565b3480156105fe57600080fd5b506102bf602881565b34801561061357600080fd5b5061062761062236600461262b565b611782565b60405161024993929190612841565b34801561064257600080fd5b50610213611a83565b34801561065757600080fd5b50600454610292906001600160a01b031681565b34801561067757600080fd5b50610213610686366004612566565b611ad9565b34801561069757600080fd5b506106ab6106a636600461262b565b611b14565b604051610249929190612884565b6106c1610edc565b6001600160a01b0316336001600160a01b031614806106ea57506005546001600160a01b031633145b61072a5760405162461bcd60e51b815260206004820152600c60248201526b155b985d5d1a1bdc9a5e995960a21b60448201526064015b60405180910390fd5b6001600160a01b03821660009081526002602052604090205460ff16156107935760405162461bcd60e51b815260206004820152601760248201527f5573657220616c726561647920726567697374657265640000000000000000006044820152606401610721565b60008151116107d75760405162461bcd60e51b815260206004820152601060248201526f496e76616c696420757365726e616d6560801b6044820152606401610721565b6001600160a01b038216600081815260208190526040902080546001600160a01b03191690911781556001810161080e8382612933565b50600060028281018290556003808401839055600484018390556005840183905542600680860191909155600785018054600160ff1991821681179092556001600160a01b03891680875260209590955260408620805490911682179055825490810183559184527fc2575a0e9e593c00f959f8c92f12db2869c3395a3b0502d05e2516446f71f85b90910180546001600160a01b0319169092179091558054916108b883612a08565b90915550506040805160008082526020820152428183015290516001600160a01b03851691600080516020612b46833981519152919081900360600190a2505050565b600060208190529081526040902080546001820180546001600160a01b039092169291610927906128a9565b80601f0160208091040260200160405190810160405280929190818152602001828054610953906128a9565b80156109a05780601f10610975576101008083540402835291602001916109a0565b820191906000526020600020905b81548152906001019060200180831161098357829003601f168201915b5050506002840154600385015460048601546005870154600688015460079098015496979396929550909350919060ff1688565b6109dc611cdb565b6001600160a01b03811660009081526002602052604090205460ff16610a145760405162461bcd60e51b815260040161072190612a21565b6001600160a01b0381166000908152602081905260408120600701805460ff191690555b600354811015610b3357816001600160a01b031660038281548110610a5f57610a5f612a4e565b6000918252602090912001546001600160a01b031603610b2b5760038054610a8990600190612a64565b81548110610a9957610a99612a4e565b600091825260209091200154600380546001600160a01b039092169183908110610ac557610ac5612a4e565b9060005260206000200160006101000a8154816001600160a01b0302191690836001600160a01b031602179055506003805480610b0457610b04612a77565b600082815260209020810160001990810180546001600160a01b0319169055019055610b33565b600101610a38565b5060068054906000610b4483612a8d565b9190505550610b51611d0d565b50565b60038181548110610b6457600080fd5b6000918252602090912001546001600160a01b0316905081565b610b86611f14565b610b8f82611fb9565b610b998282611fc1565b5050565b6000610ba7612083565b50600080516020612b2683398151915290565b610bc2611cdb565b6001600160a01b03831660009081526002602052604090205460ff16610bfa5760405162461bcd60e51b815260040161072190612a21565b6001600160a01b03831660009081526020819052604081206002810154909183610c25576000610c3c565b83610c3286612710612aa4565b610c3c9190612abb565b600384018190559050610c4e866120cc565b600283015460408051848152602081019290925242908201526001600160a01b03871690600080516020612b46833981519152906060015b60405180910390a2505050505050565b610c9e611cdb565b610ca86000612152565b565b6001600160a01b038116600090815260026020526040812054819081908190819060ff16610cea5760405162461bcd60e51b815260040161072190612a21565b505050506001600160a01b0391909116600090815260208190526040902060028101546003820154600483015460058401546006909401549295919450929190565b610d34611cdb565b6001600160a01b03831660009081526002602052604090205460ff16610d6c5760405162461bcd60e51b815260040161072190612a21565b6001600160a01b0383166000908152602081905260408120600281015460048201805492939192859290610da1908490612add565b909155505060008481526001602090815260408083206001600160a01b0389168452600281019092529091205460ff16610e2557600381018054600180820183556000928352602080842090920180546001600160a01b0319166001600160a01b038b169081179091558352600284019091526040909120805460ff191690911790555b6001600160a01b03861660009081526001808301602052604090912085905560048201805460ff19169091179055610e5c866120cc565b604080518581524260208201526001600160a01b0388169187917ea129c6e06bc3d2cc34092791597d28d944edab4167992fa890c2bb0794418c910160405180910390a3600283015460408051848152602081019290925242908201526001600160a01b03871690600080516020612b4683398151915290606001610c86565b7f9016d09d72d40fdae2fd8ceac6b6234c7706214fd39c1cd1e609a0528c199300546001600160a01b031690565b610f12611cdb565b6001600160a01b03821660009081526002602052604090205460ff16610f4a5760405162461bcd60e51b815260040161072190612a21565b6001600160a01b0382166000908152602081905260409020600281015460058201839055610f77846120cc565b600282015460408051838152602081019290925242908201526001600160a01b03851690600080516020612b468339815191529060600160405180910390a250505050565b60008060008060008060038054905011610fd7576000611001565b6003600081548110610feb57610feb612a4e565b6000918252602090912001546001600160a01b03165b905060006001600160a01b03821661101a576000611037565b6001600160a01b0382166000908152602081905260409020600201545b6006546007549098909750929550935090915050565b60608060608060008611801561106557506003548611155b6110a05760405162461bcd60e51b815260206004820152600c60248201526b496e76616c69642072616e6b60a01b6044820152606401610721565b600085116110e05760405162461bcd60e51b815260206004820152600d60248201526c496e76616c69642072616e676560981b6044820152606401610721565b60008587116110f05760016110fa565b6110fa8688612a64565b60035490915060009061110d888a612add565b116111215761111c8789612add565b611125565b6003545b905060006111338383612a64565b61113e906001612add565b9050806001600160401b038111156111585761115861247a565b604051908082528060200260200182016040528015611181578160200160208202803683370190505b509650806001600160401b0381111561119c5761119c61247a565b6040519080825280602002602001820160405280156111c5578160200160208202803683370190505b509550806001600160401b038111156111e0576111e061247a565b60405190808252806020026020018201604052801561121357816020015b60608152602001906001900390816111fe5790505b509450806001600160401b0381111561122e5761122e61247a565b604051908082528060200260200182016040528015611257578160200160208202803683370190505b50935060005b8181101561144e5760006112718286612add565b90506000611280600183612a64565b90506003818154811061129557611295612a4e565b9060005260206000200160009054906101000a90046001600160a01b03168a84815181106112c5576112c5612a4e565b60200260200101906001600160a01b031690816001600160a01b031681525050600080600383815481106112fb576112fb612a4e565b60009182526020808320909101546001600160a01b0316835282019290925260400190206002015489518a908590811061133757611337612a4e565b6020026020010181815250506000806003838154811061135957611359612a4e565b60009182526020808320909101546001600160a01b031683528201929092526040019020600101805461138b906128a9565b80601f01602080910402602001604051908101604052809291908181526020018280546113b7906128a9565b80156114045780601f106113d957610100808354040283529160200191611404565b820191906000526020600020905b8154815290600101906020018083116113e757829003601f168201915b505050505088848151811061141b5761141b612a4e565b60200260200101819052508187848151811061143957611439612a4e565b6020908102919091010152505060010161125d565b5050505092959194509250565b6001600160a01b03811660009081526002602052604081205460ff166114935760405162461bcd60e51b815260040161072190612a21565b60005b6003548110156114f157826001600160a01b0316600382815481106114bd576114bd612a4e565b6000918252602090912001546001600160a01b0316036114e9576114e2816001612add565b9392505050565b600101611496565b50600092915050565b60006115046121c3565b805490915060ff600160401b82041615906001600160401b031660008115801561152b5750825b90506000826001600160401b031660011480156115475750303b155b905081158015611555575080155b156115735760405163f92ee8a960e01b815260040160405180910390fd5b845467ffffffffffffffff19166001178555831561159d57845460ff60401b1916600160401b1785555b6115a6886121ec565b6115ae6121fd565b6115b6612205565b600480546001600160a01b03808a166001600160a01b031992831617909255600580549289169290911691909117905542600755831561163057845460ff60401b19168555604051600181527fc7f505b2f371ae2175ee4913f4499e1f2633a7b5936321eed1cdaeb6115181d29060200160405180910390a15b5050505050505050565b6000818152600160205260408120600481015460ff166116905760405162461bcd60e51b8152602060048201526011602482015270426174746c65206e6f742061637469766560781b6044820152606401610721565b6001600160a01b038416600090815260028201602052604090205460ff166116ef5760405162461bcd60e51b815260206004820152601260248201527155736572206e6f7420696e20626174746c6560701b6044820152606401610721565b6001600160a01b038416600090815260018083016020526040822054915b6003840154811015611776578284600101600086600301848154811061173557611735612a4e565b60009182526020808320909101546001600160a01b03168352820192909252604001902054111561176e578161176a81612a08565b9250505b60010161170d565b50925050505b92915050565b606080606060008411801561179957506103e88411155b6117d55760405162461bcd60e51b815260206004820152600d60248201526c125b9d985b1a590818dbdd5b9d609a1b6044820152606401610721565b60035460009085116117e757846117eb565b6003545b9050806001600160401b038111156118055761180561247a565b60405190808252806020026020018201604052801561182e578160200160208202803683370190505b509350806001600160401b038111156118495761184961247a565b604051908082528060200260200182016040528015611872578160200160208202803683370190505b509250806001600160401b0381111561188d5761188d61247a565b6040519080825280602002602001820160405280156118c057816020015b60608152602001906001900390816118ab5790505b50915060005b81811015611a7a57600381815481106118e1576118e1612a4e565b9060005260206000200160009054906101000a90046001600160a01b031685828151811061191157611911612a4e565b60200260200101906001600160a01b031690816001600160a01b0316815250506000806003838154811061194757611947612a4e565b60009182526020808320909101546001600160a01b03168352820192909252604001902060020154845185908390811061198357611983612a4e565b602002602001018181525050600080600383815481106119a5576119a5612a4e565b60009182526020808320909101546001600160a01b03168352820192909252604001902060010180546119d7906128a9565b80601f0160208091040260200160405190810160405280929190818152602001828054611a03906128a9565b8015611a505780601f10611a2557610100808354040283529160200191611a50565b820191906000526020600020905b815481529060010190602001808311611a3357829003601f168201915b5050505050838281518110611a6757611a67612a4e565b60209081029190910101526001016118c6565b50509193909250565b611a8b611cdb565b60005b600354811015611ad057611ac860038281548110611aae57611aae612a4e565b6000918252602090912001546001600160a01b03166120cc565b600101611a8e565b50610ca8611d0d565b611ae1611cdb565b6001600160a01b038116611b0b57604051631e4fbdf760e01b815260006004820152602401610721565b610b5181612152565b60008181526001602052604090206004810154606091829160ff16611b6f5760405162461bcd60e51b8152602060048201526011602482015270426174746c65206e6f742061637469766560781b6044820152606401610721565b6003810154806001600160401b03811115611b8c57611b8c61247a565b604051908082528060200260200182016040528015611bb5578160200160208202803683370190505b509350806001600160401b03811115611bd057611bd061247a565b604051908082528060200260200182016040528015611bf9578160200160208202803683370190505b50925060005b81811015611cd357826003018181548110611c1c57611c1c612a4e565b9060005260206000200160009054906101000a90046001600160a01b0316858281518110611c4c57611c4c612a4e565b60200260200101906001600160a01b031690816001600160a01b031681525050826001016000846003018381548110611c8757611c87612a4e565b60009182526020808320909101546001600160a01b031683528201929092526040019020548451859083908110611cc057611cc0612a4e565b6020908102919091010152600101611bff565b505050915091565b33611ce4610edc565b6001600160a01b031614610ca85760405163118cdaa760e01b8152336004820152602401610721565b60005b600354611d1f90600190612a64565b811015611ed85760005b600354600190611d3a908490612a64565b611d449190612a64565b811015611ecf576000806003611d5b846001612add565b81548110611d6b57611d6b612a4e565b60009182526020808320909101546001600160a01b031683528201929092526040018120600201546003805491929182919085908110611dad57611dad612a4e565b60009182526020808320909101546001600160a01b031683528201929092526040019020600201541015611ec757600060038281548110611df057611df0612a4e565b6000918252602090912001546001600160a01b031690506003611e14836001612add565b81548110611e2457611e24612a4e565b600091825260209091200154600380546001600160a01b039092169184908110611e5057611e50612a4e565b600091825260209091200180546001600160a01b0319166001600160a01b0392909216919091179055806003611e87846001612add565b81548110611e9757611e97612a4e565b9060005260206000200160006101000a8154816001600160a01b0302191690836001600160a01b03160217905550505b600101611d29565b50600101611d10565b504260078190556040519081527fc5f0fcb9532743fcf8bf92b049d6eb21320fab68a6a987da219d6d95b5b262c69060200160405180910390a1565b306001600160a01b037f0000000000000000000000000000000000000000000000000000000000000000161480611f9b57507f00000000000000000000000000000000000000000000000000000000000000006001600160a01b0316611f8f600080516020612b26833981519152546001600160a01b031690565b6001600160a01b031614155b15610ca85760405163703e46dd60e11b815260040160405180910390fd5b610b51611cdb565b816001600160a01b03166352d1902d6040518163ffffffff1660e01b8152600401602060405180830381865afa92505050801561201b575060408051601f3d908101601f1916820190925261201891810190612af0565b60015b61204357604051634c9c8ce360e01b81526001600160a01b0383166004820152602401610721565b600080516020612b26833981519152811461207457604051632a87526960e21b815260048101829052602401610721565b61207e8383612215565b505050565b306001600160a01b037f00000000000000000000000000000000000000000000000000000000000000001614610ca85760405163703e46dd60e11b815260040160405180910390fd5b6001600160a01b038116600090815260208190526040812060058101549091906064906120fb90601990612aa4565b6023846004015461210c9190612aa4565b6028856003015461211d9190612aa4565b6121279190612add565b6121319190612add565b61213b9190612abb565b60028301819055426006840155905061207e611d0d565b7f9016d09d72d40fdae2fd8ceac6b6234c7706214fd39c1cd1e609a0528c19930080546001600160a01b031981166001600160a01b03848116918217845560405192169182907f8be0079c531659141344cd1fd0a4f28419497f9722a3daafe3b4186f6b6457e090600090a3505050565b6000807ff0c57e16840df040f15088dc2f81fe391c3923bec73e23a9662efc9c229c6a0061177c565b6121f461226b565b610b5181612290565b610ca861226b565b61220d61226b565b610ca8612298565b61221e826122c6565b6040516001600160a01b038316907fbc7cd75a20ee27fd9adebab32041f755214dbc6bffa90cc0225b39da2e5c2d3b90600090a28051156122635761207e828261232b565b610b996123a1565b6122736123c0565b610ca857604051631afcd79f60e31b815260040160405180910390fd5b611ae161226b565b6122a061226b565b60017f9b779b17422d0df92223018b32b4d1fa46e071723d6817e2486d003becc55f0055565b806001600160a01b03163b6000036122fc57604051634c9c8ce360e01b81526001600160a01b0382166004820152602401610721565b600080516020612b2683398151915280546001600160a01b0319166001600160a01b0392909216919091179055565b6060600080846001600160a01b0316846040516123489190612b09565b600060405180830381855af49150503d8060008114612383576040519150601f19603f3d011682016040523d82523d6000602084013e612388565b606091505b50915091506123988583836123da565b95945050505050565b3415610ca85760405163b398979f60e01b815260040160405180910390fd5b60006123ca6121c3565b54600160401b900460ff16919050565b6060826123ef576123ea82612436565b6114e2565b815115801561240657506001600160a01b0384163b155b1561242f57604051639996b31560e01b81526001600160a01b0385166004820152602401610721565b5092915050565b80511561244557805160208201fd5b60405163d6bda27560e01b815260040160405180910390fd5b80356001600160a01b038116811461247557600080fd5b919050565b634e487b7160e01b600052604160045260246000fd5b60006001600160401b03808411156124aa576124aa61247a565b604051601f8501601f19908116603f011681019082821181831017156124d2576124d261247a565b816040528093508581528686860111156124eb57600080fd5b858560208301376000602087830101525050509392505050565b6000806040838503121561251857600080fd5b6125218361245e565b915060208301356001600160401b0381111561253c57600080fd5b8301601f8101851361254d57600080fd5b61255c85823560208401612490565b9150509250929050565b60006020828403121561257857600080fd5b6114e28261245e565b60005b8381101561259c578181015183820152602001612584565b50506000910152565b600081518084526125bd816020860160208601612581565b601f01601f19169290920160200192915050565b6001600160a01b0389168152610100602082018190526000906125f68382018b6125a5565b604084019990995250506060810195909552608085019390935260a084019190915260c0830152151560e09091015292915050565b60006020828403121561263d57600080fd5b5035919050565b60008060006060848603121561265957600080fd5b6126628461245e565b95602085013595506040909401359392505050565b6000806040838503121561268a57600080fd5b6126938361245e565b946020939093013593505050565b600080604083850312156126b457600080fd5b50508035926020909101359150565b60008151808452602080850194506020840160005b838110156126fd5781516001600160a01b0316875295820195908201906001016126d8565b509495945050505050565b60008151808452602080850194506020840160005b838110156126fd5781518752958201959082019060010161271d565b60008282518085526020808601955060208260051b8401016020860160005b8481101561278657601f198684030189526127748383516125a5565b98840198925090830190600101612758565b5090979650505050505050565b6080815260006127a660808301876126c3565b82810360208401526127b88187612708565b905082810360408401526127cc8186612739565b905082810360608401526127e08185612708565b979650505050505050565b6020815260006114e260208301846125a5565b60008060006060848603121561281357600080fd5b61281c8461245e565b925061282a6020850161245e565b91506128386040850161245e565b90509250925092565b60608152600061285460608301866126c3565b82810360208401526128668186612708565b9050828103604084015261287a8185612739565b9695505050505050565b60408152600061289760408301856126c3565b82810360208401526123988185612708565b600181811c908216806128bd57607f821691505b6020821081036128dd57634e487b7160e01b600052602260045260246000fd5b50919050565b601f82111561207e576000816000526020600020601f850160051c8101602086101561290c5750805b601f850160051c820191505b8181101561292b57828155600101612918565b505050505050565b81516001600160401b0381111561294c5761294c61247a565b6129608161295a84546128a9565b846128e3565b602080601f831160018114612995576000841561297d5750858301515b600019600386901b1c1916600185901b17855561292b565b600085815260208120601f198616915b828110156129c4578886015182559484019460019091019084016129a5565b50858210156129e25787850151600019600388901b60f8161c191681555b5050505050600190811b01905550565b634e487b7160e01b600052601160045260246000fd5b600060018201612a1a57612a1a6129f2565b5060010190565b602080825260139082015272155cd95c881b9bdd081c9959da5cdd195c9959606a1b604082015260600190565b634e487b7160e01b600052603260045260246000fd5b8181038181111561177c5761177c6129f2565b634e487b7160e01b600052603160045260246000fd5b600081612a9c57612a9c6129f2565b506000190190565b808202811582820484141761177c5761177c6129f2565b600082612ad857634e487b7160e01b600052601260045260246000fd5b500490565b8082018082111561177c5761177c6129f2565b600060208284031215612b0257600080fd5b5051919050565b60008251612b1b818460208701612581565b919091019291505056fe360894a13ba1a3210667c828492db98dca3e2076cc3735a920a3ca505d382bbc4e129cd592c4928775615d37d8f0f5a5e1257dec2f17b8b5fe34881b83b1cdc5a26469706673582212206840f9fd2013107ef874e0afbae57a3008f05bf36b11cd2fe519b7ea4895dfd664736f6c63430008160033","opcodes":"PUSH1 0xA0 PUSH1 0x40 MSTORE ADDRESS PUSH1 0x80 MSTORE CALLVALUE DUP1 ISZERO PUSH3 0x15 JUMPI PUSH1 0x0 DUP1 REVERT JUMPDEST POP PUSH3 0x20 PUSH3 0x26 JUMP JUMPDEST PUSH3 0xDA JUMP JUMPDEST PUSH32 0xF0C57E16840DF040F15088DC2F81FE391C3923BEC73E23A9662EFC9C229C6A00 DUP1 SLOAD PUSH9 0x10000000000000000 SWAP1 DIV PUSH1 0xFF AND ISZERO PUSH3 0x77 JUMPI PUSH1 0x40 MLOAD PUSH4 0xF92EE8A9 PUSH1 0xE0 SHL DUP2 MSTORE PUSH1 0x4 ADD PUSH1 0x40 MLOAD DUP1 SWAP2 SUB SWAP1 REVERT JUMPDEST DUP1 SLOAD PUSH1 0x1 PUSH1 0x1 PUSH1 0x40 SHL SUB SWAP1 DUP2 AND EQ PUSH3 0xD7 JUMPI DUP1 SLOAD PUSH1 0x1 PUSH1 0x1 PUSH1 0x40 SHL SUB NOT AND PUSH1 0x1 PUSH1 0x1 PUSH1 0x40 SHL SUB SWAP1 DUP2 OR DUP3 SSTORE PUSH1 0x40 MLOAD SWAP1 DUP2 MSTORE PUSH32 0xC7F505B2F371AE2175EE4913F4499E1F2633A7B5936321EED1CDAEB6115181D2 SWAP1 PUSH1 0x20 ADD PUSH1 0x40 MLOAD DUP1 SWAP2 SUB SWAP1 LOG1 JUMPDEST POP JUMP JUMPDEST PUSH1 0x80 MLOAD PUSH2 0x2B9B PUSH3 0x104 PUSH1 0x0 CODECOPY PUSH1 0x0 DUP2 DUP2 PUSH2 0x1F1F ADD MSTORE DUP2 DUP2 PUSH2 0x1F48 ADD MSTORE PUSH2 0x208E ADD MSTORE PUSH2 0x2B9B PUSH1 0x0 RETURN INVALID PUSH1 0x80 PUSH1 0x40 MSTORE PUSH1 0x4 CALLDATASIZE LT PUSH2 0x1EE JUMPI PUSH1 0x0 CALLDATALOAD PUSH1 0xE0 SHR DUP1 PUSH4 0xA078F8B7 GT PUSH2 0x10D JUMPI DUP1 PUSH4 0xCF4CE72B GT PUSH2 0xA0 JUMPI DUP1 PUSH4 0xDE75AA6C GT PUSH2 0x6F JUMPI DUP1 PUSH4 0xDE75AA6C EQ PUSH2 0x607 JUMPI DUP1 PUSH4 0xF025B0F7 EQ PUSH2 0x636 JUMPI DUP1 PUSH4 0xF203F89B EQ PUSH2 0x64B JUMPI DUP1 PUSH4 0xF2FDE38B EQ PUSH2 0x66B JUMPI DUP1 PUSH4 0xFA6335DF EQ PUSH2 0x68B JUMPI PUSH1 0x0 DUP1 REVERT JUMPDEST DUP1 PUSH4 0xCF4CE72B EQ PUSH2 0x5A7 JUMPI DUP1 PUSH4 0xD87014D1 EQ PUSH2 0x5BC JUMPI DUP1 PUSH4 0xDB877142 EQ PUSH2 0x5DC JUMPI DUP1 PUSH4 0xDD8CD06C EQ PUSH2 0x5F2 JUMPI PUSH1 0x0 DUP1 REVERT JUMPDEST DUP1 PUSH4 0xBFF1F9E1 GT PUSH2 0xDC JUMPI DUP1 PUSH4 0xBFF1F9E1 EQ PUSH2 0x51B JUMPI DUP1 PUSH4 0xC0C53B8B EQ PUSH2 0x531 JUMPI DUP1 PUSH4 0xC3C5A547 EQ PUSH2 0x551 JUMPI DUP1 PUSH4 0xC8F33C91 EQ PUSH2 0x591 JUMPI PUSH1 0x0 DUP1 REVERT JUMPDEST DUP1 PUSH4 0xA078F8B7 EQ PUSH2 0x449 JUMPI DUP1 PUSH4 0xA2DA5E13 EQ PUSH2 0x48D JUMPI DUP1 PUSH4 0xAD3CB1CC EQ PUSH2 0x4BD JUMPI DUP1 PUSH4 0xB2D1573F EQ PUSH2 0x4FB JUMPI PUSH1 0x0 DUP1 REVERT JUMPDEST DUP1 PUSH4 0x57578CE9 GT PUSH2 0x185 JUMPI DUP1 PUSH4 0x89AC4147 GT PUSH2 0x154 JUMPI DUP1 PUSH4 0x89AC4147 EQ PUSH2 0x3B2 JUMPI DUP1 PUSH4 0x8DA5CB5B EQ PUSH2 0x3C8 JUMPI DUP1 PUSH4 0x8E26A174 EQ PUSH2 0x3DD JUMPI DUP1 PUSH4 0x8E4F9606 EQ PUSH2 0x429 JUMPI PUSH1 0x0 DUP1 REVERT JUMPDEST DUP1 PUSH4 0x57578CE9 EQ PUSH2 0x315 JUMPI DUP1 PUSH4 0x715018A6 EQ PUSH2 0x335 JUMPI DUP1 PUSH4 0x7D338FC4 EQ PUSH2 0x34A JUMPI DUP1 PUSH4 0x80866432 EQ PUSH2 0x392 JUMPI PUSH1 0x0 DUP1 REVERT JUMPDEST DUP1 PUSH4 0x273E30E5 GT PUSH2 0x1C1 JUMPI DUP1 PUSH4 0x273E30E5 EQ PUSH2 0x2AA JUMPI DUP1 PUSH4 0x40F21BE1 EQ PUSH2 0x2CD JUMPI DUP1 PUSH4 0x4F1EF286 EQ PUSH2 0x2ED JUMPI DUP1 PUSH4 0x52D1902D EQ PUSH2 0x300 JUMPI PUSH1 0x0 DUP1 REVERT JUMPDEST DUP1 PUSH4 0xEA126F9 EQ PUSH2 0x1F3 JUMPI DUP1 PUSH4 0x1413D4C0 EQ PUSH2 0x215 JUMPI DUP1 PUSH4 0x1A47767B EQ PUSH2 0x252 JUMPI DUP1 PUSH4 0x1C5F3099 EQ PUSH2 0x272 JUMPI JUMPDEST PUSH1 0x0 DUP1 REVERT JUMPDEST CALLVALUE DUP1 ISZERO PUSH2 0x1FF JUMPI PUSH1 0x0 DUP1 REVERT JUMPDEST POP PUSH2 0x213 PUSH2 0x20E CALLDATASIZE PUSH1 0x4 PUSH2 0x2505 JUMP JUMPDEST PUSH2 0x6B9 JUMP JUMPDEST STOP JUMPDEST CALLVALUE DUP1 ISZERO PUSH2 0x221 JUMPI PUSH1 0x0 DUP1 REVERT JUMPDEST POP PUSH2 0x235 PUSH2 0x230 CALLDATASIZE PUSH1 0x4 PUSH2 0x2566 JUMP JUMPDEST PUSH2 0x8FB JUMP JUMPDEST PUSH1 0x40 MLOAD PUSH2 0x249 SWAP9 SWAP8 SWAP7 SWAP6 SWAP5 SWAP4 SWAP3 SWAP2 SWAP1 PUSH2 0x25D1 JUMP JUMPDEST PUSH1 0x40 MLOAD DUP1 SWAP2 SUB SWAP1 RETURN JUMPDEST CALLVALUE DUP1 ISZERO PUSH2 0x25E JUMPI PUSH1 0x0 DUP1 REVERT JUMPDEST POP PUSH2 0x213 PUSH2 0x26D CALLDATASIZE PUSH1 0x4 PUSH2 0x2566 JUMP JUMPDEST PUSH2 0x9D4 JUMP JUMPDEST CALLVALUE DUP1 ISZERO PUSH2 0x27E JUMPI PUSH1 0x0 DUP1 REVERT JUMPDEST POP PUSH1 0x5 SLOAD PUSH2 0x292 SWAP1 PUSH1 0x1 PUSH1 0x1 PUSH1 0xA0 SHL SUB AND DUP2 JUMP JUMPDEST PUSH1 0x40 MLOAD PUSH1 0x1 PUSH1 0x1 PUSH1 0xA0 SHL SUB SWAP1 SWAP2 AND DUP2 MSTORE PUSH1 0x20 ADD PUSH2 0x249 JUMP JUMPDEST CALLVALUE DUP1 ISZERO PUSH2 0x2B6 JUMPI PUSH1 0x0 DUP1 REVERT JUMPDEST POP PUSH2 0x2BF PUSH1 0x19 DUP2 JUMP JUMPDEST PUSH1 0x40 MLOAD SWAP1 DUP2 MSTORE PUSH1 0x20 ADD PUSH2 0x249 JUMP JUMPDEST CALLVALUE DUP1 ISZERO PUSH2 0x2D9 JUMPI PUSH1 0x0 DUP1 REVERT JUMPDEST POP PUSH2 0x292 PUSH2 0x2E8 CALLDATASIZE PUSH1 0x4 PUSH2 0x262B JUMP JUMPDEST PUSH2 0xB54 JUMP JUMPDEST PUSH2 0x213 PUSH2 0x2FB CALLDATASIZE PUSH1 0x4 PUSH2 0x2505 JUMP JUMPDEST PUSH2 0xB7E JUMP JUMPDEST CALLVALUE DUP1 ISZERO PUSH2 0x30C JUMPI PUSH1 0x0 DUP1 REVERT JUMPDEST POP PUSH2 0x2BF PUSH2 0xB9D JUMP JUMPDEST CALLVALUE DUP1 ISZERO PUSH2 0x321 JUMPI PUSH1 0x0 DUP1 REVERT JUMPDEST POP PUSH2 0x213 PUSH2 0x330 CALLDATASIZE PUSH1 0x4 PUSH2 0x2644 JUMP JUMPDEST PUSH2 0xBBA JUMP JUMPDEST CALLVALUE DUP1 ISZERO PUSH2 0x341 JUMPI PUSH1 0x0 DUP1 REVERT JUMPDEST POP PUSH2 0x213 PUSH2 0xC96 JUMP JUMPDEST CALLVALUE DUP1 ISZERO PUSH2 0x356 JUMPI PUSH1 0x0 DUP1 REVERT JUMPDEST POP PUSH2 0x36A PUSH2 0x365 CALLDATASIZE PUSH1 0x4 PUSH2 0x2566 JUMP JUMPDEST PUSH2 0xCAA JUMP JUMPDEST PUSH1 0x40 DUP1 MLOAD SWAP6 DUP7 MSTORE PUSH1 0x20 DUP7 ADD SWAP5 SWAP1 SWAP5 MSTORE SWAP3 DUP5 ADD SWAP2 SWAP1 SWAP2 MSTORE PUSH1 0x60 DUP4 ADD MSTORE PUSH1 0x80 DUP3 ADD MSTORE PUSH1 0xA0 ADD PUSH2 0x249 JUMP JUMPDEST CALLVALUE DUP1 ISZERO PUSH2 0x39E JUMPI PUSH1 0x0 DUP1 REVERT JUMPDEST POP PUSH2 0x213 PUSH2 0x3AD CALLDATASIZE PUSH1 0x4 PUSH2 0x2644 JUMP JUMPDEST PUSH2 0xD2C JUMP JUMPDEST CALLVALUE DUP1 ISZERO PUSH2 0x3BE JUMPI PUSH1 0x0 DUP1 REVERT JUMPDEST POP PUSH2 0x2BF PUSH2 0xE10 DUP2 JUMP JUMPDEST CALLVALUE DUP1 ISZERO PUSH2 0x3D4 JUMPI PUSH1 0x0 DUP1 REVERT JUMPDEST POP PUSH2 0x292 PUSH2 0xEDC JUMP JUMPDEST CALLVALUE DUP1 ISZERO PUSH2 0x3E9 JUMPI PUSH1 0x0 DUP1 REVERT JUMPDEST POP PUSH2 0x414 PUSH2 0x3F8 CALLDATASIZE PUSH1 0x4 PUSH2 0x262B JUMP JUMPDEST PUSH1 0x1 PUSH1 0x20 MSTORE PUSH1 0x0 SWAP1 DUP2 MSTORE PUSH1 0x40 SWAP1 KECCAK256 DUP1 SLOAD PUSH1 0x4 SWAP1 SWAP2 ADD SLOAD PUSH1 0xFF AND DUP3 JUMP JUMPDEST PUSH1 0x40 DUP1 MLOAD SWAP3 DUP4 MSTORE SWAP1 ISZERO ISZERO PUSH1 0x20 DUP4 ADD MSTORE ADD PUSH2 0x249 JUMP JUMPDEST CALLVALUE DUP1 ISZERO PUSH2 0x435 JUMPI PUSH1 0x0 DUP1 REVERT JUMPDEST POP PUSH2 0x213 PUSH2 0x444 CALLDATASIZE PUSH1 0x4 PUSH2 0x2677 JUMP JUMPDEST PUSH2 0xF0A JUMP JUMPDEST CALLVALUE DUP1 ISZERO PUSH2 0x455 JUMPI PUSH1 0x0 DUP1 REVERT JUMPDEST POP PUSH2 0x45E PUSH2 0xFBC JUMP JUMPDEST PUSH1 0x40 MLOAD PUSH2 0x249 SWAP5 SWAP4 SWAP3 SWAP2 SWAP1 SWAP4 DUP5 MSTORE PUSH1 0x20 DUP5 ADD SWAP3 SWAP1 SWAP3 MSTORE PUSH1 0x1 PUSH1 0x1 PUSH1 0xA0 SHL SUB AND PUSH1 0x40 DUP4 ADD MSTORE PUSH1 0x60 DUP3 ADD MSTORE PUSH1 0x80 ADD SWAP1 JUMP JUMPDEST CALLVALUE DUP1 ISZERO PUSH2 0x499 JUMPI PUSH1 0x0 DUP1 REVERT JUMPDEST POP PUSH2 0x4AD PUSH2 0x4A8 CALLDATASIZE PUSH1 0x4 PUSH2 0x26A1 JUMP JUMPDEST PUSH2 0x104D JUMP JUMPDEST PUSH1 0x40 MLOAD PUSH2 0x249 SWAP5 SWAP4 SWAP3 SWAP2 SWAP1 PUSH2 0x2793 JUMP JUMPDEST CALLVALUE DUP1 ISZERO PUSH2 0x4C9 JUMPI PUSH1 0x0 DUP1 REVERT JUMPDEST POP PUSH2 0x4EE PUSH1 0x40 MLOAD DUP1 PUSH1 0x40 ADD PUSH1 0x40 MSTORE DUP1 PUSH1 0x5 DUP2 MSTORE PUSH1 0x20 ADD PUSH5 0x352E302E3 PUSH1 0xDC SHL DUP2 MSTORE POP DUP2 JUMP JUMPDEST PUSH1 0x40 MLOAD PUSH2 0x249 SWAP2 SWAP1 PUSH2 0x27EB JUMP JUMPDEST CALLVALUE DUP1 ISZERO PUSH2 0x507 JUMPI PUSH1 0x0 DUP1 REVERT JUMPDEST POP PUSH2 0x2BF PUSH2 0x516 CALLDATASIZE PUSH1 0x4 PUSH2 0x2566 JUMP JUMPDEST PUSH2 0x145B JUMP JUMPDEST CALLVALUE DUP1 ISZERO PUSH2 0x527 JUMPI PUSH1 0x0 DUP1 REVERT JUMPDEST POP PUSH2 0x2BF PUSH1 0x6 SLOAD DUP2 JUMP JUMPDEST CALLVALUE DUP1 ISZERO PUSH2 0x53D JUMPI PUSH1 0x0 DUP1 REVERT JUMPDEST POP PUSH2 0x213 PUSH2 0x54C CALLDATASIZE PUSH1 0x4 PUSH2 0x27FE JUMP JUMPDEST PUSH2 0x14FA JUMP JUMPDEST CALLVALUE DUP1 ISZERO PUSH2 0x55D JUMPI PUSH1 0x0 DUP1 REVERT JUMPDEST POP PUSH2 0x581 PUSH2 0x56C CALLDATASIZE PUSH1 0x4 PUSH2 0x2566 JUMP JUMPDEST PUSH1 0x2 PUSH1 0x20 MSTORE PUSH1 0x0 SWAP1 DUP2 MSTORE PUSH1 0x40 SWAP1 KECCAK256 SLOAD PUSH1 0xFF AND DUP2 JUMP JUMPDEST PUSH1 0x40 MLOAD SWAP1 ISZERO ISZERO DUP2 MSTORE PUSH1 0x20 ADD PUSH2 0x249 JUMP JUMPDEST CALLVALUE DUP1 ISZERO PUSH2 0x59D JUMPI PUSH1 0x0 DUP1 REVERT JUMPDEST POP PUSH2 0x2BF PUSH1 0x7 SLOAD DUP2 JUMP JUMPDEST CALLVALUE DUP1 ISZERO PUSH2 0x5B3 JUMPI PUSH1 0x0 DUP1 REVERT JUMPDEST POP PUSH2 0x2BF PUSH1 0x23 DUP2 JUMP JUMPDEST CALLVALUE DUP1 ISZERO PUSH2 0x5C8 JUMPI PUSH1 0x0 DUP1 REVERT JUMPDEST POP PUSH2 0x2BF PUSH2 0x5D7 CALLDATASIZE PUSH1 0x4 PUSH2 0x2677 JUMP JUMPDEST PUSH2 0x163A JUMP JUMPDEST CALLVALUE DUP1 ISZERO PUSH2 0x5E8 JUMPI PUSH1 0x0 DUP1 REVERT JUMPDEST POP PUSH2 0x2BF PUSH2 0x3E8 DUP2 JUMP JUMPDEST CALLVALUE DUP1 ISZERO PUSH2 0x5FE JUMPI PUSH1 0x0 DUP1 REVERT JUMPDEST POP PUSH2 0x2BF PUSH1 0x28 DUP2 JUMP JUMPDEST CALLVALUE DUP1 ISZERO PUSH2 0x613 JUMPI PUSH1 0x0 DUP1 REVERT JUMPDEST POP PUSH2 0x627 PUSH2 0x622 CALLDATASIZE PUSH1 0x4 PUSH2 0x262B JUMP JUMPDEST PUSH2 0x1782 JUMP JUMPDEST PUSH1 0x40 MLOAD PUSH2 0x249 SWAP4 SWAP3 SWAP2 SWAP1 PUSH2 0x2841 JUMP JUMPDEST CALLVALUE DUP1 ISZERO PUSH2 0x642 JUMPI PUSH1 0x0 DUP1 REVERT JUMPDEST POP PUSH2 0x213 PUSH2 0x1A83 JUMP JUMPDEST CALLVALUE DUP1 ISZERO PUSH2 0x657 JUMPI PUSH1 0x0 DUP1 REVERT JUMPDEST POP PUSH1 0x4 SLOAD PUSH2 0x292 SWAP1 PUSH1 0x1 PUSH1 0x1 PUSH1 0xA0 SHL SUB AND DUP2 JUMP JUMPDEST CALLVALUE DUP1 ISZERO PUSH2 0x677 JUMPI PUSH1 0x0 DUP1 REVERT JUMPDEST POP PUSH2 0x213 PUSH2 0x686 CALLDATASIZE PUSH1 0x4 PUSH2 0x2566 JUMP JUMPDEST PUSH2 0x1AD9 JUMP JUMPDEST CALLVALUE DUP1 ISZERO PUSH2 0x697 JUMPI PUSH1 0x0 DUP1 REVERT JUMPDEST POP PUSH2 0x6AB PUSH2 0x6A6 CALLDATASIZE PUSH1 0x4 PUSH2 0x262B JUMP JUMPDEST PUSH2 0x1B14 JUMP JUMPDEST PUSH1 0x40 MLOAD PUSH2 0x249 SWAP3 SWAP2 SWAP1 PUSH2 0x2884 JUMP JUMPDEST PUSH2 0x6C1 PUSH2 0xEDC JUMP JUMPDEST PUSH1 0x1 PUSH1 0x1 PUSH1 0xA0 SHL SUB AND CALLER PUSH1 0x1 PUSH1 0x1 PUSH1 0xA0 SHL SUB AND EQ DUP1 PUSH2 0x6EA JUMPI POP PUSH1 0x5 SLOAD PUSH1 0x1 PUSH1 0x1 PUSH1 0xA0 SHL SUB AND CALLER EQ JUMPDEST PUSH2 0x72A JUMPI PUSH1 0x40 MLOAD PUSH3 0x461BCD PUSH1 0xE5 SHL DUP2 MSTORE PUSH1 0x20 PUSH1 0x4 DUP3 ADD MSTORE PUSH1 0xC PUSH1 0x24 DUP3 ADD MSTORE PUSH12 0x155B985D5D1A1BDC9A5E9959 PUSH1 0xA2 SHL PUSH1 0x44 DUP3 ADD MSTORE PUSH1 0x64 ADD JUMPDEST PUSH1 0x40 MLOAD DUP1 SWAP2 SUB SWAP1 REVERT JUMPDEST PUSH1 0x1 PUSH1 0x1 PUSH1 0xA0 SHL SUB DUP3 AND PUSH1 0x0 SWAP1 DUP2 MSTORE PUSH1 0x2 PUSH1 0x20 MSTORE PUSH1 0x40 SWAP1 KECCAK256 SLOAD PUSH1 0xFF AND ISZERO PUSH2 0x793 JUMPI PUSH1 0x40 MLOAD PUSH3 0x461BCD PUSH1 0xE5 SHL DUP2 MSTORE PUSH1 0x20 PUSH1 0x4 DUP3 ADD MSTORE PUSH1 0x17 PUSH1 0x24 DUP3 ADD MSTORE PUSH32 0x5573657220616C72656164792072656769737465726564000000000000000000 PUSH1 0x44 DUP3 ADD MSTORE PUSH1 0x64 ADD PUSH2 0x721 JUMP JUMPDEST PUSH1 0x0 DUP2 MLOAD GT PUSH2 0x7D7 JUMPI PUSH1 0x40 MLOAD PUSH3 0x461BCD PUSH1 0xE5 SHL DUP2 MSTORE PUSH1 0x20 PUSH1 0x4 DUP3 ADD MSTORE PUSH1 0x10 PUSH1 0x24 DUP3 ADD MSTORE PUSH16 0x496E76616C696420757365726E616D65 PUSH1 0x80 SHL PUSH1 0x44 DUP3 ADD MSTORE PUSH1 0x64 ADD PUSH2 0x721 JUMP JUMPDEST PUSH1 0x1 PUSH1 0x1 PUSH1 0xA0 SHL SUB DUP3 AND PUSH1 0x0 DUP2 DUP2 MSTORE PUSH1 0x20 DUP2 SWAP1 MSTORE PUSH1 0x40 SWAP1 KECCAK256 DUP1 SLOAD PUSH1 0x1 PUSH1 0x1 PUSH1 0xA0 SHL SUB NOT AND SWAP1 SWAP2 OR DUP2 SSTORE PUSH1 0x1 DUP2 ADD PUSH2 0x80E DUP4 DUP3 PUSH2 0x2933 JUMP JUMPDEST POP PUSH1 0x0 PUSH1 0x2 DUP3 DUP2 ADD DUP3 SWAP1 SSTORE PUSH1 0x3 DUP1 DUP5 ADD DUP4 SWAP1 SSTORE PUSH1 0x4 DUP5 ADD DUP4 SWAP1 SSTORE PUSH1 0x5 DUP5 ADD DUP4 SWAP1 SSTORE TIMESTAMP PUSH1 0x6 DUP1 DUP7 ADD SWAP2 SWAP1 SWAP2 SSTORE PUSH1 0x7 DUP6 ADD DUP1 SLOAD PUSH1 0x1 PUSH1 0xFF NOT SWAP2 DUP3 AND DUP2 OR SWAP1 SWAP3 SSTORE PUSH1 0x1 PUSH1 0x1 PUSH1 0xA0 SHL SUB DUP10 AND DUP1 DUP8 MSTORE PUSH1 0x20 SWAP6 SWAP1 SWAP6 MSTORE PUSH1 0x40 DUP7 KECCAK256 DUP1 SLOAD SWAP1 SWAP2 AND DUP3 OR SWAP1 SSTORE DUP3 SLOAD SWAP1 DUP2 ADD DUP4 SSTORE SWAP2 DUP5 MSTORE PUSH32 0xC2575A0E9E593C00F959F8C92F12DB2869C3395A3B0502D05E2516446F71F85B SWAP1 SWAP2 ADD DUP1 SLOAD PUSH1 0x1 PUSH1 0x1 PUSH1 0xA0 SHL SUB NOT AND SWAP1 SWAP3 OR SWAP1 SWAP2 SSTORE DUP1 SLOAD SWAP2 PUSH2 0x8B8 DUP4 PUSH2 0x2A08 JUMP JUMPDEST SWAP1 SWAP2 SSTORE POP POP PUSH1 0x40 DUP1 MLOAD PUSH1 0x0 DUP1 DUP3 MSTORE PUSH1 0x20 DUP3 ADD MSTORE TIMESTAMP DUP2 DUP4 ADD MSTORE SWAP1 MLOAD PUSH1 0x1 PUSH1 0x1 PUSH1 0xA0 SHL SUB DUP6 AND SWAP2 PUSH1 0x0 DUP1 MLOAD PUSH1 0x20 PUSH2 0x2B46 DUP4 CODECOPY DUP2 MLOAD SWAP2 MSTORE SWAP2 SWAP1 DUP2 SWAP1 SUB PUSH1 0x60 ADD SWAP1 LOG2 POP POP POP JUMP JUMPDEST PUSH1 0x0 PUSH1 0x20 DUP2 SWAP1 MSTORE SWAP1 DUP2 MSTORE PUSH1 0x40 SWAP1 KECCAK256 DUP1 SLOAD PUSH1 0x1 DUP3 ADD DUP1 SLOAD PUSH1 0x1 PUSH1 0x1 PUSH1 0xA0 SHL SUB SWAP1 SWAP3 AND SWAP3 SWAP2 PUSH2 0x927 SWAP1 PUSH2 0x28A9 JUMP JUMPDEST DUP1 PUSH1 0x1F ADD PUSH1 0x20 DUP1 SWAP2 DIV MUL PUSH1 0x20 ADD PUSH1 0x40 MLOAD SWAP1 DUP2 ADD PUSH1 0x40 MSTORE DUP1 SWAP3 SWAP2 SWAP1 DUP2 DUP2 MSTORE PUSH1 0x20 ADD DUP3 DUP1 SLOAD PUSH2 0x953 SWAP1 PUSH2 0x28A9 JUMP JUMPDEST DUP1 ISZERO PUSH2 0x9A0 JUMPI DUP1 PUSH1 0x1F LT PUSH2 0x975 JUMPI PUSH2 0x100 DUP1 DUP4 SLOAD DIV MUL DUP4 MSTORE SWAP2 PUSH1 0x20 ADD SWAP2 PUSH2 0x9A0 JUMP JUMPDEST DUP3 ADD SWAP2 SWAP1 PUSH1 0x0 MSTORE PUSH1 0x20 PUSH1 0x0 KECCAK256 SWAP1 JUMPDEST DUP2 SLOAD DUP2 MSTORE SWAP1 PUSH1 0x1 ADD SWAP1 PUSH1 0x20 ADD DUP1 DUP4 GT PUSH2 0x983 JUMPI DUP3 SWAP1 SUB PUSH1 0x1F AND DUP3 ADD SWAP2 JUMPDEST POP POP POP PUSH1 0x2 DUP5 ADD SLOAD PUSH1 0x3 DUP6 ADD SLOAD PUSH1 0x4 DUP7 ADD SLOAD PUSH1 0x5 DUP8 ADD SLOAD PUSH1 0x6 DUP9 ADD SLOAD PUSH1 0x7 SWAP1 SWAP9 ADD SLOAD SWAP7 SWAP8 SWAP4 SWAP7 SWAP3 SWAP6 POP SWAP1 SWAP4 POP SWAP2 SWAP1 PUSH1 0xFF AND DUP9 JUMP JUMPDEST PUSH2 0x9DC PUSH2 0x1CDB JUMP JUMPDEST PUSH1 0x1 PUSH1 0x1 PUSH1 0xA0 SHL SUB DUP2 AND PUSH1 0x0 SWAP1 DUP2 MSTORE PUSH1 0x2 PUSH1 0x20 MSTORE PUSH1 0x40 SWAP1 KECCAK256 SLOAD PUSH1 0xFF AND PUSH2 0xA14 JUMPI PUSH1 0x40 MLOAD PUSH3 0x461BCD PUSH1 0xE5 SHL DUP2 MSTORE PUSH1 0x4 ADD PUSH2 0x721 SWAP1 PUSH2 0x2A21 JUMP JUMPDEST PUSH1 0x1 PUSH1 0x1 PUSH1 0xA0 SHL SUB DUP2 AND PUSH1 0x0 SWAP1 DUP2 MSTORE PUSH1 0x20 DUP2 SWAP1 MSTORE PUSH1 0x40 DUP2 KECCAK256 PUSH1 0x7 ADD DUP1 SLOAD PUSH1 0xFF NOT AND SWAP1 SSTORE JUMPDEST PUSH1 0x3 SLOAD DUP2 LT ISZERO PUSH2 0xB33 JUMPI DUP2 PUSH1 0x1 PUSH1 0x1 PUSH1 0xA0 SHL SUB AND PUSH1 0x3 DUP3 DUP2 SLOAD DUP2 LT PUSH2 0xA5F JUMPI PUSH2 0xA5F PUSH2 0x2A4E JUMP JUMPDEST PUSH1 0x0 SWAP2 DUP3 MSTORE PUSH1 0x20 SWAP1 SWAP2 KECCAK256 ADD SLOAD PUSH1 0x1 PUSH1 0x1 PUSH1 0xA0 SHL SUB AND SUB PUSH2 0xB2B JUMPI PUSH1 0x3 DUP1 SLOAD PUSH2 0xA89 SWAP1 PUSH1 0x1 SWAP1 PUSH2 0x2A64 JUMP JUMPDEST DUP2 SLOAD DUP2 LT PUSH2 0xA99 JUMPI PUSH2 0xA99 PUSH2 0x2A4E JUMP JUMPDEST PUSH1 0x0 SWAP2 DUP3 MSTORE PUSH1 0x20 SWAP1 SWAP2 KECCAK256 ADD SLOAD PUSH1 0x3 DUP1 SLOAD PUSH1 0x1 PUSH1 0x1 PUSH1 0xA0 SHL SUB SWAP1 SWAP3 AND SWAP2 DUP4 SWAP1 DUP2 LT PUSH2 0xAC5 JUMPI PUSH2 0xAC5 PUSH2 0x2A4E JUMP JUMPDEST SWAP1 PUSH1 0x0 MSTORE PUSH1 0x20 PUSH1 0x0 KECCAK256 ADD PUSH1 0x0 PUSH2 0x100 EXP DUP2 SLOAD DUP2 PUSH1 0x1 PUSH1 0x1 PUSH1 0xA0 SHL SUB MUL NOT AND SWAP1 DUP4 PUSH1 0x1 PUSH1 0x1 PUSH1 0xA0 SHL SUB AND MUL OR SWAP1 SSTORE POP PUSH1 0x3 DUP1 SLOAD DUP1 PUSH2 0xB04 JUMPI PUSH2 0xB04 PUSH2 0x2A77 JUMP JUMPDEST PUSH1 0x0 DUP3 DUP2 MSTORE PUSH1 0x20 SWAP1 KECCAK256 DUP2 ADD PUSH1 0x0 NOT SWAP1 DUP2 ADD DUP1 SLOAD PUSH1 0x1 PUSH1 0x1 PUSH1 0xA0 SHL SUB NOT AND SWAP1 SSTORE ADD SWAP1 SSTORE PUSH2 0xB33 JUMP JUMPDEST PUSH1 0x1 ADD PUSH2 0xA38 JUMP JUMPDEST POP PUSH1 0x6 DUP1 SLOAD SWAP1 PUSH1 0x0 PUSH2 0xB44 DUP4 PUSH2 0x2A8D JUMP JUMPDEST SWAP2 SWAP1 POP SSTORE POP PUSH2 0xB51 PUSH2 0x1D0D JUMP JUMPDEST POP JUMP JUMPDEST PUSH1 0x3 DUP2 DUP2 SLOAD DUP2 LT PUSH2 0xB64 JUMPI PUSH1 0x0 DUP1 REVERT JUMPDEST PUSH1 0x0 SWAP2 DUP3 MSTORE PUSH1 0x20 SWAP1 SWAP2 KECCAK256 ADD SLOAD PUSH1 0x1 PUSH1 0x1 PUSH1 0xA0 SHL SUB AND SWAP1 POP DUP2 JUMP JUMPDEST PUSH2 0xB86 PUSH2 0x1F14 JUMP JUMPDEST PUSH2 0xB8F DUP3 PUSH2 0x1FB9 JUMP JUMPDEST PUSH2 0xB99 DUP3 DUP3 PUSH2 0x1FC1 JUMP JUMPDEST POP POP JUMP JUMPDEST PUSH1 0x0 PUSH2 0xBA7 PUSH2 0x2083 JUMP JUMPDEST POP PUSH1 0x0 DUP1 MLOAD PUSH1 0x20 PUSH2 0x2B26 DUP4 CODECOPY DUP2 MLOAD SWAP2 MSTORE SWAP1 JUMP JUMPDEST PUSH2 0xBC2 PUSH2 0x1CDB JUMP JUMPDEST PUSH1 0x1 PUSH1 0x1 PUSH1 0xA0 SHL SUB DUP4 AND PUSH1 0x0 SWAP1 DUP2 MSTORE PUSH1 0x2 PUSH1 0x20 MSTORE PUSH1 0x40 SWAP1 KECCAK256 SLOAD PUSH1 0xFF AND PUSH2 0xBFA JUMPI PUSH1 0x40 MLOAD PUSH3 0x461BCD PUSH1 0xE5 SHL DUP2 MSTORE PUSH1 0x4 ADD PUSH2 0x721 SWAP1 PUSH2 0x2A21 JUMP JUMPDEST PUSH1 0x1 PUSH1 0x1 PUSH1 0xA0 SHL SUB DUP4 AND PUSH1 0x0 SWAP1 DUP2 MSTORE PUSH1 0x20 DUP2 SWAP1 MSTORE PUSH1 0x40 DUP2 KECCAK256 PUSH1 0x2 DUP2 ADD SLOAD SWAP1 SWAP2 DUP4 PUSH2 0xC25 JUMPI PUSH1 0x0 PUSH2 0xC3C JUMP JUMPDEST DUP4 PUSH2 0xC32 DUP7 PUSH2 0x2710 PUSH2 0x2AA4 JUMP JUMPDEST PUSH2 0xC3C SWAP2 SWAP1 PUSH2 0x2ABB JUMP JUMPDEST PUSH1 0x3 DUP5 ADD DUP2 SWAP1 SSTORE SWAP1 POP PUSH2 0xC4E DUP7 PUSH2 0x20CC JUMP JUMPDEST PUSH1 0x2 DUP4 ADD SLOAD PUSH1 0x40 DUP1 MLOAD DUP5 DUP2 MSTORE PUSH1 0x20 DUP2 ADD SWAP3 SWAP1 SWAP3 MSTORE TIMESTAMP SWAP1 DUP3 ADD MSTORE PUSH1 0x1 PUSH1 0x1 PUSH1 0xA0 SHL SUB DUP8 AND SWAP1 PUSH1 0x0 DUP1 MLOAD PUSH1 0x20 PUSH2 0x2B46 DUP4 CODECOPY DUP2 MLOAD SWAP2 MSTORE SWAP1 PUSH1 0x60 ADD JUMPDEST PUSH1 0x40 MLOAD DUP1 SWAP2 SUB SWAP1 LOG2 POP POP POP POP POP POP JUMP JUMPDEST PUSH2 0xC9E PUSH2 0x1CDB JUMP JUMPDEST PUSH2 0xCA8 PUSH1 0x0 PUSH2 0x2152 JUMP JUMPDEST JUMP JUMPDEST PUSH1 0x1 PUSH1 0x1 PUSH1 0xA0 SHL SUB DUP2 AND PUSH1 0x0 SWAP1 DUP2 MSTORE PUSH1 0x2 PUSH1 0x20 MSTORE PUSH1 0x40 DUP2 KECCAK256 SLOAD DUP2 SWAP1 DUP2 SWAP1 DUP2 SWAP1 DUP2 SWAP1 PUSH1 0xFF AND PUSH2 0xCEA JUMPI PUSH1 0x40 MLOAD PUSH3 0x461BCD PUSH1 0xE5 SHL DUP2 MSTORE PUSH1 0x4 ADD PUSH2 0x721 SWAP1 PUSH2 0x2A21 JUMP JUMPDEST POP POP POP POP PUSH1 0x1 PUSH1 0x1 PUSH1 0xA0 SHL SUB SWAP2 SWAP1 SWAP2 AND PUSH1 0x0 SWAP1 DUP2 MSTORE PUSH1 0x20 DUP2 SWAP1 MSTORE PUSH1 0x40 SWAP1 KECCAK256 PUSH1 0x2 DUP2 ADD SLOAD PUSH1 0x3 DUP3 ADD SLOAD PUSH1 0x4 DUP4 ADD SLOAD PUSH1 0x5 DUP5 ADD SLOAD PUSH1 0x6 SWAP1 SWAP5 ADD SLOAD SWAP3 SWAP6 SWAP2 SWAP5 POP SWAP3 SWAP2 SWAP1 JUMP JUMPDEST PUSH2 0xD34 PUSH2 0x1CDB JUMP JUMPDEST PUSH1 0x1 PUSH1 0x1 PUSH1 0xA0 SHL SUB DUP4 AND PUSH1 0x0 SWAP1 DUP2 MSTORE PUSH1 0x2 PUSH1 0x20 MSTORE PUSH1 0x40 SWAP1 KECCAK256 SLOAD PUSH1 0xFF AND PUSH2 0xD6C JUMPI PUSH1 0x40 MLOAD PUSH3 0x461BCD PUSH1 0xE5 SHL DUP2 MSTORE PUSH1 0x4 ADD PUSH2 0x721 SWAP1 PUSH2 0x2A21 JUMP JUMPDEST PUSH1 0x1 PUSH1 0x1 PUSH1 0xA0 SHL SUB DUP4 AND PUSH1 0x0 SWAP1 DUP2 MSTORE PUSH1 0x20 DUP2 SWAP1 MSTORE PUSH1 0x40 DUP2 KECCAK256 PUSH1 0x2 DUP2 ADD SLOAD PUSH1 0x4 DUP3 ADD DUP1 SLOAD SWAP3 SWAP4 SWAP2 SWAP3 DUP6 SWAP3 SWAP1 PUSH2 0xDA1 SWAP1 DUP5 SWAP1 PUSH2 0x2ADD JUMP JUMPDEST SWAP1 SWAP2 SSTORE POP POP PUSH1 0x0 DUP5 DUP2 MSTORE PUSH1 0x1 PUSH1 0x20 SWAP1 DUP2 MSTORE PUSH1 0x40 DUP1 DUP4 KECCAK256 PUSH1 0x1 PUSH1 0x1 PUSH1 0xA0 SHL SUB DUP10 AND DUP5 MSTORE PUSH1 0x2 DUP2 ADD SWAP1 SWAP3 MSTORE SWAP1 SWAP2 KECCAK256 SLOAD PUSH1 0xFF AND PUSH2 0xE25 JUMPI PUSH1 0x3 DUP2 ADD DUP1 SLOAD PUSH1 0x1 DUP1 DUP3 ADD DUP4 SSTORE PUSH1 0x0 SWAP3 DUP4 MSTORE PUSH1 0x20 DUP1 DUP5 KECCAK256 SWAP1 SWAP3 ADD DUP1 SLOAD PUSH1 0x1 PUSH1 0x1 PUSH1 0xA0 SHL SUB NOT AND PUSH1 0x1 PUSH1 0x1 PUSH1 0xA0 SHL SUB DUP12 AND SWAP1 DUP2 OR SWAP1 SWAP2 SSTORE DUP4 MSTORE PUSH1 0x2 DUP5 ADD SWAP1 SWAP2 MSTORE PUSH1 0x40 SWAP1 SWAP2 KECCAK256 DUP1 SLOAD PUSH1 0xFF NOT AND SWAP1 SWAP2 OR SWAP1 SSTORE JUMPDEST PUSH1 0x1 PUSH1 0x1 PUSH1 0xA0 SHL SUB DUP7 AND PUSH1 0x0 SWAP1 DUP2 MSTORE PUSH1 0x1 DUP1 DUP4 ADD PUSH1 0x20 MSTORE PUSH1 0x40 SWAP1 SWAP2 KECCAK256 DUP6 SWAP1 SSTORE PUSH1 0x4 DUP3 ADD DUP1 SLOAD PUSH1 0xFF NOT AND SWAP1 SWAP2 OR SWAP1 SSTORE PUSH2 0xE5C DUP7 PUSH2 0x20CC JUMP JUMPDEST PUSH1 0x40 DUP1 MLOAD DUP6 DUP2 MSTORE TIMESTAMP PUSH1 0x20 DUP3 ADD MSTORE PUSH1 0x1 PUSH1 0x1 PUSH1 0xA0 SHL SUB DUP9 AND SWAP2 DUP8 SWAP2 PUSH31 0xA129C6E06BC3D2CC34092791597D28D944EDAB4167992FA890C2BB0794418C SWAP2 ADD PUSH1 0x40 MLOAD DUP1 SWAP2 SUB SWAP1 LOG3 PUSH1 0x2 DUP4 ADD SLOAD PUSH1 0x40 DUP1 MLOAD DUP5 DUP2 MSTORE PUSH1 0x20 DUP2 ADD SWAP3 SWAP1 SWAP3 MSTORE TIMESTAMP SWAP1 DUP3 ADD MSTORE PUSH1 0x1 PUSH1 0x1 PUSH1 0xA0 SHL SUB DUP8 AND SWAP1 PUSH1 0x0 DUP1 MLOAD PUSH1 0x20 PUSH2 0x2B46 DUP4 CODECOPY DUP2 MLOAD SWAP2 MSTORE SWAP1 PUSH1 0x60 ADD PUSH2 0xC86 JUMP JUMPDEST PUSH32 0x9016D09D72D40FDAE2FD8CEAC6B6234C7706214FD39C1CD1E609A0528C199300 SLOAD PUSH1 0x1 PUSH1 0x1 PUSH1 0xA0 SHL SUB AND SWAP1 JUMP JUMPDEST PUSH2 0xF12 PUSH2 0x1CDB JUMP JUMPDEST PUSH1 0x1 PUSH1 0x1 PUSH1 0xA0 SHL SUB DUP3 AND PUSH1 0x0 SWAP1 DUP2 MSTORE PUSH1 0x2 PUSH1 0x20 MSTORE PUSH1 0x40 SWAP1 KECCAK256 SLOAD PUSH1 0xFF AND PUSH2 0xF4A JUMPI PUSH1 0x40 MLOAD PUSH3 0x461BCD PUSH1 0xE5 SHL DUP2 MSTORE PUSH1 0x4 ADD PUSH2 0x721 SWAP1 PUSH2 0x2A21 JUMP JUMPDEST PUSH1 0x1 PUSH1 0x1 PUSH1 0xA0 SHL SUB DUP3 AND PUSH1 0x0 SWAP1 DUP2 MSTORE PUSH1 0x20 DUP2 SWAP1 MSTORE PUSH1 0x40 SWAP1 KECCAK256 PUSH1 0x2 DUP2 ADD SLOAD PUSH1 0x5 DUP3 ADD DUP4 SWAP1 SSTORE PUSH2 0xF77 DUP5 PUSH2 0x20CC JUMP JUMPDEST PUSH1 0x2 DUP3 ADD SLOAD PUSH1 0x40 DUP1 MLOAD DUP4 DUP2 MSTORE PUSH1 0x20 DUP2 ADD SWAP3 SWAP1 SWAP3 MSTORE TIMESTAMP SWAP1 DUP3 ADD MSTORE PUSH1 0x1 PUSH1 0x1 PUSH1 0xA0 SHL SUB DUP6 AND SWAP1 PUSH1 0x0 DUP1 MLOAD PUSH1 0x20 PUSH2 0x2B46 DUP4 CODECOPY DUP2 MLOAD SWAP2 MSTORE SWAP1 PUSH1 0x60 ADD PUSH1 0x40 MLOAD DUP1 SWAP2 SUB SWAP1 LOG2 POP POP POP POP JUMP JUMPDEST PUSH1 0x0 DUP1 PUSH1 0x0 DUP1 PUSH1 0x0 DUP1 PUSH1 0x3 DUP1 SLOAD SWAP1 POP GT PUSH2 0xFD7 JUMPI PUSH1 0x0 PUSH2 0x1001 JUMP JUMPDEST PUSH1 0x3 PUSH1 0x0 DUP2 SLOAD DUP2 LT PUSH2 0xFEB JUMPI PUSH2 0xFEB PUSH2 0x2A4E JUMP JUMPDEST PUSH1 0x0 SWAP2 DUP3 MSTORE PUSH1 0x20 SWAP1 SWAP2 KECCAK256 ADD SLOAD PUSH1 0x1 PUSH1 0x1 PUSH1 0xA0 SHL SUB AND JUMPDEST SWAP1 POP PUSH1 0x0 PUSH1 0x1 PUSH1 0x1 PUSH1 0xA0 SHL SUB DUP3 AND PUSH2 0x101A JUMPI PUSH1 0x0 PUSH2 0x1037 JUMP JUMPDEST PUSH1 0x1 PUSH1 0x1 PUSH1 0xA0 SHL SUB DUP3 AND PUSH1 0x0 SWAP1 DUP2 MSTORE PUSH1 0x20 DUP2 SWAP1 MSTORE PUSH1 0x40 SWAP1 KECCAK256 PUSH1 0x2 ADD SLOAD JUMPDEST PUSH1 0x6 SLOAD PUSH1 0x7 SLOAD SWAP1 SWAP9 SWAP1 SWAP8 POP SWAP3 SWAP6 POP SWAP4 POP SWAP1 SWAP2 POP POP JUMP JUMPDEST PUSH1 0x60 DUP1 PUSH1 0x60 DUP1 PUSH1 0x0 DUP7 GT DUP1 ISZERO PUSH2 0x1065 JUMPI POP PUSH1 0x3 SLOAD DUP7 GT ISZERO JUMPDEST PUSH2 0x10A0 JUMPI PUSH1 0x40 MLOAD PUSH3 0x461BCD PUSH1 0xE5 SHL DUP2 MSTORE PUSH1 0x20 PUSH1 0x4 DUP3 ADD MSTORE PUSH1 0xC PUSH1 0x24 DUP3 ADD MSTORE PUSH12 0x496E76616C69642072616E6B PUSH1 0xA0 SHL PUSH1 0x44 DUP3 ADD MSTORE PUSH1 0x64 ADD PUSH2 0x721 JUMP JUMPDEST PUSH1 0x0 DUP6 GT PUSH2 0x10E0 JUMPI PUSH1 0x40 MLOAD PUSH3 0x461BCD PUSH1 0xE5 SHL DUP2 MSTORE PUSH1 0x20 PUSH1 0x4 DUP3 ADD MSTORE PUSH1 0xD PUSH1 0x24 DUP3 ADD MSTORE PUSH13 0x496E76616C69642072616E6765 PUSH1 0x98 SHL PUSH1 0x44 DUP3 ADD MSTORE PUSH1 0x64 ADD PUSH2 0x721 JUMP JUMPDEST PUSH1 0x0 DUP6 DUP8 GT PUSH2 0x10F0 JUMPI PUSH1 0x1 PUSH2 0x10FA JUMP JUMPDEST PUSH2 0x10FA DUP7 DUP9 PUSH2 0x2A64 JUMP JUMPDEST PUSH1 0x3 SLOAD SWAP1 SWAP2 POP PUSH1 0x0 SWAP1 PUSH2 0x110D DUP9 DUP11 PUSH2 0x2ADD JUMP JUMPDEST GT PUSH2 0x1121 JUMPI PUSH2 0x111C DUP8 DUP10 PUSH2 0x2ADD JUMP JUMPDEST PUSH2 0x1125 JUMP JUMPDEST PUSH1 0x3 SLOAD JUMPDEST SWAP1 POP PUSH1 0x0 PUSH2 0x1133 DUP4 DUP4 PUSH2 0x2A64 JUMP JUMPDEST PUSH2 0x113E SWAP1 PUSH1 0x1 PUSH2 0x2ADD JUMP JUMPDEST SWAP1 POP DUP1 PUSH1 0x1 PUSH1 0x1 PUSH1 0x40 SHL SUB DUP2 GT ISZERO PUSH2 0x1158 JUMPI PUSH2 0x1158 PUSH2 0x247A JUMP JUMPDEST PUSH1 0x40 MLOAD SWAP1 DUP1 DUP3 MSTORE DUP1 PUSH1 0x20 MUL PUSH1 0x20 ADD DUP3 ADD PUSH1 0x40 MSTORE DUP1 ISZERO PUSH2 0x1181 JUMPI DUP2 PUSH1 0x20 ADD PUSH1 0x20 DUP3 MUL DUP1 CALLDATASIZE DUP4 CALLDATACOPY ADD SWAP1 POP JUMPDEST POP SWAP7 POP DUP1 PUSH1 0x1 PUSH1 0x1 PUSH1 0x40 SHL SUB DUP2 GT ISZERO PUSH2 0x119C JUMPI PUSH2 0x119C PUSH2 0x247A JUMP JUMPDEST PUSH1 0x40 MLOAD SWAP1 DUP1 DUP3 MSTORE DUP1 PUSH1 0x20 MUL PUSH1 0x20 ADD DUP3 ADD PUSH1 0x40 MSTORE DUP1 ISZERO PUSH2 0x11C5 JUMPI DUP2 PUSH1 0x20 ADD PUSH1 0x20 DUP3 MUL DUP1 CALLDATASIZE DUP4 CALLDATACOPY ADD SWAP1 POP JUMPDEST POP SWAP6 POP DUP1 PUSH1 0x1 PUSH1 0x1 PUSH1 0x40 SHL SUB DUP2 GT ISZERO PUSH2 0x11E0 JUMPI PUSH2 0x11E0 PUSH2 0x247A JUMP JUMPDEST PUSH1 0x40 MLOAD SWAP1 DUP1 DUP3 MSTORE DUP1 PUSH1 0x20 MUL PUSH1 0x20 ADD DUP3 ADD PUSH1 0x40 MSTORE DUP1 ISZERO PUSH2 0x1213 JUMPI DUP2 PUSH1 0x20 ADD JUMPDEST PUSH1 0x60 DUP2 MSTORE PUSH1 0x20 ADD SWAP1 PUSH1 0x1 SWAP1 SUB SWAP1 DUP2 PUSH2 0x11FE JUMPI SWAP1 POP JUMPDEST POP SWAP5 POP DUP1 PUSH1 0x1 PUSH1 0x1 PUSH1 0x40 SHL SUB DUP2 GT ISZERO PUSH2 0x122E JUMPI PUSH2 0x122E PUSH2 0x247A JUMP JUMPDEST PUSH1 0x40 MLOAD SWAP1 DUP1 DUP3 MSTORE DUP1 PUSH1 0x20 MUL PUSH1 0x20 ADD DUP3 ADD PUSH1 0x40 MSTORE DUP1 ISZERO PUSH2 0x1257 JUMPI DUP2 PUSH1 0x20 ADD PUSH1 0x20 DUP3 MUL DUP1 CALLDATASIZE DUP4 CALLDATACOPY ADD SWAP1 POP JUMPDEST POP SWAP4 POP PUSH1 0x0 JUMPDEST DUP2 DUP2 LT ISZERO PUSH2 0x144E JUMPI PUSH1 0x0 PUSH2 0x1271 DUP3 DUP7 PUSH2 0x2ADD JUMP JUMPDEST SWAP1 POP PUSH1 0x0 PUSH2 0x1280 PUSH1 0x1 DUP4 PUSH2 0x2A64 JUMP JUMPDEST SWAP1 POP PUSH1 0x3 DUP2 DUP2 SLOAD DUP2 LT PUSH2 0x1295 JUMPI PUSH2 0x1295 PUSH2 0x2A4E JUMP JUMPDEST SWAP1 PUSH1 0x0 MSTORE PUSH1 0x20 PUSH1 0x0 KECCAK256 ADD PUSH1 0x0 SWAP1 SLOAD SWAP1 PUSH2 0x100 EXP SWAP1 DIV PUSH1 0x1 PUSH1 0x1 PUSH1 0xA0 SHL SUB AND DUP11 DUP5 DUP2 MLOAD DUP2 LT PUSH2 0x12C5 JUMPI PUSH2 0x12C5 PUSH2 0x2A4E JUMP JUMPDEST PUSH1 0x20 MUL PUSH1 0x20 ADD ADD SWAP1 PUSH1 0x1 PUSH1 0x1 PUSH1 0xA0 SHL SUB AND SWAP1 DUP2 PUSH1 0x1 PUSH1 0x1 PUSH1 0xA0 SHL SUB AND DUP2 MSTORE POP POP PUSH1 0x0 DUP1 PUSH1 0x3 DUP4 DUP2 SLOAD DUP2 LT PUSH2 0x12FB JUMPI PUSH2 0x12FB PUSH2 0x2A4E JUMP JUMPDEST PUSH1 0x0 SWAP2 DUP3 MSTORE PUSH1 0x20 DUP1 DUP4 KECCAK256 SWAP1 SWAP2 ADD SLOAD PUSH1 0x1 PUSH1 0x1 PUSH1 0xA0 SHL SUB AND DUP4 MSTORE DUP3 ADD SWAP3 SWAP1 SWAP3 MSTORE PUSH1 0x40 ADD SWAP1 KECCAK256 PUSH1 0x2 ADD SLOAD DUP10 MLOAD DUP11 SWAP1 DUP6 SWAP1 DUP2 LT PUSH2 0x1337 JUMPI PUSH2 0x1337 PUSH2 0x2A4E JUMP JUMPDEST PUSH1 0x20 MUL PUSH1 0x20 ADD ADD DUP2 DUP2 MSTORE POP POP PUSH1 0x0 DUP1 PUSH1 0x3 DUP4 DUP2 SLOAD DUP2 LT PUSH2 0x1359 JUMPI PUSH2 0x1359 PUSH2 0x2A4E JUMP JUMPDEST PUSH1 0x0 SWAP2 DUP3 MSTORE PUSH1 0x20 DUP1 DUP4 KECCAK256 SWAP1 SWAP2 ADD SLOAD PUSH1 0x1 PUSH1 0x1 PUSH1 0xA0 SHL SUB AND DUP4 MSTORE DUP3 ADD SWAP3 SWAP1 SWAP3 MSTORE PUSH1 0x40 ADD SWAP1 KECCAK256 PUSH1 0x1 ADD DUP1 SLOAD PUSH2 0x138B SWAP1 PUSH2 0x28A9 JUMP JUMPDEST DUP1 PUSH1 0x1F ADD PUSH1 0x20 DUP1 SWAP2 DIV MUL PUSH1 0x20 ADD PUSH1 0x40 MLOAD SWAP1 DUP2 ADD PUSH1 0x40 MSTORE DUP1 SWAP3 SWAP2 SWAP1 DUP2 DUP2 MSTORE PUSH1 0x20 ADD DUP3 DUP1 SLOAD PUSH2 0x13B7 SWAP1 PUSH2 0x28A9 JUMP JUMPDEST DUP1 ISZERO PUSH2 0x1404 JUMPI DUP1 PUSH1 0x1F LT PUSH2 0x13D9 JUMPI PUSH2 0x100 DUP1 DUP4 SLOAD DIV MUL DUP4 MSTORE SWAP2 PUSH1 0x20 ADD SWAP2 PUSH2 0x1404 JUMP JUMPDEST DUP3 ADD SWAP2 SWAP1 PUSH1 0x0 MSTORE PUSH1 0x20 PUSH1 0x0 KECCAK256 SWAP1 JUMPDEST DUP2 SLOAD DUP2 MSTORE SWAP1 PUSH1 0x1 ADD SWAP1 PUSH1 0x20 ADD DUP1 DUP4 GT PUSH2 0x13E7 JUMPI DUP3 SWAP1 SUB PUSH1 0x1F AND DUP3 ADD SWAP2 JUMPDEST POP POP POP POP POP DUP9 DUP5 DUP2 MLOAD DUP2 LT PUSH2 0x141B JUMPI PUSH2 0x141B PUSH2 0x2A4E JUMP JUMPDEST PUSH1 0x20 MUL PUSH1 0x20 ADD ADD DUP2 SWAP1 MSTORE POP DUP2 DUP8 DUP5 DUP2 MLOAD DUP2 LT PUSH2 0x1439 JUMPI PUSH2 0x1439 PUSH2 0x2A4E JUMP JUMPDEST PUSH1 0x20 SWAP1 DUP2 MUL SWAP2 SWAP1 SWAP2 ADD ADD MSTORE POP POP PUSH1 0x1 ADD PUSH2 0x125D JUMP JUMPDEST POP POP POP POP SWAP3 SWAP6 SWAP2 SWAP5 POP SWAP3 POP JUMP JUMPDEST PUSH1 0x1 PUSH1 0x1 PUSH1 0xA0 SHL SUB DUP2 AND PUSH1 0x0 SWAP1 DUP2 MSTORE PUSH1 0x2 PUSH1 0x20 MSTORE PUSH1 0x40 DUP2 KECCAK256 SLOAD PUSH1 0xFF AND PUSH2 0x1493 JUMPI PUSH1 0x40 MLOAD PUSH3 0x461BCD PUSH1 0xE5 SHL DUP2 MSTORE PUSH1 0x4 ADD PUSH2 0x721 SWAP1 PUSH2 0x2A21 JUMP JUMPDEST PUSH1 0x0 JUMPDEST PUSH1 0x3 SLOAD DUP2 LT ISZERO PUSH2 0x14F1 JUMPI DUP3 PUSH1 0x1 PUSH1 0x1 PUSH1 0xA0 SHL SUB AND PUSH1 0x3 DUP3 DUP2 SLOAD DUP2 LT PUSH2 0x14BD JUMPI PUSH2 0x14BD PUSH2 0x2A4E JUMP JUMPDEST PUSH1 0x0 SWAP2 DUP3 MSTORE PUSH1 0x20 SWAP1 SWAP2 KECCAK256 ADD SLOAD PUSH1 0x1 PUSH1 0x1 PUSH1 0xA0 SHL SUB AND SUB PUSH2 0x14E9 JUMPI PUSH2 0x14E2 DUP2 PUSH1 0x1 PUSH2 0x2ADD JUMP JUMPDEST SWAP4 SWAP3 POP POP POP JUMP JUMPDEST PUSH1 0x1 ADD PUSH2 0x1496 JUMP JUMPDEST POP PUSH1 0x0 SWAP3 SWAP2 POP POP JUMP JUMPDEST PUSH1 0x0 PUSH2 0x1504 PUSH2 0x21C3 JUMP JUMPDEST DUP1 SLOAD SWAP1 SWAP2 POP PUSH1 0xFF PUSH1 0x1 PUSH1 0x40 SHL DUP3 DIV AND ISZERO SWAP1 PUSH1 0x1 PUSH1 0x1 PUSH1 0x40 SHL SUB AND PUSH1 0x0 DUP2 ISZERO DUP1 ISZERO PUSH2 0x152B JUMPI POP DUP3 JUMPDEST SWAP1 POP PUSH1 0x0 DUP3 PUSH1 0x1 PUSH1 0x1 PUSH1 0x40 SHL SUB AND PUSH1 0x1 EQ DUP1 ISZERO PUSH2 0x1547 JUMPI POP ADDRESS EXTCODESIZE ISZERO JUMPDEST SWAP1 POP DUP2 ISZERO DUP1 ISZERO PUSH2 0x1555 JUMPI POP DUP1 ISZERO JUMPDEST ISZERO PUSH2 0x1573 JUMPI PUSH1 0x40 MLOAD PUSH4 0xF92EE8A9 PUSH1 0xE0 SHL DUP2 MSTORE PUSH1 0x4 ADD PUSH1 0x40 MLOAD DUP1 SWAP2 SUB SWAP1 REVERT JUMPDEST DUP5 SLOAD PUSH8 0xFFFFFFFFFFFFFFFF NOT AND PUSH1 0x1 OR DUP6 SSTORE DUP4 ISZERO PUSH2 0x159D JUMPI DUP5 SLOAD PUSH1 0xFF PUSH1 0x40 SHL NOT AND PUSH1 0x1 PUSH1 0x40 SHL OR DUP6 SSTORE JUMPDEST PUSH2 0x15A6 DUP9 PUSH2 0x21EC JUMP JUMPDEST PUSH2 0x15AE PUSH2 0x21FD JUMP JUMPDEST PUSH2 0x15B6 PUSH2 0x2205 JUMP JUMPDEST PUSH1 0x4 DUP1 SLOAD PUSH1 0x1 PUSH1 0x1 PUSH1 0xA0 SHL SUB DUP1 DUP11 AND PUSH1 0x1 PUSH1 0x1 PUSH1 0xA0 SHL SUB NOT SWAP3 DUP4 AND OR SWAP1 SWAP3 SSTORE PUSH1 0x5 DUP1 SLOAD SWAP3 DUP10 AND SWAP3 SWAP1 SWAP2 AND SWAP2 SWAP1 SWAP2 OR SWAP1 SSTORE TIMESTAMP PUSH1 0x7 SSTORE DUP4 ISZERO PUSH2 0x1630 JUMPI DUP5 SLOAD PUSH1 0xFF PUSH1 0x40 SHL NOT AND DUP6 SSTORE PUSH1 0x40 MLOAD PUSH1 0x1 DUP2 MSTORE PUSH32 0xC7F505B2F371AE2175EE4913F4499E1F2633A7B5936321EED1CDAEB6115181D2 SWAP1 PUSH1 0x20 ADD PUSH1 0x40 MLOAD DUP1 SWAP2 SUB SWAP1 LOG1 JUMPDEST POP POP POP POP POP POP POP POP JUMP JUMPDEST PUSH1 0x0 DUP2 DUP2 MSTORE PUSH1 0x1 PUSH1 0x20 MSTORE PUSH1 0x40 DUP2 KECCAK256 PUSH1 0x4 DUP2 ADD SLOAD PUSH1 0xFF AND PUSH2 0x1690 JUMPI PUSH1 0x40 MLOAD PUSH3 0x461BCD PUSH1 0xE5 SHL DUP2 MSTORE PUSH1 0x20 PUSH1 0x4 DUP3 ADD MSTORE PUSH1 0x11 PUSH1 0x24 DUP3 ADD MSTORE PUSH17 0x426174746C65206E6F7420616374697665 PUSH1 0x78 SHL PUSH1 0x44 DUP3 ADD MSTORE PUSH1 0x64 ADD PUSH2 0x721 JUMP JUMPDEST PUSH1 0x1 PUSH1 0x1 PUSH1 0xA0 SHL SUB DUP5 AND PUSH1 0x0 SWAP1 DUP2 MSTORE PUSH1 0x2 DUP3 ADD PUSH1 0x20 MSTORE PUSH1 0x40 SWAP1 KECCAK256 SLOAD PUSH1 0xFF AND PUSH2 0x16EF JUMPI PUSH1 0x40 MLOAD PUSH3 0x461BCD PUSH1 0xE5 SHL DUP2 MSTORE PUSH1 0x20 PUSH1 0x4 DUP3 ADD MSTORE PUSH1 0x12 PUSH1 0x24 DUP3 ADD MSTORE PUSH18 0x55736572206E6F7420696E20626174746C65 PUSH1 0x70 SHL PUSH1 0x44 DUP3 ADD MSTORE PUSH1 0x64 ADD PUSH2 0x721 JUMP JUMPDEST PUSH1 0x1 PUSH1 0x1 PUSH1 0xA0 SHL SUB DUP5 AND PUSH1 0x0 SWAP1 DUP2 MSTORE PUSH1 0x1 DUP1 DUP4 ADD PUSH1 0x20 MSTORE PUSH1 0x40 DUP3 KECCAK256 SLOAD SWAP2 JUMPDEST PUSH1 0x3 DUP5 ADD SLOAD DUP2 LT ISZERO PUSH2 0x1776 JUMPI DUP3 DUP5 PUSH1 0x1 ADD PUSH1 0x0 DUP7 PUSH1 0x3 ADD DUP5 DUP2 SLOAD DUP2 LT PUSH2 0x1735 JUMPI PUSH2 0x1735 PUSH2 0x2A4E JUMP JUMPDEST PUSH1 0x0 SWAP2 DUP3 MSTORE PUSH1 0x20 DUP1 DUP4 KECCAK256 SWAP1 SWAP2 ADD SLOAD PUSH1 0x1 PUSH1 0x1 PUSH1 0xA0 SHL SUB AND DUP4 MSTORE DUP3 ADD SWAP3 SWAP1 SWAP3 MSTORE PUSH1 0x40 ADD SWAP1 KECCAK256 SLOAD GT ISZERO PUSH2 0x176E JUMPI DUP2 PUSH2 0x176A DUP2 PUSH2 0x2A08 JUMP JUMPDEST SWAP3 POP POP JUMPDEST PUSH1 0x1 ADD PUSH2 0x170D JUMP JUMPDEST POP SWAP3 POP POP POP JUMPDEST SWAP3 SWAP2 POP POP JUMP JUMPDEST PUSH1 0x60 DUP1 PUSH1 0x60 PUSH1 0x0 DUP5 GT DUP1 ISZERO PUSH2 0x1799 JUMPI POP PUSH2 0x3E8 DUP5 GT ISZERO JUMPDEST PUSH2 0x17D5 JUMPI PUSH1 0x40 MLOAD PUSH3 0x461BCD PUSH1 0xE5 SHL DUP2 MSTORE PUSH1 0x20 PUSH1 0x4 DUP3 ADD MSTORE PUSH1 0xD PUSH1 0x24 DUP3 ADD MSTORE PUSH13 0x125B9D985B1A590818DBDD5B9D PUSH1 0x9A SHL PUSH1 0x44 DUP3 ADD MSTORE PUSH1 0x64 ADD PUSH2 0x721 JUMP JUMPDEST PUSH1 0x3 SLOAD PUSH1 0x0 SWAP1 DUP6 GT PUSH2 0x17E7 JUMPI DUP5 PUSH2 0x17EB JUMP JUMPDEST PUSH1 0x3 SLOAD JUMPDEST SWAP1 POP DUP1 PUSH1 0x1 PUSH1 0x1 PUSH1 0x40 SHL SUB DUP2 GT ISZERO PUSH2 0x1805 JUMPI PUSH2 0x1805 PUSH2 0x247A JUMP JUMPDEST PUSH1 0x40 MLOAD SWAP1 DUP1 DUP3 MSTORE DUP1 PUSH1 0x20 MUL PUSH1 0x20 ADD DUP3 ADD PUSH1 0x40 MSTORE DUP1 ISZERO PUSH2 0x182E JUMPI DUP2 PUSH1 0x20 ADD PUSH1 0x20 DUP3 MUL DUP1 CALLDATASIZE DUP4 CALLDATACOPY ADD SWAP1 POP JUMPDEST POP SWAP4 POP DUP1 PUSH1 0x1 PUSH1 0x1 PUSH1 0x40 SHL SUB DUP2 GT ISZERO PUSH2 0x1849 JUMPI PUSH2 0x1849 PUSH2 0x247A JUMP JUMPDEST PUSH1 0x40 MLOAD SWAP1 DUP1 DUP3 MSTORE DUP1 PUSH1 0x20 MUL PUSH1 0x20 ADD DUP3 ADD PUSH1 0x40 MSTORE DUP1 ISZERO PUSH2 0x1872 JUMPI DUP2 PUSH1 0x20 ADD PUSH1 0x20 DUP3 MUL DUP1 CALLDATASIZE DUP4 CALLDATACOPY ADD SWAP1 POP JUMPDEST POP SWAP3 POP DUP1 PUSH1 0x1 PUSH1 0x1 PUSH1 0x40 SHL SUB DUP2 GT ISZERO PUSH2 0x188D JUMPI PUSH2 0x188D PUSH2 0x247A JUMP JUMPDEST PUSH1 0x40 MLOAD SWAP1 DUP1 DUP3 MSTORE DUP1 PUSH1 0x20 MUL PUSH1 0x20 ADD DUP3 ADD PUSH1 0x40 MSTORE DUP1 ISZERO PUSH2 0x18C0 JUMPI DUP2 PUSH1 0x20 ADD JUMPDEST PUSH1 0x60 DUP2 MSTORE PUSH1 0x20 ADD SWAP1 PUSH1 0x1 SWAP1 SUB SWAP1 DUP2 PUSH2 0x18AB JUMPI SWAP1 POP JUMPDEST POP SWAP2 POP PUSH1 0x0 JUMPDEST DUP2 DUP2 LT ISZERO PUSH2 0x1A7A JUMPI PUSH1 0x3 DUP2 DUP2 SLOAD DUP2 LT PUSH2 0x18E1 JUMPI PUSH2 0x18E1 PUSH2 0x2A4E JUMP JUMPDEST SWAP1 PUSH1 0x0 MSTORE PUSH1 0x20 PUSH1 0x0 KECCAK256 ADD PUSH1 0x0 SWAP1 SLOAD SWAP1 PUSH2 0x100 EXP SWAP1 DIV PUSH1 0x1 PUSH1 0x1 PUSH1 0xA0 SHL SUB AND DUP6 DUP3 DUP2 MLOAD DUP2 LT PUSH2 0x1911 JUMPI PUSH2 0x1911 PUSH2 0x2A4E JUMP JUMPDEST PUSH1 0x20 MUL PUSH1 0x20 ADD ADD SWAP1 PUSH1 0x1 PUSH1 0x1 PUSH1 0xA0 SHL SUB AND SWAP1 DUP2 PUSH1 0x1 PUSH1 0x1 PUSH1 0xA0 SHL SUB AND DUP2 MSTORE POP POP PUSH1 0x0 DUP1 PUSH1 0x3 DUP4 DUP2 SLOAD DUP2 LT PUSH2 0x1947 JUMPI PUSH2 0x1947 PUSH2 0x2A4E JUMP JUMPDEST PUSH1 0x0 SWAP2 DUP3 MSTORE PUSH1 0x20 DUP1 DUP4 KECCAK256 SWAP1 SWAP2 ADD SLOAD PUSH1 0x1 PUSH1 0x1 PUSH1 0xA0 SHL SUB AND DUP4 MSTORE DUP3 ADD SWAP3 SWAP1 SWAP3 MSTORE PUSH1 0x40 ADD SWAP1 KECCAK256 PUSH1 0x2 ADD SLOAD DUP5 MLOAD DUP6 SWAP1 DUP4 SWAP1 DUP2 LT PUSH2 0x1983 JUMPI PUSH2 0x1983 PUSH2 0x2A4E JUMP JUMPDEST PUSH1 0x20 MUL PUSH1 0x20 ADD ADD DUP2 DUP2 MSTORE POP POP PUSH1 0x0 DUP1 PUSH1 0x3 DUP4 DUP2 SLOAD DUP2 LT PUSH2 0x19A5 JUMPI PUSH2 0x19A5 PUSH2 0x2A4E JUMP JUMPDEST PUSH1 0x0 SWAP2 DUP3 MSTORE PUSH1 0x20 DUP1 DUP4 KECCAK256 SWAP1 SWAP2 ADD SLOAD PUSH1 0x1 PUSH1 0x1 PUSH1 0xA0 SHL SUB AND DUP4 MSTORE DUP3 ADD SWAP3 SWAP1 SWAP3 MSTORE PUSH1 0x40 ADD SWAP1 KECCAK256 PUSH1 0x1 ADD DUP1 SLOAD PUSH2 0x19D7 SWAP1 PUSH2 0x28A9 JUMP JUMPDEST DUP1 PUSH1 0x1F ADD PUSH1 0x20 DUP1 SWAP2 DIV MUL PUSH1 0x20 ADD PUSH1 0x40 MLOAD SWAP1 DUP2 ADD PUSH1 0x40 MSTORE DUP1 SWAP3 SWAP2 SWAP1 DUP2 DUP2 MSTORE PUSH1 0x20 ADD DUP3 DUP1 SLOAD PUSH2 0x1A03 SWAP1 PUSH2 0x28A9 JUMP JUMPDEST DUP1 ISZERO PUSH2 0x1A50 JUMPI DUP1 PUSH1 0x1F LT PUSH2 0x1A25 JUMPI PUSH2 0x100 DUP1 DUP4 SLOAD DIV MUL DUP4 MSTORE SWAP2 PUSH1 0x20 ADD SWAP2 PUSH2 0x1A50 JUMP JUMPDEST DUP3 ADD SWAP2 SWAP1 PUSH1 0x0 MSTORE PUSH1 0x20 PUSH1 0x0 KECCAK256 SWAP1 JUMPDEST DUP2 SLOAD DUP2 MSTORE SWAP1 PUSH1 0x1 ADD SWAP1 PUSH1 0x20 ADD DUP1 DUP4 GT PUSH2 0x1A33 JUMPI DUP3 SWAP1 SUB PUSH1 0x1F AND DUP3 ADD SWAP2 JUMPDEST POP POP POP POP POP DUP4 DUP3 DUP2 MLOAD DUP2 LT PUSH2 0x1A67 JUMPI PUSH2 0x1A67 PUSH2 0x2A4E JUMP JUMPDEST PUSH1 0x20 SWAP1 DUP2 MUL SWAP2 SWAP1 SWAP2 ADD ADD MSTORE PUSH1 0x1 ADD PUSH2 0x18C6 JUMP JUMPDEST POP POP SWAP2 SWAP4 SWAP1 SWAP3 POP JUMP JUMPDEST PUSH2 0x1A8B PUSH2 0x1CDB JUMP JUMPDEST PUSH1 0x0 JUMPDEST PUSH1 0x3 SLOAD DUP2 LT ISZERO PUSH2 0x1AD0 JUMPI PUSH2 0x1AC8 PUSH1 0x3 DUP3 DUP2 SLOAD DUP2 LT PUSH2 0x1AAE JUMPI PUSH2 0x1AAE PUSH2 0x2A4E JUMP JUMPDEST PUSH1 0x0 SWAP2 DUP3 MSTORE PUSH1 0x20 SWAP1 SWAP2 KECCAK256 ADD SLOAD PUSH1 0x1 PUSH1 0x1 PUSH1 0xA0 SHL SUB AND PUSH2 0x20CC JUMP JUMPDEST PUSH1 0x1 ADD PUSH2 0x1A8E JUMP JUMPDEST POP PUSH2 0xCA8 PUSH2 0x1D0D JUMP JUMPDEST PUSH2 0x1AE1 PUSH2 0x1CDB JUMP JUMPDEST PUSH1 0x1 PUSH1 0x1 PUSH1 0xA0 SHL SUB DUP2 AND PUSH2 0x1B0B JUMPI PUSH1 0x40 MLOAD PUSH4 0x1E4FBDF7 PUSH1 0xE0 SHL DUP2 MSTORE PUSH1 0x0 PUSH1 0x4 DUP3 ADD MSTORE PUSH1 0x24 ADD PUSH2 0x721 JUMP JUMPDEST PUSH2 0xB51 DUP2 PUSH2 0x2152 JUMP JUMPDEST PUSH1 0x0 DUP2 DUP2 MSTORE PUSH1 0x1 PUSH1 0x20 MSTORE PUSH1 0x40 SWAP1 KECCAK256 PUSH1 0x4 DUP2 ADD SLOAD PUSH1 0x60 SWAP2 DUP3 SWAP2 PUSH1 0xFF AND PUSH2 0x1B6F JUMPI PUSH1 0x40 MLOAD PUSH3 0x461BCD PUSH1 0xE5 SHL DUP2 MSTORE PUSH1 0x20 PUSH1 0x4 DUP3 ADD MSTORE PUSH1 0x11 PUSH1 0x24 DUP3 ADD MSTORE PUSH17 0x426174746C65206E6F7420616374697665 PUSH1 0x78 SHL PUSH1 0x44 DUP3 ADD MSTORE PUSH1 0x64 ADD PUSH2 0x721 JUMP JUMPDEST PUSH1 0x3 DUP2 ADD SLOAD DUP1 PUSH1 0x1 PUSH1 0x1 PUSH1 0x40 SHL SUB DUP2 GT ISZERO PUSH2 0x1B8C JUMPI PUSH2 0x1B8C PUSH2 0x247A JUMP JUMPDEST PUSH1 0x40 MLOAD SWAP1 DUP1 DUP3 MSTORE DUP1 PUSH1 0x20 MUL PUSH1 0x20 ADD DUP3 ADD PUSH1 0x40 MSTORE DUP1 ISZERO PUSH2 0x1BB5 JUMPI DUP2 PUSH1 0x20 ADD PUSH1 0x20 DUP3 MUL DUP1 CALLDATASIZE DUP4 CALLDATACOPY ADD SWAP1 POP JUMPDEST POP SWAP4 POP DUP1 PUSH1 0x1 PUSH1 0x1 PUSH1 0x40 SHL SUB DUP2 GT ISZERO PUSH2 0x1BD0 JUMPI PUSH2 0x1BD0 PUSH2 0x247A JUMP JUMPDEST PUSH1 0x40 MLOAD SWAP1 DUP1 DUP3 MSTORE DUP1 PUSH1 0x20 MUL PUSH1 0x20 ADD DUP3 ADD PUSH1 0x40 MSTORE DUP1 ISZERO PUSH2 0x1BF9 JUMPI DUP2 PUSH1 0x20 ADD PUSH1 0x20 DUP3 MUL DUP1 CALLDATASIZE DUP4 CALLDATACOPY ADD SWAP1 POP JUMPDEST POP SWAP3 POP PUSH1 0x0 JUMPDEST DUP2 DUP2 LT ISZERO PUSH2 0x1CD3 JUMPI DUP3 PUSH1 0x3 ADD DUP2 DUP2 SLOAD DUP2 LT PUSH2 0x1C1C JUMPI PUSH2 0x1C1C PUSH2 0x2A4E JUMP JUMPDEST SWAP1 PUSH1 0x0 MSTORE PUSH1 0x20 PUSH1 0x0 KECCAK256 ADD PUSH1 0x0 SWAP1 SLOAD SWAP1 PUSH2 0x100 EXP SWAP1 DIV PUSH1 0x1 PUSH1 0x1 PUSH1 0xA0 SHL SUB AND DUP6 DUP3 DUP2 MLOAD DUP2 LT PUSH2 0x1C4C JUMPI PUSH2 0x1C4C PUSH2 0x2A4E JUMP JUMPDEST PUSH1 0x20 MUL PUSH1 0x20 ADD ADD SWAP1 PUSH1 0x1 PUSH1 0x1 PUSH1 0xA0 SHL SUB AND SWAP1 DUP2 PUSH1 0x1 PUSH1 0x1 PUSH1 0xA0 SHL SUB AND DUP2 MSTORE POP POP DUP3 PUSH1 0x1 ADD PUSH1 0x0 DUP5 PUSH1 0x3 ADD DUP4 DUP2 SLOAD DUP2 LT PUSH2 0x1C87 JUMPI PUSH2 0x1C87 PUSH2 0x2A4E JUMP JUMPDEST PUSH1 0x0 SWAP2 DUP3 MSTORE PUSH1 0x20 DUP1 DUP4 KECCAK256 SWAP1 SWAP2 ADD SLOAD PUSH1 0x1 PUSH1 0x1 PUSH1 0xA0 SHL SUB AND DUP4 MSTORE DUP3 ADD SWAP3 SWAP1 SWAP3 MSTORE PUSH1 0x40 ADD SWAP1 KECCAK256 SLOAD DUP5 MLOAD DUP6 SWAP1 DUP4 SWAP1 DUP2 LT PUSH2 0x1CC0 JUMPI PUSH2 0x1CC0 PUSH2 0x2A4E JUMP JUMPDEST PUSH1 0x20 SWAP1 DUP2 MUL SWAP2 SWAP1 SWAP2 ADD ADD MSTORE PUSH1 0x1 ADD PUSH2 0x1BFF JUMP JUMPDEST POP POP POP SWAP2 POP SWAP2 JUMP JUMPDEST CALLER PUSH2 0x1CE4 PUSH2 0xEDC JUMP JUMPDEST PUSH1 0x1 PUSH1 0x1 PUSH1 0xA0 SHL SUB AND EQ PUSH2 0xCA8 JUMPI PUSH1 0x40 MLOAD PUSH4 0x118CDAA7 PUSH1 0xE0 SHL DUP2 MSTORE CALLER PUSH1 0x4 DUP3 ADD MSTORE PUSH1 0x24 ADD PUSH2 0x721 JUMP JUMPDEST PUSH1 0x0 JUMPDEST PUSH1 0x3 SLOAD PUSH2 0x1D1F SWAP1 PUSH1 0x1 SWAP1 PUSH2 0x2A64 JUMP JUMPDEST DUP2 LT ISZERO PUSH2 0x1ED8 JUMPI PUSH1 0x0 JUMPDEST PUSH1 0x3 SLOAD PUSH1 0x1 SWAP1 PUSH2 0x1D3A SWAP1 DUP5 SWAP1 PUSH2 0x2A64 JUMP JUMPDEST PUSH2 0x1D44 SWAP2 SWAP1 PUSH2 0x2A64 JUMP JUMPDEST DUP2 LT ISZERO PUSH2 0x1ECF JUMPI PUSH1 0x0 DUP1 PUSH1 0x3 PUSH2 0x1D5B DUP5 PUSH1 0x1 PUSH2 0x2ADD JUMP JUMPDEST DUP2 SLOAD DUP2 LT PUSH2 0x1D6B JUMPI PUSH2 0x1D6B PUSH2 0x2A4E JUMP JUMPDEST PUSH1 0x0 SWAP2 DUP3 MSTORE PUSH1 0x20 DUP1 DUP4 KECCAK256 SWAP1 SWAP2 ADD SLOAD PUSH1 0x1 PUSH1 0x1 PUSH1 0xA0 SHL SUB AND DUP4 MSTORE DUP3 ADD SWAP3 SWAP1 SWAP3 MSTORE PUSH1 0x40 ADD DUP2 KECCAK256 PUSH1 0x2 ADD SLOAD PUSH1 0x3 DUP1 SLOAD SWAP2 SWAP3 SWAP2 DUP3 SWAP2 SWAP1 DUP6 SWAP1 DUP2 LT PUSH2 0x1DAD JUMPI PUSH2 0x1DAD PUSH2 0x2A4E JUMP JUMPDEST PUSH1 0x0 SWAP2 DUP3 MSTORE PUSH1 0x20 DUP1 DUP4 KECCAK256 SWAP1 SWAP2 ADD SLOAD PUSH1 0x1 PUSH1 0x1 PUSH1 0xA0 SHL SUB AND DUP4 MSTORE DUP3 ADD SWAP3 SWAP1 SWAP3 MSTORE PUSH1 0x40 ADD SWAP1 KECCAK256 PUSH1 0x2 ADD SLOAD LT ISZERO PUSH2 0x1EC7 JUMPI PUSH1 0x0 PUSH1 0x3 DUP3 DUP2 SLOAD DUP2 LT PUSH2 0x1DF0 JUMPI PUSH2 0x1DF0 PUSH2 0x2A4E JUMP JUMPDEST PUSH1 0x0 SWAP2 DUP3 MSTORE PUSH1 0x20 SWAP1 SWAP2 KECCAK256 ADD SLOAD PUSH1 0x1 PUSH1 0x1 PUSH1 0xA0 SHL SUB AND SWAP1 POP PUSH1 0x3 PUSH2 0x1E14 DUP4 PUSH1 0x1 PUSH2 0x2ADD JUMP JUMPDEST DUP2 SLOAD DUP2 LT PUSH2 0x1E24 JUMPI PUSH2 0x1E24 PUSH2 0x2A4E JUMP JUMPDEST PUSH1 0x0 SWAP2 DUP3 MSTORE PUSH1 0x20 SWAP1 SWAP2 KECCAK256 ADD SLOAD PUSH1 0x3 DUP1 SLOAD PUSH1 0x1 PUSH1 0x1 PUSH1 0xA0 SHL SUB SWAP1 SWAP3 AND SWAP2 DUP5 SWAP1 DUP2 LT PUSH2 0x1E50 JUMPI PUSH2 0x1E50 PUSH2 0x2A4E JUMP JUMPDEST PUSH1 0x0 SWAP2 DUP3 MSTORE PUSH1 0x20 SWAP1 SWAP2 KECCAK256 ADD DUP1 SLOAD PUSH1 0x1 PUSH1 0x1 PUSH1 0xA0 SHL SUB NOT AND PUSH1 0x1 PUSH1 0x1 PUSH1 0xA0 SHL SUB SWAP3 SWAP1 SWAP3 AND SWAP2 SWAP1 SWAP2 OR SWAP1 SSTORE DUP1 PUSH1 0x3 PUSH2 0x1E87 DUP5 PUSH1 0x1 PUSH2 0x2ADD JUMP JUMPDEST DUP2 SLOAD DUP2 LT PUSH2 0x1E97 JUMPI PUSH2 0x1E97 PUSH2 0x2A4E JUMP JUMPDEST SWAP1 PUSH1 0x0 MSTORE PUSH1 0x20 PUSH1 0x0 KECCAK256 ADD PUSH1 0x0 PUSH2 0x100 EXP DUP2 SLOAD DUP2 PUSH1 0x1 PUSH1 0x1 PUSH1 0xA0 SHL SUB MUL NOT AND SWAP1 DUP4 PUSH1 0x1 PUSH1 0x1 PUSH1 0xA0 SHL SUB AND MUL OR SWAP1 SSTORE POP POP JUMPDEST PUSH1 0x1 ADD PUSH2 0x1D29 JUMP JUMPDEST POP PUSH1 0x1 ADD PUSH2 0x1D10 JUMP JUMPDEST POP TIMESTAMP PUSH1 0x7 DUP2 SWAP1 SSTORE PUSH1 0x40 MLOAD SWAP1 DUP2 MSTORE PUSH32 0xC5F0FCB9532743FCF8BF92B049D6EB21320FAB68A6A987DA219D6D95B5B262C6 SWAP1 PUSH1 0x20 ADD PUSH1 0x40 MLOAD DUP1 SWAP2 SUB SWAP1 LOG1 JUMP JUMPDEST ADDRESS PUSH1 0x1 PUSH1 0x1 PUSH1 0xA0 SHL SUB PUSH32 0x0 AND EQ DUP1 PUSH2 0x1F9B JUMPI POP PUSH32 0x0 PUSH1 0x1 PUSH1 0x1 PUSH1 0xA0 SHL SUB AND PUSH2 0x1F8F PUSH1 0x0 DUP1 MLOAD PUSH1 0x20 PUSH2 0x2B26 DUP4 CODECOPY DUP2 MLOAD SWAP2 MSTORE SLOAD PUSH1 0x1 PUSH1 0x1 PUSH1 0xA0 SHL SUB AND SWAP1 JUMP JUMPDEST PUSH1 0x1 PUSH1 0x1 PUSH1 0xA0 SHL SUB AND EQ ISZERO JUMPDEST ISZERO PUSH2 0xCA8 JUMPI PUSH1 0x40 MLOAD PUSH4 0x703E46DD PUSH1 0xE1 SHL DUP2 MSTORE PUSH1 0x4 ADD PUSH1 0x40 MLOAD DUP1 SWAP2 SUB SWAP1 REVERT JUMPDEST PUSH2 0xB51 PUSH2 0x1CDB JUMP JUMPDEST DUP2 PUSH1 0x1 PUSH1 0x1 PUSH1 0xA0 SHL SUB AND PUSH4 0x52D1902D PUSH1 0x40 MLOAD DUP2 PUSH4 0xFFFFFFFF AND PUSH1 0xE0 SHL DUP2 MSTORE PUSH1 0x4 ADD PUSH1 0x20 PUSH1 0x40 MLOAD DUP1 DUP4 SUB DUP2 DUP7 GAS STATICCALL SWAP3 POP POP POP DUP1 ISZERO PUSH2 0x201B JUMPI POP PUSH1 0x40 DUP1 MLOAD PUSH1 0x1F RETURNDATASIZE SWAP1 DUP2 ADD PUSH1 0x1F NOT AND DUP3 ADD SWAP1 SWAP3 MSTORE PUSH2 0x2018 SWAP2 DUP2 ADD SWAP1 PUSH2 0x2AF0 JUMP JUMPDEST PUSH1 0x1 JUMPDEST PUSH2 0x2043 JUMPI PUSH1 0x40 MLOAD PUSH4 0x4C9C8CE3 PUSH1 0xE0 SHL DUP2 MSTORE PUSH1 0x1 PUSH1 0x1 PUSH1 0xA0 SHL SUB DUP4 AND PUSH1 0x4 DUP3 ADD MSTORE PUSH1 0x24 ADD PUSH2 0x721 JUMP JUMPDEST PUSH1 0x0 DUP1 MLOAD PUSH1 0x20 PUSH2 0x2B26 DUP4 CODECOPY DUP2 MLOAD SWAP2 MSTORE DUP2 EQ PUSH2 0x2074 JUMPI PUSH1 0x40 MLOAD PUSH4 0x2A875269 PUSH1 0xE2 SHL DUP2 MSTORE PUSH1 0x4 DUP2 ADD DUP3 SWAP1 MSTORE PUSH1 0x24 ADD PUSH2 0x721 JUMP JUMPDEST PUSH2 0x207E DUP4 DUP4 PUSH2 0x2215 JUMP JUMPDEST POP POP POP JUMP JUMPDEST ADDRESS PUSH1 0x1 PUSH1 0x1 PUSH1 0xA0 SHL SUB PUSH32 0x0 AND EQ PUSH2 0xCA8 JUMPI PUSH1 0x40 MLOAD PUSH4 0x703E46DD PUSH1 0xE1 SHL DUP2 MSTORE PUSH1 0x4 ADD PUSH1 0x40 MLOAD DUP1 SWAP2 SUB SWAP1 REVERT JUMPDEST PUSH1 0x1 PUSH1 0x1 PUSH1 0xA0 SHL SUB DUP2 AND PUSH1 0x0 SWAP1 DUP2 MSTORE PUSH1 0x20 DUP2 SWAP1 MSTORE PUSH1 0x40 DUP2 KECCAK256 PUSH1 0x5 DUP2 ADD SLOAD SWAP1 SWAP2 SWAP1 PUSH1 0x64 SWAP1 PUSH2 0x20FB SWAP1 PUSH1 0x19 SWAP1 PUSH2 0x2AA4 JUMP JUMPDEST PUSH1 0x23 DUP5 PUSH1 0x4 ADD SLOAD PUSH2 0x210C SWAP2 SWAP1 PUSH2 0x2AA4 JUMP JUMPDEST PUSH1 0x28 DUP6 PUSH1 0x3 ADD SLOAD PUSH2 0x211D SWAP2 SWAP1 PUSH2 0x2AA4 JUMP JUMPDEST PUSH2 0x2127 SWAP2 SWAP1 PUSH2 0x2ADD JUMP JUMPDEST PUSH2 0x2131 SWAP2 SWAP1 PUSH2 0x2ADD JUMP JUMPDEST PUSH2 0x213B SWAP2 SWAP1 PUSH2 0x2ABB JUMP JUMPDEST PUSH1 0x2 DUP4 ADD DUP2 SWAP1 SSTORE TIMESTAMP PUSH1 0x6 DUP5 ADD SSTORE SWAP1 POP PUSH2 0x207E PUSH2 0x1D0D JUMP JUMPDEST PUSH32 0x9016D09D72D40FDAE2FD8CEAC6B6234C7706214FD39C1CD1E609A0528C199300 DUP1 SLOAD PUSH1 0x1 PUSH1 0x1 PUSH1 0xA0 SHL SUB NOT DUP2 AND PUSH1 0x1 PUSH1 0x1 PUSH1 0xA0 SHL SUB DUP5 DUP2 AND SWAP2 DUP3 OR DUP5 SSTORE PUSH1 0x40 MLOAD SWAP3 AND SWAP2 DUP3 SWAP1 PUSH32 0x8BE0079C531659141344CD1FD0A4F28419497F9722A3DAAFE3B4186F6B6457E0 SWAP1 PUSH1 0x0 SWAP1 LOG3 POP POP POP JUMP JUMPDEST PUSH1 0x0 DUP1 PUSH32 0xF0C57E16840DF040F15088DC2F81FE391C3923BEC73E23A9662EFC9C229C6A00 PUSH2 0x177C JUMP JUMPDEST PUSH2 0x21F4 PUSH2 0x226B JUMP JUMPDEST PUSH2 0xB51 DUP2 PUSH2 0x2290 JUMP JUMPDEST PUSH2 0xCA8 PUSH2 0x226B JUMP JUMPDEST PUSH2 0x220D PUSH2 0x226B JUMP JUMPDEST PUSH2 0xCA8 PUSH2 0x2298 JUMP JUMPDEST PUSH2 0x221E DUP3 PUSH2 0x22C6 JUMP JUMPDEST PUSH1 0x40 MLOAD PUSH1 0x1 PUSH1 0x1 PUSH1 0xA0 SHL SUB DUP4 AND SWAP1 PUSH32 0xBC7CD75A20EE27FD9ADEBAB32041F755214DBC6BFFA90CC0225B39DA2E5C2D3B SWAP1 PUSH1 0x0 SWAP1 LOG2 DUP1 MLOAD ISZERO PUSH2 0x2263 JUMPI PUSH2 0x207E DUP3 DUP3 PUSH2 0x232B JUMP JUMPDEST PUSH2 0xB99 PUSH2 0x23A1 JUMP JUMPDEST PUSH2 0x2273 PUSH2 0x23C0 JUMP JUMPDEST PUSH2 0xCA8 JUMPI PUSH1 0x40 MLOAD PUSH4 0x1AFCD79F PUSH1 0xE3 SHL DUP2 MSTORE PUSH1 0x4 ADD PUSH1 0x40 MLOAD DUP1 SWAP2 SUB SWAP1 REVERT JUMPDEST PUSH2 0x1AE1 PUSH2 0x226B JUMP JUMPDEST PUSH2 0x22A0 PUSH2 0x226B JUMP JUMPDEST PUSH1 0x1 PUSH32 0x9B779B17422D0DF92223018B32B4D1FA46E071723D6817E2486D003BECC55F00 SSTORE JUMP JUMPDEST DUP1 PUSH1 0x1 PUSH1 0x1 PUSH1 0xA0 SHL SUB AND EXTCODESIZE PUSH1 0x0 SUB PUSH2 0x22FC JUMPI PUSH1 0x40 MLOAD PUSH4 0x4C9C8CE3 PUSH1 0xE0 SHL DUP2 MSTORE PUSH1 0x1 PUSH1 0x1 PUSH1 0xA0 SHL SUB DUP3 AND PUSH1 0x4 DUP3 ADD MSTORE PUSH1 0x24 ADD PUSH2 0x721 JUMP JUMPDEST PUSH1 0x0 DUP1 MLOAD PUSH1 0x20 PUSH2 0x2B26 DUP4 CODECOPY DUP2 MLOAD SWAP2 MSTORE DUP1 SLOAD PUSH1 0x1 PUSH1 0x1 PUSH1 0xA0 SHL SUB NOT AND PUSH1 0x1 PUSH1 0x1 PUSH1 0xA0 SHL SUB SWAP3 SWAP1 SWAP3 AND SWAP2 SWAP1 SWAP2 OR SWAP1 SSTORE JUMP JUMPDEST PUSH1 0x60 PUSH1 0x0 DUP1 DUP5 PUSH1 0x1 PUSH1 0x1 PUSH1 0xA0 SHL SUB AND DUP5 PUSH1 0x40 MLOAD PUSH2 0x2348 SWAP2 SWAP1 PUSH2 0x2B09 JUMP JUMPDEST PUSH1 0x0 PUSH1 0x40 MLOAD DUP1 DUP4 SUB DUP2 DUP6 GAS DELEGATECALL SWAP2 POP POP RETURNDATASIZE DUP1 PUSH1 0x0 DUP2 EQ PUSH2 0x2383 JUMPI PUSH1 0x40 MLOAD SWAP2 POP PUSH1 0x1F NOT PUSH1 0x3F RETURNDATASIZE ADD AND DUP3 ADD PUSH1 0x40 MSTORE RETURNDATASIZE DUP3 MSTORE RETURNDATASIZE PUSH1 0x0 PUSH1 0x20 DUP5 ADD RETURNDATACOPY PUSH2 0x2388 JUMP JUMPDEST PUSH1 0x60 SWAP2 POP JUMPDEST POP SWAP2 POP SWAP2 POP PUSH2 0x2398 DUP6 DUP4 DUP4 PUSH2 0x23DA JUMP JUMPDEST SWAP6 SWAP5 POP POP POP POP POP JUMP JUMPDEST CALLVALUE ISZERO PUSH2 0xCA8 JUMPI PUSH1 0x40 MLOAD PUSH4 0xB398979F PUSH1 0xE0 SHL DUP2 MSTORE PUSH1 0x4 ADD PUSH1 0x40 MLOAD DUP1 SWAP2 SUB SWAP1 REVERT JUMPDEST PUSH1 0x0 PUSH2 0x23CA PUSH2 0x21C3 JUMP JUMPDEST SLOAD PUSH1 0x1 PUSH1 0x40 SHL SWAP1 DIV PUSH1 0xFF AND SWAP2 SWAP1 POP JUMP JUMPDEST PUSH1 0x60 DUP3 PUSH2 0x23EF JUMPI PUSH2 0x23EA DUP3 PUSH2 0x2436 JUMP JUMPDEST PUSH2 0x14E2 JUMP JUMPDEST DUP2 MLOAD ISZERO DUP1 ISZERO PUSH2 0x2406 JUMPI POP PUSH1 0x1 PUSH1 0x1 PUSH1 0xA0 SHL SUB DUP5 AND EXTCODESIZE ISZERO JUMPDEST ISZERO PUSH2 0x242F JUMPI PUSH1 0x40 MLOAD PUSH4 0x9996B315 PUSH1 0xE0 SHL DUP2 MSTORE PUSH1 0x1 PUSH1 0x1 PUSH1 0xA0 SHL SUB DUP6 AND PUSH1 0x4 DUP3 ADD MSTORE PUSH1 0x24 ADD PUSH2 0x721 JUMP JUMPDEST POP SWAP3 SWAP2 POP POP JUMP JUMPDEST DUP1 MLOAD ISZERO PUSH2 0x2445 JUMPI DUP1 MLOAD PUSH1 0x20 DUP3 ADD REVERT JUMPDEST PUSH1 0x40 MLOAD PUSH4 0xD6BDA275 PUSH1 0xE0 SHL DUP2 MSTORE PUSH1 0x4 ADD PUSH1 0x40 MLOAD DUP1 SWAP2 SUB SWAP1 REVERT JUMPDEST DUP1 CALLDATALOAD PUSH1 0x1 PUSH1 0x1 PUSH1 0xA0 SHL SUB DUP2 AND DUP2 EQ PUSH2 0x2475 JUMPI PUSH1 0x0 DUP1 REVERT JUMPDEST SWAP2 SWAP1 POP JUMP JUMPDEST PUSH4 0x4E487B71 PUSH1 0xE0 SHL PUSH1 0x0 MSTORE PUSH1 0x41 PUSH1 0x4 MSTORE PUSH1 0x24 PUSH1 0x0 REVERT JUMPDEST PUSH1 0x0 PUSH1 0x1 PUSH1 0x1 PUSH1 0x40 SHL SUB DUP1 DUP5 GT ISZERO PUSH2 0x24AA JUMPI PUSH2 0x24AA PUSH2 0x247A JUMP JUMPDEST PUSH1 0x40 MLOAD PUSH1 0x1F DUP6 ADD PUSH1 0x1F NOT SWAP1 DUP2 AND PUSH1 0x3F ADD AND DUP2 ADD SWAP1 DUP3 DUP3 GT DUP2 DUP4 LT OR ISZERO PUSH2 0x24D2 JUMPI PUSH2 0x24D2 PUSH2 0x247A JUMP JUMPDEST DUP2 PUSH1 0x40 MSTORE DUP1 SWAP4 POP DUP6 DUP2 MSTORE DUP7 DUP7 DUP7 ADD GT ISZERO PUSH2 0x24EB JUMPI PUSH1 0x0 DUP1 REVERT JUMPDEST DUP6 DUP6 PUSH1 0x20 DUP4 ADD CALLDATACOPY PUSH1 0x0 PUSH1 0x20 DUP8 DUP4 ADD ADD MSTORE POP POP POP SWAP4 SWAP3 POP POP POP JUMP JUMPDEST PUSH1 0x0 DUP1 PUSH1 0x40 DUP4 DUP6 SUB SLT ISZERO PUSH2 0x2518 JUMPI PUSH1 0x0 DUP1 REVERT JUMPDEST PUSH2 0x2521 DUP4 PUSH2 0x245E JUMP JUMPDEST SWAP2 POP PUSH1 0x20 DUP4 ADD CALLDATALOAD PUSH1 0x1 PUSH1 0x1 PUSH1 0x40 SHL SUB DUP2 GT ISZERO PUSH2 0x253C JUMPI PUSH1 0x0 DUP1 REVERT JUMPDEST DUP4 ADD PUSH1 0x1F DUP2 ADD DUP6 SGT PUSH2 0x254D JUMPI PUSH1 0x0 DUP1 REVERT JUMPDEST PUSH2 0x255C DUP6 DUP3 CALLDATALOAD PUSH1 0x20 DUP5 ADD PUSH2 0x2490 JUMP JUMPDEST SWAP2 POP POP SWAP3 POP SWAP3 SWAP1 POP JUMP JUMPDEST PUSH1 0x0 PUSH1 0x20 DUP3 DUP5 SUB SLT ISZERO PUSH2 0x2578 JUMPI PUSH1 0x0 DUP1 REVERT JUMPDEST PUSH2 0x14E2 DUP3 PUSH2 0x245E JUMP JUMPDEST PUSH1 0x0 JUMPDEST DUP4 DUP2 LT ISZERO PUSH2 0x259C JUMPI DUP2 DUP2 ADD MLOAD DUP4 DUP3 ADD MSTORE PUSH1 0x20 ADD PUSH2 0x2584 JUMP JUMPDEST POP POP PUSH1 0x0 SWAP2 ADD MSTORE JUMP JUMPDEST PUSH1 0x0 DUP2 MLOAD DUP1 DUP5 MSTORE PUSH2 0x25BD DUP2 PUSH1 0x20 DUP7 ADD PUSH1 0x20 DUP7 ADD PUSH2 0x2581 JUMP JUMPDEST PUSH1 0x1F ADD PUSH1 0x1F NOT AND SWAP3 SWAP1 SWAP3 ADD PUSH1 0x20 ADD SWAP3 SWAP2 POP POP JUMP JUMPDEST PUSH1 0x1 PUSH1 0x1 PUSH1 0xA0 SHL SUB DUP10 AND DUP2 MSTORE PUSH2 0x100 PUSH1 0x20 DUP3 ADD DUP2 SWAP1 MSTORE PUSH1 0x0 SWAP1 PUSH2 0x25F6 DUP4 DUP3 ADD DUP12 PUSH2 0x25A5 JUMP JUMPDEST PUSH1 0x40 DUP5 ADD SWAP10 SWAP1 SWAP10 MSTORE POP POP PUSH1 0x60 DUP2 ADD SWAP6 SWAP1 SWAP6 MSTORE PUSH1 0x80 DUP6 ADD SWAP4 SWAP1 SWAP4 MSTORE PUSH1 0xA0 DUP5 ADD SWAP2 SWAP1 SWAP2 MSTORE PUSH1 0xC0 DUP4 ADD MSTORE ISZERO ISZERO PUSH1 0xE0 SWAP1 SWAP2 ADD MSTORE SWAP3 SWAP2 POP POP JUMP JUMPDEST PUSH1 0x0 PUSH1 0x20 DUP3 DUP5 SUB SLT ISZERO PUSH2 0x263D JUMPI PUSH1 0x0 DUP1 REVERT JUMPDEST POP CALLDATALOAD SWAP2 SWAP1 POP JUMP JUMPDEST PUSH1 0x0 DUP1 PUSH1 0x0 PUSH1 0x60 DUP5 DUP7 SUB SLT ISZERO PUSH2 0x2659 JUMPI PUSH1 0x0 DUP1 REVERT JUMPDEST PUSH2 0x2662 DUP5 PUSH2 0x245E JUMP JUMPDEST SWAP6 PUSH1 0x20 DUP6 ADD CALLDATALOAD SWAP6 POP PUSH1 0x40 SWAP1 SWAP5 ADD CALLDATALOAD SWAP4 SWAP3 POP POP POP JUMP JUMPDEST PUSH1 0x0 DUP1 PUSH1 0x40 DUP4 DUP6 SUB SLT ISZERO PUSH2 0x268A JUMPI PUSH1 0x0 DUP1 REVERT JUMPDEST PUSH2 0x2693 DUP4 PUSH2 0x245E JUMP JUMPDEST SWAP5 PUSH1 0x20 SWAP4 SWAP1 SWAP4 ADD CALLDATALOAD SWAP4 POP POP POP JUMP JUMPDEST PUSH1 0x0 DUP1 PUSH1 0x40 DUP4 DUP6 SUB SLT ISZERO PUSH2 0x26B4 JUMPI PUSH1 0x0 DUP1 REVERT JUMPDEST POP POP DUP1 CALLDATALOAD SWAP3 PUSH1 0x20 SWAP1 SWAP2 ADD CALLDATALOAD SWAP2 POP JUMP JUMPDEST PUSH1 0x0 DUP2 MLOAD DUP1 DUP5 MSTORE PUSH1 0x20 DUP1 DUP6 ADD SWAP5 POP PUSH1 0x20 DUP5 ADD PUSH1 0x0 JUMPDEST DUP4 DUP2 LT ISZERO PUSH2 0x26FD JUMPI DUP2 MLOAD PUSH1 0x1 PUSH1 0x1 PUSH1 0xA0 SHL SUB AND DUP8 MSTORE SWAP6 DUP3 ADD SWAP6 SWAP1 DUP3 ADD SWAP1 PUSH1 0x1 ADD PUSH2 0x26D8 JUMP JUMPDEST POP SWAP5 SWAP6 SWAP5 POP POP POP POP POP JUMP JUMPDEST PUSH1 0x0 DUP2 MLOAD DUP1 DUP5 MSTORE PUSH1 0x20 DUP1 DUP6 ADD SWAP5 POP PUSH1 0x20 DUP5 ADD PUSH1 0x0 JUMPDEST DUP4 DUP2 LT ISZERO PUSH2 0x26FD JUMPI DUP2 MLOAD DUP8 MSTORE SWAP6 DUP3 ADD SWAP6 SWAP1 DUP3 ADD SWAP1 PUSH1 0x1 ADD PUSH2 0x271D JUMP JUMPDEST PUSH1 0x0 DUP3 DUP3 MLOAD DUP1 DUP6 MSTORE PUSH1 0x20 DUP1 DUP7 ADD SWAP6 POP PUSH1 0x20 DUP3 PUSH1 0x5 SHL DUP5 ADD ADD PUSH1 0x20 DUP7 ADD PUSH1 0x0 JUMPDEST DUP5 DUP2 LT ISZERO PUSH2 0x2786 JUMPI PUSH1 0x1F NOT DUP7 DUP5 SUB ADD DUP10 MSTORE PUSH2 0x2774 DUP4 DUP4 MLOAD PUSH2 0x25A5 JUMP JUMPDEST SWAP9 DUP5 ADD SWAP9 SWAP3 POP SWAP1 DUP4 ADD SWAP1 PUSH1 0x1 ADD PUSH2 0x2758 JUMP JUMPDEST POP SWAP1 SWAP8 SWAP7 POP POP POP POP POP POP POP JUMP JUMPDEST PUSH1 0x80 DUP2 MSTORE PUSH1 0x0 PUSH2 0x27A6 PUSH1 0x80 DUP4 ADD DUP8 PUSH2 0x26C3 JUMP JUMPDEST DUP3 DUP2 SUB PUSH1 0x20 DUP5 ADD MSTORE PUSH2 0x27B8 DUP2 DUP8 PUSH2 0x2708 JUMP JUMPDEST SWAP1 POP DUP3 DUP2 SUB PUSH1 0x40 DUP5 ADD MSTORE PUSH2 0x27CC DUP2 DUP7 PUSH2 0x2739 JUMP JUMPDEST SWAP1 POP DUP3 DUP2 SUB PUSH1 0x60 DUP5 ADD MSTORE PUSH2 0x27E0 DUP2 DUP6 PUSH2 0x2708 JUMP JUMPDEST SWAP8 SWAP7 POP POP POP POP POP POP POP JUMP JUMPDEST PUSH1 0x20 DUP2 MSTORE PUSH1 0x0 PUSH2 0x14E2 PUSH1 0x20 DUP4 ADD DUP5 PUSH2 0x25A5 JUMP JUMPDEST PUSH1 0x0 DUP1 PUSH1 0x0 PUSH1 0x60 DUP5 DUP7 SUB SLT ISZERO PUSH2 0x2813 JUMPI PUSH1 0x0 DUP1 REVERT JUMPDEST PUSH2 0x281C DUP5 PUSH2 0x245E JUMP JUMPDEST SWAP3 POP PUSH2 0x282A PUSH1 0x20 DUP6 ADD PUSH2 0x245E JUMP JUMPDEST SWAP2 POP PUSH2 0x2838 PUSH1 0x40 DUP6 ADD PUSH2 0x245E JUMP JUMPDEST SWAP1 POP SWAP3 POP SWAP3 POP SWAP3 JUMP JUMPDEST PUSH1 0x60 DUP2 MSTORE PUSH1 0x0 PUSH2 0x2854 PUSH1 0x60 DUP4 ADD DUP7 PUSH2 0x26C3 JUMP JUMPDEST DUP3 DUP2 SUB PUSH1 0x20 DUP5 ADD MSTORE PUSH2 0x2866 DUP2 DUP7 PUSH2 0x2708 JUMP JUMPDEST SWAP1 POP DUP3 DUP2 SUB PUSH1 0x40 DUP5 ADD MSTORE PUSH2 0x287A DUP2 DUP6 PUSH2 0x2739 JUMP JUMPDEST SWAP7 SWAP6 POP POP POP POP POP POP JUMP JUMPDEST PUSH1 0x40 DUP2 MSTORE PUSH1 0x0 PUSH2 0x2897 PUSH1 0x40 DUP4 ADD DUP6 PUSH2 0x26C3 JUMP JUMPDEST DUP3 DUP2 SUB PUSH1 0x20 DUP5 ADD MSTORE PUSH2 0x2398 DUP2 DUP6 PUSH2 0x2708 JUMP JUMPDEST PUSH1 0x1 DUP2 DUP2 SHR SWAP1 DUP3 AND DUP1 PUSH2 0x28BD JUMPI PUSH1 0x7F DUP3 AND SWAP2 POP JUMPDEST PUSH1 0x20 DUP3 LT DUP2 SUB PUSH2 0x28DD JUMPI PUSH4 0x4E487B71 PUSH1 0xE0 SHL PUSH1 0x0 MSTORE PUSH1 0x22 PUSH1 0x4 MSTORE PUSH1 0x24 PUSH1 0x0 REVERT JUMPDEST POP SWAP2 SWAP1 POP JUMP JUMPDEST PUSH1 0x1F DUP3 GT ISZERO PUSH2 0x207E JUMPI PUSH1 0x0 DUP2 PUSH1 0x0 MSTORE PUSH1 0x20 PUSH1 0x0 KECCAK256 PUSH1 0x1F DUP6 ADD PUSH1 0x5 SHR DUP2 ADD PUSH1 0x20 DUP7 LT ISZERO PUSH2 0x290C JUMPI POP DUP1 JUMPDEST PUSH1 0x1F DUP6 ADD PUSH1 0x5 SHR DUP3 ADD SWAP2 POP JUMPDEST DUP2 DUP2 LT ISZERO PUSH2 0x292B JUMPI DUP3 DUP2 SSTORE PUSH1 0x1 ADD PUSH2 0x2918 JUMP JUMPDEST POP POP POP POP POP POP JUMP JUMPDEST DUP2 MLOAD PUSH1 0x1 PUSH1 0x1 PUSH1 0x40 SHL SUB DUP2 GT ISZERO PUSH2 0x294C JUMPI PUSH2 0x294C PUSH2 0x247A JUMP JUMPDEST PUSH2 0x2960 DUP2 PUSH2 0x295A DUP5 SLOAD PUSH2 0x28A9 JUMP JUMPDEST DUP5 PUSH2 0x28E3 JUMP JUMPDEST PUSH1 0x20 DUP1 PUSH1 0x1F DUP4 GT PUSH1 0x1 DUP2 EQ PUSH2 0x2995 JUMPI PUSH1 0x0 DUP5 ISZERO PUSH2 0x297D JUMPI POP DUP6 DUP4 ADD MLOAD JUMPDEST PUSH1 0x0 NOT PUSH1 0x3 DUP7 SWAP1 SHL SHR NOT AND PUSH1 0x1 DUP6 SWAP1 SHL OR DUP6 SSTORE PUSH2 0x292B JUMP JUMPDEST PUSH1 0x0 DUP6 DUP2 MSTORE PUSH1 0x20 DUP2 KECCAK256 PUSH1 0x1F NOT DUP7 AND SWAP2 JUMPDEST DUP3 DUP2 LT ISZERO PUSH2 0x29C4 JUMPI DUP9 DUP7 ADD MLOAD DUP3 SSTORE SWAP5 DUP5 ADD SWAP5 PUSH1 0x1 SWAP1 SWAP2 ADD SWAP1 DUP5 ADD PUSH2 0x29A5 JUMP JUMPDEST POP DUP6 DUP3 LT ISZERO PUSH2 0x29E2 JUMPI DUP8 DUP6 ADD MLOAD PUSH1 0x0 NOT PUSH1 0x3 DUP9 SWAP1 SHL PUSH1 0xF8 AND SHR NOT AND DUP2 SSTORE JUMPDEST POP POP POP POP POP PUSH1 0x1 SWAP1 DUP2 SHL ADD SWAP1 SSTORE POP JUMP JUMPDEST PUSH4 0x4E487B71 PUSH1 0xE0 SHL PUSH1 0x0 MSTORE PUSH1 0x11 PUSH1 0x4 MSTORE PUSH1 0x24 PUSH1 0x0 REVERT JUMPDEST PUSH1 0x0 PUSH1 0x1 DUP3 ADD PUSH2 0x2A1A JUMPI PUSH2 0x2A1A PUSH2 0x29F2 JUMP JUMPDEST POP PUSH1 0x1 ADD SWAP1 JUMP JUMPDEST PUSH1 0x20 DUP1 DUP3 MSTORE PUSH1 0x13 SWAP1 DUP3 ADD MSTORE PUSH19 0x155CD95C881B9BDD081C9959DA5CDD195C9959 PUSH1 0x6A SHL PUSH1 0x40 DUP3 ADD MSTORE PUSH1 0x60 ADD SWAP1 JUMP JUMPDEST PUSH4 0x4E487B71 PUSH1 0xE0 SHL PUSH1 0x0 MSTORE PUSH1 0x32 PUSH1 0x4 MSTORE PUSH1 0x24 PUSH1 0x0 REVERT JUMPDEST DUP2 DUP2 SUB DUP2 DUP2 GT ISZERO PUSH2 0x177C JUMPI PUSH2 0x177C PUSH2 0x29F2 JUMP JUMPDEST PUSH4 0x4E487B71 PUSH1 0xE0 SHL PUSH1 0x0 MSTORE PUSH1 0x31 PUSH1 0x4 MSTORE PUSH1 0x24 PUSH1 0x0 REVERT JUMPDEST PUSH1 0x0 DUP2 PUSH2 0x2A9C JUMPI PUSH2 0x2A9C PUSH2 0x29F2 JUMP JUMPDEST POP PUSH1 0x0 NOT ADD SWAP1 JUMP JUMPDEST DUP1 DUP3 MUL DUP2 ISZERO DUP3 DUP3 DIV DUP5 EQ OR PUSH2 0x177C JUMPI PUSH2 0x177C PUSH2 0x29F2 JUMP JUMPDEST PUSH1 0x0 DUP3 PUSH2 0x2AD8 JUMPI PUSH4 0x4E487B71 PUSH1 0xE0 SHL PUSH1 0x0 MSTORE PUSH1 0x12 PUSH1 0x4 MSTORE PUSH1 0x24 PUSH1 0x0 REVERT JUMPDEST POP DIV SWAP1 JUMP JUMPDEST DUP1 DUP3 ADD DUP1 DUP3 GT ISZERO PUSH2 0x177C JUMPI PUSH2 0x177C PUSH2 0x29F2 JUMP JUMPDEST PUSH1 0x0 PUSH1 0x20 DUP3 DUP5 SUB SLT ISZERO PUSH2 0x2B02 JUMPI PUSH1 0x0 DUP1 REVERT JUMPDEST POP MLOAD SWAP2 SWAP1 POP JUMP JUMPDEST PUSH1 0x0 DUP3 MLOAD PUSH2 0x2B1B DUP2 DUP5 PUSH1 0x20 DUP8 ADD PUSH2 0x2581 JUMP JUMPDEST SWAP2 SWAP1 SWAP2 ADD SWAP3 SWAP2 POP POP JUMP INVALID CALLDATASIZE ADDMOD SWAP5 LOG1 EXTCODESIZE LOG1 LOG3 0x21 MOD PUSH8 0xC828492DB98DCA3E KECCAK256 PUSH23 0xCC3735A920A3CA505D382BBC4E129CD592C4928775615D CALLDATACOPY 0xD8 CREATE CREATE2 0xA5 0xE1 0x25 PUSH30 0xEC2F17B8B5FE34881B83B1CDC5A26469706673582212206840F9FD201310 PUSH31 0xF874E0AFBAE57A3008F05BF36B11CD2FE519B7EA4895DFD664736F6C634300 ADDMOD AND STOP CALLER "},"methodIdentifiers":{"BATTLE_WEIGHT()":"cf4ce72b","MAX_LEADERBOARD_SIZE()":"db877142","REPUTATION_WEIGHT()":"273e30e5","UPDATE_INTERVAL()":"89ac4147","UPGRADE_INTERFACE_VERSION()":"ad3cb1cc","YIELD_WEIGHT()":"dd8cd06c","battleLeaderboards(uint256)":"8e26a174","deactivateUser(address)":"1a47767b","forceUpdateAllScores()":"f025b0f7","getBattleLeaderboard(uint256)":"fa6335df","getLeaderboardStats()":"a078f8b7","getTopUsers(uint256)":"de75aa6c","getUserBattleRank(address,uint256)":"d87014d1","getUserRank(address)":"b2d1573f","getUserScoreDetails(address)":"7d338fc4","getUsersAroundRank(uint256,uint256)":"a2da5e13","initialize(address,address,address)":"c0c53b8b","isRegistered(address)":"c3c5a547","lastUpdateTime()":"c8f33c91","owner()":"8da5cb5b","proxiableUUID()":"52d1902d","rankedUsers(uint256)":"40f21be1","registerUser(address,string)":"0ea126f9","renounceOwnership()":"715018a6","totalUsers()":"bff1f9e1","transferOwnership(address)":"f2fde38b","updateBattleScore(address,uint256,uint256)":"80866432","updateReputationScore(address,uint256)":"8e4f9606","updateYieldScore(address,uint256,uint256)":"57578ce9","upgradeToAndCall(address,bytes)":"4f1ef286","userProfileContract()":"1c5f3099","userScores(address)":"1413d4c0","yieldVaultContract()":"f203f89b"}},"storageLayout":{"storage":[{"astId":1645,"contract":"contracts/Leaderboard.sol:Leaderboard","label":"userScores","offset":0,"slot":"0","type":"t_mapping(t_address,t_struct(UserScore)1592_storage)"},{"astId":1650,"contract":"contracts/Leaderboard.sol:Leaderboard","label":"battleLeaderboards","offset":0,"slot":"1","type":"t_mapping(t_uint256,t_struct(BattleLeaderboard)1608_storage)"},{"astId":1654,"contract":"contracts/Leaderboard.sol:Leaderboard","label":"isRegistered","offset":0,"slot":"2","type":"t_mapping(t_address,t_bool)"},{"astId":1657,"contract":"contracts/Leaderboard.sol:Leaderboard","label":"rankedUsers","offset":0,"slot":"3","type":"t_array(t_address)dyn_storage"},{"astId":1659,"contract":"contracts/Leaderboard.sol:Leaderboard","label":"yieldVaultContract","offset":0,"slot":"4","type":"t_address"},{"astId":1661,"contract":"contracts/Leaderboard.sol:Leaderboard","label":"userProfileContract","offset":0,"slot":"5","type":"t_address"},{"astId":1663,"contract":"contracts/Leaderboard.sol:Leaderboard","label":"totalUsers","offset":0,"slot":"6","type":"t_uint256"},{"astId":1665,"contract":"contracts/Leaderboard.sol:Leaderboard","label":"lastUpdateTime","offset":0,"slot":"7","type":"t_uint256"}],"types":{"t_address":{"encoding":"inplace","label":"address","numberOfBytes":"20"},"t_array(t_address)dyn_storage":{"base":"t_address","encoding":"dynamic_array","label":"address[]","numberOfBytes":"32"},"t_bool":{"encoding":"inplace","label":"bool","numberOfBytes":"1"},"t_mapping(t_address,t_bool)":{"encoding":"mapping","key":"t_address","label":"mapping(address => bool)","numberOfBytes":"32","value":"t_bool"},"t_mapping(t_address,t_struct(UserScore)1592_storage)":{"encoding":"mapping","key":"t_address","label":"mapping(address => struct Leaderboard.UserScore)","numberOfBytes":"32","value":"t_struct(UserScore)1592_storage"},"t_mapping(t_address,t_uint256)":{"encoding":"mapping","key":"t_address","label":"mapping(address => uint256)","numberOfBytes":"32","value":"t_uint256"},"t_mapping(t_uint256,t_struct(BattleLeaderboard)1608_storage)":{"encoding":"mapping","key":"t_uint256","label":"mapping(uint256 => struct Leaderboard.BattleLeaderboard)","numberOfBytes":"32","value":"t_struct(BattleLeaderboard)1608_storage"},"t_string_storage":{"encoding":"bytes","label":"string","numberOfBytes":"32"},"t_struct(BattleLeaderboard)1608_storage":{"encoding":"inplace","label":"struct Leaderboard.BattleLeaderboard","members":[{"astId":1594,"contract":"contracts/Leaderboard.sol:Leaderboard","label":"battleId","offset":0,"slot":"0","type":"t_uint256"},{"astId":1598,"contract":"contracts/Leaderboard.sol:Leaderboard","label":"userScores","offset":0,"slot":"1","type":"t_mapping(t_address,t_uint256)"},{"astId":1602,"contract":"contracts/Leaderboard.sol:Leaderboard","label":"hasScore","offset":0,"slot":"2","type":"t_mapping(t_address,t_bool)"},{"astId":1605,"contract":"contracts/Leaderboard.sol:Leaderboard","label":"participants","offset":0,"slot":"3","type":"t_array(t_address)dyn_storage"},{"astId":1607,"contract":"contracts/Leaderboard.sol:Leaderboard","label":"isActive","offset":0,"slot":"4","type":"t_bool"}],"numberOfBytes":"160"},"t_struct(UserScore)1592_storage":{"encoding":"inplace","label":"struct Leaderboard.UserScore","members":[{"astId":1577,"contract":"contracts/Leaderboard.sol:Leaderboard","label":"user","offset":0,"slot":"0","type":"t_address"},{"astId":1579,"contract":"contracts/Leaderboard.sol:Leaderboard","label":"username","offset":0,"slot":"1","type":"t_string_storage"},{"astId":1581,"contract":"contracts/Leaderboard.sol:Leaderboard","label":"totalScore","offset":0,"slot":"2","type":"t_uint256"},{"astId":1583,"contract":"contracts/Leaderboard.sol:Leaderboard","label":"yieldScore","offset":0,"slot":"3","type":"t_uint256"},{"astId":1585,"contract":"contracts/Leaderboard.sol:Leaderboard","label":"battleScore","offset":0,"slot":"4","type":"t_uint256"},{"astId":1587,"contract":"contracts/Leaderboard.sol:Leaderboard","label":"reputationScore","offset":0,"slot":"5","type":"t_uint256"},{"astId":1589,"contract":"contracts/Leaderboard.sol:Leaderboard","label":"lastUpdated","offset":0,"slot":"6","type":"t_uint256"},{"astId":1591,"contract":"contracts/Leaderboard.sol:Leaderboard","label":"isActive","offset":0,"slot":"7","type":"t_bool"}],"numberOfBytes":"256"},"t_uint256":{"encoding":"inplace","label":"uint256","numberOfBytes":"32"}}}}}}