{"contracts/AIStrategy.sol":{"AIStrategy":{"abi":[{"inputs":[],"stateMutability":"nonpayable","type":"constructor"},{"inputs":[{"internalType":"address","name":"target","type":"address"}],"name":"AddressEmptyCode","type":"error"},{"inputs":[{"internalType":"address","name":"implementation","type":"address"}],"name":"ERC1967InvalidImplementation","type":"error"},{"inputs":[],"name":"ERC1967NonPayable","type":"error"},{"inputs":[],"name":"FailedCall","type":"error"},{"inputs":[],"name":"InvalidInitialization","type":"error"},{"inputs":[],"name":"NotInitializing","type":"error"},{"inputs":[{"internalType":"address","name":"owner","type":"address"}],"name":"OwnableInvalidOwner","type":"error"},{"inputs":[{"internalType":"address","name":"account","type":"address"}],"name":"OwnableUnauthorizedAccount","type":"error"},{"inputs":[],"name":"ReentrancyGuardReentrantCall","type":"error"},{"inputs":[],"name":"UUPSUnauthorizedCallContext","type":"error"},{"inputs":[{"internalType":"bytes32","name":"slot","type":"bytes32"}],"name":"UUPSUnsupportedProxiableUUID","type":"error"},{"anonymous":false,"inputs":[{"indexed":true,"internalType":"address","name":"user","type":"address"},{"indexed":false,"internalType":"uint256[]","name":"recommendedStrategies","type":"uint256[]"},{"indexed":false,"internalType":"uint256","name":"confidence","type":"uint256"},{"indexed":false,"internalType":"uint256","name":"timestamp","type":"uint256"}],"name":"AIRecommendationGenerated","type":"event"},{"anonymous":false,"inputs":[{"indexed":false,"internalType":"uint64","name":"version","type":"uint64"}],"name":"Initialized","type":"event"},{"anonymous":false,"inputs":[{"indexed":false,"internalType":"uint256","name":"volatility","type":"uint256"},{"indexed":false,"internalType":"uint256","name":"liquidity","type":"uint256"},{"indexed":false,"internalType":"uint256","name":"yieldTrend","type":"uint256"},{"indexed":false,"internalType":"uint256","name":"riskLevel","type":"uint256"},{"indexed":false,"internalType":"uint256","name":"timestamp","type":"uint256"}],"name":"MarketConditionUpdated","type":"event"},{"anonymous":false,"inputs":[{"indexed":true,"internalType":"address","name":"previousOwner","type":"address"},{"indexed":true,"internalType":"address","name":"newOwner","type":"address"}],"name":"OwnershipTransferred","type":"event"},{"anonymous":false,"inputs":[{"indexed":true,"internalType":"address","name":"user","type":"address"},{"indexed":true,"internalType":"uint256","name":"strategyId","type":"uint256"},{"indexed":false,"internalType":"uint256","name":"depositAmount","type":"uint256"},{"indexed":false,"internalType":"uint256","name":"expectedReturn","type":"uint256"},{"indexed":false,"internalType":"uint256","name":"timestamp","type":"uint256"}],"name":"StrategyAdopted","type":"event"},{"anonymous":false,"inputs":[{"indexed":true,"internalType":"address","name":"user","type":"address"},{"indexed":true,"internalType":"uint256","name":"strategyId","type":"uint256"},{"indexed":false,"internalType":"uint256","name":"actualReturn","type":"uint256"},{"indexed":false,"internalType":"uint256","name":"performanceScore","type":"uint256"},{"indexed":false,"internalType":"uint256","name":"timestamp","type":"uint256"}],"name":"StrategyCompleted","type":"event"},{"anonymous":false,"inputs":[{"indexed":true,"internalType":"uint256","name":"strategyId","type":"uint256"},{"indexed":false,"internalType":"string","name":"name","type":"string"},{"indexed":false,"internalType":"uint256","name":"riskLevel","type":"uint256"},{"indexed":false,"internalType":"uint256","name":"expectedYield","type":"uint256"},{"indexed":false,"internalType":"uint256","name":"timestamp","type":"uint256"}],"name":"StrategyCreated","type":"event"},{"anonymous":false,"inputs":[{"indexed":true,"internalType":"address","name":"implementation","type":"address"}],"name":"Upgraded","type":"event"},{"inputs":[],"name":"LIQUIDITY_WEIGHT","outputs":[{"internalType":"uint256","name":"","type":"uint256"}],"stateMutability":"view","type":"function"},{"inputs":[],"name":"MAX_RISK_LEVEL","outputs":[{"internalType":"uint256","name":"","type":"uint256"}],"stateMutability":"view","type":"function"},{"inputs":[],"name":"MAX_YIELD","outputs":[{"internalType":"uint256","name":"","type":"uint256"}],"stateMutability":"view","type":"function"},{"inputs":[],"name":"MIN_RISK_LEVEL","outputs":[{"internalType":"uint256","name":"","type":"uint256"}],"stateMutability":"view","type":"function"},{"inputs":[],"name":"MIN_YIELD","outputs":[{"internalType":"uint256","name":"","type":"uint256"}],"stateMutability":"view","type":"function"},{"inputs":[],"name":"PERFORMANCE_BONUS","outputs":[{"internalType":"uint256","name":"","type":"uint256"}],"stateMutability":"view","type":"function"},{"inputs":[],"name":"RISK_WEIGHT","outputs":[{"internalType":"uint256","name":"","type":"uint256"}],"stateMutability":"view","type":"function"},{"inputs":[],"name":"UPGRADE_INTERFACE_VERSION","outputs":[{"internalType":"string","name":"","type":"string"}],"stateMutability":"view","type":"function"},{"inputs":[],"name":"VOLATILITY_WEIGHT","outputs":[{"internalType":"uint256","name":"","type":"uint256"}],"stateMutability":"view","type":"function"},{"inputs":[],"name":"YIELD_TREND_WEIGHT","outputs":[{"internalType":"uint256","name":"","type":"uint256"}],"stateMutability":"view","type":"function"},{"inputs":[{"internalType":"uint256","name":"_strategyId","type":"uint256"},{"internalType":"uint256","name":"_depositAmount","type":"uint256"}],"name":"adoptStrategy","outputs":[],"stateMutability":"nonpayable","type":"function"},{"inputs":[{"internalType":"uint256","name":"_strategyIndex","type":"uint256"}],"name":"completeStrategy","outputs":[],"stateMutability":"nonpayable","type":"function"},{"inputs":[{"internalType":"string","name":"_name","type":"string"},{"internalType":"string","name":"_description","type":"string"},{"internalType":"uint256","name":"_riskLevel","type":"uint256"},{"internalType":"uint256","name":"_expectedYield","type":"uint256"},{"internalType":"uint256","name":"_minDeposit","type":"uint256"},{"internalType":"uint256","name":"_maxDeposit","type":"uint256"},{"internalType":"uint256","name":"_duration","type":"uint256"}],"name":"createStrategy","outputs":[],"stateMutability":"nonpayable","type":"function"},{"inputs":[],"name":"currentMarketCondition","outputs":[{"internalType":"uint256","name":"volatility","type":"uint256"},{"internalType":"uint256","name":"liquidity","type":"uint256"},{"internalType":"uint256","name":"yieldTrend","type":"uint256"},{"internalType":"uint256","name":"riskLevel","type":"uint256"},{"internalType":"uint256","name":"timestamp","type":"uint256"}],"stateMutability":"view","type":"function"},{"inputs":[{"internalType":"address","name":"_user","type":"address"}],"name":"generateAIRecommendations","outputs":[{"internalType":"uint256[]","name":"recommendedStrategies","type":"uint256[]"},{"internalType":"uint256","name":"confidence","type":"uint256"}],"stateMutability":"view","type":"function"},{"inputs":[],"name":"getAIStrategyStats","outputs":[{"internalType":"uint256","name":"_totalStrategies","type":"uint256"},{"internalType":"uint256","name":"_totalUsersWithStrategies","type":"uint256"},{"internalType":"uint256","name":"_nextStrategyId","type":"uint256"}],"stateMutability":"view","type":"function"},{"inputs":[],"name":"getCurrentMarketCondition","outputs":[{"internalType":"uint256","name":"volatility","type":"uint256"},{"internalType":"uint256","name":"liquidity","type":"uint256"},{"internalType":"uint256","name":"yieldTrend","type":"uint256"},{"internalType":"uint256","name":"riskLevel","type":"uint256"},{"internalType":"uint256","name":"timestamp","type":"uint256"}],"stateMutability":"view","type":"function"},{"inputs":[{"internalType":"uint256","name":"_strategyId","type":"uint256"}],"name":"getStrategyDetails","outputs":[{"internalType":"string","name":"name","type":"string"},{"internalType":"string","name":"description","type":"string"},{"internalType":"uint256","name":"riskLevel","type":"uint256"},{"internalType":"uint256","name":"expectedYield","type":"uint256"},{"internalType":"uint256","name":"minDeposit","type":"uint256"},{"internalType":"uint256","name":"maxDeposit","type":"uint256"},{"internalType":"uint256","name":"duration","type":"uint256"},{"internalType":"bool","name":"isActive","type":"bool"},{"internalType":"uint256","name":"totalUsers","type":"uint256"},{"internalType":"uint256","name":"totalVolume","type":"uint256"},{"internalType":"uint256","name":"successRate","type":"uint256"}],"stateMutability":"view","type":"function"},{"inputs":[{"internalType":"address","name":"_user","type":"address"}],"name":"getUserActiveStrategies","outputs":[{"internalType":"uint256[]","name":"strategyIds","type":"uint256[]"},{"internalType":"uint256[]","name":"depositAmounts","type":"uint256[]"},{"internalType":"uint256[]","name":"endTimes","type":"uint256[]"}],"stateMutability":"view","type":"function"},{"inputs":[{"internalType":"address","name":"_user","type":"address"},{"internalType":"uint256","name":"_strategyIndex","type":"uint256"}],"name":"getUserStrategyPerformance","outputs":[{"internalType":"uint256","name":"strategyId","type":"uint256"},{"internalType":"uint256","name":"depositAmount","type":"uint256"},{"internalType":"uint256","name":"startTime","type":"uint256"},{"internalType":"uint256","name":"endTime","type":"uint256"},{"internalType":"uint256","name":"expectedReturn","type":"uint256"},{"internalType":"uint256","name":"actualReturn","type":"uint256"},{"internalType":"bool","name":"isActive","type":"bool"},{"internalType":"uint256","name":"performanceScore","type":"uint256"}],"stateMutability":"view","type":"function"},{"inputs":[{"internalType":"address","name":"_owner","type":"address"}],"name":"initialize","outputs":[],"stateMutability":"nonpayable","type":"function"},{"inputs":[],"name":"nextStrategyId","outputs":[{"internalType":"uint256","name":"","type":"uint256"}],"stateMutability":"view","type":"function"},{"inputs":[],"name":"owner","outputs":[{"internalType":"address","name":"","type":"address"}],"stateMutability":"view","type":"function"},{"inputs":[],"name":"proxiableUUID","outputs":[{"internalType":"bytes32","name":"","type":"bytes32"}],"stateMutability":"view","type":"function"},{"inputs":[],"name":"renounceOwnership","outputs":[],"stateMutability":"nonpayable","type":"function"},{"inputs":[{"internalType":"uint256","name":"","type":"uint256"}],"name":"strategies","outputs":[{"internalType":"uint256","name":"strategyId","type":"uint256"},{"internalType":"string","name":"name","type":"string"},{"internalType":"string","name":"description","type":"string"},{"internalType":"uint256","name":"riskLevel","type":"uint256"},{"internalType":"uint256","name":"expectedYield","type":"uint256"},{"internalType":"uint256","name":"minDeposit","type":"uint256"},{"internalType":"uint256","name":"maxDeposit","type":"uint256"},{"internalType":"uint256","name":"duration","type":"uint256"},{"internalType":"bool","name":"isActive","type":"bool"},{"internalType":"uint256","name":"totalUsers","type":"uint256"},{"internalType":"uint256","name":"totalVolume","type":"uint256"},{"internalType":"uint256","name":"successRate","type":"uint256"}],"stateMutability":"view","type":"function"},{"inputs":[],"name":"totalStrategies","outputs":[{"internalType":"uint256","name":"","type":"uint256"}],"stateMutability":"view","type":"function"},{"inputs":[],"name":"totalUsersWithStrategies","outputs":[{"internalType":"uint256","name":"","type":"uint256"}],"stateMutability":"view","type":"function"},{"inputs":[{"internalType":"address","name":"newOwner","type":"address"}],"name":"transferOwnership","outputs":[],"stateMutability":"nonpayable","type":"function"},{"inputs":[],"name":"updateMarketCondition","outputs":[],"stateMutability":"nonpayable","type":"function"},{"inputs":[{"internalType":"address","name":"newImplementation","type":"address"},{"internalType":"bytes","name":"data","type":"bytes"}],"name":"upgradeToAndCall","outputs":[],"stateMutability":"payable","type":"function"},{"inputs":[{"internalType":"address","name":"","type":"address"},{"internalType":"uint256","name":"","type":"uint256"}],"name":"userStrategies","outputs":[{"internalType":"uint256","name":"strategyId","type":"uint256"},{"internalType":"uint256","name":"depositAmount","type":"uint256"},{"internalType":"uint256","name":"startTime","type":"uint256"},{"internalType":"uint256","name":"endTime","type":"uint256"},{"internalType":"uint256","name":"expectedReturn","type":"uint256"},{"internalType":"uint256","name":"actualReturn","type":"uint256"},{"internalType":"bool","name":"isActive","type":"bool"},{"internalType":"uint256","name":"performanceScore","type":"uint256"}],"stateMutability":"view","type":"function"},{"inputs":[{"internalType":"address","name":"","type":"address"}],"name":"userStrategyCount","outputs":[{"internalType":"uint256","name":"","type":"uint256"}],"stateMutability":"view","type":"function"},{"inputs":[{"internalType":"address","name":"","type":"address"}],"name":"userTotalPerformance","outputs":[{"internalType":"uint256","name":"","type":"uint256"}],"stateMutability":"view","type":"function"}],"evm":{"bytecode":{"linkReferences":{},"object":"60a0604052306080523480156200001557600080fd5b506200002062000026565b620000da565b7ff0c57e16840df040f15088dc2f81fe391c3923bec73e23a9662efc9c229c6a00805468010000000000000000900460ff1615620000775760405163f92ee8a960e01b815260040160405180910390fd5b80546001600160401b0390811614620000d75780546001600160401b0319166001600160401b0390811782556040519081527fc7f505b2f371ae2175ee4913f4499e1f2633a7b5936321eed1cdaeb6115181d29060200160405180910390a15b50565b608051612d6c6200010460003960008181611987015281816119b00152611af60152612d6c6000f3fe6080604052600436106101f95760003560e01c80638da5cb5b1161010d578063d574ea3d116100a0578063e42836e21161006f578063e42836e214610633578063f2fde38b14610653578063f96d7b8014610673578063fd0e841a14610507578063fe25333a1461068957600080fd5b8063d574ea3d146105a2578063df25d079146105da578063e382662d146105ef578063e3c8f1271461061d57600080fd5b8063b806a23e116100dc578063b806a23e1461051c578063bfc975d11461054d578063c4d66de81461056d578063cc8317851461058d57600080fd5b80638da5cb5b146104625780639373e58a146104a9578063ad3cb1cc146104c9578063b3a591a51461050757600080fd5b8063390bc5f21161019057806352d1902d1161015f57806352d1902d146103ee5780635e5bc962146104035780636bc2327214610418578063715018a61461042d578063746065f81461044257600080fd5b8063390bc5f21461033a5780633bf8b3cc146103675780633e9f9e491461037e5780634f1ef286146103db57600080fd5b80630ef28951116101cc5780630ef28951146102b0578063175805fe146102c6578063185f8447146102ed57806332a50c7f1461030357600080fd5b806304ed2b27146101fe5780630afce902146102265780630bc65c0f1461026b5780630d21ea041461029a575b600080fd5b34801561020a57600080fd5b50610213600a81565b6040519081526020015b60405180910390f35b34801561023257600080fd5b506004546005546006546007546008545b604080519586526020860194909452928401919091526060830152608082015260a00161021d565b34801561027757600080fd5b5061028b6102863660046124dc565b6106b6565b60405161021d93929190612533565b3480156102a657600080fd5b506102136103e881565b3480156102bc57600080fd5b50610213600b5481565b3480156102d257600080fd5b50600454600554600654600754600854610243949392919085565b3480156102f957600080fd5b5061021360095481565b34801561030f57600080fd5b5061032361031e366004612576565b6109ba565b60405161021d9b9a999897969594939291906125df565b34801561034657600080fd5b506102136103553660046124dc565b60036020526000908152604090205481565b34801561037357600080fd5b5061037c610bae565b005b34801561038a57600080fd5b5061039e610399366004612651565b610bc0565b604080519889526020890197909752958701949094526060860192909252608085015260a0840152151560c083015260e08201526101000161021d565b61037c6103e9366004612707565b610c28565b3480156103fa57600080fd5b50610213610c47565b34801561040f57600080fd5b50610213606481565b34801561042457600080fd5b50610213600181565b34801561043957600080fd5b5061037c610c64565b34801561044e57600080fd5b5061037c61045d366004612576565b610c76565b34801561046e57600080fd5b507f9016d09d72d40fdae2fd8ceac6b6234c7706214fd39c1cd1e609a0528c199300546040516001600160a01b03909116815260200161021d565b3480156104b557600080fd5b5061037c6104c4366004612789565b610f1e565b3480156104d557600080fd5b506104fa604051806040016040528060058152602001640352e302e360dc1b81525081565b60405161021d9190612819565b34801561051357600080fd5b50610213601981565b34801561052857600080fd5b50600a54600b546009546040805193845260208401929092529082015260600161021d565b34801561055957600080fd5b5061039e610568366004612651565b610f3e565b34801561057957600080fd5b5061037c6105883660046124dc565b611039565b34801561059957600080fd5b50610213601e81565b3480156105ae57600080fd5b506105c26105bd366004612576565b61115a565b60405161021d9c9b9a9998979695949392919061282c565b3480156105e657600080fd5b50610213601481565b3480156105fb57600080fd5b5061060f61060a3660046124dc565b6112cc565b60405161021d9291906128a6565b34801561062957600080fd5b5061021361138881565b34801561063f57600080fd5b5061037c61064e3660046128c8565b61150f565b34801561065f57600080fd5b5061037c61066e3660046124dc565b61181a565b34801561067f57600080fd5b50610213600a5481565b34801561069557600080fd5b506102136106a43660046124dc565b60026020526000908152604090205481565b60608060606000805b6001600160a01b03861660009081526001602052604090205481101561073b576001600160a01b0386166000908152600160205260409020805482908110610709576107096128ea565b600091825260209091206006600890920201015460ff1615610733578161072f81612916565b9250505b6001016106bf565b508067ffffffffffffffff8111156107555761075561267b565b60405190808252806020026020018201604052801561077e578160200160208202803683370190505b5093508067ffffffffffffffff81111561079a5761079a61267b565b6040519080825280602002602001820160405280156107c3578160200160208202803683370190505b5092508067ffffffffffffffff8111156107df576107df61267b565b604051908082528060200260200182016040528015610808578160200160208202803683370190505b5091506000805b6001600160a01b0387166000908152600160205260409020548110156109b0576001600160a01b0387166000908152600160205260409020805482908110610859576108596128ea565b600091825260209091206006600890920201015460ff16156109a8576001600160a01b038716600090815260016020526040902080548290811061089f5761089f6128ea565b9060005260206000209060080201600001548683815181106108c3576108c36128ea565b60200260200101818152505060016000886001600160a01b03166001600160a01b031681526020019081526020016000208181548110610905576109056128ea565b906000526020600020906008020160010154858381518110610929576109296128ea565b60200260200101818152505060016000886001600160a01b03166001600160a01b03168152602001908152602001600020818154811061096b5761096b6128ea565b90600052602060002090600802016003015484838151811061098f5761098f6128ea565b6020908102919091010152816109a481612916565b9250505b60010161080f565b5050509193909250565b6060806000806000806000806000806000806000808e815260200190815260200160002090508060000154600003610a2e5760405162461bcd60e51b815260206004820152601260248201527114dd1c985d1959de481b9bdd08199bdd5b9960721b60448201526064015b60405180910390fd5b8060010181600201826003015483600401548460050154856006015486600701548760080160009054906101000a900460ff16886009015489600a01548a600b01548a8054610a7c9061292f565b80601f0160208091040260200160405190810160405280929190818152602001828054610aa89061292f565b8015610af55780601f10610aca57610100808354040283529160200191610af5565b820191906000526020600020905b815481529060010190602001808311610ad857829003601f168201915b50505050509a50898054610b089061292f565b80601f0160208091040260200160405190810160405280929190818152602001828054610b349061292f565b8015610b815780601f10610b5657610100808354040283529160200191610b81565b820191906000526020600020905b815481529060010190602001808311610b6457829003601f168201915b505050505099509b509b509b509b509b509b509b509b509b509b509b505091939597999b90929496989a50565b610bb6611855565b610bbe6118b0565b565b60016020528160005260406000208181548110610bdc57600080fd5b6000918252602090912060089091020180546001820154600283015460038401546004850154600586015460068701546007909701549598509396509194909391929160ff9091169088565b610c3061197c565b610c3982611a21565b610c438282611a29565b5050565b6000610c51611aeb565b50600080516020612c7983398151915290565b610c6c611855565b610bbe6000611b34565b610c7e611ba5565b336000908152600160205260409020548110610cd55760405162461bcd60e51b8152602060048201526016602482015275092dcecc2d8d2c840e6e8e4c2e8cacef240d2dcc8caf60531b6044820152606401610a25565b336000908152600160205260408120805483908110610cf657610cf66128ea565b60009182526020909120600890910201600681015490915060ff16610d535760405162461bcd60e51b81526020600482015260136024820152725374726174656779206e6f742061637469766560681b6044820152606401610a25565b8060030154421015610da75760405162461bcd60e51b815260206004820152601a60248201527f5374726174656779206e6f7420636f6d706c65746564207965740000000000006044820152606401610a25565b604080516101008101825282548152600183015460208201526002830154918101919091526003820154606082015260048201546080820152600582015460a0820152600682015460ff16151560c0820152600782015460e0820152600090610e0f90611bdd565b6005830181905560068301805460ff1916905560408051610100810182528454815260018501546020820152600285015491810191909152600384015460608201526004840154608082015260a08101829052600060c08201819052600785015460e0830152919250610e8190611d01565b6007840181905533600090815260036020526040812080549293508392909190610eac908490612969565b90915550508254610ebd9082611da0565b825460408051848152602081018490524281830152905133917f33b648445e4fbcc091bac2f983632cb7113a5bfa101421cc24c668d19147885d919081900360600190a3505050610f1b6001600080516020612cdc83398151915255565b50565b610f26611855565b610f3587878787878787611e04565b50505050505050565b6001600160a01b03821660009081526001602052604081205481908190819081908190819081908910610fb35760405162461bcd60e51b815260206004820152601c60248201527f537472617465677920696e646578206f7574206f6620626f756e6473000000006044820152606401610a25565b6001600160a01b038a16600090815260016020526040812080548b908110610fdd57610fdd6128ea565b600091825260209091206008909102018054600182015460028301546003840154600485015460058601546006870154600790970154959f50939d50919b5099509750955060ff90911693509150509295985092959890939650565b600061104361203f565b805490915060ff600160401b820416159067ffffffffffffffff1660008115801561106b5750825b905060008267ffffffffffffffff1660011480156110885750303b155b905081158015611096575080155b156110b45760405163f92ee8a960e01b815260040160405180910390fd5b845467ffffffffffffffff1916600117855583156110de57845460ff60401b1916600160401b1785555b6110e78661206a565b6110ef61207b565b6110f7612083565b6001600955611104612093565b61110c6118b0565b831561115257845460ff60401b19168555604051600181527fc7f505b2f371ae2175ee4913f4499e1f2633a7b5936321eed1cdaeb6115181d29060200160405180910390a15b505050505050565b6000602081905290815260409020805460018201805491929161117c9061292f565b80601f01602080910402602001604051908101604052809291908181526020018280546111a89061292f565b80156111f55780601f106111ca576101008083540402835291602001916111f5565b820191906000526020600020905b8154815290600101906020018083116111d857829003601f168201915b50505050509080600201805461120a9061292f565b80601f01602080910402602001604051908101604052809291908181526020018280546112369061292f565b80156112835780601f1061125857610100808354040283529160200191611283565b820191906000526020600020905b81548152906001019060200180831161126657829003601f168201915b50505060038401546004850154600586015460068701546007880154600889015460098a0154600a8b0154600b909b0154999a96999598509396509194909360ff90921692918c565b6001600160a01b0381166000908152600360209081526040808320546002909252822054606092919080830361130557603c9250611336565b600a6113118284612992565b61131b9190612992565b611326906046612969565b9250605f83111561133657605f92505b6040805160038082526080820190925260009160208201606080368337019050509050600060015b600a54811161146f5760008181526020819052604090206008015460ff161561145d5760008181526020819052604081206004549091906003108015906113aa57506003826003015411155b156113b75750600161141c565b6004546007118015906113cf57506007826003015410155b156113dc5750600161141c565b60048054108015906113f15750600454600610155b801561140257506004826003015410155b801561141357506006826003015411155b1561141c575060015b8080156114295750600384105b1561145a5782858581518110611441576114416128ea565b60209081029190910101528361145681612916565b9450505b50505b8061146781612916565b91505061135e565b5060008167ffffffffffffffff81111561148b5761148b61267b565b6040519080825280602002602001820160405280156114b4578160200160208202803683370190505b50905060005b82811015611501578381815181106114d4576114d46128ea565b60200260200101518282815181106114ee576114ee6128ea565b60209081029190910101526001016114ba565b508096505050505050915091565b611517611ba5565b60008281526020819052604090206008015460ff1661156e5760405162461bcd60e51b81526020600482015260136024820152725374726174656779206e6f742061637469766560681b6044820152606401610a25565b6000828152602081905260409020600501548110156115c75760405162461bcd60e51b81526020600482015260156024820152744465706f7369742062656c6f77206d696e696d756d60581b6044820152606401610a25565b6000828152602081905260409020600601548111156116205760405162461bcd60e51b81526020600482015260156024820152744465706f7369742061626f7665206d6178696d756d60581b6044820152606401610a25565b60008281526020819052604081206007810154600482015491929164496cebb800919061164d90866129a6565b61165791906129a6565b6116619190612992565b9050600060405180610100016040528086815260200185815260200142815260200184600701546201518061169691906129a6565b6116a09042612969565b81526020808201859052600060408084018290526001606080860182905260809586018490523380855282865283852080548085018255908652868620895160089092020190815588870151938101939093558784015160028085019190915591880151600384015595870151600483015560a0870151600583015560c087015160068301805460ff191691151591909117905560e08701516007909201919091559382529290915290812080549293509061175b83612916565b909155505060098301805490600061177283612916565b91905055508383600a01600082825461178b9190612969565b9091555050336000908152600260205260409020546001036117bd57600b80549060006117b783612916565b91905055505b604080518581526020810184905242818301529051869133917f762cf3bda0d16f2f91a668d962b437b451106bcdc05b08e9fe446cd3309e2e279181900360600190a3505050610c436001600080516020612cdc83398151915255565b611822611855565b6001600160a01b03811661184c57604051631e4fbdf760e01b815260006004820152602401610a25565b610f1b81611b34565b336118877f9016d09d72d40fdae2fd8ceac6b6234c7706214fd39c1cd1e609a0528c199300546001600160a01b031690565b6001600160a01b031614610bbe5760405163118cdaa760e01b8152336004820152602401610a25565b6040518060a001604052806118c76001600a612223565b81526020016118d86001600a612223565b81526020016118e96001600a612223565b81526020016118fa6001600a612223565b81524260209182018190528251600481905583830151600581905560408086015160068190556060808801516007819055608098890151600855835195865296850193909352838201529082019390935292830152517f09d32a4039b2b9507fbf67196f289ad4a43218a4fefbd3774dcbc1244740de429181900360a00190a1565b306001600160a01b037f0000000000000000000000000000000000000000000000000000000000000000161480611a0357507f00000000000000000000000000000000000000000000000000000000000000006001600160a01b03166119f7600080516020612c79833981519152546001600160a01b031690565b6001600160a01b031614155b15610bbe5760405163703e46dd60e11b815260040160405180910390fd5b610f1b611855565b816001600160a01b03166352d1902d6040518163ffffffff1660e01b8152600401602060405180830381865afa925050508015611a83575060408051601f3d908101601f19168201909252611a80918101906129bd565b60015b611aab57604051634c9c8ce360e01b81526001600160a01b0383166004820152602401610a25565b600080516020612c798339815191528114611adc57604051632a87526960e21b815260048101829052602401610a25565b611ae683836122a6565b505050565b306001600160a01b037f00000000000000000000000000000000000000000000000000000000000000001614610bbe5760405163703e46dd60e11b815260040160405180910390fd5b7f9016d09d72d40fdae2fd8ceac6b6234c7706214fd39c1cd1e609a0528c19930080546001600160a01b031981166001600160a01b03848116918217845560405192169182907f8be0079c531659141344cd1fd0a4f28419497f9722a3daafe3b4186f6b6457e090600090a3505050565b600080516020612cdc833981519152805460011901611bd757604051633ee5aeb560e01b815260040160405180910390fd5b60029055565b8051600090815260208190526040812060808301516004548390606490611c0590600a6129a6565b611c0f9190612992565b9050600060646004600101546005611c2791906129a6565b611c319190612992565b905060006064600460020154600f611c4991906129a6565b611c539190612992565b9050600081611c6284866129d6565b611c6c91906129d6565b9050600586600301541115611c9c576003860154611c8b9060026129a6565b611c9590826129d6565b9050611cc4565b6003860154611cac9060066129fe565b611cb79060026129a6565b611cc19082612a11565b90505b60006064611cd28388612a31565b611cdc9190612a61565b611ce690876129d6565b90506000811215611cf5575060005b98975050505050505050565b60008160800151600003611d1757506000919050565b600082608001518360a001516064611d2f91906129a6565b611d399190612992565b90506064808210611d71576000611d516064846129fe565b611d5c9060026129a6565b9050611d688183612969565b95945050505050565b6000611d7e8360646129fe565b611d899060016129a6565b905081811115611d965750805b611d6881836129fe565b6000828152602081905260408120600b810154909160026064851015611dc7576000611dca565b60645b611dd79060ff1684612969565b611de19190612992565b600b9093019290925550505050565b6001600080516020612cdc83398151915255565b60018510158015611e165750600a8511155b611e575760405162461bcd60e51b8152602060048201526012602482015271125b9d985b1a59081c9a5cdac81b195d995b60721b6044820152606401610a25565b60648410158015611e6a57506113888411155b611eaf5760405162461bcd60e51b8152602060048201526016602482015275125b9d985b1a5908195e1c1958dd1959081e5a595b1960521b6044820152606401610a25565b600083118015611ebe57508282115b611f035760405162461bcd60e51b8152602060048201526016602482015275496e76616c6964206465706f736974206c696d69747360501b6044820152606401610a25565b600081118015611f15575061016d8111155b611f545760405162461bcd60e51b815260206004820152601060248201526f24b73b30b634b210323ab930ba34b7b760811b6044820152606401610a25565b6009805460009182611f6583612916565b90915550600081815260208190526040902081815590915060018101611f8b8a82612ad7565b5060028101611f9a8982612ad7565b50600381018790556004810186905560058101859055600681018490556007810183905560088101805460ff19166001179055600060098201819055600a8083018290556064600b840155805491611ff183612916565b9190505550817fa40bf27e85ad8b209a1c29f5befb108d9497747a98f4868caf957eedb89ceb8b8a89894260405161202c9493929190612b97565b60405180910390a2505050505050505050565b6000807ff0c57e16840df040f15088dc2f81fe391c3923bec73e23a9662efc9c229c6a005b92915050565b6120726122fc565b610f1b81612321565b610bbe6122fc565b61208b6122fc565b610bbe612329565b6120f86040518060400160405280601281526020017110dbdb9cd95c9d985d1a5d9948165a595b1960721b815250604051806080016040528060438152602001612c9960439139600261032067016345785d8a0000678ac7230489e80000601e611e04565b61215a6040518060400160405280600f81526020016e084c2d8c2dcc6cac8408ee4deeee8d608b1b8152506040518060600160405280603b8152602001612cfc603b913960056105dc66b1a2bc2ec500006802b5e3af16b1880000603c611e04565b6121c36040518060400160405280601581526020017448696768205969656c64204167677265737369766560581b815250604051806080016040528060418152602001612bf7604191396008610bb86702c68af0bb14000068056bc75e2d63100000605a611e04565b610bbe6040518060400160405280600c81526020016b44654669204661726d696e6760a01b815250604051806080016040528060418152602001612c386041913960066107d067016345785d8a0000680ad78ebc5ac6200000602d611e04565b600061222f83836129fe565b61223a906001612969565b42443360405160200161227293929190928352602083019190915260601b6bffffffffffffffffffffffff1916604082015260540190565b6040516020818303038152906040528051906020012060001c6122959190612bc6565b61229f9084612969565b9392505050565b6122af82612331565b6040516001600160a01b038316907fbc7cd75a20ee27fd9adebab32041f755214dbc6bffa90cc0225b39da2e5c2d3b90600090a28051156122f457611ae68282612396565b610c43612403565b612304612422565b610bbe57604051631afcd79f60e31b815260040160405180910390fd5b6118226122fc565b611df06122fc565b806001600160a01b03163b60000361236757604051634c9c8ce360e01b81526001600160a01b0382166004820152602401610a25565b600080516020612c7983398151915280546001600160a01b0319166001600160a01b0392909216919091179055565b6060600080846001600160a01b0316846040516123b39190612bda565b600060405180830381855af49150503d80600081146123ee576040519150601f19603f3d011682016040523d82523d6000602084013e6123f3565b606091505b5091509150611d6885838361243c565b3415610bbe5760405163b398979f60e01b815260040160405180910390fd5b600061242c61203f565b54600160401b900460ff16919050565b6060826124515761244c82612498565b61229f565b815115801561246857506001600160a01b0384163b155b1561249157604051639996b31560e01b81526001600160a01b0385166004820152602401610a25565b5092915050565b8051156124a757805160208201fd5b60405163d6bda27560e01b815260040160405180910390fd5b80356001600160a01b03811681146124d757600080fd5b919050565b6000602082840312156124ee57600080fd5b61229f826124c0565b60008151808452602080850194506020840160005b838110156125285781518752958201959082019060010161250c565b509495945050505050565b60608152600061254660608301866124f7565b828103602084015261255881866124f7565b9050828103604084015261256c81856124f7565b9695505050505050565b60006020828403121561258857600080fd5b5035919050565b60005b838110156125aa578181015183820152602001612592565b50506000910152565b600081518084526125cb81602086016020860161258f565b601f01601f19169290920160200192915050565b60006101608083526125f38184018f6125b3565b90508281036020840152612607818e6125b3565b604084019c909c5250506060810198909852608088019690965260a087019490945260c0860192909252151560e08501526101008401526101208301526101409091015292915050565b6000806040838503121561266457600080fd5b61266d836124c0565b946020939093013593505050565b634e487b7160e01b600052604160045260246000fd5b600067ffffffffffffffff808411156126ac576126ac61267b565b604051601f8501601f19908116603f011681019082821181831017156126d4576126d461267b565b816040528093508581528686860111156126ed57600080fd5b858560208301376000602087830101525050509392505050565b6000806040838503121561271a57600080fd5b612723836124c0565b9150602083013567ffffffffffffffff81111561273f57600080fd5b8301601f8101851361275057600080fd5b61275f85823560208401612691565b9150509250929050565b600082601f83011261277a57600080fd5b61229f83833560208501612691565b600080600080600080600060e0888a0312156127a457600080fd5b873567ffffffffffffffff808211156127bc57600080fd5b6127c88b838c01612769565b985060208a01359150808211156127de57600080fd5b506127eb8a828b01612769565b979a9799505050506040860135956060810135956080820135955060a0820135945060c09091013592509050565b60208152600061229f60208301846125b3565b60006101808e83528060208401526128468184018f6125b3565b9050828103604084015261285a818e6125b3565b606084019c909c525050608081019890985260a088019690965260c087019490945260e08601929092521515610100850152610120840152610140830152610160909101529392505050565b6040815260006128b960408301856124f7565b90508260208301529392505050565b600080604083850312156128db57600080fd5b50508035926020909101359150565b634e487b7160e01b600052603260045260246000fd5b634e487b7160e01b600052601160045260246000fd5b60006001820161292857612928612900565b5060010190565b600181811c9082168061294357607f821691505b60208210810361296357634e487b7160e01b600052602260045260246000fd5b50919050565b8082018082111561206457612064612900565b634e487b7160e01b600052601260045260246000fd5b6000826129a1576129a161297c565b500490565b808202811582820484141761206457612064612900565b6000602082840312156129cf57600080fd5b5051919050565b80820182811260008312801582168215821617156129f6576129f6612900565b505092915050565b8181038181111561206457612064612900565b818103600083128015838313168383128216171561249157612491612900565b80820260008212600160ff1b84141615612a4d57612a4d612900565b818105831482151761206457612064612900565b600082612a7057612a7061297c565b600160ff1b821460001984141615612a8a57612a8a612900565b500590565b601f821115611ae6576000816000526020600020601f850160051c81016020861015612ab85750805b601f850160051c820191505b8181101561115257828155600101612ac4565b815167ffffffffffffffff811115612af157612af161267b565b612b0581612aff845461292f565b84612a8f565b602080601f831160018114612b3a5760008415612b225750858301515b600019600386901b1c1916600185901b178555611152565b600085815260208120601f198616915b82811015612b6957888601518255948401946001909101908401612b4a565b5085821015612b875787850151600019600388901b60f8161c191681555b5050505050600190811b01905550565b608081526000612baa60808301876125b3565b6020830195909552506040810192909252606090910152919050565b600082612bd557612bd561297c565b500690565b60008251612bec81846020870161258f565b919091019291505056fe486967682d7269736b20737472617465677920746172676574696e67206d6178696d756d207969656c6420776974682068696768657220766f6c6174696c697479537472617465677920666f6375736564206f6e20446546692070726f746f636f6c206661726d696e6720616e64206c69717569646974792070726f766973696f6e360894a13ba1a3210667c828492db98dca3e2076cc3735a920a3ca505d382bbc4c6f772d7269736b20737472617465677920666f637573696e67206f6e20737461626c65207969656c64732077697468206d696e696d616c20766f6c6174696c6974799b779b17422d0df92223018b32b4d1fa46e071723d6817e2486d003becc55f004d6f646572617465207269736b2073747261746567792062616c616e63696e67207969656c6420616e642067726f77746820706f74656e7469616ca2646970667358221220224f59513ec9ed5c63652870bf4e1098c1983b59efc5ff38b772c0cfe0835e1664736f6c63430008160033","opcodes":"PUSH1 0xA0 PUSH1 0x40 MSTORE ADDRESS PUSH1 0x80 MSTORE CALLVALUE DUP1 ISZERO PUSH3 0x15 JUMPI PUSH1 0x0 DUP1 REVERT JUMPDEST POP PUSH3 0x20 PUSH3 0x26 JUMP JUMPDEST PUSH3 0xDA JUMP JUMPDEST PUSH32 0xF0C57E16840DF040F15088DC2F81FE391C3923BEC73E23A9662EFC9C229C6A00 DUP1 SLOAD PUSH9 0x10000000000000000 SWAP1 DIV PUSH1 0xFF AND ISZERO PUSH3 0x77 JUMPI PUSH1 0x40 MLOAD PUSH4 0xF92EE8A9 PUSH1 0xE0 SHL DUP2 MSTORE PUSH1 0x4 ADD PUSH1 0x40 MLOAD DUP1 SWAP2 SUB SWAP1 REVERT JUMPDEST DUP1 SLOAD PUSH1 0x1 PUSH1 0x1 PUSH1 0x40 SHL SUB SWAP1 DUP2 AND EQ PUSH3 0xD7 JUMPI DUP1 SLOAD PUSH1 0x1 PUSH1 0x1 PUSH1 0x40 SHL SUB NOT AND PUSH1 0x1 PUSH1 0x1 PUSH1 0x40 SHL SUB SWAP1 DUP2 OR DUP3 SSTORE PUSH1 0x40 MLOAD SWAP1 DUP2 MSTORE PUSH32 0xC7F505B2F371AE2175EE4913F4499E1F2633A7B5936321EED1CDAEB6115181D2 SWAP1 PUSH1 0x20 ADD PUSH1 0x40 MLOAD DUP1 SWAP2 SUB SWAP1 LOG1 JUMPDEST POP JUMP JUMPDEST PUSH1 0x80 MLOAD PUSH2 0x2D6C PUSH3 0x104 PUSH1 0x0 CODECOPY PUSH1 0x0 DUP2 DUP2 PUSH2 0x1987 ADD MSTORE DUP2 DUP2 PUSH2 0x19B0 ADD MSTORE PUSH2 0x1AF6 ADD MSTORE PUSH2 0x2D6C PUSH1 0x0 RETURN INVALID PUSH1 0x80 PUSH1 0x40 MSTORE PUSH1 0x4 CALLDATASIZE LT PUSH2 0x1F9 JUMPI PUSH1 0x0 CALLDATALOAD PUSH1 0xE0 SHR DUP1 PUSH4 0x8DA5CB5B GT PUSH2 0x10D JUMPI DUP1 PUSH4 0xD574EA3D GT PUSH2 0xA0 JUMPI DUP1 PUSH4 0xE42836E2 GT PUSH2 0x6F JUMPI DUP1 PUSH4 0xE42836E2 EQ PUSH2 0x633 JUMPI DUP1 PUSH4 0xF2FDE38B EQ PUSH2 0x653 JUMPI DUP1 PUSH4 0xF96D7B80 EQ PUSH2 0x673 JUMPI DUP1 PUSH4 0xFD0E841A EQ PUSH2 0x507 JUMPI DUP1 PUSH4 0xFE25333A EQ PUSH2 0x689 JUMPI PUSH1 0x0 DUP1 REVERT JUMPDEST DUP1 PUSH4 0xD574EA3D EQ PUSH2 0x5A2 JUMPI DUP1 PUSH4 0xDF25D079 EQ PUSH2 0x5DA JUMPI DUP1 PUSH4 0xE382662D EQ PUSH2 0x5EF JUMPI DUP1 PUSH4 0xE3C8F127 EQ PUSH2 0x61D JUMPI PUSH1 0x0 DUP1 REVERT JUMPDEST DUP1 PUSH4 0xB806A23E GT PUSH2 0xDC JUMPI DUP1 PUSH4 0xB806A23E EQ PUSH2 0x51C JUMPI DUP1 PUSH4 0xBFC975D1 EQ PUSH2 0x54D JUMPI DUP1 PUSH4 0xC4D66DE8 EQ PUSH2 0x56D JUMPI DUP1 PUSH4 0xCC831785 EQ PUSH2 0x58D JUMPI PUSH1 0x0 DUP1 REVERT JUMPDEST DUP1 PUSH4 0x8DA5CB5B EQ PUSH2 0x462 JUMPI DUP1 PUSH4 0x9373E58A EQ PUSH2 0x4A9 JUMPI DUP1 PUSH4 0xAD3CB1CC EQ PUSH2 0x4C9 JUMPI DUP1 PUSH4 0xB3A591A5 EQ PUSH2 0x507 JUMPI PUSH1 0x0 DUP1 REVERT JUMPDEST DUP1 PUSH4 0x390BC5F2 GT PUSH2 0x190 JUMPI DUP1 PUSH4 0x52D1902D GT PUSH2 0x15F JUMPI DUP1 PUSH4 0x52D1902D EQ PUSH2 0x3EE JUMPI DUP1 PUSH4 0x5E5BC962 EQ PUSH2 0x403 JUMPI DUP1 PUSH4 0x6BC23272 EQ PUSH2 0x418 JUMPI DUP1 PUSH4 0x715018A6 EQ PUSH2 0x42D JUMPI DUP1 PUSH4 0x746065F8 EQ PUSH2 0x442 JUMPI PUSH1 0x0 DUP1 REVERT JUMPDEST DUP1 PUSH4 0x390BC5F2 EQ PUSH2 0x33A JUMPI DUP1 PUSH4 0x3BF8B3CC EQ PUSH2 0x367 JUMPI DUP1 PUSH4 0x3E9F9E49 EQ PUSH2 0x37E JUMPI DUP1 PUSH4 0x4F1EF286 EQ PUSH2 0x3DB JUMPI PUSH1 0x0 DUP1 REVERT JUMPDEST DUP1 PUSH4 0xEF28951 GT PUSH2 0x1CC JUMPI DUP1 PUSH4 0xEF28951 EQ PUSH2 0x2B0 JUMPI DUP1 PUSH4 0x175805FE EQ PUSH2 0x2C6 JUMPI DUP1 PUSH4 0x185F8447 EQ PUSH2 0x2ED JUMPI DUP1 PUSH4 0x32A50C7F EQ PUSH2 0x303 JUMPI PUSH1 0x0 DUP1 REVERT JUMPDEST DUP1 PUSH4 0x4ED2B27 EQ PUSH2 0x1FE JUMPI DUP1 PUSH4 0xAFCE902 EQ PUSH2 0x226 JUMPI DUP1 PUSH4 0xBC65C0F EQ PUSH2 0x26B JUMPI DUP1 PUSH4 0xD21EA04 EQ PUSH2 0x29A JUMPI JUMPDEST PUSH1 0x0 DUP1 REVERT JUMPDEST CALLVALUE DUP1 ISZERO PUSH2 0x20A JUMPI PUSH1 0x0 DUP1 REVERT JUMPDEST POP PUSH2 0x213 PUSH1 0xA DUP2 JUMP JUMPDEST PUSH1 0x40 MLOAD SWAP1 DUP2 MSTORE PUSH1 0x20 ADD JUMPDEST PUSH1 0x40 MLOAD DUP1 SWAP2 SUB SWAP1 RETURN JUMPDEST CALLVALUE DUP1 ISZERO PUSH2 0x232 JUMPI PUSH1 0x0 DUP1 REVERT JUMPDEST POP PUSH1 0x4 SLOAD PUSH1 0x5 SLOAD PUSH1 0x6 SLOAD PUSH1 0x7 SLOAD PUSH1 0x8 SLOAD JUMPDEST PUSH1 0x40 DUP1 MLOAD SWAP6 DUP7 MSTORE PUSH1 0x20 DUP7 ADD SWAP5 SWAP1 SWAP5 MSTORE SWAP3 DUP5 ADD SWAP2 SWAP1 SWAP2 MSTORE PUSH1 0x60 DUP4 ADD MSTORE PUSH1 0x80 DUP3 ADD MSTORE PUSH1 0xA0 ADD PUSH2 0x21D JUMP JUMPDEST CALLVALUE DUP1 ISZERO PUSH2 0x277 JUMPI PUSH1 0x0 DUP1 REVERT JUMPDEST POP PUSH2 0x28B PUSH2 0x286 CALLDATASIZE PUSH1 0x4 PUSH2 0x24DC JUMP JUMPDEST PUSH2 0x6B6 JUMP JUMPDEST PUSH1 0x40 MLOAD PUSH2 0x21D SWAP4 SWAP3 SWAP2 SWAP1 PUSH2 0x2533 JUMP JUMPDEST CALLVALUE DUP1 ISZERO PUSH2 0x2A6 JUMPI PUSH1 0x0 DUP1 REVERT JUMPDEST POP PUSH2 0x213 PUSH2 0x3E8 DUP2 JUMP JUMPDEST CALLVALUE DUP1 ISZERO PUSH2 0x2BC JUMPI PUSH1 0x0 DUP1 REVERT JUMPDEST POP PUSH2 0x213 PUSH1 0xB SLOAD DUP2 JUMP JUMPDEST CALLVALUE DUP1 ISZERO PUSH2 0x2D2 JUMPI PUSH1 0x0 DUP1 REVERT JUMPDEST POP PUSH1 0x4 SLOAD PUSH1 0x5 SLOAD PUSH1 0x6 SLOAD PUSH1 0x7 SLOAD PUSH1 0x8 SLOAD PUSH2 0x243 SWAP5 SWAP4 SWAP3 SWAP2 SWAP1 DUP6 JUMP JUMPDEST CALLVALUE DUP1 ISZERO PUSH2 0x2F9 JUMPI PUSH1 0x0 DUP1 REVERT JUMPDEST POP PUSH2 0x213 PUSH1 0x9 SLOAD DUP2 JUMP JUMPDEST CALLVALUE DUP1 ISZERO PUSH2 0x30F JUMPI PUSH1 0x0 DUP1 REVERT JUMPDEST POP PUSH2 0x323 PUSH2 0x31E CALLDATASIZE PUSH1 0x4 PUSH2 0x2576 JUMP JUMPDEST PUSH2 0x9BA JUMP JUMPDEST PUSH1 0x40 MLOAD PUSH2 0x21D SWAP12 SWAP11 SWAP10 SWAP9 SWAP8 SWAP7 SWAP6 SWAP5 SWAP4 SWAP3 SWAP2 SWAP1 PUSH2 0x25DF JUMP JUMPDEST CALLVALUE DUP1 ISZERO PUSH2 0x346 JUMPI PUSH1 0x0 DUP1 REVERT JUMPDEST POP PUSH2 0x213 PUSH2 0x355 CALLDATASIZE PUSH1 0x4 PUSH2 0x24DC JUMP JUMPDEST PUSH1 0x3 PUSH1 0x20 MSTORE PUSH1 0x0 SWAP1 DUP2 MSTORE PUSH1 0x40 SWAP1 KECCAK256 SLOAD DUP2 JUMP JUMPDEST CALLVALUE DUP1 ISZERO PUSH2 0x373 JUMPI PUSH1 0x0 DUP1 REVERT JUMPDEST POP PUSH2 0x37C PUSH2 0xBAE JUMP JUMPDEST STOP JUMPDEST CALLVALUE DUP1 ISZERO PUSH2 0x38A JUMPI PUSH1 0x0 DUP1 REVERT JUMPDEST POP PUSH2 0x39E PUSH2 0x399 CALLDATASIZE PUSH1 0x4 PUSH2 0x2651 JUMP JUMPDEST PUSH2 0xBC0 JUMP JUMPDEST PUSH1 0x40 DUP1 MLOAD SWAP9 DUP10 MSTORE PUSH1 0x20 DUP10 ADD SWAP8 SWAP1 SWAP8 MSTORE SWAP6 DUP8 ADD SWAP5 SWAP1 SWAP5 MSTORE PUSH1 0x60 DUP7 ADD SWAP3 SWAP1 SWAP3 MSTORE PUSH1 0x80 DUP6 ADD MSTORE PUSH1 0xA0 DUP5 ADD MSTORE ISZERO ISZERO PUSH1 0xC0 DUP4 ADD MSTORE PUSH1 0xE0 DUP3 ADD MSTORE PUSH2 0x100 ADD PUSH2 0x21D JUMP JUMPDEST PUSH2 0x37C PUSH2 0x3E9 CALLDATASIZE PUSH1 0x4 PUSH2 0x2707 JUMP JUMPDEST PUSH2 0xC28 JUMP JUMPDEST CALLVALUE DUP1 ISZERO PUSH2 0x3FA JUMPI PUSH1 0x0 DUP1 REVERT JUMPDEST POP PUSH2 0x213 PUSH2 0xC47 JUMP JUMPDEST CALLVALUE DUP1 ISZERO PUSH2 0x40F JUMPI PUSH1 0x0 DUP1 REVERT JUMPDEST POP PUSH2 0x213 PUSH1 0x64 DUP2 JUMP JUMPDEST CALLVALUE DUP1 ISZERO PUSH2 0x424 JUMPI PUSH1 0x0 DUP1 REVERT JUMPDEST POP PUSH2 0x213 PUSH1 0x1 DUP2 JUMP JUMPDEST CALLVALUE DUP1 ISZERO PUSH2 0x439 JUMPI PUSH1 0x0 DUP1 REVERT JUMPDEST POP PUSH2 0x37C PUSH2 0xC64 JUMP JUMPDEST CALLVALUE DUP1 ISZERO PUSH2 0x44E JUMPI PUSH1 0x0 DUP1 REVERT JUMPDEST POP PUSH2 0x37C PUSH2 0x45D CALLDATASIZE PUSH1 0x4 PUSH2 0x2576 JUMP JUMPDEST PUSH2 0xC76 JUMP JUMPDEST CALLVALUE DUP1 ISZERO PUSH2 0x46E JUMPI PUSH1 0x0 DUP1 REVERT JUMPDEST POP PUSH32 0x9016D09D72D40FDAE2FD8CEAC6B6234C7706214FD39C1CD1E609A0528C199300 SLOAD PUSH1 0x40 MLOAD PUSH1 0x1 PUSH1 0x1 PUSH1 0xA0 SHL SUB SWAP1 SWAP2 AND DUP2 MSTORE PUSH1 0x20 ADD PUSH2 0x21D JUMP JUMPDEST CALLVALUE DUP1 ISZERO PUSH2 0x4B5 JUMPI PUSH1 0x0 DUP1 REVERT JUMPDEST POP PUSH2 0x37C PUSH2 0x4C4 CALLDATASIZE PUSH1 0x4 PUSH2 0x2789 JUMP JUMPDEST PUSH2 0xF1E JUMP JUMPDEST CALLVALUE DUP1 ISZERO PUSH2 0x4D5 JUMPI PUSH1 0x0 DUP1 REVERT JUMPDEST POP PUSH2 0x4FA PUSH1 0x40 MLOAD DUP1 PUSH1 0x40 ADD PUSH1 0x40 MSTORE DUP1 PUSH1 0x5 DUP2 MSTORE PUSH1 0x20 ADD PUSH5 0x352E302E3 PUSH1 0xDC SHL DUP2 MSTORE POP DUP2 JUMP JUMPDEST PUSH1 0x40 MLOAD PUSH2 0x21D SWAP2 SWAP1 PUSH2 0x2819 JUMP JUMPDEST CALLVALUE DUP1 ISZERO PUSH2 0x513 JUMPI PUSH1 0x0 DUP1 REVERT JUMPDEST POP PUSH2 0x213 PUSH1 0x19 DUP2 JUMP JUMPDEST CALLVALUE DUP1 ISZERO PUSH2 0x528 JUMPI PUSH1 0x0 DUP1 REVERT JUMPDEST POP PUSH1 0xA SLOAD PUSH1 0xB SLOAD PUSH1 0x9 SLOAD PUSH1 0x40 DUP1 MLOAD SWAP4 DUP5 MSTORE PUSH1 0x20 DUP5 ADD SWAP3 SWAP1 SWAP3 MSTORE SWAP1 DUP3 ADD MSTORE PUSH1 0x60 ADD PUSH2 0x21D JUMP JUMPDEST CALLVALUE DUP1 ISZERO PUSH2 0x559 JUMPI PUSH1 0x0 DUP1 REVERT JUMPDEST POP PUSH2 0x39E PUSH2 0x568 CALLDATASIZE PUSH1 0x4 PUSH2 0x2651 JUMP JUMPDEST PUSH2 0xF3E JUMP JUMPDEST CALLVALUE DUP1 ISZERO PUSH2 0x579 JUMPI PUSH1 0x0 DUP1 REVERT JUMPDEST POP PUSH2 0x37C PUSH2 0x588 CALLDATASIZE PUSH1 0x4 PUSH2 0x24DC JUMP JUMPDEST PUSH2 0x1039 JUMP JUMPDEST CALLVALUE DUP1 ISZERO PUSH2 0x599 JUMPI PUSH1 0x0 DUP1 REVERT JUMPDEST POP PUSH2 0x213 PUSH1 0x1E DUP2 JUMP JUMPDEST CALLVALUE DUP1 ISZERO PUSH2 0x5AE JUMPI PUSH1 0x0 DUP1 REVERT JUMPDEST POP PUSH2 0x5C2 PUSH2 0x5BD CALLDATASIZE PUSH1 0x4 PUSH2 0x2576 JUMP JUMPDEST PUSH2 0x115A JUMP JUMPDEST PUSH1 0x40 MLOAD PUSH2 0x21D SWAP13 SWAP12 SWAP11 SWAP10 SWAP9 SWAP8 SWAP7 SWAP6 SWAP5 SWAP4 SWAP3 SWAP2 SWAP1 PUSH2 0x282C JUMP JUMPDEST CALLVALUE DUP1 ISZERO PUSH2 0x5E6 JUMPI PUSH1 0x0 DUP1 REVERT JUMPDEST POP PUSH2 0x213 PUSH1 0x14 DUP2 JUMP JUMPDEST CALLVALUE DUP1 ISZERO PUSH2 0x5FB JUMPI PUSH1 0x0 DUP1 REVERT JUMPDEST POP PUSH2 0x60F PUSH2 0x60A CALLDATASIZE PUSH1 0x4 PUSH2 0x24DC JUMP JUMPDEST PUSH2 0x12CC JUMP JUMPDEST PUSH1 0x40 MLOAD PUSH2 0x21D SWAP3 SWAP2 SWAP1 PUSH2 0x28A6 JUMP JUMPDEST CALLVALUE DUP1 ISZERO PUSH2 0x629 JUMPI PUSH1 0x0 DUP1 REVERT JUMPDEST POP PUSH2 0x213 PUSH2 0x1388 DUP2 JUMP JUMPDEST CALLVALUE DUP1 ISZERO PUSH2 0x63F JUMPI PUSH1 0x0 DUP1 REVERT JUMPDEST POP PUSH2 0x37C PUSH2 0x64E CALLDATASIZE PUSH1 0x4 PUSH2 0x28C8 JUMP JUMPDEST PUSH2 0x150F JUMP JUMPDEST CALLVALUE DUP1 ISZERO PUSH2 0x65F JUMPI PUSH1 0x0 DUP1 REVERT JUMPDEST POP PUSH2 0x37C PUSH2 0x66E CALLDATASIZE PUSH1 0x4 PUSH2 0x24DC JUMP JUMPDEST PUSH2 0x181A JUMP JUMPDEST CALLVALUE DUP1 ISZERO PUSH2 0x67F JUMPI PUSH1 0x0 DUP1 REVERT JUMPDEST POP PUSH2 0x213 PUSH1 0xA SLOAD DUP2 JUMP JUMPDEST CALLVALUE DUP1 ISZERO PUSH2 0x695 JUMPI PUSH1 0x0 DUP1 REVERT JUMPDEST POP PUSH2 0x213 PUSH2 0x6A4 CALLDATASIZE PUSH1 0x4 PUSH2 0x24DC JUMP JUMPDEST PUSH1 0x2 PUSH1 0x20 MSTORE PUSH1 0x0 SWAP1 DUP2 MSTORE PUSH1 0x40 SWAP1 KECCAK256 SLOAD DUP2 JUMP JUMPDEST PUSH1 0x60 DUP1 PUSH1 0x60 PUSH1 0x0 DUP1 JUMPDEST PUSH1 0x1 PUSH1 0x1 PUSH1 0xA0 SHL SUB DUP7 AND PUSH1 0x0 SWAP1 DUP2 MSTORE PUSH1 0x1 PUSH1 0x20 MSTORE PUSH1 0x40 SWAP1 KECCAK256 SLOAD DUP2 LT ISZERO PUSH2 0x73B JUMPI PUSH1 0x1 PUSH1 0x1 PUSH1 0xA0 SHL SUB DUP7 AND PUSH1 0x0 SWAP1 DUP2 MSTORE PUSH1 0x1 PUSH1 0x20 MSTORE PUSH1 0x40 SWAP1 KECCAK256 DUP1 SLOAD DUP3 SWAP1 DUP2 LT PUSH2 0x709 JUMPI PUSH2 0x709 PUSH2 0x28EA JUMP JUMPDEST PUSH1 0x0 SWAP2 DUP3 MSTORE PUSH1 0x20 SWAP1 SWAP2 KECCAK256 PUSH1 0x6 PUSH1 0x8 SWAP1 SWAP3 MUL ADD ADD SLOAD PUSH1 0xFF AND ISZERO PUSH2 0x733 JUMPI DUP2 PUSH2 0x72F DUP2 PUSH2 0x2916 JUMP JUMPDEST SWAP3 POP POP JUMPDEST PUSH1 0x1 ADD PUSH2 0x6BF JUMP JUMPDEST POP DUP1 PUSH8 0xFFFFFFFFFFFFFFFF DUP2 GT ISZERO PUSH2 0x755 JUMPI PUSH2 0x755 PUSH2 0x267B JUMP JUMPDEST PUSH1 0x40 MLOAD SWAP1 DUP1 DUP3 MSTORE DUP1 PUSH1 0x20 MUL PUSH1 0x20 ADD DUP3 ADD PUSH1 0x40 MSTORE DUP1 ISZERO PUSH2 0x77E JUMPI DUP2 PUSH1 0x20 ADD PUSH1 0x20 DUP3 MUL DUP1 CALLDATASIZE DUP4 CALLDATACOPY ADD SWAP1 POP JUMPDEST POP SWAP4 POP DUP1 PUSH8 0xFFFFFFFFFFFFFFFF DUP2 GT ISZERO PUSH2 0x79A JUMPI PUSH2 0x79A PUSH2 0x267B JUMP JUMPDEST PUSH1 0x40 MLOAD SWAP1 DUP1 DUP3 MSTORE DUP1 PUSH1 0x20 MUL PUSH1 0x20 ADD DUP3 ADD PUSH1 0x40 MSTORE DUP1 ISZERO PUSH2 0x7C3 JUMPI DUP2 PUSH1 0x20 ADD PUSH1 0x20 DUP3 MUL DUP1 CALLDATASIZE DUP4 CALLDATACOPY ADD SWAP1 POP JUMPDEST POP SWAP3 POP DUP1 PUSH8 0xFFFFFFFFFFFFFFFF DUP2 GT ISZERO PUSH2 0x7DF JUMPI PUSH2 0x7DF PUSH2 0x267B JUMP JUMPDEST PUSH1 0x40 MLOAD SWAP1 DUP1 DUP3 MSTORE DUP1 PUSH1 0x20 MUL PUSH1 0x20 ADD DUP3 ADD PUSH1 0x40 MSTORE DUP1 ISZERO PUSH2 0x808 JUMPI DUP2 PUSH1 0x20 ADD PUSH1 0x20 DUP3 MUL DUP1 CALLDATASIZE DUP4 CALLDATACOPY ADD SWAP1 POP JUMPDEST POP SWAP2 POP PUSH1 0x0 DUP1 JUMPDEST PUSH1 0x1 PUSH1 0x1 PUSH1 0xA0 SHL SUB DUP8 AND PUSH1 0x0 SWAP1 DUP2 MSTORE PUSH1 0x1 PUSH1 0x20 MSTORE PUSH1 0x40 SWAP1 KECCAK256 SLOAD DUP2 LT ISZERO PUSH2 0x9B0 JUMPI PUSH1 0x1 PUSH1 0x1 PUSH1 0xA0 SHL SUB DUP8 AND PUSH1 0x0 SWAP1 DUP2 MSTORE PUSH1 0x1 PUSH1 0x20 MSTORE PUSH1 0x40 SWAP1 KECCAK256 DUP1 SLOAD DUP3 SWAP1 DUP2 LT PUSH2 0x859 JUMPI PUSH2 0x859 PUSH2 0x28EA JUMP JUMPDEST PUSH1 0x0 SWAP2 DUP3 MSTORE PUSH1 0x20 SWAP1 SWAP2 KECCAK256 PUSH1 0x6 PUSH1 0x8 SWAP1 SWAP3 MUL ADD ADD SLOAD PUSH1 0xFF AND ISZERO PUSH2 0x9A8 JUMPI PUSH1 0x1 PUSH1 0x1 PUSH1 0xA0 SHL SUB DUP8 AND PUSH1 0x0 SWAP1 DUP2 MSTORE PUSH1 0x1 PUSH1 0x20 MSTORE PUSH1 0x40 SWAP1 KECCAK256 DUP1 SLOAD DUP3 SWAP1 DUP2 LT PUSH2 0x89F JUMPI PUSH2 0x89F PUSH2 0x28EA JUMP JUMPDEST SWAP1 PUSH1 0x0 MSTORE PUSH1 0x20 PUSH1 0x0 KECCAK256 SWAP1 PUSH1 0x8 MUL ADD PUSH1 0x0 ADD SLOAD DUP7 DUP4 DUP2 MLOAD DUP2 LT PUSH2 0x8C3 JUMPI PUSH2 0x8C3 PUSH2 0x28EA JUMP JUMPDEST PUSH1 0x20 MUL PUSH1 0x20 ADD ADD DUP2 DUP2 MSTORE POP POP PUSH1 0x1 PUSH1 0x0 DUP9 PUSH1 0x1 PUSH1 0x1 PUSH1 0xA0 SHL SUB AND PUSH1 0x1 PUSH1 0x1 PUSH1 0xA0 SHL SUB AND DUP2 MSTORE PUSH1 0x20 ADD SWAP1 DUP2 MSTORE PUSH1 0x20 ADD PUSH1 0x0 KECCAK256 DUP2 DUP2 SLOAD DUP2 LT PUSH2 0x905 JUMPI PUSH2 0x905 PUSH2 0x28EA JUMP JUMPDEST SWAP1 PUSH1 0x0 MSTORE PUSH1 0x20 PUSH1 0x0 KECCAK256 SWAP1 PUSH1 0x8 MUL ADD PUSH1 0x1 ADD SLOAD DUP6 DUP4 DUP2 MLOAD DUP2 LT PUSH2 0x929 JUMPI PUSH2 0x929 PUSH2 0x28EA JUMP JUMPDEST PUSH1 0x20 MUL PUSH1 0x20 ADD ADD DUP2 DUP2 MSTORE POP POP PUSH1 0x1 PUSH1 0x0 DUP9 PUSH1 0x1 PUSH1 0x1 PUSH1 0xA0 SHL SUB AND PUSH1 0x1 PUSH1 0x1 PUSH1 0xA0 SHL SUB AND DUP2 MSTORE PUSH1 0x20 ADD SWAP1 DUP2 MSTORE PUSH1 0x20 ADD PUSH1 0x0 KECCAK256 DUP2 DUP2 SLOAD DUP2 LT PUSH2 0x96B JUMPI PUSH2 0x96B PUSH2 0x28EA JUMP JUMPDEST SWAP1 PUSH1 0x0 MSTORE PUSH1 0x20 PUSH1 0x0 KECCAK256 SWAP1 PUSH1 0x8 MUL ADD PUSH1 0x3 ADD SLOAD DUP5 DUP4 DUP2 MLOAD DUP2 LT PUSH2 0x98F JUMPI PUSH2 0x98F PUSH2 0x28EA JUMP JUMPDEST PUSH1 0x20 SWAP1 DUP2 MUL SWAP2 SWAP1 SWAP2 ADD ADD MSTORE DUP2 PUSH2 0x9A4 DUP2 PUSH2 0x2916 JUMP JUMPDEST SWAP3 POP POP JUMPDEST PUSH1 0x1 ADD PUSH2 0x80F JUMP JUMPDEST POP POP POP SWAP2 SWAP4 SWAP1 SWAP3 POP JUMP JUMPDEST PUSH1 0x60 DUP1 PUSH1 0x0 DUP1 PUSH1 0x0 DUP1 PUSH1 0x0 DUP1 PUSH1 0x0 DUP1 PUSH1 0x0 DUP1 PUSH1 0x0 DUP1 DUP15 DUP2 MSTORE PUSH1 0x20 ADD SWAP1 DUP2 MSTORE PUSH1 0x20 ADD PUSH1 0x0 KECCAK256 SWAP1 POP DUP1 PUSH1 0x0 ADD SLOAD PUSH1 0x0 SUB PUSH2 0xA2E JUMPI PUSH1 0x40 MLOAD PUSH3 0x461BCD PUSH1 0xE5 SHL DUP2 MSTORE PUSH1 0x20 PUSH1 0x4 DUP3 ADD MSTORE PUSH1 0x12 PUSH1 0x24 DUP3 ADD MSTORE PUSH18 0x14DD1C985D1959DE481B9BDD08199BDD5B99 PUSH1 0x72 SHL PUSH1 0x44 DUP3 ADD MSTORE PUSH1 0x64 ADD JUMPDEST PUSH1 0x40 MLOAD DUP1 SWAP2 SUB SWAP1 REVERT JUMPDEST DUP1 PUSH1 0x1 ADD DUP2 PUSH1 0x2 ADD DUP3 PUSH1 0x3 ADD SLOAD DUP4 PUSH1 0x4 ADD SLOAD DUP5 PUSH1 0x5 ADD SLOAD DUP6 PUSH1 0x6 ADD SLOAD DUP7 PUSH1 0x7 ADD SLOAD DUP8 PUSH1 0x8 ADD PUSH1 0x0 SWAP1 SLOAD SWAP1 PUSH2 0x100 EXP SWAP1 DIV PUSH1 0xFF AND DUP9 PUSH1 0x9 ADD SLOAD DUP10 PUSH1 0xA ADD SLOAD DUP11 PUSH1 0xB ADD SLOAD DUP11 DUP1 SLOAD PUSH2 0xA7C SWAP1 PUSH2 0x292F JUMP JUMPDEST DUP1 PUSH1 0x1F ADD PUSH1 0x20 DUP1 SWAP2 DIV MUL PUSH1 0x20 ADD PUSH1 0x40 MLOAD SWAP1 DUP2 ADD PUSH1 0x40 MSTORE DUP1 SWAP3 SWAP2 SWAP1 DUP2 DUP2 MSTORE PUSH1 0x20 ADD DUP3 DUP1 SLOAD PUSH2 0xAA8 SWAP1 PUSH2 0x292F JUMP JUMPDEST DUP1 ISZERO PUSH2 0xAF5 JUMPI DUP1 PUSH1 0x1F LT PUSH2 0xACA JUMPI PUSH2 0x100 DUP1 DUP4 SLOAD DIV MUL DUP4 MSTORE SWAP2 PUSH1 0x20 ADD SWAP2 PUSH2 0xAF5 JUMP JUMPDEST DUP3 ADD SWAP2 SWAP1 PUSH1 0x0 MSTORE PUSH1 0x20 PUSH1 0x0 KECCAK256 SWAP1 JUMPDEST DUP2 SLOAD DUP2 MSTORE SWAP1 PUSH1 0x1 ADD SWAP1 PUSH1 0x20 ADD DUP1 DUP4 GT PUSH2 0xAD8 JUMPI DUP3 SWAP1 SUB PUSH1 0x1F AND DUP3 ADD SWAP2 JUMPDEST POP POP POP POP POP SWAP11 POP DUP10 DUP1 SLOAD PUSH2 0xB08 SWAP1 PUSH2 0x292F JUMP JUMPDEST DUP1 PUSH1 0x1F ADD PUSH1 0x20 DUP1 SWAP2 DIV MUL PUSH1 0x20 ADD PUSH1 0x40 MLOAD SWAP1 DUP2 ADD PUSH1 0x40 MSTORE DUP1 SWAP3 SWAP2 SWAP1 DUP2 DUP2 MSTORE PUSH1 0x20 ADD DUP3 DUP1 SLOAD PUSH2 0xB34 SWAP1 PUSH2 0x292F JUMP JUMPDEST DUP1 ISZERO PUSH2 0xB81 JUMPI DUP1 PUSH1 0x1F LT PUSH2 0xB56 JUMPI PUSH2 0x100 DUP1 DUP4 SLOAD DIV MUL DUP4 MSTORE SWAP2 PUSH1 0x20 ADD SWAP2 PUSH2 0xB81 JUMP JUMPDEST DUP3 ADD SWAP2 SWAP1 PUSH1 0x0 MSTORE PUSH1 0x20 PUSH1 0x0 KECCAK256 SWAP1 JUMPDEST DUP2 SLOAD DUP2 MSTORE SWAP1 PUSH1 0x1 ADD SWAP1 PUSH1 0x20 ADD DUP1 DUP4 GT PUSH2 0xB64 JUMPI DUP3 SWAP1 SUB PUSH1 0x1F AND DUP3 ADD SWAP2 JUMPDEST POP POP POP POP POP SWAP10 POP SWAP12 POP SWAP12 POP SWAP12 POP SWAP12 POP SWAP12 POP SWAP12 POP SWAP12 POP SWAP12 POP SWAP12 POP SWAP12 POP SWAP12 POP POP SWAP2 SWAP4 SWAP6 SWAP8 SWAP10 SWAP12 SWAP1 SWAP3 SWAP5 SWAP7 SWAP9 SWAP11 POP JUMP JUMPDEST PUSH2 0xBB6 PUSH2 0x1855 JUMP JUMPDEST PUSH2 0xBBE PUSH2 0x18B0 JUMP JUMPDEST JUMP JUMPDEST PUSH1 0x1 PUSH1 0x20 MSTORE DUP2 PUSH1 0x0 MSTORE PUSH1 0x40 PUSH1 0x0 KECCAK256 DUP2 DUP2 SLOAD DUP2 LT PUSH2 0xBDC JUMPI PUSH1 0x0 DUP1 REVERT JUMPDEST PUSH1 0x0 SWAP2 DUP3 MSTORE PUSH1 0x20 SWAP1 SWAP2 KECCAK256 PUSH1 0x8 SWAP1 SWAP2 MUL ADD DUP1 SLOAD PUSH1 0x1 DUP3 ADD SLOAD PUSH1 0x2 DUP4 ADD SLOAD PUSH1 0x3 DUP5 ADD SLOAD PUSH1 0x4 DUP6 ADD SLOAD PUSH1 0x5 DUP7 ADD SLOAD PUSH1 0x6 DUP8 ADD SLOAD PUSH1 0x7 SWAP1 SWAP8 ADD SLOAD SWAP6 SWAP9 POP SWAP4 SWAP7 POP SWAP2 SWAP5 SWAP1 SWAP4 SWAP2 SWAP3 SWAP2 PUSH1 0xFF SWAP1 SWAP2 AND SWAP1 DUP9 JUMP JUMPDEST PUSH2 0xC30 PUSH2 0x197C JUMP JUMPDEST PUSH2 0xC39 DUP3 PUSH2 0x1A21 JUMP JUMPDEST PUSH2 0xC43 DUP3 DUP3 PUSH2 0x1A29 JUMP JUMPDEST POP POP JUMP JUMPDEST PUSH1 0x0 PUSH2 0xC51 PUSH2 0x1AEB JUMP JUMPDEST POP PUSH1 0x0 DUP1 MLOAD PUSH1 0x20 PUSH2 0x2C79 DUP4 CODECOPY DUP2 MLOAD SWAP2 MSTORE SWAP1 JUMP JUMPDEST PUSH2 0xC6C PUSH2 0x1855 JUMP JUMPDEST PUSH2 0xBBE PUSH1 0x0 PUSH2 0x1B34 JUMP JUMPDEST PUSH2 0xC7E PUSH2 0x1BA5 JUMP JUMPDEST CALLER PUSH1 0x0 SWAP1 DUP2 MSTORE PUSH1 0x1 PUSH1 0x20 MSTORE PUSH1 0x40 SWAP1 KECCAK256 SLOAD DUP2 LT PUSH2 0xCD5 JUMPI PUSH1 0x40 MLOAD PUSH3 0x461BCD PUSH1 0xE5 SHL DUP2 MSTORE PUSH1 0x20 PUSH1 0x4 DUP3 ADD MSTORE PUSH1 0x16 PUSH1 0x24 DUP3 ADD MSTORE PUSH22 0x92DCECC2D8D2C840E6E8E4C2E8CACEF240D2DCC8CAF PUSH1 0x53 SHL PUSH1 0x44 DUP3 ADD MSTORE PUSH1 0x64 ADD PUSH2 0xA25 JUMP JUMPDEST CALLER PUSH1 0x0 SWAP1 DUP2 MSTORE PUSH1 0x1 PUSH1 0x20 MSTORE PUSH1 0x40 DUP2 KECCAK256 DUP1 SLOAD DUP4 SWAP1 DUP2 LT PUSH2 0xCF6 JUMPI PUSH2 0xCF6 PUSH2 0x28EA JUMP JUMPDEST PUSH1 0x0 SWAP2 DUP3 MSTORE PUSH1 0x20 SWAP1 SWAP2 KECCAK256 PUSH1 0x8 SWAP1 SWAP2 MUL ADD PUSH1 0x6 DUP2 ADD SLOAD SWAP1 SWAP2 POP PUSH1 0xFF AND PUSH2 0xD53 JUMPI PUSH1 0x40 MLOAD PUSH3 0x461BCD PUSH1 0xE5 SHL DUP2 MSTORE PUSH1 0x20 PUSH1 0x4 DUP3 ADD MSTORE PUSH1 0x13 PUSH1 0x24 DUP3 ADD MSTORE PUSH19 0x5374726174656779206E6F7420616374697665 PUSH1 0x68 SHL PUSH1 0x44 DUP3 ADD MSTORE PUSH1 0x64 ADD PUSH2 0xA25 JUMP JUMPDEST DUP1 PUSH1 0x3 ADD SLOAD TIMESTAMP LT ISZERO PUSH2 0xDA7 JUMPI PUSH1 0x40 MLOAD PUSH3 0x461BCD PUSH1 0xE5 SHL DUP2 MSTORE PUSH1 0x20 PUSH1 0x4 DUP3 ADD MSTORE PUSH1 0x1A PUSH1 0x24 DUP3 ADD MSTORE PUSH32 0x5374726174656779206E6F7420636F6D706C6574656420796574000000000000 PUSH1 0x44 DUP3 ADD MSTORE PUSH1 0x64 ADD PUSH2 0xA25 JUMP JUMPDEST PUSH1 0x40 DUP1 MLOAD PUSH2 0x100 DUP2 ADD DUP3 MSTORE DUP3 SLOAD DUP2 MSTORE PUSH1 0x1 DUP4 ADD SLOAD PUSH1 0x20 DUP3 ADD MSTORE PUSH1 0x2 DUP4 ADD SLOAD SWAP2 DUP2 ADD SWAP2 SWAP1 SWAP2 MSTORE PUSH1 0x3 DUP3 ADD SLOAD PUSH1 0x60 DUP3 ADD MSTORE PUSH1 0x4 DUP3 ADD SLOAD PUSH1 0x80 DUP3 ADD MSTORE PUSH1 0x5 DUP3 ADD SLOAD PUSH1 0xA0 DUP3 ADD MSTORE PUSH1 0x6 DUP3 ADD SLOAD PUSH1 0xFF AND ISZERO ISZERO PUSH1 0xC0 DUP3 ADD MSTORE PUSH1 0x7 DUP3 ADD SLOAD PUSH1 0xE0 DUP3 ADD MSTORE PUSH1 0x0 SWAP1 PUSH2 0xE0F SWAP1 PUSH2 0x1BDD JUMP JUMPDEST PUSH1 0x5 DUP4 ADD DUP2 SWAP1 SSTORE PUSH1 0x6 DUP4 ADD DUP1 SLOAD PUSH1 0xFF NOT AND SWAP1 SSTORE PUSH1 0x40 DUP1 MLOAD PUSH2 0x100 DUP2 ADD DUP3 MSTORE DUP5 SLOAD DUP2 MSTORE PUSH1 0x1 DUP6 ADD SLOAD PUSH1 0x20 DUP3 ADD MSTORE PUSH1 0x2 DUP6 ADD SLOAD SWAP2 DUP2 ADD SWAP2 SWAP1 SWAP2 MSTORE PUSH1 0x3 DUP5 ADD SLOAD PUSH1 0x60 DUP3 ADD MSTORE PUSH1 0x4 DUP5 ADD SLOAD PUSH1 0x80 DUP3 ADD MSTORE PUSH1 0xA0 DUP2 ADD DUP3 SWAP1 MSTORE PUSH1 0x0 PUSH1 0xC0 DUP3 ADD DUP2 SWAP1 MSTORE PUSH1 0x7 DUP6 ADD SLOAD PUSH1 0xE0 DUP4 ADD MSTORE SWAP2 SWAP3 POP PUSH2 0xE81 SWAP1 PUSH2 0x1D01 JUMP JUMPDEST PUSH1 0x7 DUP5 ADD DUP2 SWAP1 SSTORE CALLER PUSH1 0x0 SWAP1 DUP2 MSTORE PUSH1 0x3 PUSH1 0x20 MSTORE PUSH1 0x40 DUP2 KECCAK256 DUP1 SLOAD SWAP3 SWAP4 POP DUP4 SWAP3 SWAP1 SWAP2 SWAP1 PUSH2 0xEAC SWAP1 DUP5 SWAP1 PUSH2 0x2969 JUMP JUMPDEST SWAP1 SWAP2 SSTORE POP POP DUP3 SLOAD PUSH2 0xEBD SWAP1 DUP3 PUSH2 0x1DA0 JUMP JUMPDEST DUP3 SLOAD PUSH1 0x40 DUP1 MLOAD DUP5 DUP2 MSTORE PUSH1 0x20 DUP2 ADD DUP5 SWAP1 MSTORE TIMESTAMP DUP2 DUP4 ADD MSTORE SWAP1 MLOAD CALLER SWAP2 PUSH32 0x33B648445E4FBCC091BAC2F983632CB7113A5BFA101421CC24C668D19147885D SWAP2 SWAP1 DUP2 SWAP1 SUB PUSH1 0x60 ADD SWAP1 LOG3 POP POP POP PUSH2 0xF1B PUSH1 0x1 PUSH1 0x0 DUP1 MLOAD PUSH1 0x20 PUSH2 0x2CDC DUP4 CODECOPY DUP2 MLOAD SWAP2 MSTORE SSTORE JUMP JUMPDEST POP JUMP JUMPDEST PUSH2 0xF26 PUSH2 0x1855 JUMP JUMPDEST PUSH2 0xF35 DUP8 DUP8 DUP8 DUP8 DUP8 DUP8 DUP8 PUSH2 0x1E04 JUMP JUMPDEST POP POP POP POP POP POP POP JUMP JUMPDEST PUSH1 0x1 PUSH1 0x1 PUSH1 0xA0 SHL SUB DUP3 AND PUSH1 0x0 SWAP1 DUP2 MSTORE PUSH1 0x1 PUSH1 0x20 MSTORE PUSH1 0x40 DUP2 KECCAK256 SLOAD DUP2 SWAP1 DUP2 SWAP1 DUP2 SWAP1 DUP2 SWAP1 DUP2 SWAP1 DUP2 SWAP1 DUP2 SWAP1 DUP10 LT PUSH2 0xFB3 JUMPI PUSH1 0x40 MLOAD PUSH3 0x461BCD PUSH1 0xE5 SHL DUP2 MSTORE PUSH1 0x20 PUSH1 0x4 DUP3 ADD MSTORE PUSH1 0x1C PUSH1 0x24 DUP3 ADD MSTORE PUSH32 0x537472617465677920696E646578206F7574206F6620626F756E647300000000 PUSH1 0x44 DUP3 ADD MSTORE PUSH1 0x64 ADD PUSH2 0xA25 JUMP JUMPDEST PUSH1 0x1 PUSH1 0x1 PUSH1 0xA0 SHL SUB DUP11 AND PUSH1 0x0 SWAP1 DUP2 MSTORE PUSH1 0x1 PUSH1 0x20 MSTORE PUSH1 0x40 DUP2 KECCAK256 DUP1 SLOAD DUP12 SWAP1 DUP2 LT PUSH2 0xFDD JUMPI PUSH2 0xFDD PUSH2 0x28EA JUMP JUMPDEST PUSH1 0x0 SWAP2 DUP3 MSTORE PUSH1 0x20 SWAP1 SWAP2 KECCAK256 PUSH1 0x8 SWAP1 SWAP2 MUL ADD DUP1 SLOAD PUSH1 0x1 DUP3 ADD SLOAD PUSH1 0x2 DUP4 ADD SLOAD PUSH1 0x3 DUP5 ADD SLOAD PUSH1 0x4 DUP6 ADD SLOAD PUSH1 0x5 DUP7 ADD SLOAD PUSH1 0x6 DUP8 ADD SLOAD PUSH1 0x7 SWAP1 SWAP8 ADD SLOAD SWAP6 SWAP16 POP SWAP4 SWAP14 POP SWAP2 SWAP12 POP SWAP10 POP SWAP8 POP SWAP6 POP PUSH1 0xFF SWAP1 SWAP2 AND SWAP4 POP SWAP2 POP POP SWAP3 SWAP6 SWAP9 POP SWAP3 SWAP6 SWAP9 SWAP1 SWAP4 SWAP7 POP JUMP JUMPDEST PUSH1 0x0 PUSH2 0x1043 PUSH2 0x203F JUMP JUMPDEST DUP1 SLOAD SWAP1 SWAP2 POP PUSH1 0xFF PUSH1 0x1 PUSH1 0x40 SHL DUP3 DIV AND ISZERO SWAP1 PUSH8 0xFFFFFFFFFFFFFFFF AND PUSH1 0x0 DUP2 ISZERO DUP1 ISZERO PUSH2 0x106B JUMPI POP DUP3 JUMPDEST SWAP1 POP PUSH1 0x0 DUP3 PUSH8 0xFFFFFFFFFFFFFFFF AND PUSH1 0x1 EQ DUP1 ISZERO PUSH2 0x1088 JUMPI POP ADDRESS EXTCODESIZE ISZERO JUMPDEST SWAP1 POP DUP2 ISZERO DUP1 ISZERO PUSH2 0x1096 JUMPI POP DUP1 ISZERO JUMPDEST ISZERO PUSH2 0x10B4 JUMPI PUSH1 0x40 MLOAD PUSH4 0xF92EE8A9 PUSH1 0xE0 SHL DUP2 MSTORE PUSH1 0x4 ADD PUSH1 0x40 MLOAD DUP1 SWAP2 SUB SWAP1 REVERT JUMPDEST DUP5 SLOAD PUSH8 0xFFFFFFFFFFFFFFFF NOT AND PUSH1 0x1 OR DUP6 SSTORE DUP4 ISZERO PUSH2 0x10DE JUMPI DUP5 SLOAD PUSH1 0xFF PUSH1 0x40 SHL NOT AND PUSH1 0x1 PUSH1 0x40 SHL OR DUP6 SSTORE JUMPDEST PUSH2 0x10E7 DUP7 PUSH2 0x206A JUMP JUMPDEST PUSH2 0x10EF PUSH2 0x207B JUMP JUMPDEST PUSH2 0x10F7 PUSH2 0x2083 JUMP JUMPDEST PUSH1 0x1 PUSH1 0x9 SSTORE PUSH2 0x1104 PUSH2 0x2093 JUMP JUMPDEST PUSH2 0x110C PUSH2 0x18B0 JUMP JUMPDEST DUP4 ISZERO PUSH2 0x1152 JUMPI DUP5 SLOAD PUSH1 0xFF PUSH1 0x40 SHL NOT AND DUP6 SSTORE PUSH1 0x40 MLOAD PUSH1 0x1 DUP2 MSTORE PUSH32 0xC7F505B2F371AE2175EE4913F4499E1F2633A7B5936321EED1CDAEB6115181D2 SWAP1 PUSH1 0x20 ADD PUSH1 0x40 MLOAD DUP1 SWAP2 SUB SWAP1 LOG1 JUMPDEST POP POP POP POP POP POP JUMP JUMPDEST PUSH1 0x0 PUSH1 0x20 DUP2 SWAP1 MSTORE SWAP1 DUP2 MSTORE PUSH1 0x40 SWAP1 KECCAK256 DUP1 SLOAD PUSH1 0x1 DUP3 ADD DUP1 SLOAD SWAP2 SWAP3 SWAP2 PUSH2 0x117C SWAP1 PUSH2 0x292F JUMP JUMPDEST DUP1 PUSH1 0x1F ADD PUSH1 0x20 DUP1 SWAP2 DIV MUL PUSH1 0x20 ADD PUSH1 0x40 MLOAD SWAP1 DUP2 ADD PUSH1 0x40 MSTORE DUP1 SWAP3 SWAP2 SWAP1 DUP2 DUP2 MSTORE PUSH1 0x20 ADD DUP3 DUP1 SLOAD PUSH2 0x11A8 SWAP1 PUSH2 0x292F JUMP JUMPDEST DUP1 ISZERO PUSH2 0x11F5 JUMPI DUP1 PUSH1 0x1F LT PUSH2 0x11CA JUMPI PUSH2 0x100 DUP1 DUP4 SLOAD DIV MUL DUP4 MSTORE SWAP2 PUSH1 0x20 ADD SWAP2 PUSH2 0x11F5 JUMP JUMPDEST DUP3 ADD SWAP2 SWAP1 PUSH1 0x0 MSTORE PUSH1 0x20 PUSH1 0x0 KECCAK256 SWAP1 JUMPDEST DUP2 SLOAD DUP2 MSTORE SWAP1 PUSH1 0x1 ADD SWAP1 PUSH1 0x20 ADD DUP1 DUP4 GT PUSH2 0x11D8 JUMPI DUP3 SWAP1 SUB PUSH1 0x1F AND DUP3 ADD SWAP2 JUMPDEST POP POP POP POP POP SWAP1 DUP1 PUSH1 0x2 ADD DUP1 SLOAD PUSH2 0x120A SWAP1 PUSH2 0x292F JUMP JUMPDEST DUP1 PUSH1 0x1F ADD PUSH1 0x20 DUP1 SWAP2 DIV MUL PUSH1 0x20 ADD PUSH1 0x40 MLOAD SWAP1 DUP2 ADD PUSH1 0x40 MSTORE DUP1 SWAP3 SWAP2 SWAP1 DUP2 DUP2 MSTORE PUSH1 0x20 ADD DUP3 DUP1 SLOAD PUSH2 0x1236 SWAP1 PUSH2 0x292F JUMP JUMPDEST DUP1 ISZERO PUSH2 0x1283 JUMPI DUP1 PUSH1 0x1F LT PUSH2 0x1258 JUMPI PUSH2 0x100 DUP1 DUP4 SLOAD DIV MUL DUP4 MSTORE SWAP2 PUSH1 0x20 ADD SWAP2 PUSH2 0x1283 JUMP JUMPDEST DUP3 ADD SWAP2 SWAP1 PUSH1 0x0 MSTORE PUSH1 0x20 PUSH1 0x0 KECCAK256 SWAP1 JUMPDEST DUP2 SLOAD DUP2 MSTORE SWAP1 PUSH1 0x1 ADD SWAP1 PUSH1 0x20 ADD DUP1 DUP4 GT PUSH2 0x1266 JUMPI DUP3 SWAP1 SUB PUSH1 0x1F AND DUP3 ADD SWAP2 JUMPDEST POP POP POP PUSH1 0x3 DUP5 ADD SLOAD PUSH1 0x4 DUP6 ADD SLOAD PUSH1 0x5 DUP7 ADD SLOAD PUSH1 0x6 DUP8 ADD SLOAD PUSH1 0x7 DUP9 ADD SLOAD PUSH1 0x8 DUP10 ADD SLOAD PUSH1 0x9 DUP11 ADD SLOAD PUSH1 0xA DUP12 ADD SLOAD PUSH1 0xB SWAP1 SWAP12 ADD SLOAD SWAP10 SWAP11 SWAP7 SWAP10 SWAP6 SWAP9 POP SWAP4 SWAP7 POP SWAP2 SWAP5 SWAP1 SWAP4 PUSH1 0xFF SWAP1 SWAP3 AND SWAP3 SWAP2 DUP13 JUMP JUMPDEST PUSH1 0x1 PUSH1 0x1 PUSH1 0xA0 SHL SUB DUP2 AND PUSH1 0x0 SWAP1 DUP2 MSTORE PUSH1 0x3 PUSH1 0x20 SWAP1 DUP2 MSTORE PUSH1 0x40 DUP1 DUP4 KECCAK256 SLOAD PUSH1 0x2 SWAP1 SWAP3 MSTORE DUP3 KECCAK256 SLOAD PUSH1 0x60 SWAP3 SWAP2 SWAP1 DUP1 DUP4 SUB PUSH2 0x1305 JUMPI PUSH1 0x3C SWAP3 POP PUSH2 0x1336 JUMP JUMPDEST PUSH1 0xA PUSH2 0x1311 DUP3 DUP5 PUSH2 0x2992 JUMP JUMPDEST PUSH2 0x131B SWAP2 SWAP1 PUSH2 0x2992 JUMP JUMPDEST PUSH2 0x1326 SWAP1 PUSH1 0x46 PUSH2 0x2969 JUMP JUMPDEST SWAP3 POP PUSH1 0x5F DUP4 GT ISZERO PUSH2 0x1336 JUMPI PUSH1 0x5F SWAP3 POP JUMPDEST PUSH1 0x40 DUP1 MLOAD PUSH1 0x3 DUP1 DUP3 MSTORE PUSH1 0x80 DUP3 ADD SWAP1 SWAP3 MSTORE PUSH1 0x0 SWAP2 PUSH1 0x20 DUP3 ADD PUSH1 0x60 DUP1 CALLDATASIZE DUP4 CALLDATACOPY ADD SWAP1 POP POP SWAP1 POP PUSH1 0x0 PUSH1 0x1 JUMPDEST PUSH1 0xA SLOAD DUP2 GT PUSH2 0x146F JUMPI PUSH1 0x0 DUP2 DUP2 MSTORE PUSH1 0x20 DUP2 SWAP1 MSTORE PUSH1 0x40 SWAP1 KECCAK256 PUSH1 0x8 ADD SLOAD PUSH1 0xFF AND ISZERO PUSH2 0x145D JUMPI PUSH1 0x0 DUP2 DUP2 MSTORE PUSH1 0x20 DUP2 SWAP1 MSTORE PUSH1 0x40 DUP2 KECCAK256 PUSH1 0x4 SLOAD SWAP1 SWAP2 SWAP1 PUSH1 0x3 LT DUP1 ISZERO SWAP1 PUSH2 0x13AA JUMPI POP PUSH1 0x3 DUP3 PUSH1 0x3 ADD SLOAD GT ISZERO JUMPDEST ISZERO PUSH2 0x13B7 JUMPI POP PUSH1 0x1 PUSH2 0x141C JUMP JUMPDEST PUSH1 0x4 SLOAD PUSH1 0x7 GT DUP1 ISZERO SWAP1 PUSH2 0x13CF JUMPI POP PUSH1 0x7 DUP3 PUSH1 0x3 ADD SLOAD LT ISZERO JUMPDEST ISZERO PUSH2 0x13DC JUMPI POP PUSH1 0x1 PUSH2 0x141C JUMP JUMPDEST PUSH1 0x4 DUP1 SLOAD LT DUP1 ISZERO SWAP1 PUSH2 0x13F1 JUMPI POP PUSH1 0x4 SLOAD PUSH1 0x6 LT ISZERO JUMPDEST DUP1 ISZERO PUSH2 0x1402 JUMPI POP PUSH1 0x4 DUP3 PUSH1 0x3 ADD SLOAD LT ISZERO JUMPDEST DUP1 ISZERO PUSH2 0x1413 JUMPI POP PUSH1 0x6 DUP3 PUSH1 0x3 ADD SLOAD GT ISZERO JUMPDEST ISZERO PUSH2 0x141C JUMPI POP PUSH1 0x1 JUMPDEST DUP1 DUP1 ISZERO PUSH2 0x1429 JUMPI POP PUSH1 0x3 DUP5 LT JUMPDEST ISZERO PUSH2 0x145A JUMPI DUP3 DUP6 DUP6 DUP2 MLOAD DUP2 LT PUSH2 0x1441 JUMPI PUSH2 0x1441 PUSH2 0x28EA JUMP JUMPDEST PUSH1 0x20 SWAP1 DUP2 MUL SWAP2 SWAP1 SWAP2 ADD ADD MSTORE DUP4 PUSH2 0x1456 DUP2 PUSH2 0x2916 JUMP JUMPDEST SWAP5 POP POP JUMPDEST POP POP JUMPDEST DUP1 PUSH2 0x1467 DUP2 PUSH2 0x2916 JUMP JUMPDEST SWAP2 POP POP PUSH2 0x135E JUMP JUMPDEST POP PUSH1 0x0 DUP2 PUSH8 0xFFFFFFFFFFFFFFFF DUP2 GT ISZERO PUSH2 0x148B JUMPI PUSH2 0x148B PUSH2 0x267B JUMP JUMPDEST PUSH1 0x40 MLOAD SWAP1 DUP1 DUP3 MSTORE DUP1 PUSH1 0x20 MUL PUSH1 0x20 ADD DUP3 ADD PUSH1 0x40 MSTORE DUP1 ISZERO PUSH2 0x14B4 JUMPI DUP2 PUSH1 0x20 ADD PUSH1 0x20 DUP3 MUL DUP1 CALLDATASIZE DUP4 CALLDATACOPY ADD SWAP1 POP JUMPDEST POP SWAP1 POP PUSH1 0x0 JUMPDEST DUP3 DUP2 LT ISZERO PUSH2 0x1501 JUMPI DUP4 DUP2 DUP2 MLOAD DUP2 LT PUSH2 0x14D4 JUMPI PUSH2 0x14D4 PUSH2 0x28EA JUMP JUMPDEST PUSH1 0x20 MUL PUSH1 0x20 ADD ADD MLOAD DUP3 DUP3 DUP2 MLOAD DUP2 LT PUSH2 0x14EE JUMPI PUSH2 0x14EE PUSH2 0x28EA JUMP JUMPDEST PUSH1 0x20 SWAP1 DUP2 MUL SWAP2 SWAP1 SWAP2 ADD ADD MSTORE PUSH1 0x1 ADD PUSH2 0x14BA JUMP JUMPDEST POP DUP1 SWAP7 POP POP POP POP POP POP SWAP2 POP SWAP2 JUMP JUMPDEST PUSH2 0x1517 PUSH2 0x1BA5 JUMP JUMPDEST PUSH1 0x0 DUP3 DUP2 MSTORE PUSH1 0x20 DUP2 SWAP1 MSTORE PUSH1 0x40 SWAP1 KECCAK256 PUSH1 0x8 ADD SLOAD PUSH1 0xFF AND PUSH2 0x156E JUMPI PUSH1 0x40 MLOAD PUSH3 0x461BCD PUSH1 0xE5 SHL DUP2 MSTORE PUSH1 0x20 PUSH1 0x4 DUP3 ADD MSTORE PUSH1 0x13 PUSH1 0x24 DUP3 ADD MSTORE PUSH19 0x5374726174656779206E6F7420616374697665 PUSH1 0x68 SHL PUSH1 0x44 DUP3 ADD MSTORE PUSH1 0x64 ADD PUSH2 0xA25 JUMP JUMPDEST PUSH1 0x0 DUP3 DUP2 MSTORE PUSH1 0x20 DUP2 SWAP1 MSTORE PUSH1 0x40 SWAP1 KECCAK256 PUSH1 0x5 ADD SLOAD DUP2 LT ISZERO PUSH2 0x15C7 JUMPI PUSH1 0x40 MLOAD PUSH3 0x461BCD PUSH1 0xE5 SHL DUP2 MSTORE PUSH1 0x20 PUSH1 0x4 DUP3 ADD MSTORE PUSH1 0x15 PUSH1 0x24 DUP3 ADD MSTORE PUSH21 0x4465706F7369742062656C6F77206D696E696D756D PUSH1 0x58 SHL PUSH1 0x44 DUP3 ADD MSTORE PUSH1 0x64 ADD PUSH2 0xA25 JUMP JUMPDEST PUSH1 0x0 DUP3 DUP2 MSTORE PUSH1 0x20 DUP2 SWAP1 MSTORE PUSH1 0x40 SWAP1 KECCAK256 PUSH1 0x6 ADD SLOAD DUP2 GT ISZERO PUSH2 0x1620 JUMPI PUSH1 0x40 MLOAD PUSH3 0x461BCD PUSH1 0xE5 SHL DUP2 MSTORE PUSH1 0x20 PUSH1 0x4 DUP3 ADD MSTORE PUSH1 0x15 PUSH1 0x24 DUP3 ADD MSTORE PUSH21 0x4465706F7369742061626F7665206D6178696D756D PUSH1 0x58 SHL PUSH1 0x44 DUP3 ADD MSTORE PUSH1 0x64 ADD PUSH2 0xA25 JUMP JUMPDEST PUSH1 0x0 DUP3 DUP2 MSTORE PUSH1 0x20 DUP2 SWAP1 MSTORE PUSH1 0x40 DUP2 KECCAK256 PUSH1 0x7 DUP2 ADD SLOAD PUSH1 0x4 DUP3 ADD SLOAD SWAP2 SWAP3 SWAP2 PUSH5 0x496CEBB800 SWAP2 SWAP1 PUSH2 0x164D SWAP1 DUP7 PUSH2 0x29A6 JUMP JUMPDEST PUSH2 0x1657 SWAP2 SWAP1 PUSH2 0x29A6 JUMP JUMPDEST PUSH2 0x1661 SWAP2 SWAP1 PUSH2 0x2992 JUMP JUMPDEST SWAP1 POP PUSH1 0x0 PUSH1 0x40 MLOAD DUP1 PUSH2 0x100 ADD PUSH1 0x40 MSTORE DUP1 DUP7 DUP2 MSTORE PUSH1 0x20 ADD DUP6 DUP2 MSTORE PUSH1 0x20 ADD TIMESTAMP DUP2 MSTORE PUSH1 0x20 ADD DUP5 PUSH1 0x7 ADD SLOAD PUSH3 0x15180 PUSH2 0x1696 SWAP2 SWAP1 PUSH2 0x29A6 JUMP JUMPDEST PUSH2 0x16A0 SWAP1 TIMESTAMP PUSH2 0x2969 JUMP JUMPDEST DUP2 MSTORE PUSH1 0x20 DUP1 DUP3 ADD DUP6 SWAP1 MSTORE PUSH1 0x0 PUSH1 0x40 DUP1 DUP5 ADD DUP3 SWAP1 MSTORE PUSH1 0x1 PUSH1 0x60 DUP1 DUP7 ADD DUP3 SWAP1 MSTORE PUSH1 0x80 SWAP6 DUP7 ADD DUP5 SWAP1 MSTORE CALLER DUP1 DUP6 MSTORE DUP3 DUP7 MSTORE DUP4 DUP6 KECCAK256 DUP1 SLOAD DUP1 DUP6 ADD DUP3 SSTORE SWAP1 DUP7 MSTORE DUP7 DUP7 KECCAK256 DUP10 MLOAD PUSH1 0x8 SWAP1 SWAP3 MUL ADD SWAP1 DUP2 SSTORE DUP9 DUP8 ADD MLOAD SWAP4 DUP2 ADD SWAP4 SWAP1 SWAP4 SSTORE DUP8 DUP5 ADD MLOAD PUSH1 0x2 DUP1 DUP6 ADD SWAP2 SWAP1 SWAP2 SSTORE SWAP2 DUP9 ADD MLOAD PUSH1 0x3 DUP5 ADD SSTORE SWAP6 DUP8 ADD MLOAD PUSH1 0x4 DUP4 ADD SSTORE PUSH1 0xA0 DUP8 ADD MLOAD PUSH1 0x5 DUP4 ADD SSTORE PUSH1 0xC0 DUP8 ADD MLOAD PUSH1 0x6 DUP4 ADD DUP1 SLOAD PUSH1 0xFF NOT AND SWAP2 ISZERO ISZERO SWAP2 SWAP1 SWAP2 OR SWAP1 SSTORE PUSH1 0xE0 DUP8 ADD MLOAD PUSH1 0x7 SWAP1 SWAP3 ADD SWAP2 SWAP1 SWAP2 SSTORE SWAP4 DUP3 MSTORE SWAP3 SWAP1 SWAP2 MSTORE SWAP1 DUP2 KECCAK256 DUP1 SLOAD SWAP3 SWAP4 POP SWAP1 PUSH2 0x175B DUP4 PUSH2 0x2916 JUMP JUMPDEST SWAP1 SWAP2 SSTORE POP POP PUSH1 0x9 DUP4 ADD DUP1 SLOAD SWAP1 PUSH1 0x0 PUSH2 0x1772 DUP4 PUSH2 0x2916 JUMP JUMPDEST SWAP2 SWAP1 POP SSTORE POP DUP4 DUP4 PUSH1 0xA ADD PUSH1 0x0 DUP3 DUP3 SLOAD PUSH2 0x178B SWAP2 SWAP1 PUSH2 0x2969 JUMP JUMPDEST SWAP1 SWAP2 SSTORE POP POP CALLER PUSH1 0x0 SWAP1 DUP2 MSTORE PUSH1 0x2 PUSH1 0x20 MSTORE PUSH1 0x40 SWAP1 KECCAK256 SLOAD PUSH1 0x1 SUB PUSH2 0x17BD JUMPI PUSH1 0xB DUP1 SLOAD SWAP1 PUSH1 0x0 PUSH2 0x17B7 DUP4 PUSH2 0x2916 JUMP JUMPDEST SWAP2 SWAP1 POP SSTORE POP JUMPDEST PUSH1 0x40 DUP1 MLOAD DUP6 DUP2 MSTORE PUSH1 0x20 DUP2 ADD DUP5 SWAP1 MSTORE TIMESTAMP DUP2 DUP4 ADD MSTORE SWAP1 MLOAD DUP7 SWAP2 CALLER SWAP2 PUSH32 0x762CF3BDA0D16F2F91A668D962B437B451106BCDC05B08E9FE446CD3309E2E27 SWAP2 DUP2 SWAP1 SUB PUSH1 0x60 ADD SWAP1 LOG3 POP POP POP PUSH2 0xC43 PUSH1 0x1 PUSH1 0x0 DUP1 MLOAD PUSH1 0x20 PUSH2 0x2CDC DUP4 CODECOPY DUP2 MLOAD SWAP2 MSTORE SSTORE JUMP JUMPDEST PUSH2 0x1822 PUSH2 0x1855 JUMP JUMPDEST PUSH1 0x1 PUSH1 0x1 PUSH1 0xA0 SHL SUB DUP2 AND PUSH2 0x184C JUMPI PUSH1 0x40 MLOAD PUSH4 0x1E4FBDF7 PUSH1 0xE0 SHL DUP2 MSTORE PUSH1 0x0 PUSH1 0x4 DUP3 ADD MSTORE PUSH1 0x24 ADD PUSH2 0xA25 JUMP JUMPDEST PUSH2 0xF1B DUP2 PUSH2 0x1B34 JUMP JUMPDEST CALLER PUSH2 0x1887 PUSH32 0x9016D09D72D40FDAE2FD8CEAC6B6234C7706214FD39C1CD1E609A0528C199300 SLOAD PUSH1 0x1 PUSH1 0x1 PUSH1 0xA0 SHL SUB AND SWAP1 JUMP JUMPDEST PUSH1 0x1 PUSH1 0x1 PUSH1 0xA0 SHL SUB AND EQ PUSH2 0xBBE JUMPI PUSH1 0x40 MLOAD PUSH4 0x118CDAA7 PUSH1 0xE0 SHL DUP2 MSTORE CALLER PUSH1 0x4 DUP3 ADD MSTORE PUSH1 0x24 ADD PUSH2 0xA25 JUMP JUMPDEST PUSH1 0x40 MLOAD DUP1 PUSH1 0xA0 ADD PUSH1 0x40 MSTORE DUP1 PUSH2 0x18C7 PUSH1 0x1 PUSH1 0xA PUSH2 0x2223 JUMP JUMPDEST DUP2 MSTORE PUSH1 0x20 ADD PUSH2 0x18D8 PUSH1 0x1 PUSH1 0xA PUSH2 0x2223 JUMP JUMPDEST DUP2 MSTORE PUSH1 0x20 ADD PUSH2 0x18E9 PUSH1 0x1 PUSH1 0xA PUSH2 0x2223 JUMP JUMPDEST DUP2 MSTORE PUSH1 0x20 ADD PUSH2 0x18FA PUSH1 0x1 PUSH1 0xA PUSH2 0x2223 JUMP JUMPDEST DUP2 MSTORE TIMESTAMP PUSH1 0x20 SWAP2 DUP3 ADD DUP2 SWAP1 MSTORE DUP3 MLOAD PUSH1 0x4 DUP2 SWAP1 SSTORE DUP4 DUP4 ADD MLOAD PUSH1 0x5 DUP2 SWAP1 SSTORE PUSH1 0x40 DUP1 DUP7 ADD MLOAD PUSH1 0x6 DUP2 SWAP1 SSTORE PUSH1 0x60 DUP1 DUP9 ADD MLOAD PUSH1 0x7 DUP2 SWAP1 SSTORE PUSH1 0x80 SWAP9 DUP10 ADD MLOAD PUSH1 0x8 SSTORE DUP4 MLOAD SWAP6 DUP7 MSTORE SWAP7 DUP6 ADD SWAP4 SWAP1 SWAP4 MSTORE DUP4 DUP3 ADD MSTORE SWAP1 DUP3 ADD SWAP4 SWAP1 SWAP4 MSTORE SWAP3 DUP4 ADD MSTORE MLOAD PUSH32 0x9D32A4039B2B9507FBF67196F289AD4A43218A4FEFBD3774DCBC1244740DE42 SWAP2 DUP2 SWAP1 SUB PUSH1 0xA0 ADD SWAP1 LOG1 JUMP JUMPDEST ADDRESS PUSH1 0x1 PUSH1 0x1 PUSH1 0xA0 SHL SUB PUSH32 0x0 AND EQ DUP1 PUSH2 0x1A03 JUMPI POP PUSH32 0x0 PUSH1 0x1 PUSH1 0x1 PUSH1 0xA0 SHL SUB AND PUSH2 0x19F7 PUSH1 0x0 DUP1 MLOAD PUSH1 0x20 PUSH2 0x2C79 DUP4 CODECOPY DUP2 MLOAD SWAP2 MSTORE SLOAD PUSH1 0x1 PUSH1 0x1 PUSH1 0xA0 SHL SUB AND SWAP1 JUMP JUMPDEST PUSH1 0x1 PUSH1 0x1 PUSH1 0xA0 SHL SUB AND EQ ISZERO JUMPDEST ISZERO PUSH2 0xBBE JUMPI PUSH1 0x40 MLOAD PUSH4 0x703E46DD PUSH1 0xE1 SHL DUP2 MSTORE PUSH1 0x4 ADD PUSH1 0x40 MLOAD DUP1 SWAP2 SUB SWAP1 REVERT JUMPDEST PUSH2 0xF1B PUSH2 0x1855 JUMP JUMPDEST DUP2 PUSH1 0x1 PUSH1 0x1 PUSH1 0xA0 SHL SUB AND PUSH4 0x52D1902D PUSH1 0x40 MLOAD DUP2 PUSH4 0xFFFFFFFF AND PUSH1 0xE0 SHL DUP2 MSTORE PUSH1 0x4 ADD PUSH1 0x20 PUSH1 0x40 MLOAD DUP1 DUP4 SUB DUP2 DUP7 GAS STATICCALL SWAP3 POP POP POP DUP1 ISZERO PUSH2 0x1A83 JUMPI POP PUSH1 0x40 DUP1 MLOAD PUSH1 0x1F RETURNDATASIZE SWAP1 DUP2 ADD PUSH1 0x1F NOT AND DUP3 ADD SWAP1 SWAP3 MSTORE PUSH2 0x1A80 SWAP2 DUP2 ADD SWAP1 PUSH2 0x29BD JUMP JUMPDEST PUSH1 0x1 JUMPDEST PUSH2 0x1AAB JUMPI PUSH1 0x40 MLOAD PUSH4 0x4C9C8CE3 PUSH1 0xE0 SHL DUP2 MSTORE PUSH1 0x1 PUSH1 0x1 PUSH1 0xA0 SHL SUB DUP4 AND PUSH1 0x4 DUP3 ADD MSTORE PUSH1 0x24 ADD PUSH2 0xA25 JUMP JUMPDEST PUSH1 0x0 DUP1 MLOAD PUSH1 0x20 PUSH2 0x2C79 DUP4 CODECOPY DUP2 MLOAD SWAP2 MSTORE DUP2 EQ PUSH2 0x1ADC JUMPI PUSH1 0x40 MLOAD PUSH4 0x2A875269 PUSH1 0xE2 SHL DUP2 MSTORE PUSH1 0x4 DUP2 ADD DUP3 SWAP1 MSTORE PUSH1 0x24 ADD PUSH2 0xA25 JUMP JUMPDEST PUSH2 0x1AE6 DUP4 DUP4 PUSH2 0x22A6 JUMP JUMPDEST POP POP POP JUMP JUMPDEST ADDRESS PUSH1 0x1 PUSH1 0x1 PUSH1 0xA0 SHL SUB PUSH32 0x0 AND EQ PUSH2 0xBBE JUMPI PUSH1 0x40 MLOAD PUSH4 0x703E46DD PUSH1 0xE1 SHL DUP2 MSTORE PUSH1 0x4 ADD PUSH1 0x40 MLOAD DUP1 SWAP2 SUB SWAP1 REVERT JUMPDEST PUSH32 0x9016D09D72D40FDAE2FD8CEAC6B6234C7706214FD39C1CD1E609A0528C199300 DUP1 SLOAD PUSH1 0x1 PUSH1 0x1 PUSH1 0xA0 SHL SUB NOT DUP2 AND PUSH1 0x1 PUSH1 0x1 PUSH1 0xA0 SHL SUB DUP5 DUP2 AND SWAP2 DUP3 OR DUP5 SSTORE PUSH1 0x40 MLOAD SWAP3 AND SWAP2 DUP3 SWAP1 PUSH32 0x8BE0079C531659141344CD1FD0A4F28419497F9722A3DAAFE3B4186F6B6457E0 SWAP1 PUSH1 0x0 SWAP1 LOG3 POP POP POP JUMP JUMPDEST PUSH1 0x0 DUP1 MLOAD PUSH1 0x20 PUSH2 0x2CDC DUP4 CODECOPY DUP2 MLOAD SWAP2 MSTORE DUP1 SLOAD PUSH1 0x1 NOT ADD PUSH2 0x1BD7 JUMPI PUSH1 0x40 MLOAD PUSH4 0x3EE5AEB5 PUSH1 0xE0 SHL DUP2 MSTORE PUSH1 0x4 ADD PUSH1 0x40 MLOAD DUP1 SWAP2 SUB SWAP1 REVERT JUMPDEST PUSH1 0x2 SWAP1 SSTORE JUMP JUMPDEST DUP1 MLOAD PUSH1 0x0 SWAP1 DUP2 MSTORE PUSH1 0x20 DUP2 SWAP1 MSTORE PUSH1 0x40 DUP2 KECCAK256 PUSH1 0x80 DUP4 ADD MLOAD PUSH1 0x4 SLOAD DUP4 SWAP1 PUSH1 0x64 SWAP1 PUSH2 0x1C05 SWAP1 PUSH1 0xA PUSH2 0x29A6 JUMP JUMPDEST PUSH2 0x1C0F SWAP2 SWAP1 PUSH2 0x2992 JUMP JUMPDEST SWAP1 POP PUSH1 0x0 PUSH1 0x64 PUSH1 0x4 PUSH1 0x1 ADD SLOAD PUSH1 0x5 PUSH2 0x1C27 SWAP2 SWAP1 PUSH2 0x29A6 JUMP JUMPDEST PUSH2 0x1C31 SWAP2 SWAP1 PUSH2 0x2992 JUMP JUMPDEST SWAP1 POP PUSH1 0x0 PUSH1 0x64 PUSH1 0x4 PUSH1 0x2 ADD SLOAD PUSH1 0xF PUSH2 0x1C49 SWAP2 SWAP1 PUSH2 0x29A6 JUMP JUMPDEST PUSH2 0x1C53 SWAP2 SWAP1 PUSH2 0x2992 JUMP JUMPDEST SWAP1 POP PUSH1 0x0 DUP2 PUSH2 0x1C62 DUP5 DUP7 PUSH2 0x29D6 JUMP JUMPDEST PUSH2 0x1C6C SWAP2 SWAP1 PUSH2 0x29D6 JUMP JUMPDEST SWAP1 POP PUSH1 0x5 DUP7 PUSH1 0x3 ADD SLOAD GT ISZERO PUSH2 0x1C9C JUMPI PUSH1 0x3 DUP7 ADD SLOAD PUSH2 0x1C8B SWAP1 PUSH1 0x2 PUSH2 0x29A6 JUMP JUMPDEST PUSH2 0x1C95 SWAP1 DUP3 PUSH2 0x29D6 JUMP JUMPDEST SWAP1 POP PUSH2 0x1CC4 JUMP JUMPDEST PUSH1 0x3 DUP7 ADD SLOAD PUSH2 0x1CAC SWAP1 PUSH1 0x6 PUSH2 0x29FE JUMP JUMPDEST PUSH2 0x1CB7 SWAP1 PUSH1 0x2 PUSH2 0x29A6 JUMP JUMPDEST PUSH2 0x1CC1 SWAP1 DUP3 PUSH2 0x2A11 JUMP JUMPDEST SWAP1 POP JUMPDEST PUSH1 0x0 PUSH1 0x64 PUSH2 0x1CD2 DUP4 DUP9 PUSH2 0x2A31 JUMP JUMPDEST PUSH2 0x1CDC SWAP2 SWAP1 PUSH2 0x2A61 JUMP JUMPDEST PUSH2 0x1CE6 SWAP1 DUP8 PUSH2 0x29D6 JUMP JUMPDEST SWAP1 POP PUSH1 0x0 DUP2 SLT ISZERO PUSH2 0x1CF5 JUMPI POP PUSH1 0x0 JUMPDEST SWAP9 SWAP8 POP POP POP POP POP POP POP POP JUMP JUMPDEST PUSH1 0x0 DUP2 PUSH1 0x80 ADD MLOAD PUSH1 0x0 SUB PUSH2 0x1D17 JUMPI POP PUSH1 0x0 SWAP2 SWAP1 POP JUMP JUMPDEST PUSH1 0x0 DUP3 PUSH1 0x80 ADD MLOAD DUP4 PUSH1 0xA0 ADD MLOAD PUSH1 0x64 PUSH2 0x1D2F SWAP2 SWAP1 PUSH2 0x29A6 JUMP JUMPDEST PUSH2 0x1D39 SWAP2 SWAP1 PUSH2 0x2992 JUMP JUMPDEST SWAP1 POP PUSH1 0x64 DUP1 DUP3 LT PUSH2 0x1D71 JUMPI PUSH1 0x0 PUSH2 0x1D51 PUSH1 0x64 DUP5 PUSH2 0x29FE JUMP JUMPDEST PUSH2 0x1D5C SWAP1 PUSH1 0x2 PUSH2 0x29A6 JUMP JUMPDEST SWAP1 POP PUSH2 0x1D68 DUP2 DUP4 PUSH2 0x2969 JUMP JUMPDEST SWAP6 SWAP5 POP POP POP POP POP JUMP JUMPDEST PUSH1 0x0 PUSH2 0x1D7E DUP4 PUSH1 0x64 PUSH2 0x29FE JUMP JUMPDEST PUSH2 0x1D89 SWAP1 PUSH1 0x1 PUSH2 0x29A6 JUMP JUMPDEST SWAP1 POP DUP2 DUP2 GT ISZERO PUSH2 0x1D96 JUMPI POP DUP1 JUMPDEST PUSH2 0x1D68 DUP2 DUP4 PUSH2 0x29FE JUMP JUMPDEST PUSH1 0x0 DUP3 DUP2 MSTORE PUSH1 0x20 DUP2 SWAP1 MSTORE PUSH1 0x40 DUP2 KECCAK256 PUSH1 0xB DUP2 ADD SLOAD SWAP1 SWAP2 PUSH1 0x2 PUSH1 0x64 DUP6 LT ISZERO PUSH2 0x1DC7 JUMPI PUSH1 0x0 PUSH2 0x1DCA JUMP JUMPDEST PUSH1 0x64 JUMPDEST PUSH2 0x1DD7 SWAP1 PUSH1 0xFF AND DUP5 PUSH2 0x2969 JUMP JUMPDEST PUSH2 0x1DE1 SWAP2 SWAP1 PUSH2 0x2992 JUMP JUMPDEST PUSH1 0xB SWAP1 SWAP4 ADD SWAP3 SWAP1 SWAP3 SSTORE POP POP POP POP JUMP JUMPDEST PUSH1 0x1 PUSH1 0x0 DUP1 MLOAD PUSH1 0x20 PUSH2 0x2CDC DUP4 CODECOPY DUP2 MLOAD SWAP2 MSTORE SSTORE JUMP JUMPDEST PUSH1 0x1 DUP6 LT ISZERO DUP1 ISZERO PUSH2 0x1E16 JUMPI POP PUSH1 0xA DUP6 GT ISZERO JUMPDEST PUSH2 0x1E57 JUMPI PUSH1 0x40 MLOAD PUSH3 0x461BCD PUSH1 0xE5 SHL DUP2 MSTORE PUSH1 0x20 PUSH1 0x4 DUP3 ADD MSTORE PUSH1 0x12 PUSH1 0x24 DUP3 ADD MSTORE PUSH18 0x125B9D985B1A59081C9A5CDAC81B195D995B PUSH1 0x72 SHL PUSH1 0x44 DUP3 ADD MSTORE PUSH1 0x64 ADD PUSH2 0xA25 JUMP JUMPDEST PUSH1 0x64 DUP5 LT ISZERO DUP1 ISZERO PUSH2 0x1E6A JUMPI POP PUSH2 0x1388 DUP5 GT ISZERO JUMPDEST PUSH2 0x1EAF JUMPI PUSH1 0x40 MLOAD PUSH3 0x461BCD PUSH1 0xE5 SHL DUP2 MSTORE PUSH1 0x20 PUSH1 0x4 DUP3 ADD MSTORE PUSH1 0x16 PUSH1 0x24 DUP3 ADD MSTORE PUSH22 0x125B9D985B1A5908195E1C1958DD1959081E5A595B19 PUSH1 0x52 SHL PUSH1 0x44 DUP3 ADD MSTORE PUSH1 0x64 ADD PUSH2 0xA25 JUMP JUMPDEST PUSH1 0x0 DUP4 GT DUP1 ISZERO PUSH2 0x1EBE JUMPI POP DUP3 DUP3 GT JUMPDEST PUSH2 0x1F03 JUMPI PUSH1 0x40 MLOAD PUSH3 0x461BCD PUSH1 0xE5 SHL DUP2 MSTORE PUSH1 0x20 PUSH1 0x4 DUP3 ADD MSTORE PUSH1 0x16 PUSH1 0x24 DUP3 ADD MSTORE PUSH22 0x496E76616C6964206465706F736974206C696D697473 PUSH1 0x50 SHL PUSH1 0x44 DUP3 ADD MSTORE PUSH1 0x64 ADD PUSH2 0xA25 JUMP JUMPDEST PUSH1 0x0 DUP2 GT DUP1 ISZERO PUSH2 0x1F15 JUMPI POP PUSH2 0x16D DUP2 GT ISZERO JUMPDEST PUSH2 0x1F54 JUMPI PUSH1 0x40 MLOAD PUSH3 0x461BCD PUSH1 0xE5 SHL DUP2 MSTORE PUSH1 0x20 PUSH1 0x4 DUP3 ADD MSTORE PUSH1 0x10 PUSH1 0x24 DUP3 ADD MSTORE PUSH16 0x24B73B30B634B210323AB930BA34B7B7 PUSH1 0x81 SHL PUSH1 0x44 DUP3 ADD MSTORE PUSH1 0x64 ADD PUSH2 0xA25 JUMP JUMPDEST PUSH1 0x9 DUP1 SLOAD PUSH1 0x0 SWAP2 DUP3 PUSH2 0x1F65 DUP4 PUSH2 0x2916 JUMP JUMPDEST SWAP1 SWAP2 SSTORE POP PUSH1 0x0 DUP2 DUP2 MSTORE PUSH1 0x20 DUP2 SWAP1 MSTORE PUSH1 0x40 SWAP1 KECCAK256 DUP2 DUP2 SSTORE SWAP1 SWAP2 POP PUSH1 0x1 DUP2 ADD PUSH2 0x1F8B DUP11 DUP3 PUSH2 0x2AD7 JUMP JUMPDEST POP PUSH1 0x2 DUP2 ADD PUSH2 0x1F9A DUP10 DUP3 PUSH2 0x2AD7 JUMP JUMPDEST POP PUSH1 0x3 DUP2 ADD DUP8 SWAP1 SSTORE PUSH1 0x4 DUP2 ADD DUP7 SWAP1 SSTORE PUSH1 0x5 DUP2 ADD DUP6 SWAP1 SSTORE PUSH1 0x6 DUP2 ADD DUP5 SWAP1 SSTORE PUSH1 0x7 DUP2 ADD DUP4 SWAP1 SSTORE PUSH1 0x8 DUP2 ADD DUP1 SLOAD PUSH1 0xFF NOT AND PUSH1 0x1 OR SWAP1 SSTORE PUSH1 0x0 PUSH1 0x9 DUP3 ADD DUP2 SWAP1 SSTORE PUSH1 0xA DUP1 DUP4 ADD DUP3 SWAP1 SSTORE PUSH1 0x64 PUSH1 0xB DUP5 ADD SSTORE DUP1 SLOAD SWAP2 PUSH2 0x1FF1 DUP4 PUSH2 0x2916 JUMP JUMPDEST SWAP2 SWAP1 POP SSTORE POP DUP2 PUSH32 0xA40BF27E85AD8B209A1C29F5BEFB108D9497747A98F4868CAF957EEDB89CEB8B DUP11 DUP10 DUP10 TIMESTAMP PUSH1 0x40 MLOAD PUSH2 0x202C SWAP5 SWAP4 SWAP3 SWAP2 SWAP1 PUSH2 0x2B97 JUMP JUMPDEST PUSH1 0x40 MLOAD DUP1 SWAP2 SUB SWAP1 LOG2 POP POP POP POP POP POP POP POP POP JUMP JUMPDEST PUSH1 0x0 DUP1 PUSH32 0xF0C57E16840DF040F15088DC2F81FE391C3923BEC73E23A9662EFC9C229C6A00 JUMPDEST SWAP3 SWAP2 POP POP JUMP JUMPDEST PUSH2 0x2072 PUSH2 0x22FC JUMP JUMPDEST PUSH2 0xF1B DUP2 PUSH2 0x2321 JUMP JUMPDEST PUSH2 0xBBE PUSH2 0x22FC JUMP JUMPDEST PUSH2 0x208B PUSH2 0x22FC JUMP JUMPDEST PUSH2 0xBBE PUSH2 0x2329 JUMP JUMPDEST PUSH2 0x20F8 PUSH1 0x40 MLOAD DUP1 PUSH1 0x40 ADD PUSH1 0x40 MSTORE DUP1 PUSH1 0x12 DUP2 MSTORE PUSH1 0x20 ADD PUSH18 0x10DBDB9CD95C9D985D1A5D9948165A595B19 PUSH1 0x72 SHL DUP2 MSTORE POP PUSH1 0x40 MLOAD DUP1 PUSH1 0x80 ADD PUSH1 0x40 MSTORE DUP1 PUSH1 0x43 DUP2 MSTORE PUSH1 0x20 ADD PUSH2 0x2C99 PUSH1 0x43 SWAP2 CODECOPY PUSH1 0x2 PUSH2 0x320 PUSH8 0x16345785D8A0000 PUSH8 0x8AC7230489E80000 PUSH1 0x1E PUSH2 0x1E04 JUMP JUMPDEST PUSH2 0x215A PUSH1 0x40 MLOAD DUP1 PUSH1 0x40 ADD PUSH1 0x40 MSTORE DUP1 PUSH1 0xF DUP2 MSTORE PUSH1 0x20 ADD PUSH15 0x84C2D8C2DCC6CAC8408EE4DEEEE8D PUSH1 0x8B SHL DUP2 MSTORE POP PUSH1 0x40 MLOAD DUP1 PUSH1 0x60 ADD PUSH1 0x40 MSTORE DUP1 PUSH1 0x3B DUP2 MSTORE PUSH1 0x20 ADD PUSH2 0x2CFC PUSH1 0x3B SWAP2 CODECOPY PUSH1 0x5 PUSH2 0x5DC PUSH7 0xB1A2BC2EC50000 PUSH9 0x2B5E3AF16B1880000 PUSH1 0x3C PUSH2 0x1E04 JUMP JUMPDEST PUSH2 0x21C3 PUSH1 0x40 MLOAD DUP1 PUSH1 0x40 ADD PUSH1 0x40 MSTORE DUP1 PUSH1 0x15 DUP2 MSTORE PUSH1 0x20 ADD PUSH21 0x48696768205969656C642041676772657373697665 PUSH1 0x58 SHL DUP2 MSTORE POP PUSH1 0x40 MLOAD DUP1 PUSH1 0x80 ADD PUSH1 0x40 MSTORE DUP1 PUSH1 0x41 DUP2 MSTORE PUSH1 0x20 ADD PUSH2 0x2BF7 PUSH1 0x41 SWAP2 CODECOPY PUSH1 0x8 PUSH2 0xBB8 PUSH8 0x2C68AF0BB140000 PUSH9 0x56BC75E2D63100000 PUSH1 0x5A PUSH2 0x1E04 JUMP JUMPDEST PUSH2 0xBBE PUSH1 0x40 MLOAD DUP1 PUSH1 0x40 ADD PUSH1 0x40 MSTORE DUP1 PUSH1 0xC DUP2 MSTORE PUSH1 0x20 ADD PUSH12 0x44654669204661726D696E67 PUSH1 0xA0 SHL DUP2 MSTORE POP PUSH1 0x40 MLOAD DUP1 PUSH1 0x80 ADD PUSH1 0x40 MSTORE DUP1 PUSH1 0x41 DUP2 MSTORE PUSH1 0x20 ADD PUSH2 0x2C38 PUSH1 0x41 SWAP2 CODECOPY PUSH1 0x6 PUSH2 0x7D0 PUSH8 0x16345785D8A0000 PUSH9 0xAD78EBC5AC6200000 PUSH1 0x2D PUSH2 0x1E04 JUMP JUMPDEST PUSH1 0x0 PUSH2 0x222F DUP4 DUP4 PUSH2 0x29FE JUMP JUMPDEST PUSH2 0x223A SWAP1 PUSH1 0x1 PUSH2 0x2969 JUMP JUMPDEST TIMESTAMP PREVRANDAO CALLER PUSH1 0x40 MLOAD PUSH1 0x20 ADD PUSH2 0x2272 SWAP4 SWAP3 SWAP2 SWAP1 SWAP3 DUP4 MSTORE PUSH1 0x20 DUP4 ADD SWAP2 SWAP1 SWAP2 MSTORE PUSH1 0x60 SHL PUSH12 0xFFFFFFFFFFFFFFFFFFFFFFFF NOT AND PUSH1 0x40 DUP3 ADD MSTORE PUSH1 0x54 ADD SWAP1 JUMP JUMPDEST PUSH1 0x40 MLOAD PUSH1 0x20 DUP2 DUP4 SUB SUB DUP2 MSTORE SWAP1 PUSH1 0x40 MSTORE DUP1 MLOAD SWAP1 PUSH1 0x20 ADD KECCAK256 PUSH1 0x0 SHR PUSH2 0x2295 SWAP2 SWAP1 PUSH2 0x2BC6 JUMP JUMPDEST PUSH2 0x229F SWAP1 DUP5 PUSH2 0x2969 JUMP JUMPDEST SWAP4 SWAP3 POP POP POP JUMP JUMPDEST PUSH2 0x22AF DUP3 PUSH2 0x2331 JUMP JUMPDEST PUSH1 0x40 MLOAD PUSH1 0x1 PUSH1 0x1 PUSH1 0xA0 SHL SUB DUP4 AND SWAP1 PUSH32 0xBC7CD75A20EE27FD9ADEBAB32041F755214DBC6BFFA90CC0225B39DA2E5C2D3B SWAP1 PUSH1 0x0 SWAP1 LOG2 DUP1 MLOAD ISZERO PUSH2 0x22F4 JUMPI PUSH2 0x1AE6 DUP3 DUP3 PUSH2 0x2396 JUMP JUMPDEST PUSH2 0xC43 PUSH2 0x2403 JUMP JUMPDEST PUSH2 0x2304 PUSH2 0x2422 JUMP JUMPDEST PUSH2 0xBBE JUMPI PUSH1 0x40 MLOAD PUSH4 0x1AFCD79F PUSH1 0xE3 SHL DUP2 MSTORE PUSH1 0x4 ADD PUSH1 0x40 MLOAD DUP1 SWAP2 SUB SWAP1 REVERT JUMPDEST PUSH2 0x1822 PUSH2 0x22FC JUMP JUMPDEST PUSH2 0x1DF0 PUSH2 0x22FC JUMP JUMPDEST DUP1 PUSH1 0x1 PUSH1 0x1 PUSH1 0xA0 SHL SUB AND EXTCODESIZE PUSH1 0x0 SUB PUSH2 0x2367 JUMPI PUSH1 0x40 MLOAD PUSH4 0x4C9C8CE3 PUSH1 0xE0 SHL DUP2 MSTORE PUSH1 0x1 PUSH1 0x1 PUSH1 0xA0 SHL SUB DUP3 AND PUSH1 0x4 DUP3 ADD MSTORE PUSH1 0x24 ADD PUSH2 0xA25 JUMP JUMPDEST PUSH1 0x0 DUP1 MLOAD PUSH1 0x20 PUSH2 0x2C79 DUP4 CODECOPY DUP2 MLOAD SWAP2 MSTORE DUP1 SLOAD PUSH1 0x1 PUSH1 0x1 PUSH1 0xA0 SHL SUB NOT AND PUSH1 0x1 PUSH1 0x1 PUSH1 0xA0 SHL SUB SWAP3 SWAP1 SWAP3 AND SWAP2 SWAP1 SWAP2 OR SWAP1 SSTORE JUMP JUMPDEST PUSH1 0x60 PUSH1 0x0 DUP1 DUP5 PUSH1 0x1 PUSH1 0x1 PUSH1 0xA0 SHL SUB AND DUP5 PUSH1 0x40 MLOAD PUSH2 0x23B3 SWAP2 SWAP1 PUSH2 0x2BDA JUMP JUMPDEST PUSH1 0x0 PUSH1 0x40 MLOAD DUP1 DUP4 SUB DUP2 DUP6 GAS DELEGATECALL SWAP2 POP POP RETURNDATASIZE DUP1 PUSH1 0x0 DUP2 EQ PUSH2 0x23EE JUMPI PUSH1 0x40 MLOAD SWAP2 POP PUSH1 0x1F NOT PUSH1 0x3F RETURNDATASIZE ADD AND DUP3 ADD PUSH1 0x40 MSTORE RETURNDATASIZE DUP3 MSTORE RETURNDATASIZE PUSH1 0x0 PUSH1 0x20 DUP5 ADD RETURNDATACOPY PUSH2 0x23F3 JUMP JUMPDEST PUSH1 0x60 SWAP2 POP JUMPDEST POP SWAP2 POP SWAP2 POP PUSH2 0x1D68 DUP6 DUP4 DUP4 PUSH2 0x243C JUMP JUMPDEST CALLVALUE ISZERO PUSH2 0xBBE JUMPI PUSH1 0x40 MLOAD PUSH4 0xB398979F PUSH1 0xE0 SHL DUP2 MSTORE PUSH1 0x4 ADD PUSH1 0x40 MLOAD DUP1 SWAP2 SUB SWAP1 REVERT JUMPDEST PUSH1 0x0 PUSH2 0x242C PUSH2 0x203F JUMP JUMPDEST SLOAD PUSH1 0x1 PUSH1 0x40 SHL SWAP1 DIV PUSH1 0xFF AND SWAP2 SWAP1 POP JUMP JUMPDEST PUSH1 0x60 DUP3 PUSH2 0x2451 JUMPI PUSH2 0x244C DUP3 PUSH2 0x2498 JUMP JUMPDEST PUSH2 0x229F JUMP JUMPDEST DUP2 MLOAD ISZERO DUP1 ISZERO PUSH2 0x2468 JUMPI POP PUSH1 0x1 PUSH1 0x1 PUSH1 0xA0 SHL SUB DUP5 AND EXTCODESIZE ISZERO JUMPDEST ISZERO PUSH2 0x2491 JUMPI PUSH1 0x40 MLOAD PUSH4 0x9996B315 PUSH1 0xE0 SHL DUP2 MSTORE PUSH1 0x1 PUSH1 0x1 PUSH1 0xA0 SHL SUB DUP6 AND PUSH1 0x4 DUP3 ADD MSTORE PUSH1 0x24 ADD PUSH2 0xA25 JUMP JUMPDEST POP SWAP3 SWAP2 POP POP JUMP JUMPDEST DUP1 MLOAD ISZERO PUSH2 0x24A7 JUMPI DUP1 MLOAD PUSH1 0x20 DUP3 ADD REVERT JUMPDEST PUSH1 0x40 MLOAD PUSH4 0xD6BDA275 PUSH1 0xE0 SHL DUP2 MSTORE PUSH1 0x4 ADD PUSH1 0x40 MLOAD DUP1 SWAP2 SUB SWAP1 REVERT JUMPDEST DUP1 CALLDATALOAD PUSH1 0x1 PUSH1 0x1 PUSH1 0xA0 SHL SUB DUP2 AND DUP2 EQ PUSH2 0x24D7 JUMPI PUSH1 0x0 DUP1 REVERT JUMPDEST SWAP2 SWAP1 POP JUMP JUMPDEST PUSH1 0x0 PUSH1 0x20 DUP3 DUP5 SUB SLT ISZERO PUSH2 0x24EE JUMPI PUSH1 0x0 DUP1 REVERT JUMPDEST PUSH2 0x229F DUP3 PUSH2 0x24C0 JUMP JUMPDEST PUSH1 0x0 DUP2 MLOAD DUP1 DUP5 MSTORE PUSH1 0x20 DUP1 DUP6 ADD SWAP5 POP PUSH1 0x20 DUP5 ADD PUSH1 0x0 JUMPDEST DUP4 DUP2 LT ISZERO PUSH2 0x2528 JUMPI DUP2 MLOAD DUP8 MSTORE SWAP6 DUP3 ADD SWAP6 SWAP1 DUP3 ADD SWAP1 PUSH1 0x1 ADD PUSH2 0x250C JUMP JUMPDEST POP SWAP5 SWAP6 SWAP5 POP POP POP POP POP JUMP JUMPDEST PUSH1 0x60 DUP2 MSTORE PUSH1 0x0 PUSH2 0x2546 PUSH1 0x60 DUP4 ADD DUP7 PUSH2 0x24F7 JUMP JUMPDEST DUP3 DUP2 SUB PUSH1 0x20 DUP5 ADD MSTORE PUSH2 0x2558 DUP2 DUP7 PUSH2 0x24F7 JUMP JUMPDEST SWAP1 POP DUP3 DUP2 SUB PUSH1 0x40 DUP5 ADD MSTORE PUSH2 0x256C DUP2 DUP6 PUSH2 0x24F7 JUMP JUMPDEST SWAP7 SWAP6 POP POP POP POP POP POP JUMP JUMPDEST PUSH1 0x0 PUSH1 0x20 DUP3 DUP5 SUB SLT ISZERO PUSH2 0x2588 JUMPI PUSH1 0x0 DUP1 REVERT JUMPDEST POP CALLDATALOAD SWAP2 SWAP1 POP JUMP JUMPDEST PUSH1 0x0 JUMPDEST DUP4 DUP2 LT ISZERO PUSH2 0x25AA JUMPI DUP2 DUP2 ADD MLOAD DUP4 DUP3 ADD MSTORE PUSH1 0x20 ADD PUSH2 0x2592 JUMP JUMPDEST POP POP PUSH1 0x0 SWAP2 ADD MSTORE JUMP JUMPDEST PUSH1 0x0 DUP2 MLOAD DUP1 DUP5 MSTORE PUSH2 0x25CB DUP2 PUSH1 0x20 DUP7 ADD PUSH1 0x20 DUP7 ADD PUSH2 0x258F JUMP JUMPDEST PUSH1 0x1F ADD PUSH1 0x1F NOT AND SWAP3 SWAP1 SWAP3 ADD PUSH1 0x20 ADD SWAP3 SWAP2 POP POP JUMP JUMPDEST PUSH1 0x0 PUSH2 0x160 DUP1 DUP4 MSTORE PUSH2 0x25F3 DUP2 DUP5 ADD DUP16 PUSH2 0x25B3 JUMP JUMPDEST SWAP1 POP DUP3 DUP2 SUB PUSH1 0x20 DUP5 ADD MSTORE PUSH2 0x2607 DUP2 DUP15 PUSH2 0x25B3 JUMP JUMPDEST PUSH1 0x40 DUP5 ADD SWAP13 SWAP1 SWAP13 MSTORE POP POP PUSH1 0x60 DUP2 ADD SWAP9 SWAP1 SWAP9 MSTORE PUSH1 0x80 DUP9 ADD SWAP7 SWAP1 SWAP7 MSTORE PUSH1 0xA0 DUP8 ADD SWAP5 SWAP1 SWAP5 MSTORE PUSH1 0xC0 DUP7 ADD SWAP3 SWAP1 SWAP3 MSTORE ISZERO ISZERO PUSH1 0xE0 DUP6 ADD MSTORE PUSH2 0x100 DUP5 ADD MSTORE PUSH2 0x120 DUP4 ADD MSTORE PUSH2 0x140 SWAP1 SWAP2 ADD MSTORE SWAP3 SWAP2 POP POP JUMP JUMPDEST PUSH1 0x0 DUP1 PUSH1 0x40 DUP4 DUP6 SUB SLT ISZERO PUSH2 0x2664 JUMPI PUSH1 0x0 DUP1 REVERT JUMPDEST PUSH2 0x266D DUP4 PUSH2 0x24C0 JUMP JUMPDEST SWAP5 PUSH1 0x20 SWAP4 SWAP1 SWAP4 ADD CALLDATALOAD SWAP4 POP POP POP JUMP JUMPDEST PUSH4 0x4E487B71 PUSH1 0xE0 SHL PUSH1 0x0 MSTORE PUSH1 0x41 PUSH1 0x4 MSTORE PUSH1 0x24 PUSH1 0x0 REVERT JUMPDEST PUSH1 0x0 PUSH8 0xFFFFFFFFFFFFFFFF DUP1 DUP5 GT ISZERO PUSH2 0x26AC JUMPI PUSH2 0x26AC PUSH2 0x267B JUMP JUMPDEST PUSH1 0x40 MLOAD PUSH1 0x1F DUP6 ADD PUSH1 0x1F NOT SWAP1 DUP2 AND PUSH1 0x3F ADD AND DUP2 ADD SWAP1 DUP3 DUP3 GT DUP2 DUP4 LT OR ISZERO PUSH2 0x26D4 JUMPI PUSH2 0x26D4 PUSH2 0x267B JUMP JUMPDEST DUP2 PUSH1 0x40 MSTORE DUP1 SWAP4 POP DUP6 DUP2 MSTORE DUP7 DUP7 DUP7 ADD GT ISZERO PUSH2 0x26ED JUMPI PUSH1 0x0 DUP1 REVERT JUMPDEST DUP6 DUP6 PUSH1 0x20 DUP4 ADD CALLDATACOPY PUSH1 0x0 PUSH1 0x20 DUP8 DUP4 ADD ADD MSTORE POP POP POP SWAP4 SWAP3 POP POP POP JUMP JUMPDEST PUSH1 0x0 DUP1 PUSH1 0x40 DUP4 DUP6 SUB SLT ISZERO PUSH2 0x271A JUMPI PUSH1 0x0 DUP1 REVERT JUMPDEST PUSH2 0x2723 DUP4 PUSH2 0x24C0 JUMP JUMPDEST SWAP2 POP PUSH1 0x20 DUP4 ADD CALLDATALOAD PUSH8 0xFFFFFFFFFFFFFFFF DUP2 GT ISZERO PUSH2 0x273F JUMPI PUSH1 0x0 DUP1 REVERT JUMPDEST DUP4 ADD PUSH1 0x1F DUP2 ADD DUP6 SGT PUSH2 0x2750 JUMPI PUSH1 0x0 DUP1 REVERT JUMPDEST PUSH2 0x275F DUP6 DUP3 CALLDATALOAD PUSH1 0x20 DUP5 ADD PUSH2 0x2691 JUMP JUMPDEST SWAP2 POP POP SWAP3 POP SWAP3 SWAP1 POP JUMP JUMPDEST PUSH1 0x0 DUP3 PUSH1 0x1F DUP4 ADD SLT PUSH2 0x277A JUMPI PUSH1 0x0 DUP1 REVERT JUMPDEST PUSH2 0x229F DUP4 DUP4 CALLDATALOAD PUSH1 0x20 DUP6 ADD PUSH2 0x2691 JUMP JUMPDEST PUSH1 0x0 DUP1 PUSH1 0x0 DUP1 PUSH1 0x0 DUP1 PUSH1 0x0 PUSH1 0xE0 DUP9 DUP11 SUB SLT ISZERO PUSH2 0x27A4 JUMPI PUSH1 0x0 DUP1 REVERT JUMPDEST DUP8 CALLDATALOAD PUSH8 0xFFFFFFFFFFFFFFFF DUP1 DUP3 GT ISZERO PUSH2 0x27BC JUMPI PUSH1 0x0 DUP1 REVERT JUMPDEST PUSH2 0x27C8 DUP12 DUP4 DUP13 ADD PUSH2 0x2769 JUMP JUMPDEST SWAP9 POP PUSH1 0x20 DUP11 ADD CALLDATALOAD SWAP2 POP DUP1 DUP3 GT ISZERO PUSH2 0x27DE JUMPI PUSH1 0x0 DUP1 REVERT JUMPDEST POP PUSH2 0x27EB DUP11 DUP3 DUP12 ADD PUSH2 0x2769 JUMP JUMPDEST SWAP8 SWAP11 SWAP8 SWAP10 POP POP POP POP PUSH1 0x40 DUP7 ADD CALLDATALOAD SWAP6 PUSH1 0x60 DUP2 ADD CALLDATALOAD SWAP6 PUSH1 0x80 DUP3 ADD CALLDATALOAD SWAP6 POP PUSH1 0xA0 DUP3 ADD CALLDATALOAD SWAP5 POP PUSH1 0xC0 SWAP1 SWAP2 ADD CALLDATALOAD SWAP3 POP SWAP1 POP JUMP JUMPDEST PUSH1 0x20 DUP2 MSTORE PUSH1 0x0 PUSH2 0x229F PUSH1 0x20 DUP4 ADD DUP5 PUSH2 0x25B3 JUMP JUMPDEST PUSH1 0x0 PUSH2 0x180 DUP15 DUP4 MSTORE DUP1 PUSH1 0x20 DUP5 ADD MSTORE PUSH2 0x2846 DUP2 DUP5 ADD DUP16 PUSH2 0x25B3 JUMP JUMPDEST SWAP1 POP DUP3 DUP2 SUB PUSH1 0x40 DUP5 ADD MSTORE PUSH2 0x285A DUP2 DUP15 PUSH2 0x25B3 JUMP JUMPDEST PUSH1 0x60 DUP5 ADD SWAP13 SWAP1 SWAP13 MSTORE POP POP PUSH1 0x80 DUP2 ADD SWAP9 SWAP1 SWAP9 MSTORE PUSH1 0xA0 DUP9 ADD SWAP7 SWAP1 SWAP7 MSTORE PUSH1 0xC0 DUP8 ADD SWAP5 SWAP1 SWAP5 MSTORE PUSH1 0xE0 DUP7 ADD SWAP3 SWAP1 SWAP3 MSTORE ISZERO ISZERO PUSH2 0x100 DUP6 ADD MSTORE PUSH2 0x120 DUP5 ADD MSTORE PUSH2 0x140 DUP4 ADD MSTORE PUSH2 0x160 SWAP1 SWAP2 ADD MSTORE SWAP4 SWAP3 POP POP POP JUMP JUMPDEST PUSH1 0x40 DUP2 MSTORE PUSH1 0x0 PUSH2 0x28B9 PUSH1 0x40 DUP4 ADD DUP6 PUSH2 0x24F7 JUMP JUMPDEST SWAP1 POP DUP3 PUSH1 0x20 DUP4 ADD MSTORE SWAP4 SWAP3 POP POP POP JUMP JUMPDEST PUSH1 0x0 DUP1 PUSH1 0x40 DUP4 DUP6 SUB SLT ISZERO PUSH2 0x28DB JUMPI PUSH1 0x0 DUP1 REVERT JUMPDEST POP POP DUP1 CALLDATALOAD SWAP3 PUSH1 0x20 SWAP1 SWAP2 ADD CALLDATALOAD SWAP2 POP JUMP JUMPDEST PUSH4 0x4E487B71 PUSH1 0xE0 SHL PUSH1 0x0 MSTORE PUSH1 0x32 PUSH1 0x4 MSTORE PUSH1 0x24 PUSH1 0x0 REVERT JUMPDEST PUSH4 0x4E487B71 PUSH1 0xE0 SHL PUSH1 0x0 MSTORE PUSH1 0x11 PUSH1 0x4 MSTORE PUSH1 0x24 PUSH1 0x0 REVERT JUMPDEST PUSH1 0x0 PUSH1 0x1 DUP3 ADD PUSH2 0x2928 JUMPI PUSH2 0x2928 PUSH2 0x2900 JUMP JUMPDEST POP PUSH1 0x1 ADD SWAP1 JUMP JUMPDEST PUSH1 0x1 DUP2 DUP2 SHR SWAP1 DUP3 AND DUP1 PUSH2 0x2943 JUMPI PUSH1 0x7F DUP3 AND SWAP2 POP JUMPDEST PUSH1 0x20 DUP3 LT DUP2 SUB PUSH2 0x2963 JUMPI PUSH4 0x4E487B71 PUSH1 0xE0 SHL PUSH1 0x0 MSTORE PUSH1 0x22 PUSH1 0x4 MSTORE PUSH1 0x24 PUSH1 0x0 REVERT JUMPDEST POP SWAP2 SWAP1 POP JUMP JUMPDEST DUP1 DUP3 ADD DUP1 DUP3 GT ISZERO PUSH2 0x2064 JUMPI PUSH2 0x2064 PUSH2 0x2900 JUMP JUMPDEST PUSH4 0x4E487B71 PUSH1 0xE0 SHL PUSH1 0x0 MSTORE PUSH1 0x12 PUSH1 0x4 MSTORE PUSH1 0x24 PUSH1 0x0 REVERT JUMPDEST PUSH1 0x0 DUP3 PUSH2 0x29A1 JUMPI PUSH2 0x29A1 PUSH2 0x297C JUMP JUMPDEST POP DIV SWAP1 JUMP JUMPDEST DUP1 DUP3 MUL DUP2 ISZERO DUP3 DUP3 DIV DUP5 EQ OR PUSH2 0x2064 JUMPI PUSH2 0x2064 PUSH2 0x2900 JUMP JUMPDEST PUSH1 0x0 PUSH1 0x20 DUP3 DUP5 SUB SLT ISZERO PUSH2 0x29CF JUMPI PUSH1 0x0 DUP1 REVERT JUMPDEST POP MLOAD SWAP2 SWAP1 POP JUMP JUMPDEST DUP1 DUP3 ADD DUP3 DUP2 SLT PUSH1 0x0 DUP4 SLT DUP1 ISZERO DUP3 AND DUP3 ISZERO DUP3 AND OR ISZERO PUSH2 0x29F6 JUMPI PUSH2 0x29F6 PUSH2 0x2900 JUMP JUMPDEST POP POP SWAP3 SWAP2 POP POP JUMP JUMPDEST DUP2 DUP2 SUB DUP2 DUP2 GT ISZERO PUSH2 0x2064 JUMPI PUSH2 0x2064 PUSH2 0x2900 JUMP JUMPDEST DUP2 DUP2 SUB PUSH1 0x0 DUP4 SLT DUP1 ISZERO DUP4 DUP4 SGT AND DUP4 DUP4 SLT DUP3 AND OR ISZERO PUSH2 0x2491 JUMPI PUSH2 0x2491 PUSH2 0x2900 JUMP JUMPDEST DUP1 DUP3 MUL PUSH1 0x0 DUP3 SLT PUSH1 0x1 PUSH1 0xFF SHL DUP5 EQ AND ISZERO PUSH2 0x2A4D JUMPI PUSH2 0x2A4D PUSH2 0x2900 JUMP JUMPDEST DUP2 DUP2 SDIV DUP4 EQ DUP3 ISZERO OR PUSH2 0x2064 JUMPI PUSH2 0x2064 PUSH2 0x2900 JUMP JUMPDEST PUSH1 0x0 DUP3 PUSH2 0x2A70 JUMPI PUSH2 0x2A70 PUSH2 0x297C JUMP JUMPDEST PUSH1 0x1 PUSH1 0xFF SHL DUP3 EQ PUSH1 0x0 NOT DUP5 EQ AND ISZERO PUSH2 0x2A8A JUMPI PUSH2 0x2A8A PUSH2 0x2900 JUMP JUMPDEST POP SDIV SWAP1 JUMP JUMPDEST PUSH1 0x1F DUP3 GT ISZERO PUSH2 0x1AE6 JUMPI PUSH1 0x0 DUP2 PUSH1 0x0 MSTORE PUSH1 0x20 PUSH1 0x0 KECCAK256 PUSH1 0x1F DUP6 ADD PUSH1 0x5 SHR DUP2 ADD PUSH1 0x20 DUP7 LT ISZERO PUSH2 0x2AB8 JUMPI POP DUP1 JUMPDEST PUSH1 0x1F DUP6 ADD PUSH1 0x5 SHR DUP3 ADD SWAP2 POP JUMPDEST DUP2 DUP2 LT ISZERO PUSH2 0x1152 JUMPI DUP3 DUP2 SSTORE PUSH1 0x1 ADD PUSH2 0x2AC4 JUMP JUMPDEST DUP2 MLOAD PUSH8 0xFFFFFFFFFFFFFFFF DUP2 GT ISZERO PUSH2 0x2AF1 JUMPI PUSH2 0x2AF1 PUSH2 0x267B JUMP JUMPDEST PUSH2 0x2B05 DUP2 PUSH2 0x2AFF DUP5 SLOAD PUSH2 0x292F JUMP JUMPDEST DUP5 PUSH2 0x2A8F JUMP JUMPDEST PUSH1 0x20 DUP1 PUSH1 0x1F DUP4 GT PUSH1 0x1 DUP2 EQ PUSH2 0x2B3A JUMPI PUSH1 0x0 DUP5 ISZERO PUSH2 0x2B22 JUMPI POP DUP6 DUP4 ADD MLOAD JUMPDEST PUSH1 0x0 NOT PUSH1 0x3 DUP7 SWAP1 SHL SHR NOT AND PUSH1 0x1 DUP6 SWAP1 SHL OR DUP6 SSTORE PUSH2 0x1152 JUMP JUMPDEST PUSH1 0x0 DUP6 DUP2 MSTORE PUSH1 0x20 DUP2 KECCAK256 PUSH1 0x1F NOT DUP7 AND SWAP2 JUMPDEST DUP3 DUP2 LT ISZERO PUSH2 0x2B69 JUMPI DUP9 DUP7 ADD MLOAD DUP3 SSTORE SWAP5 DUP5 ADD SWAP5 PUSH1 0x1 SWAP1 SWAP2 ADD SWAP1 DUP5 ADD PUSH2 0x2B4A JUMP JUMPDEST POP DUP6 DUP3 LT ISZERO PUSH2 0x2B87 JUMPI DUP8 DUP6 ADD MLOAD PUSH1 0x0 NOT PUSH1 0x3 DUP9 SWAP1 SHL PUSH1 0xF8 AND SHR NOT AND DUP2 SSTORE JUMPDEST POP POP POP POP POP PUSH1 0x1 SWAP1 DUP2 SHL ADD SWAP1 SSTORE POP JUMP JUMPDEST PUSH1 0x80 DUP2 MSTORE PUSH1 0x0 PUSH2 0x2BAA PUSH1 0x80 DUP4 ADD DUP8 PUSH2 0x25B3 JUMP JUMPDEST PUSH1 0x20 DUP4 ADD SWAP6 SWAP1 SWAP6 MSTORE POP PUSH1 0x40 DUP2 ADD SWAP3 SWAP1 SWAP3 MSTORE PUSH1 0x60 SWAP1 SWAP2 ADD MSTORE SWAP2 SWAP1 POP JUMP JUMPDEST PUSH1 0x0 DUP3 PUSH2 0x2BD5 JUMPI PUSH2 0x2BD5 PUSH2 0x297C JUMP JUMPDEST POP MOD SWAP1 JUMP JUMPDEST PUSH1 0x0 DUP3 MLOAD PUSH2 0x2BEC DUP2 DUP5 PUSH1 0x20 DUP8 ADD PUSH2 0x258F JUMP JUMPDEST SWAP2 SWAP1 SWAP2 ADD SWAP3 SWAP2 POP POP JUMP INVALID BASEFEE PUSH10 0x67682D7269736B207374 PUSH19 0x617465677920746172676574696E67206D6178 PUSH10 0x6D756D207969656C6420 PUSH24 0x6974682068696768657220766F6C6174696C697479537472 PUSH2 0x7465 PUSH8 0x7920666F63757365 PUSH5 0x206F6E2044 PUSH6 0x46692070726F PUSH21 0x6F636F6C206661726D696E6720616E64206C697175 PUSH10 0x646974792070726F7669 PUSH20 0x696F6E360894A13BA1A3210667C828492DB98DCA RETURNDATACOPY KECCAK256 PUSH23 0xCC3735A920A3CA505D382BBC4C6F772D7269736B207374 PUSH19 0x617465677920666F637573696E67206F6E2073 PUSH21 0x61626C65207969656C64732077697468206D696E69 PUSH14 0x616C20766F6C6174696C6974799B PUSH24 0x9B17422D0DF92223018B32B4D1FA46E071723D6817E2486D STOP EXTCODESIZE 0xEC 0xC5 PUSH0 STOP 0x4D PUSH16 0x646572617465207269736B2073747261 PUSH21 0x6567792062616C616E63696E67207969656C642061 PUSH15 0x642067726F77746820706F74656E74 PUSH10 0x616CA264697066735822 SLT KECCAK256 0x22 0x4F MSIZE MLOAD RETURNDATACOPY 0xC9 0xED 0x5C PUSH4 0x652870BF 0x4E LT SWAP9 0xC1 SWAP9 EXTCODESIZE MSIZE 0xEF 0xC5 SELFDESTRUCT CODESIZE 0xB7 PUSH19 0xC0CFE0835E1664736F6C634300081600330000 "},"methodIdentifiers":{"LIQUIDITY_WEIGHT()":"b3a591a5","MAX_RISK_LEVEL()":"04ed2b27","MAX_YIELD()":"e3c8f127","MIN_RISK_LEVEL()":"6bc23272","MIN_YIELD()":"5e5bc962","PERFORMANCE_BONUS()":"0d21ea04","RISK_WEIGHT()":"df25d079","UPGRADE_INTERFACE_VERSION()":"ad3cb1cc","VOLATILITY_WEIGHT()":"cc831785","YIELD_TREND_WEIGHT()":"fd0e841a","adoptStrategy(uint256,uint256)":"e42836e2","completeStrategy(uint256)":"746065f8","createStrategy(string,string,uint256,uint256,uint256,uint256,uint256)":"9373e58a","currentMarketCondition()":"175805fe","generateAIRecommendations(address)":"e382662d","getAIStrategyStats()":"b806a23e","getCurrentMarketCondition()":"0afce902","getStrategyDetails(uint256)":"32a50c7f","getUserActiveStrategies(address)":"0bc65c0f","getUserStrategyPerformance(address,uint256)":"bfc975d1","initialize(address)":"c4d66de8","nextStrategyId()":"185f8447","owner()":"8da5cb5b","proxiableUUID()":"52d1902d","renounceOwnership()":"715018a6","strategies(uint256)":"d574ea3d","totalStrategies()":"f96d7b80","totalUsersWithStrategies()":"0ef28951","transferOwnership(address)":"f2fde38b","updateMarketCondition()":"3bf8b3cc","upgradeToAndCall(address,bytes)":"4f1ef286","userStrategies(address,uint256)":"3e9f9e49","userStrategyCount(address)":"fe25333a","userTotalPerformance(address)":"390bc5f2"}},"storageLayout":{"storage":[{"astId":1692,"contract":"contracts/AIStrategy.sol:AIStrategy","label":"strategies","offset":0,"slot":"0","type":"t_mapping(t_uint256,t_struct(Strategy)1600_storage)"},{"astId":1698,"contract":"contracts/AIStrategy.sol:AIStrategy","label":"userStrategies","offset":0,"slot":"1","type":"t_mapping(t_address,t_array(t_struct(UserStrategy)1617_storage)dyn_storage)"},{"astId":1702,"contract":"contracts/AIStrategy.sol:AIStrategy","label":"userStrategyCount","offset":0,"slot":"2","type":"t_mapping(t_address,t_uint256)"},{"astId":1706,"contract":"contracts/AIStrategy.sol:AIStrategy","label":"userTotalPerformance","offset":0,"slot":"3","type":"t_mapping(t_address,t_uint256)"},{"astId":1709,"contract":"contracts/AIStrategy.sol:AIStrategy","label":"currentMarketCondition","offset":0,"slot":"4","type":"t_struct(MarketCondition)1628_storage"},{"astId":1711,"contract":"contracts/AIStrategy.sol:AIStrategy","label":"nextStrategyId","offset":0,"slot":"9","type":"t_uint256"},{"astId":1713,"contract":"contracts/AIStrategy.sol:AIStrategy","label":"totalStrategies","offset":0,"slot":"10","type":"t_uint256"},{"astId":1715,"contract":"contracts/AIStrategy.sol:AIStrategy","label":"totalUsersWithStrategies","offset":0,"slot":"11","type":"t_uint256"}],"types":{"t_address":{"encoding":"inplace","label":"address","numberOfBytes":"20"},"t_array(t_struct(UserStrategy)1617_storage)dyn_storage":{"base":"t_struct(UserStrategy)1617_storage","encoding":"dynamic_array","label":"struct AIStrategy.UserStrategy[]","numberOfBytes":"32"},"t_bool":{"encoding":"inplace","label":"bool","numberOfBytes":"1"},"t_mapping(t_address,t_array(t_struct(UserStrategy)1617_storage)dyn_storage)":{"encoding":"mapping","key":"t_address","label":"mapping(address => struct AIStrategy.UserStrategy[])","numberOfBytes":"32","value":"t_array(t_struct(UserStrategy)1617_storage)dyn_storage"},"t_mapping(t_address,t_uint256)":{"encoding":"mapping","key":"t_address","label":"mapping(address => uint256)","numberOfBytes":"32","value":"t_uint256"},"t_mapping(t_uint256,t_struct(Strategy)1600_storage)":{"encoding":"mapping","key":"t_uint256","label":"mapping(uint256 => struct AIStrategy.Strategy)","numberOfBytes":"32","value":"t_struct(Strategy)1600_storage"},"t_string_storage":{"encoding":"bytes","label":"string","numberOfBytes":"32"},"t_struct(MarketCondition)1628_storage":{"encoding":"inplace","label":"struct AIStrategy.MarketCondition","members":[{"astId":1619,"contract":"contracts/AIStrategy.sol:AIStrategy","label":"volatility","offset":0,"slot":"0","type":"t_uint256"},{"astId":1621,"contract":"contracts/AIStrategy.sol:AIStrategy","label":"liquidity","offset":0,"slot":"1","type":"t_uint256"},{"astId":1623,"contract":"contracts/AIStrategy.sol:AIStrategy","label":"yieldTrend","offset":0,"slot":"2","type":"t_uint256"},{"astId":1625,"contract":"contracts/AIStrategy.sol:AIStrategy","label":"riskLevel","offset":0,"slot":"3","type":"t_uint256"},{"astId":1627,"contract":"contracts/AIStrategy.sol:AIStrategy","label":"timestamp","offset":0,"slot":"4","type":"t_uint256"}],"numberOfBytes":"160"},"t_struct(Strategy)1600_storage":{"encoding":"inplace","label":"struct AIStrategy.Strategy","members":[{"astId":1577,"contract":"contracts/AIStrategy.sol:AIStrategy","label":"strategyId","offset":0,"slot":"0","type":"t_uint256"},{"astId":1579,"contract":"contracts/AIStrategy.sol:AIStrategy","label":"name","offset":0,"slot":"1","type":"t_string_storage"},{"astId":1581,"contract":"contracts/AIStrategy.sol:AIStrategy","label":"description","offset":0,"slot":"2","type":"t_string_storage"},{"astId":1583,"contract":"contracts/AIStrategy.sol:AIStrategy","label":"riskLevel","offset":0,"slot":"3","type":"t_uint256"},{"astId":1585,"contract":"contracts/AIStrategy.sol:AIStrategy","label":"expectedYield","offset":0,"slot":"4","type":"t_uint256"},{"astId":1587,"contract":"contracts/AIStrategy.sol:AIStrategy","label":"minDeposit","offset":0,"slot":"5","type":"t_uint256"},{"astId":1589,"contract":"contracts/AIStrategy.sol:AIStrategy","label":"maxDeposit","offset":0,"slot":"6","type":"t_uint256"},{"astId":1591,"contract":"contracts/AIStrategy.sol:AIStrategy","label":"duration","offset":0,"slot":"7","type":"t_uint256"},{"astId":1593,"contract":"contracts/AIStrategy.sol:AIStrategy","label":"isActive","offset":0,"slot":"8","type":"t_bool"},{"astId":1595,"contract":"contracts/AIStrategy.sol:AIStrategy","label":"totalUsers","offset":0,"slot":"9","type":"t_uint256"},{"astId":1597,"contract":"contracts/AIStrategy.sol:AIStrategy","label":"totalVolume","offset":0,"slot":"10","type":"t_uint256"},{"astId":1599,"contract":"contracts/AIStrategy.sol:AIStrategy","label":"successRate","offset":0,"slot":"11","type":"t_uint256"}],"numberOfBytes":"384"},"t_struct(UserStrategy)1617_storage":{"encoding":"inplace","label":"struct AIStrategy.UserStrategy","members":[{"astId":1602,"contract":"contracts/AIStrategy.sol:AIStrategy","label":"strategyId","offset":0,"slot":"0","type":"t_uint256"},{"astId":1604,"contract":"contracts/AIStrategy.sol:AIStrategy","label":"depositAmount","offset":0,"slot":"1","type":"t_uint256"},{"astId":1606,"contract":"contracts/AIStrategy.sol:AIStrategy","label":"startTime","offset":0,"slot":"2","type":"t_uint256"},{"astId":1608,"contract":"contracts/AIStrategy.sol:AIStrategy","label":"endTime","offset":0,"slot":"3","type":"t_uint256"},{"astId":1610,"contract":"contracts/AIStrategy.sol:AIStrategy","label":"expectedReturn","offset":0,"slot":"4","type":"t_uint256"},{"astId":1612,"contract":"contracts/AIStrategy.sol:AIStrategy","label":"actualReturn","offset":0,"slot":"5","type":"t_uint256"},{"astId":1614,"contract":"contracts/AIStrategy.sol:AIStrategy","label":"isActive","offset":0,"slot":"6","type":"t_bool"},{"astId":1616,"contract":"contracts/AIStrategy.sol:AIStrategy","label":"performanceScore","offset":0,"slot":"7","type":"t_uint256"}],"numberOfBytes":"256"},"t_uint256":{"encoding":"inplace","label":"uint256","numberOfBytes":"32"}}}}}}